{
	"contracts/PBMTokenManager.sol": {
		"PBMTokenManager": {
			"abi": [
				{
					"inputs": [
						{
							"internalType": "string",
							"name": "_uriPostExpiry",
							"type": "string"
						}
					],
					"stateMutability": "nonpayable",
					"type": "constructor"
				},
				{
					"inputs": [
						{
							"internalType": "address",
							"name": "owner",
							"type": "address"
						}
					],
					"name": "OwnableInvalidOwner",
					"type": "error"
				},
				{
					"inputs": [
						{
							"internalType": "address",
							"name": "account",
							"type": "address"
						}
					],
					"name": "OwnableUnauthorizedAccount",
					"type": "error"
				},
				{
					"anonymous": false,
					"inputs": [
						{
							"indexed": true,
							"internalType": "address",
							"name": "previousOwner",
							"type": "address"
						},
						{
							"indexed": true,
							"internalType": "address",
							"name": "newOwner",
							"type": "address"
						}
					],
					"name": "OwnershipTransferred",
					"type": "event"
				},
				{
					"inputs": [],
					"name": "URIPostExpiry",
					"outputs": [
						{
							"internalType": "string",
							"name": "",
							"type": "string"
						}
					],
					"stateMutability": "view",
					"type": "function"
				},
				{
					"inputs": [
						{
							"internalType": "uint256[]",
							"name": "tokenIds",
							"type": "uint256[]"
						}
					],
					"name": "areTokensValid",
					"outputs": [
						{
							"internalType": "bool",
							"name": "",
							"type": "bool"
						}
					],
					"stateMutability": "view",
					"type": "function"
				},
				{
					"inputs": [
						{
							"internalType": "string",
							"name": "tokenName",
							"type": "string"
						},
						{
							"internalType": "uint256",
							"name": "spotAmount",
							"type": "uint256"
						},
						{
							"internalType": "uint256",
							"name": "tokenExpiry",
							"type": "uint256"
						},
						{
							"internalType": "address",
							"name": "creator",
							"type": "address"
						},
						{
							"internalType": "string",
							"name": "tokenURI",
							"type": "string"
						},
						{
							"internalType": "uint256",
							"name": "contractExpiry",
							"type": "uint256"
						}
					],
					"name": "createTokenType",
					"outputs": [
						{
							"internalType": "uint256",
							"name": "tokenId",
							"type": "uint256"
						}
					],
					"stateMutability": "nonpayable",
					"type": "function"
				},
				{
					"inputs": [
						{
							"internalType": "uint256[]",
							"name": "tokenIds",
							"type": "uint256[]"
						},
						{
							"internalType": "uint256[]",
							"name": "amounts",
							"type": "uint256[]"
						}
					],
					"name": "decreaseBalanceSupply",
					"outputs": [],
					"stateMutability": "nonpayable",
					"type": "function"
				},
				{
					"inputs": [
						{
							"internalType": "uint256",
							"name": "tokenId",
							"type": "uint256"
						}
					],
					"name": "getPBMRevokeValue",
					"outputs": [
						{
							"internalType": "uint256",
							"name": "",
							"type": "uint256"
						}
					],
					"stateMutability": "view",
					"type": "function"
				},
				{
					"inputs": [
						{
							"internalType": "uint256",
							"name": "tokenId",
							"type": "uint256"
						}
					],
					"name": "getTokenDetails",
					"outputs": [
						{
							"internalType": "string",
							"name": "",
							"type": "string"
						},
						{
							"internalType": "uint256",
							"name": "",
							"type": "uint256"
						},
						{
							"internalType": "uint256",
							"name": "",
							"type": "uint256"
						},
						{
							"internalType": "uint256",
							"name": "",
							"type": "uint256"
						},
						{
							"internalType": "address",
							"name": "",
							"type": "address"
						}
					],
					"stateMutability": "view",
					"type": "function"
				},
				{
					"inputs": [
						{
							"internalType": "string",
							"name": "tokenTypeName",
							"type": "string"
						},
						{
							"internalType": "uint256",
							"name": "spotAmount",
							"type": "uint256"
						}
					],
					"name": "getTokenIdByTypeName",
					"outputs": [
						{
							"internalType": "uint256",
							"name": "",
							"type": "uint256"
						}
					],
					"stateMutability": "view",
					"type": "function"
				},
				{
					"inputs": [
						{
							"internalType": "uint256",
							"name": "tokenId",
							"type": "uint256"
						}
					],
					"name": "getTokenValue",
					"outputs": [
						{
							"internalType": "uint256",
							"name": "",
							"type": "uint256"
						}
					],
					"stateMutability": "view",
					"type": "function"
				},
				{
					"inputs": [
						{
							"internalType": "uint256[]",
							"name": "tokenIds",
							"type": "uint256[]"
						},
						{
							"internalType": "uint256[]",
							"name": "amounts",
							"type": "uint256[]"
						}
					],
					"name": "increaseBalanceSupply",
					"outputs": [],
					"stateMutability": "nonpayable",
					"type": "function"
				},
				{
					"inputs": [],
					"name": "owner",
					"outputs": [
						{
							"internalType": "address",
							"name": "",
							"type": "address"
						}
					],
					"stateMutability": "view",
					"type": "function"
				},
				{
					"inputs": [],
					"name": "renounceOwnership",
					"outputs": [],
					"stateMutability": "nonpayable",
					"type": "function"
				},
				{
					"inputs": [
						{
							"internalType": "uint256",
							"name": "tokenId",
							"type": "uint256"
						},
						{
							"internalType": "address",
							"name": "sender",
							"type": "address"
						}
					],
					"name": "revokePBM",
					"outputs": [],
					"stateMutability": "nonpayable",
					"type": "function"
				},
				{
					"inputs": [],
					"name": "tokenTypeCount",
					"outputs": [
						{
							"internalType": "uint256",
							"name": "",
							"type": "uint256"
						}
					],
					"stateMutability": "view",
					"type": "function"
				},
				{
					"inputs": [
						{
							"internalType": "uint256",
							"name": "",
							"type": "uint256"
						}
					],
					"name": "tokenTypes",
					"outputs": [
						{
							"internalType": "string",
							"name": "name",
							"type": "string"
						},
						{
							"internalType": "uint256",
							"name": "amount",
							"type": "uint256"
						},
						{
							"internalType": "uint256",
							"name": "balanceSupply",
							"type": "uint256"
						},
						{
							"internalType": "uint256",
							"name": "expiry",
							"type": "uint256"
						},
						{
							"internalType": "address",
							"name": "creator",
							"type": "address"
						},
						{
							"internalType": "string",
							"name": "uri",
							"type": "string"
						}
					],
					"stateMutability": "view",
					"type": "function"
				},
				{
					"inputs": [
						{
							"internalType": "address",
							"name": "newOwner",
							"type": "address"
						}
					],
					"name": "transferOwnership",
					"outputs": [],
					"stateMutability": "nonpayable",
					"type": "function"
				},
				{
					"inputs": [
						{
							"internalType": "uint256",
							"name": "tokenId",
							"type": "uint256"
						}
					],
					"name": "uri",
					"outputs": [
						{
							"internalType": "string",
							"name": "",
							"type": "string"
						}
					],
					"stateMutability": "view",
					"type": "function"
				}
			],
			"devdoc": {
				"errors": {
					"OwnableInvalidOwner(address)": [
						{
							"details": "The owner is not a valid owner account. (eg. `address(0)`)"
						}
					],
					"OwnableUnauthorizedAccount(address)": [
						{
							"details": "The caller account is not authorized to perform an operation."
						}
					]
				},
				"kind": "dev",
				"methods": {
					"owner()": {
						"details": "Returns the address of the current owner."
					},
					"renounceOwnership()": {
						"details": "Leaves the contract without owner. It will not be possible to call `onlyOwner` functions. Can only be called by the current owner. NOTE: Renouncing ownership will leave the contract without an owner, thereby disabling any functionality that is only available to the owner."
					},
					"transferOwnership(address)": {
						"details": "Transfers ownership of the contract to a new account (`newOwner`). Can only be called by the current owner."
					}
				},
				"version": 1
			},
			"evm": {
				"assembly": "    /* \"contracts/PBMTokenManager.sol\":145:3588  contract PBMTokenManager is IPBMTokenManager, Ownable {... */\n  mstore(0x40, 0x80)\n    /* \"contracts/PBMTokenManager.sol\":329:446  constructor(string memory _uriPostExpiry) Ownable(msg.sender) { tokenTypeCount = 1; URIPostExpiry = _uriPostExpiry; } */\n  callvalue\n  dup1\n  iszero\n  tag_1\n  jumpi\n  revert(0x00, 0x00)\ntag_1:\n  pop\n  mload(0x40)\n  sub(codesize, bytecodeSize)\n  dup1\n  bytecodeSize\n  dup4\n  codecopy\n  dup2\n  dup2\n  add\n  0x40\n  mstore\n  dup2\n  add\n  swap1\n  tag_2\n  swap2\n  swap1\n  tag_3\n  jump\t// in\ntag_2:\n    /* \"contracts/PBMTokenManager.sol\":379:389  msg.sender */\n  caller\n    /* \"@openzeppelin/contracts/access/Ownable.sol\":1297:1298  0 */\n  0x00\n    /* \"@openzeppelin/contracts/access/Ownable.sol\":1273:1299  initialOwner == address(0) */\n  0xffffffffffffffffffffffffffffffffffffffff\n  and\n    /* \"@openzeppelin/contracts/access/Ownable.sol\":1273:1285  initialOwner */\n  dup2\n    /* \"@openzeppelin/contracts/access/Ownable.sol\":1273:1299  initialOwner == address(0) */\n  0xffffffffffffffffffffffffffffffffffffffff\n  and\n  sub\n    /* \"@openzeppelin/contracts/access/Ownable.sol\":1269:1364  if (initialOwner == address(0)) {... */\n  tag_7\n  jumpi\n    /* \"@openzeppelin/contracts/access/Ownable.sol\":1350:1351  0 */\n  0x00\n    /* \"@openzeppelin/contracts/access/Ownable.sol\":1322:1353  OwnableInvalidOwner(address(0)) */\n  mload(0x40)\n  0x1e4fbdf700000000000000000000000000000000000000000000000000000000\n  dup2\n  mstore\n  0x04\n  add\n  tag_8\n  swap2\n  swap1\n  tag_9\n  jump\t// in\ntag_8:\n  mload(0x40)\n  dup1\n  swap2\n  sub\n  swap1\n  revert\n    /* \"@openzeppelin/contracts/access/Ownable.sol\":1269:1364  if (initialOwner == address(0)) {... */\ntag_7:\n    /* \"@openzeppelin/contracts/access/Ownable.sol\":1373:1405  _transferOwnership(initialOwner) */\n  tag_10\n    /* \"@openzeppelin/contracts/access/Ownable.sol\":1392:1404  initialOwner */\n  dup2\n    /* \"@openzeppelin/contracts/access/Ownable.sol\":1373:1391  _transferOwnership */\n  shl(0x20, tag_11)\n    /* \"@openzeppelin/contracts/access/Ownable.sol\":1373:1405  _transferOwnership(initialOwner) */\n  0x20\n  shr\n  jump\t// in\ntag_10:\n    /* \"@openzeppelin/contracts/access/Ownable.sol\":1225:1412  constructor(address initialOwner) {... */\n  pop\n    /* \"contracts/PBMTokenManager.sol\":410:411  1 */\n  0x01\n    /* \"contracts/PBMTokenManager.sol\":393:407  tokenTypeCount */\n  dup1\n    /* \"contracts/PBMTokenManager.sol\":393:411  tokenTypeCount = 1 */\n  dup2\n  swap1\n  sstore\n  pop\n    /* \"contracts/PBMTokenManager.sol\":429:443  _uriPostExpiry */\n  dup1\n    /* \"contracts/PBMTokenManager.sol\":413:426  URIPostExpiry */\n  0x02\n    /* \"contracts/PBMTokenManager.sol\":413:443  URIPostExpiry = _uriPostExpiry */\n  swap1\n  dup2\n  tag_13\n  swap2\n  swap1\n  tag_14\n  jump\t// in\ntag_13:\n  pop\n    /* \"contracts/PBMTokenManager.sol\":329:446  constructor(string memory _uriPostExpiry) Ownable(msg.sender) { tokenTypeCount = 1; URIPostExpiry = _uriPostExpiry; } */\n  pop\n    /* \"contracts/PBMTokenManager.sol\":145:3588  contract PBMTokenManager is IPBMTokenManager, Ownable {... */\n  jump(tag_15)\n    /* \"@openzeppelin/contracts/access/Ownable.sol\":2912:3099  function _transferOwnership(address newOwner) internal virtual {... */\ntag_11:\n    /* \"@openzeppelin/contracts/access/Ownable.sol\":2985:3001  address oldOwner */\n  0x00\n    /* \"@openzeppelin/contracts/access/Ownable.sol\":3004:3010  _owner */\n  0x00\n  0x00\n  swap1\n  sload\n  swap1\n  0x0100\n  exp\n  swap1\n  div\n  0xffffffffffffffffffffffffffffffffffffffff\n  and\n    /* \"@openzeppelin/contracts/access/Ownable.sol\":2985:3010  address oldOwner = _owner */\n  swap1\n  pop\n    /* \"@openzeppelin/contracts/access/Ownable.sol\":3029:3037  newOwner */\n  dup2\n    /* \"@openzeppelin/contracts/access/Ownable.sol\":3020:3026  _owner */\n  0x00\n  0x00\n    /* \"@openzeppelin/contracts/access/Ownable.sol\":3020:3037  _owner = newOwner */\n  0x0100\n  exp\n  dup2\n  sload\n  dup2\n  0xffffffffffffffffffffffffffffffffffffffff\n  mul\n  not\n  and\n  swap1\n  dup4\n  0xffffffffffffffffffffffffffffffffffffffff\n  and\n  mul\n  or\n  swap1\n  sstore\n  pop\n    /* \"@openzeppelin/contracts/access/Ownable.sol\":3083:3091  newOwner */\n  dup2\n    /* \"@openzeppelin/contracts/access/Ownable.sol\":3052:3092  OwnershipTransferred(oldOwner, newOwner) */\n  0xffffffffffffffffffffffffffffffffffffffff\n  and\n    /* \"@openzeppelin/contracts/access/Ownable.sol\":3073:3081  oldOwner */\n  dup2\n    /* \"@openzeppelin/contracts/access/Ownable.sol\":3052:3092  OwnershipTransferred(oldOwner, newOwner) */\n  0xffffffffffffffffffffffffffffffffffffffff\n  and\n  0x8be0079c531659141344cd1fd0a4f28419497f9722a3daafe3b4186f6b6457e0\n  mload(0x40)\n  mload(0x40)\n  dup1\n  swap2\n  sub\n  swap1\n  log3\n    /* \"@openzeppelin/contracts/access/Ownable.sol\":2975:3099  {... */\n  pop\n    /* \"@openzeppelin/contracts/access/Ownable.sol\":2912:3099  function _transferOwnership(address newOwner) internal virtual {... */\n  pop\n  jump\t// out\n    /* \"#utility.yul\":7:82   */\ntag_17:\n    /* \"#utility.yul\":40:46   */\n  0x00\n    /* \"#utility.yul\":73:75   */\n  0x40\n    /* \"#utility.yul\":67:76   */\n  mload\n    /* \"#utility.yul\":57:76   */\n  swap1\n  pop\n    /* \"#utility.yul\":7:82   */\n  swap1\n  jump\t// out\n    /* \"#utility.yul\":88:205   */\ntag_18:\n    /* \"#utility.yul\":197:198   */\n  0x00\n    /* \"#utility.yul\":194:195   */\n  0x00\n    /* \"#utility.yul\":187:199   */\n  revert\n    /* \"#utility.yul\":211:328   */\ntag_19:\n    /* \"#utility.yul\":320:321   */\n  0x00\n    /* \"#utility.yul\":317:318   */\n  0x00\n    /* \"#utility.yul\":310:322   */\n  revert\n    /* \"#utility.yul\":334:451   */\ntag_20:\n    /* \"#utility.yul\":443:444   */\n  0x00\n    /* \"#utility.yul\":440:441   */\n  0x00\n    /* \"#utility.yul\":433:445   */\n  revert\n    /* \"#utility.yul\":457:574   */\ntag_21:\n    /* \"#utility.yul\":566:567   */\n  0x00\n    /* \"#utility.yul\":563:564   */\n  0x00\n    /* \"#utility.yul\":556:568   */\n  revert\n    /* \"#utility.yul\":580:682   */\ntag_22:\n    /* \"#utility.yul\":621:627   */\n  0x00\n    /* \"#utility.yul\":672:674   */\n  0x1f\n    /* \"#utility.yul\":668:675   */\n  not\n    /* \"#utility.yul\":663:665   */\n  0x1f\n    /* \"#utility.yul\":656:661   */\n  dup4\n    /* \"#utility.yul\":652:666   */\n  add\n    /* \"#utility.yul\":648:676   */\n  and\n    /* \"#utility.yul\":638:676   */\n  swap1\n  pop\n    /* \"#utility.yul\":580:682   */\n  swap2\n  swap1\n  pop\n  jump\t// out\n    /* \"#utility.yul\":688:868   */\ntag_23:\n    /* \"#utility.yul\":736:813   */\n  0x4e487b7100000000000000000000000000000000000000000000000000000000\n    /* \"#utility.yul\":733:734   */\n  0x00\n    /* \"#utility.yul\":726:814   */\n  mstore\n    /* \"#utility.yul\":833:837   */\n  0x41\n    /* \"#utility.yul\":830:831   */\n  0x04\n    /* \"#utility.yul\":823:838   */\n  mstore\n    /* \"#utility.yul\":857:861   */\n  0x24\n    /* \"#utility.yul\":854:855   */\n  0x00\n    /* \"#utility.yul\":847:862   */\n  revert\n    /* \"#utility.yul\":874:1155   */\ntag_24:\n    /* \"#utility.yul\":957:984   */\n  tag_61\n    /* \"#utility.yul\":979:983   */\n  dup3\n    /* \"#utility.yul\":957:984   */\n  tag_22\n  jump\t// in\ntag_61:\n    /* \"#utility.yul\":949:955   */\n  dup2\n    /* \"#utility.yul\":945:985   */\n  add\n    /* \"#utility.yul\":1087:1093   */\n  dup2\n    /* \"#utility.yul\":1075:1085   */\n  dup2\n    /* \"#utility.yul\":1072:1094   */\n  lt\n    /* \"#utility.yul\":1051:1069   */\n  0xffffffffffffffff\n    /* \"#utility.yul\":1039:1049   */\n  dup3\n    /* \"#utility.yul\":1036:1070   */\n  gt\n    /* \"#utility.yul\":1033:1095   */\n  or\n    /* \"#utility.yul\":1030:1118   */\n  iszero\n  tag_62\n  jumpi\n    /* \"#utility.yul\":1098:1116   */\n  tag_63\n  tag_23\n  jump\t// in\ntag_63:\n    /* \"#utility.yul\":1030:1118   */\ntag_62:\n    /* \"#utility.yul\":1138:1148   */\n  dup1\n    /* \"#utility.yul\":1134:1136   */\n  0x40\n    /* \"#utility.yul\":1127:1149   */\n  mstore\n    /* \"#utility.yul\":917:1155   */\n  pop\n    /* \"#utility.yul\":874:1155   */\n  pop\n  pop\n  jump\t// out\n    /* \"#utility.yul\":1161:1290   */\ntag_25:\n    /* \"#utility.yul\":1195:1201   */\n  0x00\n    /* \"#utility.yul\":1222:1242   */\n  tag_65\n  tag_17\n  jump\t// in\ntag_65:\n    /* \"#utility.yul\":1212:1242   */\n  swap1\n  pop\n    /* \"#utility.yul\":1251:1284   */\n  tag_66\n    /* \"#utility.yul\":1279:1283   */\n  dup3\n    /* \"#utility.yul\":1271:1277   */\n  dup3\n    /* \"#utility.yul\":1251:1284   */\n  tag_24\n  jump\t// in\ntag_66:\n    /* \"#utility.yul\":1161:1290   */\n  swap2\n  swap1\n  pop\n  jump\t// out\n    /* \"#utility.yul\":1296:1604   */\ntag_26:\n    /* \"#utility.yul\":1358:1362   */\n  0x00\n    /* \"#utility.yul\":1448:1466   */\n  0xffffffffffffffff\n    /* \"#utility.yul\":1440:1446   */\n  dup3\n    /* \"#utility.yul\":1437:1467   */\n  gt\n    /* \"#utility.yul\":1434:1490   */\n  iszero\n  tag_68\n  jumpi\n    /* \"#utility.yul\":1470:1488   */\n  tag_69\n  tag_23\n  jump\t// in\ntag_69:\n    /* \"#utility.yul\":1434:1490   */\ntag_68:\n    /* \"#utility.yul\":1508:1537   */\n  tag_70\n    /* \"#utility.yul\":1530:1536   */\n  dup3\n    /* \"#utility.yul\":1508:1537   */\n  tag_22\n  jump\t// in\ntag_70:\n    /* \"#utility.yul\":1500:1537   */\n  swap1\n  pop\n    /* \"#utility.yul\":1592:1596   */\n  0x20\n    /* \"#utility.yul\":1586:1590   */\n  dup2\n    /* \"#utility.yul\":1582:1597   */\n  add\n    /* \"#utility.yul\":1574:1597   */\n  swap1\n  pop\n    /* \"#utility.yul\":1296:1604   */\n  swap2\n  swap1\n  pop\n  jump\t// out\n    /* \"#utility.yul\":1610:1749   */\ntag_27:\n    /* \"#utility.yul\":1699:1705   */\n  dup3\n    /* \"#utility.yul\":1694:1697   */\n  dup2\n    /* \"#utility.yul\":1689:1692   */\n  dup4\n    /* \"#utility.yul\":1683:1706   */\n  mcopy\n    /* \"#utility.yul\":1740:1741   */\n  0x00\n    /* \"#utility.yul\":1731:1737   */\n  dup4\n    /* \"#utility.yul\":1726:1729   */\n  dup4\n    /* \"#utility.yul\":1722:1738   */\n  add\n    /* \"#utility.yul\":1715:1742   */\n  mstore\n    /* \"#utility.yul\":1610:1749   */\n  pop\n  pop\n  pop\n  jump\t// out\n    /* \"#utility.yul\":1755:2189   */\ntag_28:\n    /* \"#utility.yul\":1844:1849   */\n  0x00\n    /* \"#utility.yul\":1869:1935   */\n  tag_73\n    /* \"#utility.yul\":1885:1934   */\n  tag_74\n    /* \"#utility.yul\":1927:1933   */\n  dup5\n    /* \"#utility.yul\":1885:1934   */\n  tag_26\n  jump\t// in\ntag_74:\n    /* \"#utility.yul\":1869:1935   */\n  tag_25\n  jump\t// in\ntag_73:\n    /* \"#utility.yul\":1860:1935   */\n  swap1\n  pop\n    /* \"#utility.yul\":1958:1964   */\n  dup3\n    /* \"#utility.yul\":1951:1956   */\n  dup2\n    /* \"#utility.yul\":1944:1965   */\n  mstore\n    /* \"#utility.yul\":1996:2000   */\n  0x20\n    /* \"#utility.yul\":1989:1994   */\n  dup2\n    /* \"#utility.yul\":1985:2001   */\n  add\n    /* \"#utility.yul\":2034:2037   */\n  dup5\n    /* \"#utility.yul\":2025:2031   */\n  dup5\n    /* \"#utility.yul\":2020:2023   */\n  dup5\n    /* \"#utility.yul\":2016:2032   */\n  add\n    /* \"#utility.yul\":2013:2038   */\n  gt\n    /* \"#utility.yul\":2010:2122   */\n  iszero\n  tag_75\n  jumpi\n    /* \"#utility.yul\":2041:2120   */\n  tag_76\n  tag_21\n  jump\t// in\ntag_76:\n    /* \"#utility.yul\":2010:2122   */\ntag_75:\n    /* \"#utility.yul\":2131:2183   */\n  tag_77\n    /* \"#utility.yul\":2176:2182   */\n  dup5\n    /* \"#utility.yul\":2171:2174   */\n  dup3\n    /* \"#utility.yul\":2166:2169   */\n  dup6\n    /* \"#utility.yul\":2131:2183   */\n  tag_27\n  jump\t// in\ntag_77:\n    /* \"#utility.yul\":1850:2189   */\n  pop\n    /* \"#utility.yul\":1755:2189   */\n  swap4\n  swap3\n  pop\n  pop\n  pop\n  jump\t// out\n    /* \"#utility.yul\":2209:2564   */\ntag_29:\n    /* \"#utility.yul\":2276:2281   */\n  0x00\n    /* \"#utility.yul\":2325:2328   */\n  dup3\n    /* \"#utility.yul\":2318:2322   */\n  0x1f\n    /* \"#utility.yul\":2310:2316   */\n  dup4\n    /* \"#utility.yul\":2306:2323   */\n  add\n    /* \"#utility.yul\":2302:2329   */\n  slt\n    /* \"#utility.yul\":2292:2414   */\n  tag_79\n  jumpi\n    /* \"#utility.yul\":2333:2412   */\n  tag_80\n  tag_20\n  jump\t// in\ntag_80:\n    /* \"#utility.yul\":2292:2414   */\ntag_79:\n    /* \"#utility.yul\":2443:2449   */\n  dup2\n    /* \"#utility.yul\":2437:2450   */\n  mload\n    /* \"#utility.yul\":2468:2558   */\n  tag_81\n    /* \"#utility.yul\":2554:2557   */\n  dup5\n    /* \"#utility.yul\":2546:2552   */\n  dup3\n    /* \"#utility.yul\":2539:2543   */\n  0x20\n    /* \"#utility.yul\":2531:2537   */\n  dup7\n    /* \"#utility.yul\":2527:2544   */\n  add\n    /* \"#utility.yul\":2468:2558   */\n  tag_28\n  jump\t// in\ntag_81:\n    /* \"#utility.yul\":2459:2558   */\n  swap2\n  pop\n    /* \"#utility.yul\":2282:2564   */\n  pop\n    /* \"#utility.yul\":2209:2564   */\n  swap3\n  swap2\n  pop\n  pop\n  jump\t// out\n    /* \"#utility.yul\":2570:3094   */\ntag_3:\n    /* \"#utility.yul\":2650:2656   */\n  0x00\n    /* \"#utility.yul\":2699:2701   */\n  0x20\n    /* \"#utility.yul\":2687:2696   */\n  dup3\n    /* \"#utility.yul\":2678:2685   */\n  dup5\n    /* \"#utility.yul\":2674:2697   */\n  sub\n    /* \"#utility.yul\":2670:2702   */\n  slt\n    /* \"#utility.yul\":2667:2786   */\n  iszero\n  tag_83\n  jumpi\n    /* \"#utility.yul\":2705:2784   */\n  tag_84\n  tag_18\n  jump\t// in\ntag_84:\n    /* \"#utility.yul\":2667:2786   */\ntag_83:\n    /* \"#utility.yul\":2846:2847   */\n  0x00\n    /* \"#utility.yul\":2835:2844   */\n  dup3\n    /* \"#utility.yul\":2831:2848   */\n  add\n    /* \"#utility.yul\":2825:2849   */\n  mload\n    /* \"#utility.yul\":2876:2894   */\n  0xffffffffffffffff\n    /* \"#utility.yul\":2868:2874   */\n  dup2\n    /* \"#utility.yul\":2865:2895   */\n  gt\n    /* \"#utility.yul\":2862:2979   */\n  iszero\n  tag_85\n  jumpi\n    /* \"#utility.yul\":2898:2977   */\n  tag_86\n  tag_19\n  jump\t// in\ntag_86:\n    /* \"#utility.yul\":2862:2979   */\ntag_85:\n    /* \"#utility.yul\":3003:3077   */\n  tag_87\n    /* \"#utility.yul\":3069:3076   */\n  dup5\n    /* \"#utility.yul\":3060:3066   */\n  dup3\n    /* \"#utility.yul\":3049:3058   */\n  dup6\n    /* \"#utility.yul\":3045:3067   */\n  add\n    /* \"#utility.yul\":3003:3077   */\n  tag_29\n  jump\t// in\ntag_87:\n    /* \"#utility.yul\":2993:3077   */\n  swap2\n  pop\n    /* \"#utility.yul\":2796:3087   */\n  pop\n    /* \"#utility.yul\":2570:3094   */\n  swap3\n  swap2\n  pop\n  pop\n  jump\t// out\n    /* \"#utility.yul\":3100:3226   */\ntag_30:\n    /* \"#utility.yul\":3137:3144   */\n  0x00\n    /* \"#utility.yul\":3177:3219   */\n  0xffffffffffffffffffffffffffffffffffffffff\n    /* \"#utility.yul\":3170:3175   */\n  dup3\n    /* \"#utility.yul\":3166:3220   */\n  and\n    /* \"#utility.yul\":3155:3220   */\n  swap1\n  pop\n    /* \"#utility.yul\":3100:3226   */\n  swap2\n  swap1\n  pop\n  jump\t// out\n    /* \"#utility.yul\":3232:3328   */\ntag_31:\n    /* \"#utility.yul\":3269:3276   */\n  0x00\n    /* \"#utility.yul\":3298:3322   */\n  tag_90\n    /* \"#utility.yul\":3316:3321   */\n  dup3\n    /* \"#utility.yul\":3298:3322   */\n  tag_30\n  jump\t// in\ntag_90:\n    /* \"#utility.yul\":3287:3322   */\n  swap1\n  pop\n    /* \"#utility.yul\":3232:3328   */\n  swap2\n  swap1\n  pop\n  jump\t// out\n    /* \"#utility.yul\":3334:3452   */\ntag_32:\n    /* \"#utility.yul\":3421:3445   */\n  tag_92\n    /* \"#utility.yul\":3439:3444   */\n  dup2\n    /* \"#utility.yul\":3421:3445   */\n  tag_31\n  jump\t// in\ntag_92:\n    /* \"#utility.yul\":3416:3419   */\n  dup3\n    /* \"#utility.yul\":3409:3446   */\n  mstore\n    /* \"#utility.yul\":3334:3452   */\n  pop\n  pop\n  jump\t// out\n    /* \"#utility.yul\":3458:3680   */\ntag_9:\n    /* \"#utility.yul\":3551:3555   */\n  0x00\n    /* \"#utility.yul\":3589:3591   */\n  0x20\n    /* \"#utility.yul\":3578:3587   */\n  dup3\n    /* \"#utility.yul\":3574:3592   */\n  add\n    /* \"#utility.yul\":3566:3592   */\n  swap1\n  pop\n    /* \"#utility.yul\":3602:3673   */\n  tag_94\n    /* \"#utility.yul\":3670:3671   */\n  0x00\n    /* \"#utility.yul\":3659:3668   */\n  dup4\n    /* \"#utility.yul\":3655:3672   */\n  add\n    /* \"#utility.yul\":3646:3652   */\n  dup5\n    /* \"#utility.yul\":3602:3673   */\n  tag_32\n  jump\t// in\ntag_94:\n    /* \"#utility.yul\":3458:3680   */\n  swap3\n  swap2\n  pop\n  pop\n  jump\t// out\n    /* \"#utility.yul\":3686:3785   */\ntag_33:\n    /* \"#utility.yul\":3738:3744   */\n  0x00\n    /* \"#utility.yul\":3772:3777   */\n  dup2\n    /* \"#utility.yul\":3766:3778   */\n  mload\n    /* \"#utility.yul\":3756:3778   */\n  swap1\n  pop\n    /* \"#utility.yul\":3686:3785   */\n  swap2\n  swap1\n  pop\n  jump\t// out\n    /* \"#utility.yul\":3791:3971   */\ntag_34:\n    /* \"#utility.yul\":3839:3916   */\n  0x4e487b7100000000000000000000000000000000000000000000000000000000\n    /* \"#utility.yul\":3836:3837   */\n  0x00\n    /* \"#utility.yul\":3829:3917   */\n  mstore\n    /* \"#utility.yul\":3936:3940   */\n  0x22\n    /* \"#utility.yul\":3933:3934   */\n  0x04\n    /* \"#utility.yul\":3926:3941   */\n  mstore\n    /* \"#utility.yul\":3960:3964   */\n  0x24\n    /* \"#utility.yul\":3957:3958   */\n  0x00\n    /* \"#utility.yul\":3950:3965   */\n  revert\n    /* \"#utility.yul\":3977:4297   */\ntag_35:\n    /* \"#utility.yul\":4021:4027   */\n  0x00\n    /* \"#utility.yul\":4058:4059   */\n  0x02\n    /* \"#utility.yul\":4052:4056   */\n  dup3\n    /* \"#utility.yul\":4048:4060   */\n  div\n    /* \"#utility.yul\":4038:4060   */\n  swap1\n  pop\n    /* \"#utility.yul\":4105:4106   */\n  0x01\n    /* \"#utility.yul\":4099:4103   */\n  dup3\n    /* \"#utility.yul\":4095:4107   */\n  and\n    /* \"#utility.yul\":4126:4144   */\n  dup1\n    /* \"#utility.yul\":4116:4197   */\n  tag_98\n  jumpi\n    /* \"#utility.yul\":4182:4186   */\n  0x7f\n    /* \"#utility.yul\":4174:4180   */\n  dup3\n    /* \"#utility.yul\":4170:4187   */\n  and\n    /* \"#utility.yul\":4160:4187   */\n  swap2\n  pop\n    /* \"#utility.yul\":4116:4197   */\ntag_98:\n    /* \"#utility.yul\":4244:4246   */\n  0x20\n    /* \"#utility.yul\":4236:4242   */\n  dup3\n    /* \"#utility.yul\":4233:4247   */\n  lt\n    /* \"#utility.yul\":4213:4231   */\n  dup2\n    /* \"#utility.yul\":4210:4248   */\n  sub\n    /* \"#utility.yul\":4207:4291   */\n  tag_99\n  jumpi\n    /* \"#utility.yul\":4263:4281   */\n  tag_100\n  tag_34\n  jump\t// in\ntag_100:\n    /* \"#utility.yul\":4207:4291   */\ntag_99:\n    /* \"#utility.yul\":4028:4297   */\n  pop\n    /* \"#utility.yul\":3977:4297   */\n  swap2\n  swap1\n  pop\n  jump\t// out\n    /* \"#utility.yul\":4303:4444   */\ntag_36:\n    /* \"#utility.yul\":4352:4356   */\n  0x00\n    /* \"#utility.yul\":4375:4378   */\n  dup2\n    /* \"#utility.yul\":4367:4378   */\n  swap1\n  pop\n    /* \"#utility.yul\":4398:4401   */\n  dup2\n    /* \"#utility.yul\":4395:4396   */\n  0x00\n    /* \"#utility.yul\":4388:4402   */\n  mstore\n    /* \"#utility.yul\":4432:4436   */\n  0x20\n    /* \"#utility.yul\":4429:4430   */\n  0x00\n    /* \"#utility.yul\":4419:4437   */\n  keccak256\n    /* \"#utility.yul\":4411:4437   */\n  swap1\n  pop\n    /* \"#utility.yul\":4303:4444   */\n  swap2\n  swap1\n  pop\n  jump\t// out\n    /* \"#utility.yul\":4450:4543   */\ntag_37:\n    /* \"#utility.yul\":4487:4493   */\n  0x00\n    /* \"#utility.yul\":4534:4536   */\n  0x20\n    /* \"#utility.yul\":4529:4531   */\n  0x1f\n    /* \"#utility.yul\":4522:4527   */\n  dup4\n    /* \"#utility.yul\":4518:4532   */\n  add\n    /* \"#utility.yul\":4514:4537   */\n  div\n    /* \"#utility.yul\":4504:4537   */\n  swap1\n  pop\n    /* \"#utility.yul\":4450:4543   */\n  swap2\n  swap1\n  pop\n  jump\t// out\n    /* \"#utility.yul\":4549:4656   */\ntag_38:\n    /* \"#utility.yul\":4593:4601   */\n  0x00\n    /* \"#utility.yul\":4643:4648   */\n  dup3\n    /* \"#utility.yul\":4637:4641   */\n  dup3\n    /* \"#utility.yul\":4633:4649   */\n  shl\n    /* \"#utility.yul\":4612:4649   */\n  swap1\n  pop\n    /* \"#utility.yul\":4549:4656   */\n  swap3\n  swap2\n  pop\n  pop\n  jump\t// out\n    /* \"#utility.yul\":4662:5055   */\ntag_39:\n    /* \"#utility.yul\":4731:4737   */\n  0x00\n    /* \"#utility.yul\":4781:4782   */\n  0x08\n    /* \"#utility.yul\":4769:4779   */\n  dup4\n    /* \"#utility.yul\":4765:4783   */\n  mul\n    /* \"#utility.yul\":4804:4901   */\n  tag_105\n    /* \"#utility.yul\":4834:4900   */\n  0xffffffffffffffffffffffffffffffffffffffffffffffffffffffffffffffff\n    /* \"#utility.yul\":4823:4832   */\n  dup3\n    /* \"#utility.yul\":4804:4901   */\n  tag_38\n  jump\t// in\ntag_105:\n    /* \"#utility.yul\":4922:4961   */\n  tag_106\n    /* \"#utility.yul\":4952:4960   */\n  dup7\n    /* \"#utility.yul\":4941:4950   */\n  dup4\n    /* \"#utility.yul\":4922:4961   */\n  tag_38\n  jump\t// in\ntag_106:\n    /* \"#utility.yul\":4910:4961   */\n  swap6\n  pop\n    /* \"#utility.yul\":4994:4998   */\n  dup1\n    /* \"#utility.yul\":4990:4999   */\n  not\n    /* \"#utility.yul\":4983:4988   */\n  dup5\n    /* \"#utility.yul\":4979:5000   */\n  and\n    /* \"#utility.yul\":4970:5000   */\n  swap4\n  pop\n    /* \"#utility.yul\":5043:5047   */\n  dup1\n    /* \"#utility.yul\":5033:5041   */\n  dup7\n    /* \"#utility.yul\":5029:5048   */\n  and\n    /* \"#utility.yul\":5022:5027   */\n  dup5\n    /* \"#utility.yul\":5019:5049   */\n  or\n    /* \"#utility.yul\":5009:5049   */\n  swap3\n  pop\n    /* \"#utility.yul\":4738:5055   */\n  pop\n  pop\n    /* \"#utility.yul\":4662:5055   */\n  swap4\n  swap3\n  pop\n  pop\n  pop\n  jump\t// out\n    /* \"#utility.yul\":5061:5138   */\ntag_40:\n    /* \"#utility.yul\":5098:5105   */\n  0x00\n    /* \"#utility.yul\":5127:5132   */\n  dup2\n    /* \"#utility.yul\":5116:5132   */\n  swap1\n  pop\n    /* \"#utility.yul\":5061:5138   */\n  swap2\n  swap1\n  pop\n  jump\t// out\n    /* \"#utility.yul\":5144:5204   */\ntag_41:\n    /* \"#utility.yul\":5172:5175   */\n  0x00\n    /* \"#utility.yul\":5193:5198   */\n  dup2\n    /* \"#utility.yul\":5186:5198   */\n  swap1\n  pop\n    /* \"#utility.yul\":5144:5204   */\n  swap2\n  swap1\n  pop\n  jump\t// out\n    /* \"#utility.yul\":5210:5352   */\ntag_42:\n    /* \"#utility.yul\":5260:5269   */\n  0x00\n    /* \"#utility.yul\":5293:5346   */\n  tag_110\n    /* \"#utility.yul\":5311:5345   */\n  tag_111\n    /* \"#utility.yul\":5320:5344   */\n  tag_112\n    /* \"#utility.yul\":5338:5343   */\n  dup5\n    /* \"#utility.yul\":5320:5344   */\n  tag_40\n  jump\t// in\ntag_112:\n    /* \"#utility.yul\":5311:5345   */\n  tag_41\n  jump\t// in\ntag_111:\n    /* \"#utility.yul\":5293:5346   */\n  tag_40\n  jump\t// in\ntag_110:\n    /* \"#utility.yul\":5280:5346   */\n  swap1\n  pop\n    /* \"#utility.yul\":5210:5352   */\n  swap2\n  swap1\n  pop\n  jump\t// out\n    /* \"#utility.yul\":5358:5433   */\ntag_43:\n    /* \"#utility.yul\":5401:5404   */\n  0x00\n    /* \"#utility.yul\":5422:5427   */\n  dup2\n    /* \"#utility.yul\":5415:5427   */\n  swap1\n  pop\n    /* \"#utility.yul\":5358:5433   */\n  swap2\n  swap1\n  pop\n  jump\t// out\n    /* \"#utility.yul\":5439:5708   */\ntag_44:\n    /* \"#utility.yul\":5549:5588   */\n  tag_115\n    /* \"#utility.yul\":5580:5587   */\n  dup4\n    /* \"#utility.yul\":5549:5588   */\n  tag_42\n  jump\t// in\ntag_115:\n    /* \"#utility.yul\":5610:5701   */\n  tag_116\n    /* \"#utility.yul\":5659:5700   */\n  tag_117\n    /* \"#utility.yul\":5683:5699   */\n  dup3\n    /* \"#utility.yul\":5659:5700   */\n  tag_43\n  jump\t// in\ntag_117:\n    /* \"#utility.yul\":5651:5657   */\n  dup5\n    /* \"#utility.yul\":5644:5648   */\n  dup5\n    /* \"#utility.yul\":5638:5649   */\n  sload\n    /* \"#utility.yul\":5610:5701   */\n  tag_39\n  jump\t// in\ntag_116:\n    /* \"#utility.yul\":5604:5608   */\n  dup3\n    /* \"#utility.yul\":5597:5702   */\n  sstore\n    /* \"#utility.yul\":5515:5708   */\n  pop\n    /* \"#utility.yul\":5439:5708   */\n  pop\n  pop\n  pop\n  jump\t// out\n    /* \"#utility.yul\":5714:5787   */\ntag_45:\n    /* \"#utility.yul\":5759:5762   */\n  0x00\n    /* \"#utility.yul\":5780:5781   */\n  0x00\n    /* \"#utility.yul\":5773:5781   */\n  swap1\n  pop\n    /* \"#utility.yul\":5714:5787   */\n  swap1\n  jump\t// out\n    /* \"#utility.yul\":5793:5982   */\ntag_46:\n    /* \"#utility.yul\":5870:5902   */\n  tag_120\n  tag_45\n  jump\t// in\ntag_120:\n    /* \"#utility.yul\":5911:5976   */\n  tag_121\n    /* \"#utility.yul\":5969:5975   */\n  dup2\n    /* \"#utility.yul\":5961:5967   */\n  dup5\n    /* \"#utility.yul\":5955:5959   */\n  dup5\n    /* \"#utility.yul\":5911:5976   */\n  tag_44\n  jump\t// in\ntag_121:\n    /* \"#utility.yul\":5846:5982   */\n  pop\n    /* \"#utility.yul\":5793:5982   */\n  pop\n  pop\n  jump\t// out\n    /* \"#utility.yul\":5988:6174   */\ntag_47:\n    /* \"#utility.yul\":6048:6168   */\ntag_123:\n    /* \"#utility.yul\":6065:6068   */\n  dup2\n    /* \"#utility.yul\":6058:6063   */\n  dup2\n    /* \"#utility.yul\":6055:6069   */\n  lt\n    /* \"#utility.yul\":6048:6168   */\n  iszero\n  tag_125\n  jumpi\n    /* \"#utility.yul\":6119:6158   */\n  tag_126\n    /* \"#utility.yul\":6156:6157   */\n  0x00\n    /* \"#utility.yul\":6149:6154   */\n  dup3\n    /* \"#utility.yul\":6119:6158   */\n  tag_46\n  jump\t// in\ntag_126:\n    /* \"#utility.yul\":6092:6093   */\n  0x01\n    /* \"#utility.yul\":6085:6090   */\n  dup2\n    /* \"#utility.yul\":6081:6094   */\n  add\n    /* \"#utility.yul\":6072:6094   */\n  swap1\n  pop\n    /* \"#utility.yul\":6048:6168   */\n  jump(tag_123)\ntag_125:\n    /* \"#utility.yul\":5988:6174   */\n  pop\n  pop\n  jump\t// out\n    /* \"#utility.yul\":6180:6723   */\ntag_48:\n    /* \"#utility.yul\":6281:6283   */\n  0x1f\n    /* \"#utility.yul\":6276:6279   */\n  dup3\n    /* \"#utility.yul\":6273:6284   */\n  gt\n    /* \"#utility.yul\":6270:6716   */\n  iszero\n  tag_128\n  jumpi\n    /* \"#utility.yul\":6315:6353   */\n  tag_129\n    /* \"#utility.yul\":6347:6352   */\n  dup2\n    /* \"#utility.yul\":6315:6353   */\n  tag_36\n  jump\t// in\ntag_129:\n    /* \"#utility.yul\":6399:6428   */\n  tag_130\n    /* \"#utility.yul\":6417:6427   */\n  dup5\n    /* \"#utility.yul\":6399:6428   */\n  tag_37\n  jump\t// in\ntag_130:\n    /* \"#utility.yul\":6389:6397   */\n  dup2\n    /* \"#utility.yul\":6385:6429   */\n  add\n    /* \"#utility.yul\":6582:6584   */\n  0x20\n    /* \"#utility.yul\":6570:6580   */\n  dup6\n    /* \"#utility.yul\":6567:6585   */\n  lt\n    /* \"#utility.yul\":6564:6613   */\n  iszero\n  tag_131\n  jumpi\n    /* \"#utility.yul\":6603:6611   */\n  dup2\n    /* \"#utility.yul\":6588:6611   */\n  swap1\n  pop\n    /* \"#utility.yul\":6564:6613   */\ntag_131:\n    /* \"#utility.yul\":6626:6706   */\n  tag_132\n    /* \"#utility.yul\":6682:6704   */\n  tag_133\n    /* \"#utility.yul\":6700:6703   */\n  dup6\n    /* \"#utility.yul\":6682:6704   */\n  tag_37\n  jump\t// in\ntag_133:\n    /* \"#utility.yul\":6672:6680   */\n  dup4\n    /* \"#utility.yul\":6668:6705   */\n  add\n    /* \"#utility.yul\":6655:6666   */\n  dup3\n    /* \"#utility.yul\":6626:6706   */\n  tag_47\n  jump\t// in\ntag_132:\n    /* \"#utility.yul\":6285:6716   */\n  pop\n  pop\n    /* \"#utility.yul\":6270:6716   */\ntag_128:\n    /* \"#utility.yul\":6180:6723   */\n  pop\n  pop\n  pop\n  jump\t// out\n    /* \"#utility.yul\":6729:6846   */\ntag_49:\n    /* \"#utility.yul\":6783:6791   */\n  0x00\n    /* \"#utility.yul\":6833:6838   */\n  dup3\n    /* \"#utility.yul\":6827:6831   */\n  dup3\n    /* \"#utility.yul\":6823:6839   */\n  shr\n    /* \"#utility.yul\":6802:6839   */\n  swap1\n  pop\n    /* \"#utility.yul\":6729:6846   */\n  swap3\n  swap2\n  pop\n  pop\n  jump\t// out\n    /* \"#utility.yul\":6852:7021   */\ntag_50:\n    /* \"#utility.yul\":6896:6902   */\n  0x00\n    /* \"#utility.yul\":6929:6980   */\n  tag_136\n    /* \"#utility.yul\":6977:6978   */\n  0x00\n    /* \"#utility.yul\":6973:6979   */\n  not\n    /* \"#utility.yul\":6965:6970   */\n  dup5\n    /* \"#utility.yul\":6962:6963   */\n  0x08\n    /* \"#utility.yul\":6958:6971   */\n  mul\n    /* \"#utility.yul\":6929:6980   */\n  tag_49\n  jump\t// in\ntag_136:\n    /* \"#utility.yul\":6925:6981   */\n  not\n    /* \"#utility.yul\":7010:7014   */\n  dup1\n    /* \"#utility.yul\":7004:7008   */\n  dup4\n    /* \"#utility.yul\":7000:7015   */\n  and\n    /* \"#utility.yul\":6990:7015   */\n  swap2\n  pop\n    /* \"#utility.yul\":6903:7021   */\n  pop\n    /* \"#utility.yul\":6852:7021   */\n  swap3\n  swap2\n  pop\n  pop\n  jump\t// out\n    /* \"#utility.yul\":7026:7321   */\ntag_51:\n    /* \"#utility.yul\":7102:7106   */\n  0x00\n    /* \"#utility.yul\":7248:7277   */\n  tag_138\n    /* \"#utility.yul\":7273:7276   */\n  dup4\n    /* \"#utility.yul\":7267:7271   */\n  dup4\n    /* \"#utility.yul\":7248:7277   */\n  tag_50\n  jump\t// in\ntag_138:\n    /* \"#utility.yul\":7240:7277   */\n  swap2\n  pop\n    /* \"#utility.yul\":7310:7313   */\n  dup3\n    /* \"#utility.yul\":7307:7308   */\n  0x02\n    /* \"#utility.yul\":7303:7314   */\n  mul\n    /* \"#utility.yul\":7297:7301   */\n  dup3\n    /* \"#utility.yul\":7294:7315   */\n  or\n    /* \"#utility.yul\":7286:7315   */\n  swap1\n  pop\n    /* \"#utility.yul\":7026:7321   */\n  swap3\n  swap2\n  pop\n  pop\n  jump\t// out\n    /* \"#utility.yul\":7326:8721   */\ntag_14:\n    /* \"#utility.yul\":7443:7480   */\n  tag_140\n    /* \"#utility.yul\":7476:7479   */\n  dup3\n    /* \"#utility.yul\":7443:7480   */\n  tag_33\n  jump\t// in\ntag_140:\n    /* \"#utility.yul\":7545:7563   */\n  0xffffffffffffffff\n    /* \"#utility.yul\":7537:7543   */\n  dup2\n    /* \"#utility.yul\":7534:7564   */\n  gt\n    /* \"#utility.yul\":7531:7587   */\n  iszero\n  tag_141\n  jumpi\n    /* \"#utility.yul\":7567:7585   */\n  tag_142\n  tag_23\n  jump\t// in\ntag_142:\n    /* \"#utility.yul\":7531:7587   */\ntag_141:\n    /* \"#utility.yul\":7611:7649   */\n  tag_143\n    /* \"#utility.yul\":7643:7647   */\n  dup3\n    /* \"#utility.yul\":7637:7648   */\n  sload\n    /* \"#utility.yul\":7611:7649   */\n  tag_35\n  jump\t// in\ntag_143:\n    /* \"#utility.yul\":7696:7763   */\n  tag_144\n    /* \"#utility.yul\":7756:7762   */\n  dup3\n    /* \"#utility.yul\":7748:7754   */\n  dup3\n    /* \"#utility.yul\":7742:7746   */\n  dup6\n    /* \"#utility.yul\":7696:7763   */\n  tag_48\n  jump\t// in\ntag_144:\n    /* \"#utility.yul\":7790:7791   */\n  0x00\n    /* \"#utility.yul\":7814:7818   */\n  0x20\n    /* \"#utility.yul\":7801:7818   */\n  swap1\n  pop\n    /* \"#utility.yul\":7846:7848   */\n  0x1f\n    /* \"#utility.yul\":7838:7844   */\n  dup4\n    /* \"#utility.yul\":7835:7849   */\n  gt\n    /* \"#utility.yul\":7863:7864   */\n  0x01\n    /* \"#utility.yul\":7858:8476   */\n  dup2\n  eq\n  tag_146\n  jumpi\n    /* \"#utility.yul\":8520:8521   */\n  0x00\n    /* \"#utility.yul\":8537:8543   */\n  dup5\n    /* \"#utility.yul\":8534:8611   */\n  iszero\n  tag_147\n  jumpi\n    /* \"#utility.yul\":8586:8595   */\n  dup3\n    /* \"#utility.yul\":8581:8584   */\n  dup8\n    /* \"#utility.yul\":8577:8596   */\n  add\n    /* \"#utility.yul\":8571:8597   */\n  mload\n    /* \"#utility.yul\":8562:8597   */\n  swap1\n  pop\n    /* \"#utility.yul\":8534:8611   */\ntag_147:\n    /* \"#utility.yul\":8637:8704   */\n  tag_148\n    /* \"#utility.yul\":8697:8703   */\n  dup6\n    /* \"#utility.yul\":8690:8695   */\n  dup3\n    /* \"#utility.yul\":8637:8704   */\n  tag_51\n  jump\t// in\ntag_148:\n    /* \"#utility.yul\":8631:8635   */\n  dup7\n    /* \"#utility.yul\":8624:8705   */\n  sstore\n    /* \"#utility.yul\":8493:8715   */\n  pop\n    /* \"#utility.yul\":7828:8715   */\n  jump(tag_145)\n    /* \"#utility.yul\":7858:8476   */\ntag_146:\n    /* \"#utility.yul\":7910:7914   */\n  0x1f\n    /* \"#utility.yul\":7906:7915   */\n  not\n    /* \"#utility.yul\":7898:7904   */\n  dup5\n    /* \"#utility.yul\":7894:7916   */\n  and\n    /* \"#utility.yul\":7944:7981   */\n  tag_149\n    /* \"#utility.yul\":7976:7980   */\n  dup7\n    /* \"#utility.yul\":7944:7981   */\n  tag_36\n  jump\t// in\ntag_149:\n    /* \"#utility.yul\":8003:8004   */\n  0x00\n    /* \"#utility.yul\":8017:8225   */\ntag_150:\n    /* \"#utility.yul\":8031:8038   */\n  dup3\n    /* \"#utility.yul\":8028:8029   */\n  dup2\n    /* \"#utility.yul\":8025:8039   */\n  lt\n    /* \"#utility.yul\":8017:8225   */\n  iszero\n  tag_152\n  jumpi\n    /* \"#utility.yul\":8110:8119   */\n  dup5\n    /* \"#utility.yul\":8105:8108   */\n  dup10\n    /* \"#utility.yul\":8101:8120   */\n  add\n    /* \"#utility.yul\":8095:8121   */\n  mload\n    /* \"#utility.yul\":8087:8093   */\n  dup3\n    /* \"#utility.yul\":8080:8122   */\n  sstore\n    /* \"#utility.yul\":8161:8162   */\n  0x01\n    /* \"#utility.yul\":8153:8159   */\n  dup3\n    /* \"#utility.yul\":8149:8163   */\n  add\n    /* \"#utility.yul\":8139:8163   */\n  swap2\n  pop\n    /* \"#utility.yul\":8208:8210   */\n  0x20\n    /* \"#utility.yul\":8197:8206   */\n  dup6\n    /* \"#utility.yul\":8193:8211   */\n  add\n    /* \"#utility.yul\":8180:8211   */\n  swap5\n  pop\n    /* \"#utility.yul\":8054:8058   */\n  0x20\n    /* \"#utility.yul\":8051:8052   */\n  dup2\n    /* \"#utility.yul\":8047:8059   */\n  add\n    /* \"#utility.yul\":8042:8059   */\n  swap1\n  pop\n    /* \"#utility.yul\":8017:8225   */\n  jump(tag_150)\ntag_152:\n    /* \"#utility.yul\":8253:8259   */\n  dup7\n    /* \"#utility.yul\":8244:8251   */\n  dup4\n    /* \"#utility.yul\":8241:8260   */\n  lt\n    /* \"#utility.yul\":8238:8417   */\n  iszero\n  tag_153\n  jumpi\n    /* \"#utility.yul\":8311:8320   */\n  dup5\n    /* \"#utility.yul\":8306:8309   */\n  dup10\n    /* \"#utility.yul\":8302:8321   */\n  add\n    /* \"#utility.yul\":8296:8322   */\n  mload\n    /* \"#utility.yul\":8354:8402   */\n  tag_154\n    /* \"#utility.yul\":8396:8400   */\n  0x1f\n    /* \"#utility.yul\":8388:8394   */\n  dup10\n    /* \"#utility.yul\":8384:8401   */\n  and\n    /* \"#utility.yul\":8373:8382   */\n  dup3\n    /* \"#utility.yul\":8354:8402   */\n  tag_50\n  jump\t// in\ntag_154:\n    /* \"#utility.yul\":8346:8352   */\n  dup4\n    /* \"#utility.yul\":8339:8403   */\n  sstore\n    /* \"#utility.yul\":8261:8417   */\n  pop\n    /* \"#utility.yul\":8238:8417   */\ntag_153:\n    /* \"#utility.yul\":8463:8464   */\n  0x01\n    /* \"#utility.yul\":8459:8460   */\n  0x02\n    /* \"#utility.yul\":8451:8457   */\n  dup9\n    /* \"#utility.yul\":8447:8461   */\n  mul\n    /* \"#utility.yul\":8443:8465   */\n  add\n    /* \"#utility.yul\":8437:8441   */\n  dup9\n    /* \"#utility.yul\":8430:8466   */\n  sstore\n    /* \"#utility.yul\":7865:8476   */\n  pop\n  pop\n  pop\n    /* \"#utility.yul\":7828:8715   */\ntag_145:\n  pop\n    /* \"#utility.yul\":7418:8721   */\n  pop\n  pop\n  pop\n    /* \"#utility.yul\":7326:8721   */\n  pop\n  pop\n  jump\t// out\n    /* \"contracts/PBMTokenManager.sol\":145:3588  contract PBMTokenManager is IPBMTokenManager, Ownable {... */\ntag_15:\n  dataSize(sub_0)\n  dup1\n  dataOffset(sub_0)\n  0x00\n  codecopy\n  0x00\n  return\nstop\n\nsub_0: assembly {\n        /* \"contracts/PBMTokenManager.sol\":145:3588  contract PBMTokenManager is IPBMTokenManager, Ownable {... */\n      mstore(0x40, 0x80)\n      callvalue\n      dup1\n      iszero\n      tag_1\n      jumpi\n      revert(0x00, 0x00)\n    tag_1:\n      pop\n      jumpi(tag_2, lt(calldatasize, 0x04))\n      shr(0xe0, calldataload(0x00))\n      dup1\n      0x8da5cb5b\n      gt\n      tag_19\n      jumpi\n      dup1\n      0xdb84d995\n      gt\n      tag_20\n      jumpi\n      dup1\n      0xdb84d995\n      eq\n      tag_15\n      jumpi\n      dup1\n      0xe21c8b59\n      eq\n      tag_16\n      jumpi\n      dup1\n      0xf2fde38b\n      eq\n      tag_17\n      jumpi\n      dup1\n      0xf600d9f4\n      eq\n      tag_18\n      jumpi\n      jump(tag_2)\n    tag_20:\n      dup1\n      0x8da5cb5b\n      eq\n      tag_11\n      jumpi\n      dup1\n      0xc1e03728\n      eq\n      tag_12\n      jumpi\n      dup1\n      0xd10424c7\n      eq\n      tag_13\n      jumpi\n      dup1\n      0xd20874d8\n      eq\n      tag_14\n      jumpi\n      jump(tag_2)\n    tag_19:\n      dup1\n      0x48fd09f5\n      gt\n      tag_21\n      jumpi\n      dup1\n      0x48fd09f5\n      eq\n      tag_7\n      jumpi\n      dup1\n      0x71185897\n      eq\n      tag_8\n      jumpi\n      dup1\n      0x715018a6\n      eq\n      tag_9\n      jumpi\n      dup1\n      0x80d69c8a\n      eq\n      tag_10\n      jumpi\n      jump(tag_2)\n    tag_21:\n      dup1\n      0x03b5a3d3\n      eq\n      tag_3\n      jumpi\n      dup1\n      0x0e89341c\n      eq\n      tag_4\n      jumpi\n      dup1\n      0x33f6832a\n      eq\n      tag_5\n      jumpi\n      dup1\n      0x36a3409c\n      eq\n      tag_6\n      jumpi\n    tag_2:\n      revert(0x00, 0x00)\n        /* \"contracts/PBMTokenManager.sol\":240:267  string public URIPostExpiry */\n    tag_3:\n      tag_22\n      tag_23\n      jump\t// in\n    tag_22:\n      mload(0x40)\n      tag_24\n      swap2\n      swap1\n      tag_25\n      jump\t// in\n    tag_24:\n      mload(0x40)\n      dup1\n      swap2\n      sub\n      swap1\n      return\n        /* \"contracts/PBMTokenManager.sol\":2263:2458  function uri(uint256 tokenId) public view override returns (string memory) { if (block.timestamp > tokenTypes[tokenId].expiry) { return URIPostExpiry; } else { return tokenTypes[tokenId].uri; } } */\n    tag_4:\n      tag_26\n      0x04\n      dup1\n      calldatasize\n      sub\n      dup2\n      add\n      swap1\n      tag_27\n      swap2\n      swap1\n      tag_28\n      jump\t// in\n    tag_27:\n      tag_29\n      jump\t// in\n    tag_26:\n      mload(0x40)\n      tag_30\n      swap2\n      swap1\n      tag_25\n      jump\t// in\n    tag_30:\n      mload(0x40)\n      dup1\n      swap2\n      sub\n      swap1\n      return\n        /* \"contracts/PBMTokenManager.sol\":273:322  mapping(uint256 => TokenConfig) public tokenTypes */\n    tag_5:\n      tag_31\n      0x04\n      dup1\n      calldatasize\n      sub\n      dup2\n      add\n      swap1\n      tag_32\n      swap2\n      swap1\n      tag_28\n      jump\t// in\n    tag_32:\n      tag_33\n      jump\t// in\n    tag_31:\n      mload(0x40)\n      tag_34\n      swap7\n      swap6\n      swap5\n      swap4\n      swap3\n      swap2\n      swap1\n      tag_35\n      jump\t// in\n    tag_34:\n      mload(0x40)\n      dup1\n      swap2\n      sub\n      swap1\n      return\n        /* \"contracts/PBMTokenManager.sol\":1055:1504  function revokePBM(uint256 tokenId, address sender) external override onlyOwner {... */\n    tag_6:\n      tag_36\n      0x04\n      dup1\n      calldatasize\n      sub\n      dup2\n      add\n      swap1\n      tag_37\n      swap2\n      swap1\n      tag_38\n      jump\t// in\n    tag_37:\n      tag_39\n      jump\t// in\n    tag_36:\n      stop\n        /* \"contracts/PBMTokenManager.sol\":2463:2676  function areTokensValid(uint256[] memory tokenIds) public view returns (bool) { for (uint256 i = 0; i < tokenIds.length; i++) { if (tokenIds[i] == 0 || tokenIds[i] >= tokenTypeCount) return false; } return true; } */\n    tag_7:\n      tag_40\n      0x04\n      dup1\n      calldatasize\n      sub\n      dup2\n      add\n      swap1\n      tag_41\n      swap2\n      swap1\n      tag_42\n      jump\t// in\n    tag_41:\n      tag_43\n      jump\t// in\n    tag_40:\n      mload(0x40)\n      tag_44\n      swap2\n      swap1\n      tag_45\n      jump\t// in\n    tag_44:\n      mload(0x40)\n      dup1\n      swap2\n      sub\n      swap1\n      return\n        /* \"contracts/PBMTokenManager.sol\":205:234  uint256 public tokenTypeCount */\n    tag_8:\n      tag_46\n      tag_47\n      jump\t// in\n    tag_46:\n      mload(0x40)\n      tag_48\n      swap2\n      swap1\n      tag_49\n      jump\t// in\n    tag_48:\n      mload(0x40)\n      dup1\n      swap2\n      sub\n      swap1\n      return\n        /* \"@openzeppelin/contracts/access/Ownable.sol\":2293:2394  function renounceOwnership() public virtual onlyOwner {... */\n    tag_9:\n      tag_50\n      tag_51\n      jump\t// in\n    tag_50:\n      stop\n        /* \"contracts/PBMTokenManager.sol\":452:1050  function createTokenType(string memory tokenName, uint256 spotAmount, uint256 tokenExpiry, address creator, string memory tokenURI, uint256 contractExpiry) external override onlyOwner returns (uint256 tokenId) {... */\n    tag_10:\n      tag_52\n      0x04\n      dup1\n      calldatasize\n      sub\n      dup2\n      add\n      swap1\n      tag_53\n      swap2\n      swap1\n      tag_54\n      jump\t// in\n    tag_53:\n      tag_55\n      jump\t// in\n    tag_52:\n      mload(0x40)\n      tag_56\n      swap2\n      swap1\n      tag_49\n      jump\t// in\n    tag_56:\n      mload(0x40)\n      dup1\n      swap2\n      sub\n      swap1\n      return\n        /* \"@openzeppelin/contracts/access/Ownable.sol\":1638:1723  function owner() public view virtual returns (address) {... */\n    tag_11:\n      tag_57\n      tag_58\n      jump\t// in\n    tag_57:\n      mload(0x40)\n      tag_59\n      swap2\n      swap1\n      tag_60\n      jump\t// in\n    tag_59:\n      mload(0x40)\n      dup1\n      swap2\n      sub\n      swap1\n      return\n        /* \"contracts/PBMTokenManager.sol\":2843:3126  function getTokenDetails(uint256 tokenId) external view override returns (string memory, uint256, uint256, uint256, address) { return (tokenTypes[tokenId].name, tokenTypes[tokenId].amount, tokenTypes[tokenId].balanceSupply, tokenTypes[tokenId].expiry, tokenTypes[tokenId].creator); } */\n    tag_12:\n      tag_61\n      0x04\n      dup1\n      calldatasize\n      sub\n      dup2\n      add\n      swap1\n      tag_62\n      swap2\n      swap1\n      tag_28\n      jump\t// in\n    tag_62:\n      tag_63\n      jump\t// in\n    tag_61:\n      mload(0x40)\n      tag_64\n      swap6\n      swap5\n      swap4\n      swap3\n      swap2\n      swap1\n      tag_65\n      jump\t// in\n    tag_64:\n      mload(0x40)\n      dup1\n      swap2\n      sub\n      swap1\n      return\n        /* \"contracts/PBMTokenManager.sol\":3131:3248  function getTokenValue(uint256 tokenId) public view override returns (uint256) { return tokenTypes[tokenId].amount; } */\n    tag_13:\n      tag_66\n      0x04\n      dup1\n      calldatasize\n      sub\n      dup2\n      add\n      swap1\n      tag_67\n      swap2\n      swap1\n      tag_28\n      jump\t// in\n    tag_67:\n      tag_68\n      jump\t// in\n    tag_66:\n      mload(0x40)\n      tag_69\n      swap2\n      swap1\n      tag_49\n      jump\t// in\n    tag_69:\n      mload(0x40)\n      dup1\n      swap2\n      sub\n      swap1\n      return\n        /* \"contracts/PBMTokenManager.sol\":2681:2838  function getPBMRevokeValue(uint256 tokenId) public view override returns (uint256) { return tokenTypes[tokenId].balanceSupply * tokenTypes[tokenId].amount; } */\n    tag_14:\n      tag_70\n      0x04\n      dup1\n      calldatasize\n      sub\n      dup2\n      add\n      swap1\n      tag_71\n      swap2\n      swap1\n      tag_28\n      jump\t// in\n    tag_71:\n      tag_72\n      jump\t// in\n    tag_70:\n      mload(0x40)\n      tag_73\n      swap2\n      swap1\n      tag_49\n      jump\t// in\n    tag_73:\n      mload(0x40)\n      dup1\n      swap2\n      sub\n      swap1\n      return\n        /* \"contracts/PBMTokenManager.sol\":3253:3586  function getTokenIdByTypeName(string memory tokenTypeName, uint256 spotAmount) external view override returns (uint256) { for (uint256 i = 1; i < tokenTypeCount; i++) { if (keccak256(abi.encodePacked(tokenTypes[i].name)) == keccak256(abi.encodePacked(tokenTypeName)) && tokenTypes[i].amount == spotAmount) { return i; } } return 0; } */\n    tag_15:\n      tag_74\n      0x04\n      dup1\n      calldatasize\n      sub\n      dup2\n      add\n      swap1\n      tag_75\n      swap2\n      swap1\n      tag_76\n      jump\t// in\n    tag_75:\n      tag_77\n      jump\t// in\n    tag_74:\n      mload(0x40)\n      tag_78\n      swap2\n      swap1\n      tag_49\n      jump\t// in\n    tag_78:\n      mload(0x40)\n      dup1\n      swap2\n      sub\n      swap1\n      return\n        /* \"contracts/PBMTokenManager.sol\":1886:2258  function decreaseBalanceSupply(uint256[] memory tokenIds, uint256[] memory amounts) external override onlyOwner {... */\n    tag_16:\n      tag_79\n      0x04\n      dup1\n      calldatasize\n      sub\n      dup2\n      add\n      swap1\n      tag_80\n      swap2\n      swap1\n      tag_81\n      jump\t// in\n    tag_80:\n      tag_82\n      jump\t// in\n    tag_79:\n      stop\n        /* \"@openzeppelin/contracts/access/Ownable.sol\":2543:2758  function transferOwnership(address newOwner) public virtual onlyOwner {... */\n    tag_17:\n      tag_83\n      0x04\n      dup1\n      calldatasize\n      sub\n      dup2\n      add\n      swap1\n      tag_84\n      swap2\n      swap1\n      tag_85\n      jump\t// in\n    tag_84:\n      tag_86\n      jump\t// in\n    tag_83:\n      stop\n        /* \"contracts/PBMTokenManager.sol\":1509:1881  function increaseBalanceSupply(uint256[] memory tokenIds, uint256[] memory amounts) external override onlyOwner {... */\n    tag_18:\n      tag_87\n      0x04\n      dup1\n      calldatasize\n      sub\n      dup2\n      add\n      swap1\n      tag_88\n      swap2\n      swap1\n      tag_81\n      jump\t// in\n    tag_88:\n      tag_89\n      jump\t// in\n    tag_87:\n      stop\n        /* \"contracts/PBMTokenManager.sol\":240:267  string public URIPostExpiry */\n    tag_23:\n      0x02\n      dup1\n      sload\n      tag_90\n      swap1\n      tag_91\n      jump\t// in\n    tag_90:\n      dup1\n      0x1f\n      add\n      0x20\n      dup1\n      swap2\n      div\n      mul\n      0x20\n      add\n      mload(0x40)\n      swap1\n      dup2\n      add\n      0x40\n      mstore\n      dup1\n      swap3\n      swap2\n      swap1\n      dup2\n      dup2\n      mstore\n      0x20\n      add\n      dup3\n      dup1\n      sload\n      tag_92\n      swap1\n      tag_91\n      jump\t// in\n    tag_92:\n      dup1\n      iszero\n      tag_93\n      jumpi\n      dup1\n      0x1f\n      lt\n      tag_94\n      jumpi\n      0x0100\n      dup1\n      dup4\n      sload\n      div\n      mul\n      dup4\n      mstore\n      swap2\n      0x20\n      add\n      swap2\n      jump(tag_93)\n    tag_94:\n      dup3\n      add\n      swap2\n      swap1\n      0x00\n      mstore\n      keccak256(0x00, 0x20)\n      swap1\n    tag_95:\n      dup2\n      sload\n      dup2\n      mstore\n      swap1\n      0x01\n      add\n      swap1\n      0x20\n      add\n      dup1\n      dup4\n      gt\n      tag_95\n      jumpi\n      dup3\n      swap1\n      sub\n      0x1f\n      and\n      dup3\n      add\n      swap2\n    tag_93:\n      pop\n      pop\n      pop\n      pop\n      pop\n      dup2\n      jump\t// out\n        /* \"contracts/PBMTokenManager.sol\":2263:2458  function uri(uint256 tokenId) public view override returns (string memory) { if (block.timestamp > tokenTypes[tokenId].expiry) { return URIPostExpiry; } else { return tokenTypes[tokenId].uri; } } */\n    tag_29:\n        /* \"contracts/PBMTokenManager.sol\":2323:2336  string memory */\n      0x60\n        /* \"contracts/PBMTokenManager.sol\":2362:2372  tokenTypes */\n      0x03\n        /* \"contracts/PBMTokenManager.sol\":2362:2381  tokenTypes[tokenId] */\n      0x00\n        /* \"contracts/PBMTokenManager.sol\":2373:2380  tokenId */\n      dup4\n        /* \"contracts/PBMTokenManager.sol\":2362:2381  tokenTypes[tokenId] */\n      dup2\n      mstore\n      0x20\n      add\n      swap1\n      dup2\n      mstore\n      0x20\n      add\n      0x00\n      keccak256\n        /* \"contracts/PBMTokenManager.sol\":2362:2388  tokenTypes[tokenId].expiry */\n      0x03\n      add\n      sload\n        /* \"contracts/PBMTokenManager.sol\":2344:2359  block.timestamp */\n      timestamp\n        /* \"contracts/PBMTokenManager.sol\":2344:2388  block.timestamp > tokenTypes[tokenId].expiry */\n      gt\n        /* \"contracts/PBMTokenManager.sol\":2340:2456  if (block.timestamp > tokenTypes[tokenId].expiry) { return URIPostExpiry; } else { return tokenTypes[tokenId].uri; } */\n      iszero\n      tag_97\n      jumpi\n        /* \"contracts/PBMTokenManager.sol\":2399:2412  URIPostExpiry */\n      0x02\n        /* \"contracts/PBMTokenManager.sol\":2392:2412  return URIPostExpiry */\n      dup1\n      sload\n      tag_98\n      swap1\n      tag_91\n      jump\t// in\n    tag_98:\n      dup1\n      0x1f\n      add\n      0x20\n      dup1\n      swap2\n      div\n      mul\n      0x20\n      add\n      mload(0x40)\n      swap1\n      dup2\n      add\n      0x40\n      mstore\n      dup1\n      swap3\n      swap2\n      swap1\n      dup2\n      dup2\n      mstore\n      0x20\n      add\n      dup3\n      dup1\n      sload\n      tag_99\n      swap1\n      tag_91\n      jump\t// in\n    tag_99:\n      dup1\n      iszero\n      tag_100\n      jumpi\n      dup1\n      0x1f\n      lt\n      tag_101\n      jumpi\n      0x0100\n      dup1\n      dup4\n      sload\n      div\n      mul\n      dup4\n      mstore\n      swap2\n      0x20\n      add\n      swap2\n      jump(tag_100)\n    tag_101:\n      dup3\n      add\n      swap2\n      swap1\n      0x00\n      mstore\n      keccak256(0x00, 0x20)\n      swap1\n    tag_102:\n      dup2\n      sload\n      dup2\n      mstore\n      swap1\n      0x01\n      add\n      swap1\n      0x20\n      add\n      dup1\n      dup4\n      gt\n      tag_102\n      jumpi\n      dup3\n      swap1\n      sub\n      0x1f\n      and\n      dup3\n      add\n      swap2\n    tag_100:\n      pop\n      pop\n      pop\n      pop\n      pop\n      swap1\n      pop\n      jump(tag_96)\n        /* \"contracts/PBMTokenManager.sol\":2340:2456  if (block.timestamp > tokenTypes[tokenId].expiry) { return URIPostExpiry; } else { return tokenTypes[tokenId].uri; } */\n    tag_97:\n        /* \"contracts/PBMTokenManager.sol\":2430:2440  tokenTypes */\n      0x03\n        /* \"contracts/PBMTokenManager.sol\":2430:2449  tokenTypes[tokenId] */\n      0x00\n        /* \"contracts/PBMTokenManager.sol\":2441:2448  tokenId */\n      dup4\n        /* \"contracts/PBMTokenManager.sol\":2430:2449  tokenTypes[tokenId] */\n      dup2\n      mstore\n      0x20\n      add\n      swap1\n      dup2\n      mstore\n      0x20\n      add\n      0x00\n      keccak256\n        /* \"contracts/PBMTokenManager.sol\":2430:2453  tokenTypes[tokenId].uri */\n      0x05\n      add\n        /* \"contracts/PBMTokenManager.sol\":2423:2453  return tokenTypes[tokenId].uri */\n      dup1\n      sload\n      tag_104\n      swap1\n      tag_91\n      jump\t// in\n    tag_104:\n      dup1\n      0x1f\n      add\n      0x20\n      dup1\n      swap2\n      div\n      mul\n      0x20\n      add\n      mload(0x40)\n      swap1\n      dup2\n      add\n      0x40\n      mstore\n      dup1\n      swap3\n      swap2\n      swap1\n      dup2\n      dup2\n      mstore\n      0x20\n      add\n      dup3\n      dup1\n      sload\n      tag_105\n      swap1\n      tag_91\n      jump\t// in\n    tag_105:\n      dup1\n      iszero\n      tag_106\n      jumpi\n      dup1\n      0x1f\n      lt\n      tag_107\n      jumpi\n      0x0100\n      dup1\n      dup4\n      sload\n      div\n      mul\n      dup4\n      mstore\n      swap2\n      0x20\n      add\n      swap2\n      jump(tag_106)\n    tag_107:\n      dup3\n      add\n      swap2\n      swap1\n      0x00\n      mstore\n      keccak256(0x00, 0x20)\n      swap1\n    tag_108:\n      dup2\n      sload\n      dup2\n      mstore\n      swap1\n      0x01\n      add\n      swap1\n      0x20\n      add\n      dup1\n      dup4\n      gt\n      tag_108\n      jumpi\n      dup3\n      swap1\n      sub\n      0x1f\n      and\n      dup3\n      add\n      swap2\n    tag_106:\n      pop\n      pop\n      pop\n      pop\n      pop\n      swap1\n      pop\n        /* \"contracts/PBMTokenManager.sol\":2263:2458  function uri(uint256 tokenId) public view override returns (string memory) { if (block.timestamp > tokenTypes[tokenId].expiry) { return URIPostExpiry; } else { return tokenTypes[tokenId].uri; } } */\n    tag_96:\n      swap2\n      swap1\n      pop\n      jump\t// out\n        /* \"contracts/PBMTokenManager.sol\":273:322  mapping(uint256 => TokenConfig) public tokenTypes */\n    tag_33:\n      mstore(0x20, 0x03)\n      dup1\n      0x00\n      mstore\n      keccak256(0x00, 0x40)\n      0x00\n      swap2\n      pop\n      swap1\n      pop\n      dup1\n      0x00\n      add\n      dup1\n      sload\n      tag_109\n      swap1\n      tag_91\n      jump\t// in\n    tag_109:\n      dup1\n      0x1f\n      add\n      0x20\n      dup1\n      swap2\n      div\n      mul\n      0x20\n      add\n      mload(0x40)\n      swap1\n      dup2\n      add\n      0x40\n      mstore\n      dup1\n      swap3\n      swap2\n      swap1\n      dup2\n      dup2\n      mstore\n      0x20\n      add\n      dup3\n      dup1\n      sload\n      tag_110\n      swap1\n      tag_91\n      jump\t// in\n    tag_110:\n      dup1\n      iszero\n      tag_111\n      jumpi\n      dup1\n      0x1f\n      lt\n      tag_112\n      jumpi\n      0x0100\n      dup1\n      dup4\n      sload\n      div\n      mul\n      dup4\n      mstore\n      swap2\n      0x20\n      add\n      swap2\n      jump(tag_111)\n    tag_112:\n      dup3\n      add\n      swap2\n      swap1\n      0x00\n      mstore\n      keccak256(0x00, 0x20)\n      swap1\n    tag_113:\n      dup2\n      sload\n      dup2\n      mstore\n      swap1\n      0x01\n      add\n      swap1\n      0x20\n      add\n      dup1\n      dup4\n      gt\n      tag_113\n      jumpi\n      dup3\n      swap1\n      sub\n      0x1f\n      and\n      dup3\n      add\n      swap2\n    tag_111:\n      pop\n      pop\n      pop\n      pop\n      pop\n      swap1\n      dup1\n      0x01\n      add\n      sload\n      swap1\n      dup1\n      0x02\n      add\n      sload\n      swap1\n      dup1\n      0x03\n      add\n      sload\n      swap1\n      dup1\n      0x04\n      add\n      0x00\n      swap1\n      sload\n      swap1\n      0x0100\n      exp\n      swap1\n      div\n      0xffffffffffffffffffffffffffffffffffffffff\n      and\n      swap1\n      dup1\n      0x05\n      add\n      dup1\n      sload\n      tag_114\n      swap1\n      tag_91\n      jump\t// in\n    tag_114:\n      dup1\n      0x1f\n      add\n      0x20\n      dup1\n      swap2\n      div\n      mul\n      0x20\n      add\n      mload(0x40)\n      swap1\n      dup2\n      add\n      0x40\n      mstore\n      dup1\n      swap3\n      swap2\n      swap1\n      dup2\n      dup2\n      mstore\n      0x20\n      add\n      dup3\n      dup1\n      sload\n      tag_115\n      swap1\n      tag_91\n      jump\t// in\n    tag_115:\n      dup1\n      iszero\n      tag_116\n      jumpi\n      dup1\n      0x1f\n      lt\n      tag_117\n      jumpi\n      0x0100\n      dup1\n      dup4\n      sload\n      div\n      mul\n      dup4\n      mstore\n      swap2\n      0x20\n      add\n      swap2\n      jump(tag_116)\n    tag_117:\n      dup3\n      add\n      swap2\n      swap1\n      0x00\n      mstore\n      keccak256(0x00, 0x20)\n      swap1\n    tag_118:\n      dup2\n      sload\n      dup2\n      mstore\n      swap1\n      0x01\n      add\n      swap1\n      0x20\n      add\n      dup1\n      dup4\n      gt\n      tag_118\n      jumpi\n      dup3\n      swap1\n      sub\n      0x1f\n      and\n      dup3\n      add\n      swap2\n    tag_116:\n      pop\n      pop\n      pop\n      pop\n      pop\n      swap1\n      pop\n      dup7\n      jump\t// out\n        /* \"contracts/PBMTokenManager.sol\":1055:1504  function revokePBM(uint256 tokenId, address sender) external override onlyOwner {... */\n    tag_39:\n        /* \"@openzeppelin/contracts/access/Ownable.sol\":1531:1544  _checkOwner() */\n      tag_120\n        /* \"@openzeppelin/contracts/access/Ownable.sol\":1531:1542  _checkOwner */\n      tag_121\n        /* \"@openzeppelin/contracts/access/Ownable.sol\":1531:1544  _checkOwner() */\n      jump\t// in\n    tag_120:\n        /* \"contracts/PBMTokenManager.sol\":1145:1170  uint256[] memory tokenIds */\n      0x00\n        /* \"contracts/PBMTokenManager.sol\":1187:1188  1 */\n      0x01\n        /* \"contracts/PBMTokenManager.sol\":1173:1189  new uint256[](1) */\n      0xffffffffffffffff\n      dup2\n      gt\n      iszero\n      tag_123\n      jumpi\n      tag_124\n      tag_125\n      jump\t// in\n    tag_124:\n    tag_123:\n      mload(0x40)\n      swap1\n      dup1\n      dup3\n      mstore\n      dup1\n      0x20\n      mul\n      0x20\n      add\n      dup3\n      add\n      0x40\n      mstore\n      dup1\n      iszero\n      tag_126\n      jumpi\n      dup2\n      0x20\n      add\n      0x20\n      dup3\n      mul\n      dup1\n      calldatasize\n      dup4\n      calldatacopy\n      dup1\n      dup3\n      add\n      swap2\n      pop\n      pop\n      swap1\n      pop\n    tag_126:\n      pop\n        /* \"contracts/PBMTokenManager.sol\":1145:1189  uint256[] memory tokenIds = new uint256[](1) */\n      swap1\n      pop\n        /* \"contracts/PBMTokenManager.sol\":1205:1212  tokenId */\n      dup3\n        /* \"contracts/PBMTokenManager.sol\":1191:1199  tokenIds */\n      dup2\n        /* \"contracts/PBMTokenManager.sol\":1200:1201  0 */\n      0x00\n        /* \"contracts/PBMTokenManager.sol\":1191:1202  tokenIds[0] */\n      dup2\n      mload\n      dup2\n      lt\n      tag_127\n      jumpi\n      tag_128\n      tag_129\n      jump\t// in\n    tag_128:\n    tag_127:\n      0x20\n      mul\n      0x20\n      add\n      add\n        /* \"contracts/PBMTokenManager.sol\":1191:1212  tokenIds[0] = tokenId */\n      dup2\n      dup2\n      mstore\n      pop\n      pop\n        /* \"contracts/PBMTokenManager.sol\":1230:1254  areTokensValid(tokenIds) */\n      tag_130\n        /* \"contracts/PBMTokenManager.sol\":1245:1253  tokenIds */\n      dup2\n        /* \"contracts/PBMTokenManager.sol\":1230:1244  areTokensValid */\n      tag_43\n        /* \"contracts/PBMTokenManager.sol\":1230:1254  areTokensValid(tokenIds) */\n      jump\t// in\n    tag_130:\n        /* \"contracts/PBMTokenManager.sol\":1222:1277  require(areTokensValid(tokenIds), \"PBM: Invalid token\") */\n      tag_131\n      jumpi\n      mload(0x40)\n      0x08c379a000000000000000000000000000000000000000000000000000000000\n      dup2\n      mstore\n      0x04\n      add\n      tag_132\n      swap1\n      tag_133\n      jump\t// in\n    tag_132:\n      mload(0x40)\n      dup1\n      swap2\n      sub\n      swap1\n      revert\n    tag_131:\n        /* \"contracts/PBMTokenManager.sol\":1313:1323  tokenTypes */\n      0x03\n        /* \"contracts/PBMTokenManager.sol\":1313:1332  tokenTypes[tokenId] */\n      0x00\n        /* \"contracts/PBMTokenManager.sol\":1324:1331  tokenId */\n      dup5\n        /* \"contracts/PBMTokenManager.sol\":1313:1332  tokenTypes[tokenId] */\n      dup2\n      mstore\n      0x20\n      add\n      swap1\n      dup2\n      mstore\n      0x20\n      add\n      0x00\n      keccak256\n        /* \"contracts/PBMTokenManager.sol\":1313:1339  tokenTypes[tokenId].expiry */\n      0x03\n      add\n      sload\n        /* \"contracts/PBMTokenManager.sol\":1295:1310  block.timestamp */\n      timestamp\n        /* \"contracts/PBMTokenManager.sol\":1295:1339  block.timestamp > tokenTypes[tokenId].expiry */\n      gt\n        /* \"contracts/PBMTokenManager.sol\":1287:1366  require(block.timestamp > tokenTypes[tokenId].expiry, \"PBM: Token not expired\") */\n      tag_134\n      jumpi\n      mload(0x40)\n      0x08c379a000000000000000000000000000000000000000000000000000000000\n      dup2\n      mstore\n      0x04\n      add\n      tag_135\n      swap1\n      tag_136\n      jump\t// in\n    tag_135:\n      mload(0x40)\n      dup1\n      swap2\n      sub\n      swap1\n      revert\n    tag_134:\n        /* \"contracts/PBMTokenManager.sol\":1394:1404  tokenTypes */\n      0x03\n        /* \"contracts/PBMTokenManager.sol\":1394:1413  tokenTypes[tokenId] */\n      0x00\n        /* \"contracts/PBMTokenManager.sol\":1405:1412  tokenId */\n      dup5\n        /* \"contracts/PBMTokenManager.sol\":1394:1413  tokenTypes[tokenId] */\n      dup2\n      mstore\n      0x20\n      add\n      swap1\n      dup2\n      mstore\n      0x20\n      add\n      0x00\n      keccak256\n        /* \"contracts/PBMTokenManager.sol\":1394:1421  tokenTypes[tokenId].creator */\n      0x04\n      add\n      0x00\n      swap1\n      sload\n      swap1\n      0x0100\n      exp\n      swap1\n      div\n      0xffffffffffffffffffffffffffffffffffffffff\n      and\n        /* \"contracts/PBMTokenManager.sol\":1384:1421  sender == tokenTypes[tokenId].creator */\n      0xffffffffffffffffffffffffffffffffffffffff\n      and\n        /* \"contracts/PBMTokenManager.sol\":1384:1390  sender */\n      dup3\n        /* \"contracts/PBMTokenManager.sol\":1384:1421  sender == tokenTypes[tokenId].creator */\n      0xffffffffffffffffffffffffffffffffffffffff\n      and\n      eq\n        /* \"contracts/PBMTokenManager.sol\":1376:1442  require(sender == tokenTypes[tokenId].creator, \"PBM: Not creator\") */\n      tag_137\n      jumpi\n      mload(0x40)\n      0x08c379a000000000000000000000000000000000000000000000000000000000\n      dup2\n      mstore\n      0x04\n      add\n      tag_138\n      swap1\n      tag_139\n      jump\t// in\n    tag_138:\n      mload(0x40)\n      dup1\n      swap2\n      sub\n      swap1\n      revert\n    tag_137:\n        /* \"contracts/PBMTokenManager.sol\":1488:1489  0 */\n      0x00\n        /* \"contracts/PBMTokenManager.sol\":1452:1462  tokenTypes */\n      0x03\n        /* \"contracts/PBMTokenManager.sol\":1452:1471  tokenTypes[tokenId] */\n      0x00\n        /* \"contracts/PBMTokenManager.sol\":1463:1470  tokenId */\n      dup6\n        /* \"contracts/PBMTokenManager.sol\":1452:1471  tokenTypes[tokenId] */\n      dup2\n      mstore\n      0x20\n      add\n      swap1\n      dup2\n      mstore\n      0x20\n      add\n      0x00\n      keccak256\n        /* \"contracts/PBMTokenManager.sol\":1452:1485  tokenTypes[tokenId].balanceSupply */\n      0x02\n      add\n        /* \"contracts/PBMTokenManager.sol\":1452:1489  tokenTypes[tokenId].balanceSupply = 0 */\n      dup2\n      swap1\n      sstore\n      pop\n        /* \"contracts/PBMTokenManager.sol\":1135:1504  {... */\n      pop\n        /* \"contracts/PBMTokenManager.sol\":1055:1504  function revokePBM(uint256 tokenId, address sender) external override onlyOwner {... */\n      pop\n      pop\n      jump\t// out\n        /* \"contracts/PBMTokenManager.sol\":2463:2676  function areTokensValid(uint256[] memory tokenIds) public view returns (bool) { for (uint256 i = 0; i < tokenIds.length; i++) { if (tokenIds[i] == 0 || tokenIds[i] >= tokenTypeCount) return false; } return true; } */\n    tag_43:\n        /* \"contracts/PBMTokenManager.sol\":2535:2539  bool */\n      0x00\n        /* \"contracts/PBMTokenManager.sol\":2548:2557  uint256 i */\n      0x00\n        /* \"contracts/PBMTokenManager.sol\":2560:2561  0 */\n      0x00\n        /* \"contracts/PBMTokenManager.sol\":2548:2561  uint256 i = 0 */\n      swap1\n      pop\n        /* \"contracts/PBMTokenManager.sol\":2543:2661  for (uint256 i = 0; i < tokenIds.length; i++) { if (tokenIds[i] == 0 || tokenIds[i] >= tokenTypeCount) return false; } */\n    tag_141:\n        /* \"contracts/PBMTokenManager.sol\":2567:2575  tokenIds */\n      dup3\n        /* \"contracts/PBMTokenManager.sol\":2567:2582  tokenIds.length */\n      mload\n        /* \"contracts/PBMTokenManager.sol\":2563:2564  i */\n      dup2\n        /* \"contracts/PBMTokenManager.sol\":2563:2582  i < tokenIds.length */\n      lt\n        /* \"contracts/PBMTokenManager.sol\":2543:2661  for (uint256 i = 0; i < tokenIds.length; i++) { if (tokenIds[i] == 0 || tokenIds[i] >= tokenTypeCount) return false; } */\n      iszero\n      tag_142\n      jumpi\n        /* \"contracts/PBMTokenManager.sol\":2610:2611  0 */\n      0x00\n        /* \"contracts/PBMTokenManager.sol\":2595:2603  tokenIds */\n      dup4\n        /* \"contracts/PBMTokenManager.sol\":2604:2605  i */\n      dup3\n        /* \"contracts/PBMTokenManager.sol\":2595:2606  tokenIds[i] */\n      dup2\n      mload\n      dup2\n      lt\n      tag_144\n      jumpi\n      tag_145\n      tag_129\n      jump\t// in\n    tag_145:\n    tag_144:\n      0x20\n      mul\n      0x20\n      add\n      add\n      mload\n        /* \"contracts/PBMTokenManager.sol\":2595:2611  tokenIds[i] == 0 */\n      eq\n        /* \"contracts/PBMTokenManager.sol\":2595:2644  tokenIds[i] == 0 || tokenIds[i] >= tokenTypeCount */\n      dup1\n      tag_146\n      jumpi\n      pop\n        /* \"contracts/PBMTokenManager.sol\":2630:2644  tokenTypeCount */\n      sload(0x01)\n        /* \"contracts/PBMTokenManager.sol\":2615:2623  tokenIds */\n      dup4\n        /* \"contracts/PBMTokenManager.sol\":2624:2625  i */\n      dup3\n        /* \"contracts/PBMTokenManager.sol\":2615:2626  tokenIds[i] */\n      dup2\n      mload\n      dup2\n      lt\n      tag_147\n      jumpi\n      tag_148\n      tag_129\n      jump\t// in\n    tag_148:\n    tag_147:\n      0x20\n      mul\n      0x20\n      add\n      add\n      mload\n        /* \"contracts/PBMTokenManager.sol\":2615:2644  tokenIds[i] >= tokenTypeCount */\n      lt\n      iszero\n        /* \"contracts/PBMTokenManager.sol\":2595:2644  tokenIds[i] == 0 || tokenIds[i] >= tokenTypeCount */\n    tag_146:\n        /* \"contracts/PBMTokenManager.sol\":2591:2658  if (tokenIds[i] == 0 || tokenIds[i] >= tokenTypeCount) return false */\n      iszero\n      tag_149\n      jumpi\n        /* \"contracts/PBMTokenManager.sol\":2653:2658  false */\n      0x00\n        /* \"contracts/PBMTokenManager.sol\":2646:2658  return false */\n      swap2\n      pop\n      pop\n      jump(tag_140)\n        /* \"contracts/PBMTokenManager.sol\":2591:2658  if (tokenIds[i] == 0 || tokenIds[i] >= tokenTypeCount) return false */\n    tag_149:\n        /* \"contracts/PBMTokenManager.sol\":2584:2587  i++ */\n      dup1\n      dup1\n      0x01\n      add\n      swap2\n      pop\n      pop\n        /* \"contracts/PBMTokenManager.sol\":2543:2661  for (uint256 i = 0; i < tokenIds.length; i++) { if (tokenIds[i] == 0 || tokenIds[i] >= tokenTypeCount) return false; } */\n      jump(tag_141)\n    tag_142:\n      pop\n        /* \"contracts/PBMTokenManager.sol\":2669:2673  true */\n      0x01\n        /* \"contracts/PBMTokenManager.sol\":2662:2673  return true */\n      swap1\n      pop\n        /* \"contracts/PBMTokenManager.sol\":2463:2676  function areTokensValid(uint256[] memory tokenIds) public view returns (bool) { for (uint256 i = 0; i < tokenIds.length; i++) { if (tokenIds[i] == 0 || tokenIds[i] >= tokenTypeCount) return false; } return true; } */\n    tag_140:\n      swap2\n      swap1\n      pop\n      jump\t// out\n        /* \"contracts/PBMTokenManager.sol\":205:234  uint256 public tokenTypeCount */\n    tag_47:\n      sload(0x01)\n      dup2\n      jump\t// out\n        /* \"@openzeppelin/contracts/access/Ownable.sol\":2293:2394  function renounceOwnership() public virtual onlyOwner {... */\n    tag_51:\n        /* \"@openzeppelin/contracts/access/Ownable.sol\":1531:1544  _checkOwner() */\n      tag_151\n        /* \"@openzeppelin/contracts/access/Ownable.sol\":1531:1542  _checkOwner */\n      tag_121\n        /* \"@openzeppelin/contracts/access/Ownable.sol\":1531:1544  _checkOwner() */\n      jump\t// in\n    tag_151:\n        /* \"@openzeppelin/contracts/access/Ownable.sol\":2357:2387  _transferOwnership(address(0)) */\n      tag_153\n        /* \"@openzeppelin/contracts/access/Ownable.sol\":2384:2385  0 */\n      0x00\n        /* \"@openzeppelin/contracts/access/Ownable.sol\":2357:2375  _transferOwnership */\n      tag_154\n        /* \"@openzeppelin/contracts/access/Ownable.sol\":2357:2387  _transferOwnership(address(0)) */\n      jump\t// in\n    tag_153:\n        /* \"@openzeppelin/contracts/access/Ownable.sol\":2293:2394  function renounceOwnership() public virtual onlyOwner {... */\n      jump\t// out\n        /* \"contracts/PBMTokenManager.sol\":452:1050  function createTokenType(string memory tokenName, uint256 spotAmount, uint256 tokenExpiry, address creator, string memory tokenURI, uint256 contractExpiry) external override onlyOwner returns (uint256 tokenId) {... */\n    tag_55:\n        /* \"contracts/PBMTokenManager.sol\":645:660  uint256 tokenId */\n      0x00\n        /* \"@openzeppelin/contracts/access/Ownable.sol\":1531:1544  _checkOwner() */\n      tag_156\n        /* \"@openzeppelin/contracts/access/Ownable.sol\":1531:1542  _checkOwner */\n      tag_121\n        /* \"@openzeppelin/contracts/access/Ownable.sol\":1531:1544  _checkOwner() */\n      jump\t// in\n    tag_156:\n        /* \"contracts/PBMTokenManager.sol\":695:709  contractExpiry */\n      dup2\n        /* \"contracts/PBMTokenManager.sol\":680:691  tokenExpiry */\n      dup6\n        /* \"contracts/PBMTokenManager.sol\":680:709  tokenExpiry <= contractExpiry */\n      gt\n      iszero\n        /* \"contracts/PBMTokenManager.sol\":672:736  require(tokenExpiry <= contractExpiry, \"Invalid token expiry-1\") */\n      tag_158\n      jumpi\n      mload(0x40)\n      0x08c379a000000000000000000000000000000000000000000000000000000000\n      dup2\n      mstore\n      0x04\n      add\n      tag_159\n      swap1\n      tag_160\n      jump\t// in\n    tag_159:\n      mload(0x40)\n      dup1\n      swap2\n      sub\n      swap1\n      revert\n    tag_158:\n        /* \"contracts/PBMTokenManager.sol\":768:783  block.timestamp */\n      timestamp\n        /* \"contracts/PBMTokenManager.sol\":754:765  tokenExpiry */\n      dup6\n        /* \"contracts/PBMTokenManager.sol\":754:783  tokenExpiry > block.timestamp */\n      gt\n        /* \"contracts/PBMTokenManager.sol\":746:810  require(tokenExpiry > block.timestamp, \"Invalid token expiry-2\") */\n      tag_161\n      jumpi\n      mload(0x40)\n      0x08c379a000000000000000000000000000000000000000000000000000000000\n      dup2\n      mstore\n      0x04\n      add\n      tag_162\n      swap1\n      tag_163\n      jump\t// in\n    tag_162:\n      mload(0x40)\n      dup1\n      swap2\n      sub\n      swap1\n      revert\n    tag_161:\n        /* \"contracts/PBMTokenManager.sol\":842:843  0 */\n      0x00\n        /* \"contracts/PBMTokenManager.sol\":828:838  spotAmount */\n      dup7\n        /* \"contracts/PBMTokenManager.sol\":828:843  spotAmount != 0 */\n      sub\n        /* \"contracts/PBMTokenManager.sol\":820:864  require(spotAmount != 0, \"Spot amount is 0\") */\n      tag_164\n      jumpi\n      mload(0x40)\n      0x08c379a000000000000000000000000000000000000000000000000000000000\n      dup2\n      mstore\n      0x04\n      add\n      tag_165\n      swap1\n      tag_166\n      jump\t// in\n    tag_165:\n      mload(0x40)\n      dup1\n      swap2\n      sub\n      swap1\n      revert\n    tag_164:\n        /* \"contracts/PBMTokenManager.sol\":903:972  TokenConfig(tokenName, spotAmount, 0, tokenExpiry, creator, tokenURI) */\n      mload(0x40)\n      dup1\n      0xc0\n      add\n      0x40\n      mstore\n      dup1\n        /* \"contracts/PBMTokenManager.sol\":915:924  tokenName */\n      dup9\n        /* \"contracts/PBMTokenManager.sol\":903:972  TokenConfig(tokenName, spotAmount, 0, tokenExpiry, creator, tokenURI) */\n      dup2\n      mstore\n      0x20\n      add\n        /* \"contracts/PBMTokenManager.sol\":926:936  spotAmount */\n      dup8\n        /* \"contracts/PBMTokenManager.sol\":903:972  TokenConfig(tokenName, spotAmount, 0, tokenExpiry, creator, tokenURI) */\n      dup2\n      mstore\n      0x20\n      add\n        /* \"contracts/PBMTokenManager.sol\":938:939  0 */\n      0x00\n        /* \"contracts/PBMTokenManager.sol\":903:972  TokenConfig(tokenName, spotAmount, 0, tokenExpiry, creator, tokenURI) */\n      dup2\n      mstore\n      0x20\n      add\n        /* \"contracts/PBMTokenManager.sol\":941:952  tokenExpiry */\n      dup7\n        /* \"contracts/PBMTokenManager.sol\":903:972  TokenConfig(tokenName, spotAmount, 0, tokenExpiry, creator, tokenURI) */\n      dup2\n      mstore\n      0x20\n      add\n        /* \"contracts/PBMTokenManager.sol\":954:961  creator */\n      dup6\n        /* \"contracts/PBMTokenManager.sol\":903:972  TokenConfig(tokenName, spotAmount, 0, tokenExpiry, creator, tokenURI) */\n      0xffffffffffffffffffffffffffffffffffffffff\n      and\n      dup2\n      mstore\n      0x20\n      add\n        /* \"contracts/PBMTokenManager.sol\":963:971  tokenURI */\n      dup5\n        /* \"contracts/PBMTokenManager.sol\":903:972  TokenConfig(tokenName, spotAmount, 0, tokenExpiry, creator, tokenURI) */\n      dup2\n      mstore\n      pop\n        /* \"contracts/PBMTokenManager.sol\":874:884  tokenTypes */\n      0x03\n        /* \"contracts/PBMTokenManager.sol\":874:900  tokenTypes[tokenTypeCount] */\n      0x00\n        /* \"contracts/PBMTokenManager.sol\":885:899  tokenTypeCount */\n      sload(0x01)\n        /* \"contracts/PBMTokenManager.sol\":874:900  tokenTypes[tokenTypeCount] */\n      dup2\n      mstore\n      0x20\n      add\n      swap1\n      dup2\n      mstore\n      0x20\n      add\n      0x00\n      keccak256\n        /* \"contracts/PBMTokenManager.sol\":874:972  tokenTypes[tokenTypeCount] = TokenConfig(tokenName, spotAmount, 0, tokenExpiry, creator, tokenURI) */\n      0x00\n      dup3\n      add\n      mload\n      dup2\n      0x00\n      add\n      swap1\n      dup2\n      tag_167\n      swap2\n      swap1\n      tag_168\n      jump\t// in\n    tag_167:\n      pop\n      0x20\n      dup3\n      add\n      mload\n      dup2\n      0x01\n      add\n      sstore\n      0x40\n      dup3\n      add\n      mload\n      dup2\n      0x02\n      add\n      sstore\n      0x60\n      dup3\n      add\n      mload\n      dup2\n      0x03\n      add\n      sstore\n      0x80\n      dup3\n      add\n      mload\n      dup2\n      0x04\n      add\n      exp(0x0100, 0x00)\n      dup2\n      sload\n      dup2\n      0xffffffffffffffffffffffffffffffffffffffff\n      mul\n      not\n      and\n      swap1\n      dup4\n      0xffffffffffffffffffffffffffffffffffffffff\n      and\n      mul\n      or\n      swap1\n      sstore\n      pop\n      0xa0\n      dup3\n      add\n      mload\n      dup2\n      0x05\n      add\n      swap1\n      dup2\n      tag_169\n      swap2\n      swap1\n      tag_168\n      jump\t// in\n    tag_169:\n      pop\n      swap1\n      pop\n      pop\n        /* \"contracts/PBMTokenManager.sol\":1000:1014  tokenTypeCount */\n      sload(0x01)\n        /* \"contracts/PBMTokenManager.sol\":990:1014  tokenId = tokenTypeCount */\n      swap1\n      pop\n        /* \"contracts/PBMTokenManager.sol\":1042:1043  1 */\n      0x01\n        /* \"contracts/PBMTokenManager.sol\":1024:1038  tokenTypeCount */\n      dup1\n      0x00\n        /* \"contracts/PBMTokenManager.sol\":1024:1043  tokenTypeCount += 1 */\n      dup3\n      dup3\n      sload\n      tag_170\n      swap2\n      swap1\n      tag_171\n      jump\t// in\n    tag_170:\n      swap3\n      pop\n      pop\n      dup2\n      swap1\n      sstore\n      pop\n        /* \"contracts/PBMTokenManager.sol\":452:1050  function createTokenType(string memory tokenName, uint256 spotAmount, uint256 tokenExpiry, address creator, string memory tokenURI, uint256 contractExpiry) external override onlyOwner returns (uint256 tokenId) {... */\n      swap7\n      swap6\n      pop\n      pop\n      pop\n      pop\n      pop\n      pop\n      jump\t// out\n        /* \"@openzeppelin/contracts/access/Ownable.sol\":1638:1723  function owner() public view virtual returns (address) {... */\n    tag_58:\n        /* \"@openzeppelin/contracts/access/Ownable.sol\":1684:1691  address */\n      0x00\n        /* \"@openzeppelin/contracts/access/Ownable.sol\":1710:1716  _owner */\n      0x00\n      0x00\n      swap1\n      sload\n      swap1\n      0x0100\n      exp\n      swap1\n      div\n      0xffffffffffffffffffffffffffffffffffffffff\n      and\n        /* \"@openzeppelin/contracts/access/Ownable.sol\":1703:1716  return _owner */\n      swap1\n      pop\n        /* \"@openzeppelin/contracts/access/Ownable.sol\":1638:1723  function owner() public view virtual returns (address) {... */\n      swap1\n      jump\t// out\n        /* \"contracts/PBMTokenManager.sol\":2843:3126  function getTokenDetails(uint256 tokenId) external view override returns (string memory, uint256, uint256, uint256, address) { return (tokenTypes[tokenId].name, tokenTypes[tokenId].amount, tokenTypes[tokenId].balanceSupply, tokenTypes[tokenId].expiry, tokenTypes[tokenId].creator); } */\n    tag_63:\n        /* \"contracts/PBMTokenManager.sol\":2917:2930  string memory */\n      0x60\n        /* \"contracts/PBMTokenManager.sol\":2932:2939  uint256 */\n      0x00\n        /* \"contracts/PBMTokenManager.sol\":2941:2948  uint256 */\n      0x00\n        /* \"contracts/PBMTokenManager.sol\":2950:2957  uint256 */\n      0x00\n        /* \"contracts/PBMTokenManager.sol\":2959:2966  address */\n      0x00\n        /* \"contracts/PBMTokenManager.sol\":2978:2988  tokenTypes */\n      0x03\n        /* \"contracts/PBMTokenManager.sol\":2978:2997  tokenTypes[tokenId] */\n      0x00\n        /* \"contracts/PBMTokenManager.sol\":2989:2996  tokenId */\n      dup8\n        /* \"contracts/PBMTokenManager.sol\":2978:2997  tokenTypes[tokenId] */\n      dup2\n      mstore\n      0x20\n      add\n      swap1\n      dup2\n      mstore\n      0x20\n      add\n      0x00\n      keccak256\n        /* \"contracts/PBMTokenManager.sol\":2978:3002  tokenTypes[tokenId].name */\n      0x00\n      add\n        /* \"contracts/PBMTokenManager.sol\":3004:3014  tokenTypes */\n      0x03\n        /* \"contracts/PBMTokenManager.sol\":3004:3023  tokenTypes[tokenId] */\n      0x00\n        /* \"contracts/PBMTokenManager.sol\":3015:3022  tokenId */\n      dup9\n        /* \"contracts/PBMTokenManager.sol\":3004:3023  tokenTypes[tokenId] */\n      dup2\n      mstore\n      0x20\n      add\n      swap1\n      dup2\n      mstore\n      0x20\n      add\n      0x00\n      keccak256\n        /* \"contracts/PBMTokenManager.sol\":3004:3030  tokenTypes[tokenId].amount */\n      0x01\n      add\n      sload\n        /* \"contracts/PBMTokenManager.sol\":3032:3042  tokenTypes */\n      0x03\n        /* \"contracts/PBMTokenManager.sol\":3032:3051  tokenTypes[tokenId] */\n      0x00\n        /* \"contracts/PBMTokenManager.sol\":3043:3050  tokenId */\n      dup10\n        /* \"contracts/PBMTokenManager.sol\":3032:3051  tokenTypes[tokenId] */\n      dup2\n      mstore\n      0x20\n      add\n      swap1\n      dup2\n      mstore\n      0x20\n      add\n      0x00\n      keccak256\n        /* \"contracts/PBMTokenManager.sol\":3032:3065  tokenTypes[tokenId].balanceSupply */\n      0x02\n      add\n      sload\n        /* \"contracts/PBMTokenManager.sol\":3067:3077  tokenTypes */\n      0x03\n        /* \"contracts/PBMTokenManager.sol\":3067:3086  tokenTypes[tokenId] */\n      0x00\n        /* \"contracts/PBMTokenManager.sol\":3078:3085  tokenId */\n      dup11\n        /* \"contracts/PBMTokenManager.sol\":3067:3086  tokenTypes[tokenId] */\n      dup2\n      mstore\n      0x20\n      add\n      swap1\n      dup2\n      mstore\n      0x20\n      add\n      0x00\n      keccak256\n        /* \"contracts/PBMTokenManager.sol\":3067:3093  tokenTypes[tokenId].expiry */\n      0x03\n      add\n      sload\n        /* \"contracts/PBMTokenManager.sol\":3095:3105  tokenTypes */\n      0x03\n        /* \"contracts/PBMTokenManager.sol\":3095:3114  tokenTypes[tokenId] */\n      0x00\n        /* \"contracts/PBMTokenManager.sol\":3106:3113  tokenId */\n      dup12\n        /* \"contracts/PBMTokenManager.sol\":3095:3114  tokenTypes[tokenId] */\n      dup2\n      mstore\n      0x20\n      add\n      swap1\n      dup2\n      mstore\n      0x20\n      add\n      0x00\n      keccak256\n        /* \"contracts/PBMTokenManager.sol\":3095:3122  tokenTypes[tokenId].creator */\n      0x04\n      add\n      0x00\n      swap1\n      sload\n      swap1\n      0x0100\n      exp\n      swap1\n      div\n      0xffffffffffffffffffffffffffffffffffffffff\n      and\n        /* \"contracts/PBMTokenManager.sol\":2970:3123  return (tokenTypes[tokenId].name, tokenTypes[tokenId].amount, tokenTypes[tokenId].balanceSupply, tokenTypes[tokenId].expiry, tokenTypes[tokenId].creator) */\n      dup5\n      dup1\n      sload\n      tag_174\n      swap1\n      tag_91\n      jump\t// in\n    tag_174:\n      dup1\n      0x1f\n      add\n      0x20\n      dup1\n      swap2\n      div\n      mul\n      0x20\n      add\n      mload(0x40)\n      swap1\n      dup2\n      add\n      0x40\n      mstore\n      dup1\n      swap3\n      swap2\n      swap1\n      dup2\n      dup2\n      mstore\n      0x20\n      add\n      dup3\n      dup1\n      sload\n      tag_175\n      swap1\n      tag_91\n      jump\t// in\n    tag_175:\n      dup1\n      iszero\n      tag_176\n      jumpi\n      dup1\n      0x1f\n      lt\n      tag_177\n      jumpi\n      0x0100\n      dup1\n      dup4\n      sload\n      div\n      mul\n      dup4\n      mstore\n      swap2\n      0x20\n      add\n      swap2\n      jump(tag_176)\n    tag_177:\n      dup3\n      add\n      swap2\n      swap1\n      0x00\n      mstore\n      keccak256(0x00, 0x20)\n      swap1\n    tag_178:\n      dup2\n      sload\n      dup2\n      mstore\n      swap1\n      0x01\n      add\n      swap1\n      0x20\n      add\n      dup1\n      dup4\n      gt\n      tag_178\n      jumpi\n      dup3\n      swap1\n      sub\n      0x1f\n      and\n      dup3\n      add\n      swap2\n    tag_176:\n      pop\n      pop\n      pop\n      pop\n      pop\n      swap5\n      pop\n      swap5\n      pop\n      swap5\n      pop\n      swap5\n      pop\n      swap5\n      pop\n      swap5\n      pop\n        /* \"contracts/PBMTokenManager.sol\":2843:3126  function getTokenDetails(uint256 tokenId) external view override returns (string memory, uint256, uint256, uint256, address) { return (tokenTypes[tokenId].name, tokenTypes[tokenId].amount, tokenTypes[tokenId].balanceSupply, tokenTypes[tokenId].expiry, tokenTypes[tokenId].creator); } */\n      swap2\n      swap4\n      swap6\n      swap1\n      swap3\n      swap5\n      pop\n      jump\t// out\n        /* \"contracts/PBMTokenManager.sol\":3131:3248  function getTokenValue(uint256 tokenId) public view override returns (uint256) { return tokenTypes[tokenId].amount; } */\n    tag_68:\n        /* \"contracts/PBMTokenManager.sol\":3201:3208  uint256 */\n      0x00\n        /* \"contracts/PBMTokenManager.sol\":3219:3229  tokenTypes */\n      0x03\n        /* \"contracts/PBMTokenManager.sol\":3219:3238  tokenTypes[tokenId] */\n      0x00\n        /* \"contracts/PBMTokenManager.sol\":3230:3237  tokenId */\n      dup4\n        /* \"contracts/PBMTokenManager.sol\":3219:3238  tokenTypes[tokenId] */\n      dup2\n      mstore\n      0x20\n      add\n      swap1\n      dup2\n      mstore\n      0x20\n      add\n      0x00\n      keccak256\n        /* \"contracts/PBMTokenManager.sol\":3219:3245  tokenTypes[tokenId].amount */\n      0x01\n      add\n      sload\n        /* \"contracts/PBMTokenManager.sol\":3212:3245  return tokenTypes[tokenId].amount */\n      swap1\n      pop\n        /* \"contracts/PBMTokenManager.sol\":3131:3248  function getTokenValue(uint256 tokenId) public view override returns (uint256) { return tokenTypes[tokenId].amount; } */\n      swap2\n      swap1\n      pop\n      jump\t// out\n        /* \"contracts/PBMTokenManager.sol\":2681:2838  function getPBMRevokeValue(uint256 tokenId) public view override returns (uint256) { return tokenTypes[tokenId].balanceSupply * tokenTypes[tokenId].amount; } */\n    tag_72:\n        /* \"contracts/PBMTokenManager.sol\":2755:2762  uint256 */\n      0x00\n        /* \"contracts/PBMTokenManager.sol\":2809:2819  tokenTypes */\n      0x03\n        /* \"contracts/PBMTokenManager.sol\":2809:2828  tokenTypes[tokenId] */\n      0x00\n        /* \"contracts/PBMTokenManager.sol\":2820:2827  tokenId */\n      dup4\n        /* \"contracts/PBMTokenManager.sol\":2809:2828  tokenTypes[tokenId] */\n      dup2\n      mstore\n      0x20\n      add\n      swap1\n      dup2\n      mstore\n      0x20\n      add\n      0x00\n      keccak256\n        /* \"contracts/PBMTokenManager.sol\":2809:2835  tokenTypes[tokenId].amount */\n      0x01\n      add\n      sload\n        /* \"contracts/PBMTokenManager.sol\":2773:2783  tokenTypes */\n      0x03\n        /* \"contracts/PBMTokenManager.sol\":2773:2792  tokenTypes[tokenId] */\n      0x00\n        /* \"contracts/PBMTokenManager.sol\":2784:2791  tokenId */\n      dup5\n        /* \"contracts/PBMTokenManager.sol\":2773:2792  tokenTypes[tokenId] */\n      dup2\n      mstore\n      0x20\n      add\n      swap1\n      dup2\n      mstore\n      0x20\n      add\n      0x00\n      keccak256\n        /* \"contracts/PBMTokenManager.sol\":2773:2806  tokenTypes[tokenId].balanceSupply */\n      0x02\n      add\n      sload\n        /* \"contracts/PBMTokenManager.sol\":2773:2835  tokenTypes[tokenId].balanceSupply * tokenTypes[tokenId].amount */\n      tag_181\n      swap2\n      swap1\n      tag_182\n      jump\t// in\n    tag_181:\n        /* \"contracts/PBMTokenManager.sol\":2766:2835  return tokenTypes[tokenId].balanceSupply * tokenTypes[tokenId].amount */\n      swap1\n      pop\n        /* \"contracts/PBMTokenManager.sol\":2681:2838  function getPBMRevokeValue(uint256 tokenId) public view override returns (uint256) { return tokenTypes[tokenId].balanceSupply * tokenTypes[tokenId].amount; } */\n      swap2\n      swap1\n      pop\n      jump\t// out\n        /* \"contracts/PBMTokenManager.sol\":3253:3586  function getTokenIdByTypeName(string memory tokenTypeName, uint256 spotAmount) external view override returns (uint256) { for (uint256 i = 1; i < tokenTypeCount; i++) { if (keccak256(abi.encodePacked(tokenTypes[i].name)) == keccak256(abi.encodePacked(tokenTypeName)) && tokenTypes[i].amount == spotAmount) { return i; } } return 0; } */\n    tag_77:\n        /* \"contracts/PBMTokenManager.sol\":3364:3371  uint256 */\n      0x00\n        /* \"contracts/PBMTokenManager.sol\":3380:3389  uint256 i */\n      0x00\n        /* \"contracts/PBMTokenManager.sol\":3392:3393  1 */\n      0x01\n        /* \"contracts/PBMTokenManager.sol\":3380:3393  uint256 i = 1 */\n      swap1\n      pop\n        /* \"contracts/PBMTokenManager.sol\":3375:3574  for (uint256 i = 1; i < tokenTypeCount; i++) { if (keccak256(abi.encodePacked(tokenTypes[i].name)) == keccak256(abi.encodePacked(tokenTypeName)) && tokenTypes[i].amount == spotAmount) { return i; } } */\n    tag_184:\n        /* \"contracts/PBMTokenManager.sol\":3399:3413  tokenTypeCount */\n      sload(0x01)\n        /* \"contracts/PBMTokenManager.sol\":3395:3396  i */\n      dup2\n        /* \"contracts/PBMTokenManager.sol\":3395:3413  i < tokenTypeCount */\n      lt\n        /* \"contracts/PBMTokenManager.sol\":3375:3574  for (uint256 i = 1; i < tokenTypeCount; i++) { if (keccak256(abi.encodePacked(tokenTypes[i].name)) == keccak256(abi.encodePacked(tokenTypeName)) && tokenTypes[i].amount == spotAmount) { return i; } } */\n      iszero\n      tag_185\n      jumpi\n        /* \"contracts/PBMTokenManager.sol\":3504:3517  tokenTypeName */\n      dup4\n        /* \"contracts/PBMTokenManager.sol\":3487:3518  abi.encodePacked(tokenTypeName) */\n      add(0x20, mload(0x40))\n      tag_187\n      swap2\n      swap1\n      tag_188\n      jump\t// in\n    tag_187:\n      mload(0x40)\n      0x20\n      dup2\n      dup4\n      sub\n      sub\n      dup2\n      mstore\n      swap1\n      0x40\n      mstore\n        /* \"contracts/PBMTokenManager.sol\":3477:3519  keccak256(abi.encodePacked(tokenTypeName)) */\n      dup1\n      mload\n      swap1\n      0x20\n      add\n      keccak256\n        /* \"contracts/PBMTokenManager.sol\":3453:3463  tokenTypes */\n      0x03\n        /* \"contracts/PBMTokenManager.sol\":3453:3466  tokenTypes[i] */\n      0x00\n        /* \"contracts/PBMTokenManager.sol\":3464:3465  i */\n      dup4\n        /* \"contracts/PBMTokenManager.sol\":3453:3466  tokenTypes[i] */\n      dup2\n      mstore\n      0x20\n      add\n      swap1\n      dup2\n      mstore\n      0x20\n      add\n      0x00\n      keccak256\n        /* \"contracts/PBMTokenManager.sol\":3453:3471  tokenTypes[i].name */\n      0x00\n      add\n        /* \"contracts/PBMTokenManager.sol\":3436:3472  abi.encodePacked(tokenTypes[i].name) */\n      add(0x20, mload(0x40))\n      tag_189\n      swap2\n      swap1\n      tag_190\n      jump\t// in\n    tag_189:\n      mload(0x40)\n      0x20\n      dup2\n      dup4\n      sub\n      sub\n      dup2\n      mstore\n      swap1\n      0x40\n      mstore\n        /* \"contracts/PBMTokenManager.sol\":3426:3473  keccak256(abi.encodePacked(tokenTypes[i].name)) */\n      dup1\n      mload\n      swap1\n      0x20\n      add\n      keccak256\n        /* \"contracts/PBMTokenManager.sol\":3426:3519  keccak256(abi.encodePacked(tokenTypes[i].name)) == keccak256(abi.encodePacked(tokenTypeName)) */\n      eq\n        /* \"contracts/PBMTokenManager.sol\":3426:3557  keccak256(abi.encodePacked(tokenTypes[i].name)) == keccak256(abi.encodePacked(tokenTypeName)) && tokenTypes[i].amount == spotAmount */\n      dup1\n      iszero\n      tag_191\n      jumpi\n      pop\n        /* \"contracts/PBMTokenManager.sol\":3547:3557  spotAmount */\n      dup3\n        /* \"contracts/PBMTokenManager.sol\":3523:3533  tokenTypes */\n      0x03\n        /* \"contracts/PBMTokenManager.sol\":3523:3536  tokenTypes[i] */\n      0x00\n        /* \"contracts/PBMTokenManager.sol\":3534:3535  i */\n      dup4\n        /* \"contracts/PBMTokenManager.sol\":3523:3536  tokenTypes[i] */\n      dup2\n      mstore\n      0x20\n      add\n      swap1\n      dup2\n      mstore\n      0x20\n      add\n      0x00\n      keccak256\n        /* \"contracts/PBMTokenManager.sol\":3523:3543  tokenTypes[i].amount */\n      0x01\n      add\n      sload\n        /* \"contracts/PBMTokenManager.sol\":3523:3557  tokenTypes[i].amount == spotAmount */\n      eq\n        /* \"contracts/PBMTokenManager.sol\":3426:3557  keccak256(abi.encodePacked(tokenTypes[i].name)) == keccak256(abi.encodePacked(tokenTypeName)) && tokenTypes[i].amount == spotAmount */\n    tag_191:\n        /* \"contracts/PBMTokenManager.sol\":3422:3572  if (keccak256(abi.encodePacked(tokenTypes[i].name)) == keccak256(abi.encodePacked(tokenTypeName)) && tokenTypes[i].amount == spotAmount) { return i; } */\n      iszero\n      tag_192\n      jumpi\n        /* \"contracts/PBMTokenManager.sol\":3568:3569  i */\n      dup1\n        /* \"contracts/PBMTokenManager.sol\":3561:3569  return i */\n      swap2\n      pop\n      pop\n      jump(tag_183)\n        /* \"contracts/PBMTokenManager.sol\":3422:3572  if (keccak256(abi.encodePacked(tokenTypes[i].name)) == keccak256(abi.encodePacked(tokenTypeName)) && tokenTypes[i].amount == spotAmount) { return i; } */\n    tag_192:\n        /* \"contracts/PBMTokenManager.sol\":3415:3418  i++ */\n      dup1\n      dup1\n      0x01\n      add\n      swap2\n      pop\n      pop\n        /* \"contracts/PBMTokenManager.sol\":3375:3574  for (uint256 i = 1; i < tokenTypeCount; i++) { if (keccak256(abi.encodePacked(tokenTypes[i].name)) == keccak256(abi.encodePacked(tokenTypeName)) && tokenTypes[i].amount == spotAmount) { return i; } } */\n      jump(tag_184)\n    tag_185:\n      pop\n        /* \"contracts/PBMTokenManager.sol\":3582:3583  0 */\n      0x00\n        /* \"contracts/PBMTokenManager.sol\":3575:3583  return 0 */\n      swap1\n      pop\n        /* \"contracts/PBMTokenManager.sol\":3253:3586  function getTokenIdByTypeName(string memory tokenTypeName, uint256 spotAmount) external view override returns (uint256) { for (uint256 i = 1; i < tokenTypeCount; i++) { if (keccak256(abi.encodePacked(tokenTypes[i].name)) == keccak256(abi.encodePacked(tokenTypeName)) && tokenTypes[i].amount == spotAmount) { return i; } } return 0; } */\n    tag_183:\n      swap3\n      swap2\n      pop\n      pop\n      jump\t// out\n        /* \"contracts/PBMTokenManager.sol\":1886:2258  function decreaseBalanceSupply(uint256[] memory tokenIds, uint256[] memory amounts) external override onlyOwner {... */\n    tag_82:\n        /* \"@openzeppelin/contracts/access/Ownable.sol\":1531:1544  _checkOwner() */\n      tag_194\n        /* \"@openzeppelin/contracts/access/Ownable.sol\":1531:1542  _checkOwner */\n      tag_121\n        /* \"@openzeppelin/contracts/access/Ownable.sol\":1531:1544  _checkOwner() */\n      jump\t// in\n    tag_194:\n        /* \"contracts/PBMTokenManager.sol\":2035:2042  amounts */\n      dup1\n        /* \"contracts/PBMTokenManager.sol\":2035:2049  amounts.length */\n      mload\n        /* \"contracts/PBMTokenManager.sol\":2016:2024  tokenIds */\n      dup3\n        /* \"contracts/PBMTokenManager.sol\":2016:2031  tokenIds.length */\n      mload\n        /* \"contracts/PBMTokenManager.sol\":2016:2049  tokenIds.length == amounts.length */\n      eq\n        /* \"contracts/PBMTokenManager.sol\":2008:2075  require(tokenIds.length == amounts.length, \"Array length mismatch\") */\n      tag_196\n      jumpi\n      mload(0x40)\n      0x08c379a000000000000000000000000000000000000000000000000000000000\n      dup2\n      mstore\n      0x04\n      add\n      tag_197\n      swap1\n      tag_198\n      jump\t// in\n    tag_197:\n      mload(0x40)\n      dup1\n      swap2\n      sub\n      swap1\n      revert\n    tag_196:\n        /* \"contracts/PBMTokenManager.sol\":2093:2117  areTokensValid(tokenIds) */\n      tag_199\n        /* \"contracts/PBMTokenManager.sol\":2108:2116  tokenIds */\n      dup3\n        /* \"contracts/PBMTokenManager.sol\":2093:2107  areTokensValid */\n      tag_43\n        /* \"contracts/PBMTokenManager.sol\":2093:2117  areTokensValid(tokenIds) */\n      jump\t// in\n    tag_199:\n        /* \"contracts/PBMTokenManager.sol\":2085:2140  require(areTokensValid(tokenIds), \"PBM: Invalid token\") */\n      tag_200\n      jumpi\n      mload(0x40)\n      0x08c379a000000000000000000000000000000000000000000000000000000000\n      dup2\n      mstore\n      0x04\n      add\n      tag_201\n      swap1\n      tag_133\n      jump\t// in\n    tag_201:\n      mload(0x40)\n      dup1\n      swap2\n      sub\n      swap1\n      revert\n    tag_200:\n        /* \"contracts/PBMTokenManager.sol\":2155:2164  uint256 i */\n      0x00\n        /* \"contracts/PBMTokenManager.sol\":2167:2168  0 */\n      0x00\n        /* \"contracts/PBMTokenManager.sol\":2155:2168  uint256 i = 0 */\n      swap1\n      pop\n        /* \"contracts/PBMTokenManager.sol\":2150:2252  for (uint256 i = 0; i < tokenIds.length; i++) { tokenTypes[tokenIds[i]].balanceSupply -= amounts[i]; } */\n    tag_202:\n        /* \"contracts/PBMTokenManager.sol\":2174:2182  tokenIds */\n      dup3\n        /* \"contracts/PBMTokenManager.sol\":2174:2189  tokenIds.length */\n      mload\n        /* \"contracts/PBMTokenManager.sol\":2170:2171  i */\n      dup2\n        /* \"contracts/PBMTokenManager.sol\":2170:2189  i < tokenIds.length */\n      lt\n        /* \"contracts/PBMTokenManager.sol\":2150:2252  for (uint256 i = 0; i < tokenIds.length; i++) { tokenTypes[tokenIds[i]].balanceSupply -= amounts[i]; } */\n      iszero\n      tag_203\n      jumpi\n        /* \"contracts/PBMTokenManager.sol\":2239:2246  amounts */\n      dup2\n        /* \"contracts/PBMTokenManager.sol\":2247:2248  i */\n      dup2\n        /* \"contracts/PBMTokenManager.sol\":2239:2249  amounts[i] */\n      dup2\n      mload\n      dup2\n      lt\n      tag_205\n      jumpi\n      tag_206\n      tag_129\n      jump\t// in\n    tag_206:\n    tag_205:\n      0x20\n      mul\n      0x20\n      add\n      add\n      mload\n        /* \"contracts/PBMTokenManager.sol\":2198:2208  tokenTypes */\n      0x03\n        /* \"contracts/PBMTokenManager.sol\":2198:2221  tokenTypes[tokenIds[i]] */\n      0x00\n        /* \"contracts/PBMTokenManager.sol\":2209:2217  tokenIds */\n      dup6\n        /* \"contracts/PBMTokenManager.sol\":2218:2219  i */\n      dup5\n        /* \"contracts/PBMTokenManager.sol\":2209:2220  tokenIds[i] */\n      dup2\n      mload\n      dup2\n      lt\n      tag_207\n      jumpi\n      tag_208\n      tag_129\n      jump\t// in\n    tag_208:\n    tag_207:\n      0x20\n      mul\n      0x20\n      add\n      add\n      mload\n        /* \"contracts/PBMTokenManager.sol\":2198:2221  tokenTypes[tokenIds[i]] */\n      dup2\n      mstore\n      0x20\n      add\n      swap1\n      dup2\n      mstore\n      0x20\n      add\n      0x00\n      keccak256\n        /* \"contracts/PBMTokenManager.sol\":2198:2235  tokenTypes[tokenIds[i]].balanceSupply */\n      0x02\n      add\n      0x00\n        /* \"contracts/PBMTokenManager.sol\":2198:2249  tokenTypes[tokenIds[i]].balanceSupply -= amounts[i] */\n      dup3\n      dup3\n      sload\n      tag_209\n      swap2\n      swap1\n      tag_210\n      jump\t// in\n    tag_209:\n      swap3\n      pop\n      pop\n      dup2\n      swap1\n      sstore\n      pop\n        /* \"contracts/PBMTokenManager.sol\":2191:2194  i++ */\n      dup1\n      dup1\n      0x01\n      add\n      swap2\n      pop\n      pop\n        /* \"contracts/PBMTokenManager.sol\":2150:2252  for (uint256 i = 0; i < tokenIds.length; i++) { tokenTypes[tokenIds[i]].balanceSupply -= amounts[i]; } */\n      jump(tag_202)\n    tag_203:\n      pop\n        /* \"contracts/PBMTokenManager.sol\":1886:2258  function decreaseBalanceSupply(uint256[] memory tokenIds, uint256[] memory amounts) external override onlyOwner {... */\n      pop\n      pop\n      jump\t// out\n        /* \"@openzeppelin/contracts/access/Ownable.sol\":2543:2758  function transferOwnership(address newOwner) public virtual onlyOwner {... */\n    tag_86:\n        /* \"@openzeppelin/contracts/access/Ownable.sol\":1531:1544  _checkOwner() */\n      tag_212\n        /* \"@openzeppelin/contracts/access/Ownable.sol\":1531:1542  _checkOwner */\n      tag_121\n        /* \"@openzeppelin/contracts/access/Ownable.sol\":1531:1544  _checkOwner() */\n      jump\t// in\n    tag_212:\n        /* \"@openzeppelin/contracts/access/Ownable.sol\":2647:2648  0 */\n      0x00\n        /* \"@openzeppelin/contracts/access/Ownable.sol\":2627:2649  newOwner == address(0) */\n      0xffffffffffffffffffffffffffffffffffffffff\n      and\n        /* \"@openzeppelin/contracts/access/Ownable.sol\":2627:2635  newOwner */\n      dup2\n        /* \"@openzeppelin/contracts/access/Ownable.sol\":2627:2649  newOwner == address(0) */\n      0xffffffffffffffffffffffffffffffffffffffff\n      and\n      sub\n        /* \"@openzeppelin/contracts/access/Ownable.sol\":2623:2714  if (newOwner == address(0)) {... */\n      tag_214\n      jumpi\n        /* \"@openzeppelin/contracts/access/Ownable.sol\":2700:2701  0 */\n      0x00\n        /* \"@openzeppelin/contracts/access/Ownable.sol\":2672:2703  OwnableInvalidOwner(address(0)) */\n      mload(0x40)\n      0x1e4fbdf700000000000000000000000000000000000000000000000000000000\n      dup2\n      mstore\n      0x04\n      add\n      tag_215\n      swap2\n      swap1\n      tag_60\n      jump\t// in\n    tag_215:\n      mload(0x40)\n      dup1\n      swap2\n      sub\n      swap1\n      revert\n        /* \"@openzeppelin/contracts/access/Ownable.sol\":2623:2714  if (newOwner == address(0)) {... */\n    tag_214:\n        /* \"@openzeppelin/contracts/access/Ownable.sol\":2723:2751  _transferOwnership(newOwner) */\n      tag_216\n        /* \"@openzeppelin/contracts/access/Ownable.sol\":2742:2750  newOwner */\n      dup2\n        /* \"@openzeppelin/contracts/access/Ownable.sol\":2723:2741  _transferOwnership */\n      tag_154\n        /* \"@openzeppelin/contracts/access/Ownable.sol\":2723:2751  _transferOwnership(newOwner) */\n      jump\t// in\n    tag_216:\n        /* \"@openzeppelin/contracts/access/Ownable.sol\":2543:2758  function transferOwnership(address newOwner) public virtual onlyOwner {... */\n      pop\n      jump\t// out\n        /* \"contracts/PBMTokenManager.sol\":1509:1881  function increaseBalanceSupply(uint256[] memory tokenIds, uint256[] memory amounts) external override onlyOwner {... */\n    tag_89:\n        /* \"@openzeppelin/contracts/access/Ownable.sol\":1531:1544  _checkOwner() */\n      tag_218\n        /* \"@openzeppelin/contracts/access/Ownable.sol\":1531:1542  _checkOwner */\n      tag_121\n        /* \"@openzeppelin/contracts/access/Ownable.sol\":1531:1544  _checkOwner() */\n      jump\t// in\n    tag_218:\n        /* \"contracts/PBMTokenManager.sol\":1658:1665  amounts */\n      dup1\n        /* \"contracts/PBMTokenManager.sol\":1658:1672  amounts.length */\n      mload\n        /* \"contracts/PBMTokenManager.sol\":1639:1647  tokenIds */\n      dup3\n        /* \"contracts/PBMTokenManager.sol\":1639:1654  tokenIds.length */\n      mload\n        /* \"contracts/PBMTokenManager.sol\":1639:1672  tokenIds.length == amounts.length */\n      eq\n        /* \"contracts/PBMTokenManager.sol\":1631:1698  require(tokenIds.length == amounts.length, \"Array length mismatch\") */\n      tag_220\n      jumpi\n      mload(0x40)\n      0x08c379a000000000000000000000000000000000000000000000000000000000\n      dup2\n      mstore\n      0x04\n      add\n      tag_221\n      swap1\n      tag_198\n      jump\t// in\n    tag_221:\n      mload(0x40)\n      dup1\n      swap2\n      sub\n      swap1\n      revert\n    tag_220:\n        /* \"contracts/PBMTokenManager.sol\":1716:1740  areTokensValid(tokenIds) */\n      tag_222\n        /* \"contracts/PBMTokenManager.sol\":1731:1739  tokenIds */\n      dup3\n        /* \"contracts/PBMTokenManager.sol\":1716:1730  areTokensValid */\n      tag_43\n        /* \"contracts/PBMTokenManager.sol\":1716:1740  areTokensValid(tokenIds) */\n      jump\t// in\n    tag_222:\n        /* \"contracts/PBMTokenManager.sol\":1708:1763  require(areTokensValid(tokenIds), \"PBM: Invalid token\") */\n      tag_223\n      jumpi\n      mload(0x40)\n      0x08c379a000000000000000000000000000000000000000000000000000000000\n      dup2\n      mstore\n      0x04\n      add\n      tag_224\n      swap1\n      tag_133\n      jump\t// in\n    tag_224:\n      mload(0x40)\n      dup1\n      swap2\n      sub\n      swap1\n      revert\n    tag_223:\n        /* \"contracts/PBMTokenManager.sol\":1778:1787  uint256 i */\n      0x00\n        /* \"contracts/PBMTokenManager.sol\":1790:1791  0 */\n      0x00\n        /* \"contracts/PBMTokenManager.sol\":1778:1791  uint256 i = 0 */\n      swap1\n      pop\n        /* \"contracts/PBMTokenManager.sol\":1773:1875  for (uint256 i = 0; i < tokenIds.length; i++) { tokenTypes[tokenIds[i]].balanceSupply += amounts[i]; } */\n    tag_225:\n        /* \"contracts/PBMTokenManager.sol\":1797:1805  tokenIds */\n      dup3\n        /* \"contracts/PBMTokenManager.sol\":1797:1812  tokenIds.length */\n      mload\n        /* \"contracts/PBMTokenManager.sol\":1793:1794  i */\n      dup2\n        /* \"contracts/PBMTokenManager.sol\":1793:1812  i < tokenIds.length */\n      lt\n        /* \"contracts/PBMTokenManager.sol\":1773:1875  for (uint256 i = 0; i < tokenIds.length; i++) { tokenTypes[tokenIds[i]].balanceSupply += amounts[i]; } */\n      iszero\n      tag_226\n      jumpi\n        /* \"contracts/PBMTokenManager.sol\":1862:1869  amounts */\n      dup2\n        /* \"contracts/PBMTokenManager.sol\":1870:1871  i */\n      dup2\n        /* \"contracts/PBMTokenManager.sol\":1862:1872  amounts[i] */\n      dup2\n      mload\n      dup2\n      lt\n      tag_228\n      jumpi\n      tag_229\n      tag_129\n      jump\t// in\n    tag_229:\n    tag_228:\n      0x20\n      mul\n      0x20\n      add\n      add\n      mload\n        /* \"contracts/PBMTokenManager.sol\":1821:1831  tokenTypes */\n      0x03\n        /* \"contracts/PBMTokenManager.sol\":1821:1844  tokenTypes[tokenIds[i]] */\n      0x00\n        /* \"contracts/PBMTokenManager.sol\":1832:1840  tokenIds */\n      dup6\n        /* \"contracts/PBMTokenManager.sol\":1841:1842  i */\n      dup5\n        /* \"contracts/PBMTokenManager.sol\":1832:1843  tokenIds[i] */\n      dup2\n      mload\n      dup2\n      lt\n      tag_230\n      jumpi\n      tag_231\n      tag_129\n      jump\t// in\n    tag_231:\n    tag_230:\n      0x20\n      mul\n      0x20\n      add\n      add\n      mload\n        /* \"contracts/PBMTokenManager.sol\":1821:1844  tokenTypes[tokenIds[i]] */\n      dup2\n      mstore\n      0x20\n      add\n      swap1\n      dup2\n      mstore\n      0x20\n      add\n      0x00\n      keccak256\n        /* \"contracts/PBMTokenManager.sol\":1821:1858  tokenTypes[tokenIds[i]].balanceSupply */\n      0x02\n      add\n      0x00\n        /* \"contracts/PBMTokenManager.sol\":1821:1872  tokenTypes[tokenIds[i]].balanceSupply += amounts[i] */\n      dup3\n      dup3\n      sload\n      tag_232\n      swap2\n      swap1\n      tag_171\n      jump\t// in\n    tag_232:\n      swap3\n      pop\n      pop\n      dup2\n      swap1\n      sstore\n      pop\n        /* \"contracts/PBMTokenManager.sol\":1814:1817  i++ */\n      dup1\n      dup1\n      0x01\n      add\n      swap2\n      pop\n      pop\n        /* \"contracts/PBMTokenManager.sol\":1773:1875  for (uint256 i = 0; i < tokenIds.length; i++) { tokenTypes[tokenIds[i]].balanceSupply += amounts[i]; } */\n      jump(tag_225)\n    tag_226:\n      pop\n        /* \"contracts/PBMTokenManager.sol\":1509:1881  function increaseBalanceSupply(uint256[] memory tokenIds, uint256[] memory amounts) external override onlyOwner {... */\n      pop\n      pop\n      jump\t// out\n        /* \"@openzeppelin/contracts/access/Ownable.sol\":1796:1958  function _checkOwner() internal view virtual {... */\n    tag_121:\n        /* \"@openzeppelin/contracts/access/Ownable.sol\":1866:1878  _msgSender() */\n      tag_234\n        /* \"@openzeppelin/contracts/access/Ownable.sol\":1866:1876  _msgSender */\n      tag_235\n        /* \"@openzeppelin/contracts/access/Ownable.sol\":1866:1878  _msgSender() */\n      jump\t// in\n    tag_234:\n        /* \"@openzeppelin/contracts/access/Ownable.sol\":1855:1878  owner() != _msgSender() */\n      0xffffffffffffffffffffffffffffffffffffffff\n      and\n        /* \"@openzeppelin/contracts/access/Ownable.sol\":1855:1862  owner() */\n      tag_236\n        /* \"@openzeppelin/contracts/access/Ownable.sol\":1855:1860  owner */\n      tag_58\n        /* \"@openzeppelin/contracts/access/Ownable.sol\":1855:1862  owner() */\n      jump\t// in\n    tag_236:\n        /* \"@openzeppelin/contracts/access/Ownable.sol\":1855:1878  owner() != _msgSender() */\n      0xffffffffffffffffffffffffffffffffffffffff\n      and\n      eq\n        /* \"@openzeppelin/contracts/access/Ownable.sol\":1851:1952  if (owner() != _msgSender()) {... */\n      tag_237\n      jumpi\n        /* \"@openzeppelin/contracts/access/Ownable.sol\":1928:1940  _msgSender() */\n      tag_238\n        /* \"@openzeppelin/contracts/access/Ownable.sol\":1928:1938  _msgSender */\n      tag_235\n        /* \"@openzeppelin/contracts/access/Ownable.sol\":1928:1940  _msgSender() */\n      jump\t// in\n    tag_238:\n        /* \"@openzeppelin/contracts/access/Ownable.sol\":1901:1941  OwnableUnauthorizedAccount(_msgSender()) */\n      mload(0x40)\n      0x118cdaa700000000000000000000000000000000000000000000000000000000\n      dup2\n      mstore\n      0x04\n      add\n      tag_239\n      swap2\n      swap1\n      tag_60\n      jump\t// in\n    tag_239:\n      mload(0x40)\n      dup1\n      swap2\n      sub\n      swap1\n      revert\n        /* \"@openzeppelin/contracts/access/Ownable.sol\":1851:1952  if (owner() != _msgSender()) {... */\n    tag_237:\n        /* \"@openzeppelin/contracts/access/Ownable.sol\":1796:1958  function _checkOwner() internal view virtual {... */\n      jump\t// out\n        /* \"@openzeppelin/contracts/access/Ownable.sol\":2912:3099  function _transferOwnership(address newOwner) internal virtual {... */\n    tag_154:\n        /* \"@openzeppelin/contracts/access/Ownable.sol\":2985:3001  address oldOwner */\n      0x00\n        /* \"@openzeppelin/contracts/access/Ownable.sol\":3004:3010  _owner */\n      0x00\n      0x00\n      swap1\n      sload\n      swap1\n      0x0100\n      exp\n      swap1\n      div\n      0xffffffffffffffffffffffffffffffffffffffff\n      and\n        /* \"@openzeppelin/contracts/access/Ownable.sol\":2985:3010  address oldOwner = _owner */\n      swap1\n      pop\n        /* \"@openzeppelin/contracts/access/Ownable.sol\":3029:3037  newOwner */\n      dup2\n        /* \"@openzeppelin/contracts/access/Ownable.sol\":3020:3026  _owner */\n      0x00\n      0x00\n        /* \"@openzeppelin/contracts/access/Ownable.sol\":3020:3037  _owner = newOwner */\n      0x0100\n      exp\n      dup2\n      sload\n      dup2\n      0xffffffffffffffffffffffffffffffffffffffff\n      mul\n      not\n      and\n      swap1\n      dup4\n      0xffffffffffffffffffffffffffffffffffffffff\n      and\n      mul\n      or\n      swap1\n      sstore\n      pop\n        /* \"@openzeppelin/contracts/access/Ownable.sol\":3083:3091  newOwner */\n      dup2\n        /* \"@openzeppelin/contracts/access/Ownable.sol\":3052:3092  OwnershipTransferred(oldOwner, newOwner) */\n      0xffffffffffffffffffffffffffffffffffffffff\n      and\n        /* \"@openzeppelin/contracts/access/Ownable.sol\":3073:3081  oldOwner */\n      dup2\n        /* \"@openzeppelin/contracts/access/Ownable.sol\":3052:3092  OwnershipTransferred(oldOwner, newOwner) */\n      0xffffffffffffffffffffffffffffffffffffffff\n      and\n      0x8be0079c531659141344cd1fd0a4f28419497f9722a3daafe3b4186f6b6457e0\n      mload(0x40)\n      mload(0x40)\n      dup1\n      swap2\n      sub\n      swap1\n      log3\n        /* \"@openzeppelin/contracts/access/Ownable.sol\":2975:3099  {... */\n      pop\n        /* \"@openzeppelin/contracts/access/Ownable.sol\":2912:3099  function _transferOwnership(address newOwner) internal virtual {... */\n      pop\n      jump\t// out\n        /* \"@openzeppelin/contracts/utils/Context.sol\":656:752  function _msgSender() internal view virtual returns (address) {... */\n    tag_235:\n        /* \"@openzeppelin/contracts/utils/Context.sol\":709:716  address */\n      0x00\n        /* \"@openzeppelin/contracts/utils/Context.sol\":735:745  msg.sender */\n      caller\n        /* \"@openzeppelin/contracts/utils/Context.sol\":728:745  return msg.sender */\n      swap1\n      pop\n        /* \"@openzeppelin/contracts/utils/Context.sol\":656:752  function _msgSender() internal view virtual returns (address) {... */\n      swap1\n      jump\t// out\n        /* \"#utility.yul\":7:106   */\n    tag_242:\n        /* \"#utility.yul\":59:65   */\n      0x00\n        /* \"#utility.yul\":93:98   */\n      dup2\n        /* \"#utility.yul\":87:99   */\n      mload\n        /* \"#utility.yul\":77:99   */\n      swap1\n      pop\n        /* \"#utility.yul\":7:106   */\n      swap2\n      swap1\n      pop\n      jump\t// out\n        /* \"#utility.yul\":112:281   */\n    tag_243:\n        /* \"#utility.yul\":196:207   */\n      0x00\n        /* \"#utility.yul\":230:236   */\n      dup3\n        /* \"#utility.yul\":225:228   */\n      dup3\n        /* \"#utility.yul\":218:237   */\n      mstore\n        /* \"#utility.yul\":270:274   */\n      0x20\n        /* \"#utility.yul\":265:268   */\n      dup3\n        /* \"#utility.yul\":261:275   */\n      add\n        /* \"#utility.yul\":246:275   */\n      swap1\n      pop\n        /* \"#utility.yul\":112:281   */\n      swap3\n      swap2\n      pop\n      pop\n      jump\t// out\n        /* \"#utility.yul\":287:426   */\n    tag_244:\n        /* \"#utility.yul\":376:382   */\n      dup3\n        /* \"#utility.yul\":371:374   */\n      dup2\n        /* \"#utility.yul\":366:369   */\n      dup4\n        /* \"#utility.yul\":360:383   */\n      mcopy\n        /* \"#utility.yul\":417:418   */\n      0x00\n        /* \"#utility.yul\":408:414   */\n      dup4\n        /* \"#utility.yul\":403:406   */\n      dup4\n        /* \"#utility.yul\":399:415   */\n      add\n        /* \"#utility.yul\":392:419   */\n      mstore\n        /* \"#utility.yul\":287:426   */\n      pop\n      pop\n      pop\n      jump\t// out\n        /* \"#utility.yul\":432:534   */\n    tag_245:\n        /* \"#utility.yul\":473:479   */\n      0x00\n        /* \"#utility.yul\":524:526   */\n      0x1f\n        /* \"#utility.yul\":520:527   */\n      not\n        /* \"#utility.yul\":515:517   */\n      0x1f\n        /* \"#utility.yul\":508:513   */\n      dup4\n        /* \"#utility.yul\":504:518   */\n      add\n        /* \"#utility.yul\":500:528   */\n      and\n        /* \"#utility.yul\":490:528   */\n      swap1\n      pop\n        /* \"#utility.yul\":432:534   */\n      swap2\n      swap1\n      pop\n      jump\t// out\n        /* \"#utility.yul\":540:917   */\n    tag_246:\n        /* \"#utility.yul\":628:631   */\n      0x00\n        /* \"#utility.yul\":656:695   */\n      tag_313\n        /* \"#utility.yul\":689:694   */\n      dup3\n        /* \"#utility.yul\":656:695   */\n      tag_242\n      jump\t// in\n    tag_313:\n        /* \"#utility.yul\":711:782   */\n      tag_314\n        /* \"#utility.yul\":775:781   */\n      dup2\n        /* \"#utility.yul\":770:773   */\n      dup6\n        /* \"#utility.yul\":711:782   */\n      tag_243\n      jump\t// in\n    tag_314:\n        /* \"#utility.yul\":704:782   */\n      swap4\n      pop\n        /* \"#utility.yul\":791:856   */\n      tag_315\n        /* \"#utility.yul\":849:855   */\n      dup2\n        /* \"#utility.yul\":844:847   */\n      dup6\n        /* \"#utility.yul\":837:841   */\n      0x20\n        /* \"#utility.yul\":830:835   */\n      dup7\n        /* \"#utility.yul\":826:842   */\n      add\n        /* \"#utility.yul\":791:856   */\n      tag_244\n      jump\t// in\n    tag_315:\n        /* \"#utility.yul\":881:910   */\n      tag_316\n        /* \"#utility.yul\":903:909   */\n      dup2\n        /* \"#utility.yul\":881:910   */\n      tag_245\n      jump\t// in\n    tag_316:\n        /* \"#utility.yul\":876:879   */\n      dup5\n        /* \"#utility.yul\":872:911   */\n      add\n        /* \"#utility.yul\":865:911   */\n      swap2\n      pop\n        /* \"#utility.yul\":632:917   */\n      pop\n        /* \"#utility.yul\":540:917   */\n      swap3\n      swap2\n      pop\n      pop\n      jump\t// out\n        /* \"#utility.yul\":923:1236   */\n    tag_25:\n        /* \"#utility.yul\":1036:1040   */\n      0x00\n        /* \"#utility.yul\":1074:1076   */\n      0x20\n        /* \"#utility.yul\":1063:1072   */\n      dup3\n        /* \"#utility.yul\":1059:1077   */\n      add\n        /* \"#utility.yul\":1051:1077   */\n      swap1\n      pop\n        /* \"#utility.yul\":1123:1132   */\n      dup2\n        /* \"#utility.yul\":1117:1121   */\n      dup2\n        /* \"#utility.yul\":1113:1133   */\n      sub\n        /* \"#utility.yul\":1109:1110   */\n      0x00\n        /* \"#utility.yul\":1098:1107   */\n      dup4\n        /* \"#utility.yul\":1094:1111   */\n      add\n        /* \"#utility.yul\":1087:1134   */\n      mstore\n        /* \"#utility.yul\":1151:1229   */\n      tag_318\n        /* \"#utility.yul\":1224:1228   */\n      dup2\n        /* \"#utility.yul\":1215:1221   */\n      dup5\n        /* \"#utility.yul\":1151:1229   */\n      tag_246\n      jump\t// in\n    tag_318:\n        /* \"#utility.yul\":1143:1229   */\n      swap1\n      pop\n        /* \"#utility.yul\":923:1236   */\n      swap3\n      swap2\n      pop\n      pop\n      jump\t// out\n        /* \"#utility.yul\":1242:1317   */\n    tag_247:\n        /* \"#utility.yul\":1275:1281   */\n      0x00\n        /* \"#utility.yul\":1308:1310   */\n      0x40\n        /* \"#utility.yul\":1302:1311   */\n      mload\n        /* \"#utility.yul\":1292:1311   */\n      swap1\n      pop\n        /* \"#utility.yul\":1242:1317   */\n      swap1\n      jump\t// out\n        /* \"#utility.yul\":1323:1440   */\n    tag_248:\n        /* \"#utility.yul\":1432:1433   */\n      0x00\n        /* \"#utility.yul\":1429:1430   */\n      0x00\n        /* \"#utility.yul\":1422:1434   */\n      revert\n        /* \"#utility.yul\":1446:1563   */\n    tag_249:\n        /* \"#utility.yul\":1555:1556   */\n      0x00\n        /* \"#utility.yul\":1552:1553   */\n      0x00\n        /* \"#utility.yul\":1545:1557   */\n      revert\n        /* \"#utility.yul\":1569:1646   */\n    tag_250:\n        /* \"#utility.yul\":1606:1613   */\n      0x00\n        /* \"#utility.yul\":1635:1640   */\n      dup2\n        /* \"#utility.yul\":1624:1640   */\n      swap1\n      pop\n        /* \"#utility.yul\":1569:1646   */\n      swap2\n      swap1\n      pop\n      jump\t// out\n        /* \"#utility.yul\":1652:1774   */\n    tag_251:\n        /* \"#utility.yul\":1725:1749   */\n      tag_324\n        /* \"#utility.yul\":1743:1748   */\n      dup2\n        /* \"#utility.yul\":1725:1749   */\n      tag_250\n      jump\t// in\n    tag_324:\n        /* \"#utility.yul\":1718:1723   */\n      dup2\n        /* \"#utility.yul\":1715:1750   */\n      eq\n        /* \"#utility.yul\":1705:1768   */\n      tag_325\n      jumpi\n        /* \"#utility.yul\":1764:1765   */\n      0x00\n        /* \"#utility.yul\":1761:1762   */\n      0x00\n        /* \"#utility.yul\":1754:1766   */\n      revert\n        /* \"#utility.yul\":1705:1768   */\n    tag_325:\n        /* \"#utility.yul\":1652:1774   */\n      pop\n      jump\t// out\n        /* \"#utility.yul\":1780:1919   */\n    tag_252:\n        /* \"#utility.yul\":1826:1831   */\n      0x00\n        /* \"#utility.yul\":1864:1870   */\n      dup2\n        /* \"#utility.yul\":1851:1871   */\n      calldataload\n        /* \"#utility.yul\":1842:1871   */\n      swap1\n      pop\n        /* \"#utility.yul\":1880:1913   */\n      tag_327\n        /* \"#utility.yul\":1907:1912   */\n      dup2\n        /* \"#utility.yul\":1880:1913   */\n      tag_251\n      jump\t// in\n    tag_327:\n        /* \"#utility.yul\":1780:1919   */\n      swap3\n      swap2\n      pop\n      pop\n      jump\t// out\n        /* \"#utility.yul\":1925:2254   */\n    tag_28:\n        /* \"#utility.yul\":1984:1990   */\n      0x00\n        /* \"#utility.yul\":2033:2035   */\n      0x20\n        /* \"#utility.yul\":2021:2030   */\n      dup3\n        /* \"#utility.yul\":2012:2019   */\n      dup5\n        /* \"#utility.yul\":2008:2031   */\n      sub\n        /* \"#utility.yul\":2004:2036   */\n      slt\n        /* \"#utility.yul\":2001:2120   */\n      iszero\n      tag_329\n      jumpi\n        /* \"#utility.yul\":2039:2118   */\n      tag_330\n      tag_248\n      jump\t// in\n    tag_330:\n        /* \"#utility.yul\":2001:2120   */\n    tag_329:\n        /* \"#utility.yul\":2159:2160   */\n      0x00\n        /* \"#utility.yul\":2184:2237   */\n      tag_331\n        /* \"#utility.yul\":2229:2236   */\n      dup5\n        /* \"#utility.yul\":2220:2226   */\n      dup3\n        /* \"#utility.yul\":2209:2218   */\n      dup6\n        /* \"#utility.yul\":2205:2227   */\n      add\n        /* \"#utility.yul\":2184:2237   */\n      tag_252\n      jump\t// in\n    tag_331:\n        /* \"#utility.yul\":2174:2237   */\n      swap2\n      pop\n        /* \"#utility.yul\":2130:2247   */\n      pop\n        /* \"#utility.yul\":1925:2254   */\n      swap3\n      swap2\n      pop\n      pop\n      jump\t// out\n        /* \"#utility.yul\":2260:2378   */\n    tag_253:\n        /* \"#utility.yul\":2347:2371   */\n      tag_333\n        /* \"#utility.yul\":2365:2370   */\n      dup2\n        /* \"#utility.yul\":2347:2371   */\n      tag_250\n      jump\t// in\n    tag_333:\n        /* \"#utility.yul\":2342:2345   */\n      dup3\n        /* \"#utility.yul\":2335:2372   */\n      mstore\n        /* \"#utility.yul\":2260:2378   */\n      pop\n      pop\n      jump\t// out\n        /* \"#utility.yul\":2384:2510   */\n    tag_254:\n        /* \"#utility.yul\":2421:2428   */\n      0x00\n        /* \"#utility.yul\":2461:2503   */\n      0xffffffffffffffffffffffffffffffffffffffff\n        /* \"#utility.yul\":2454:2459   */\n      dup3\n        /* \"#utility.yul\":2450:2504   */\n      and\n        /* \"#utility.yul\":2439:2504   */\n      swap1\n      pop\n        /* \"#utility.yul\":2384:2510   */\n      swap2\n      swap1\n      pop\n      jump\t// out\n        /* \"#utility.yul\":2516:2612   */\n    tag_255:\n        /* \"#utility.yul\":2553:2560   */\n      0x00\n        /* \"#utility.yul\":2582:2606   */\n      tag_336\n        /* \"#utility.yul\":2600:2605   */\n      dup3\n        /* \"#utility.yul\":2582:2606   */\n      tag_254\n      jump\t// in\n    tag_336:\n        /* \"#utility.yul\":2571:2606   */\n      swap1\n      pop\n        /* \"#utility.yul\":2516:2612   */\n      swap2\n      swap1\n      pop\n      jump\t// out\n        /* \"#utility.yul\":2618:2736   */\n    tag_256:\n        /* \"#utility.yul\":2705:2729   */\n      tag_338\n        /* \"#utility.yul\":2723:2728   */\n      dup2\n        /* \"#utility.yul\":2705:2729   */\n      tag_255\n      jump\t// in\n    tag_338:\n        /* \"#utility.yul\":2700:2703   */\n      dup3\n        /* \"#utility.yul\":2693:2730   */\n      mstore\n        /* \"#utility.yul\":2618:2736   */\n      pop\n      pop\n      jump\t// out\n        /* \"#utility.yul\":2742:3699   */\n    tag_35:\n        /* \"#utility.yul\":3015:3019   */\n      0x00\n        /* \"#utility.yul\":3053:3056   */\n      0xc0\n        /* \"#utility.yul\":3042:3051   */\n      dup3\n        /* \"#utility.yul\":3038:3057   */\n      add\n        /* \"#utility.yul\":3030:3057   */\n      swap1\n      pop\n        /* \"#utility.yul\":3103:3112   */\n      dup2\n        /* \"#utility.yul\":3097:3101   */\n      dup2\n        /* \"#utility.yul\":3093:3113   */\n      sub\n        /* \"#utility.yul\":3089:3090   */\n      0x00\n        /* \"#utility.yul\":3078:3087   */\n      dup4\n        /* \"#utility.yul\":3074:3091   */\n      add\n        /* \"#utility.yul\":3067:3114   */\n      mstore\n        /* \"#utility.yul\":3131:3209   */\n      tag_340\n        /* \"#utility.yul\":3204:3208   */\n      dup2\n        /* \"#utility.yul\":3195:3201   */\n      dup10\n        /* \"#utility.yul\":3131:3209   */\n      tag_246\n      jump\t// in\n    tag_340:\n        /* \"#utility.yul\":3123:3209   */\n      swap1\n      pop\n        /* \"#utility.yul\":3219:3291   */\n      tag_341\n        /* \"#utility.yul\":3287:3289   */\n      0x20\n        /* \"#utility.yul\":3276:3285   */\n      dup4\n        /* \"#utility.yul\":3272:3290   */\n      add\n        /* \"#utility.yul\":3263:3269   */\n      dup9\n        /* \"#utility.yul\":3219:3291   */\n      tag_253\n      jump\t// in\n    tag_341:\n        /* \"#utility.yul\":3301:3373   */\n      tag_342\n        /* \"#utility.yul\":3369:3371   */\n      0x40\n        /* \"#utility.yul\":3358:3367   */\n      dup4\n        /* \"#utility.yul\":3354:3372   */\n      add\n        /* \"#utility.yul\":3345:3351   */\n      dup8\n        /* \"#utility.yul\":3301:3373   */\n      tag_253\n      jump\t// in\n    tag_342:\n        /* \"#utility.yul\":3383:3455   */\n      tag_343\n        /* \"#utility.yul\":3451:3453   */\n      0x60\n        /* \"#utility.yul\":3440:3449   */\n      dup4\n        /* \"#utility.yul\":3436:3454   */\n      add\n        /* \"#utility.yul\":3427:3433   */\n      dup7\n        /* \"#utility.yul\":3383:3455   */\n      tag_253\n      jump\t// in\n    tag_343:\n        /* \"#utility.yul\":3465:3538   */\n      tag_344\n        /* \"#utility.yul\":3533:3536   */\n      0x80\n        /* \"#utility.yul\":3522:3531   */\n      dup4\n        /* \"#utility.yul\":3518:3537   */\n      add\n        /* \"#utility.yul\":3509:3515   */\n      dup6\n        /* \"#utility.yul\":3465:3538   */\n      tag_256\n      jump\t// in\n    tag_344:\n        /* \"#utility.yul\":3586:3595   */\n      dup2\n        /* \"#utility.yul\":3580:3584   */\n      dup2\n        /* \"#utility.yul\":3576:3596   */\n      sub\n        /* \"#utility.yul\":3570:3573   */\n      0xa0\n        /* \"#utility.yul\":3559:3568   */\n      dup4\n        /* \"#utility.yul\":3555:3574   */\n      add\n        /* \"#utility.yul\":3548:3597   */\n      mstore\n        /* \"#utility.yul\":3614:3692   */\n      tag_345\n        /* \"#utility.yul\":3687:3691   */\n      dup2\n        /* \"#utility.yul\":3678:3684   */\n      dup5\n        /* \"#utility.yul\":3614:3692   */\n      tag_246\n      jump\t// in\n    tag_345:\n        /* \"#utility.yul\":3606:3692   */\n      swap1\n      pop\n        /* \"#utility.yul\":2742:3699   */\n      swap8\n      swap7\n      pop\n      pop\n      pop\n      pop\n      pop\n      pop\n      pop\n      jump\t// out\n        /* \"#utility.yul\":3705:3827   */\n    tag_257:\n        /* \"#utility.yul\":3778:3802   */\n      tag_347\n        /* \"#utility.yul\":3796:3801   */\n      dup2\n        /* \"#utility.yul\":3778:3802   */\n      tag_255\n      jump\t// in\n    tag_347:\n        /* \"#utility.yul\":3771:3776   */\n      dup2\n        /* \"#utility.yul\":3768:3803   */\n      eq\n        /* \"#utility.yul\":3758:3821   */\n      tag_348\n      jumpi\n        /* \"#utility.yul\":3817:3818   */\n      0x00\n        /* \"#utility.yul\":3814:3815   */\n      0x00\n        /* \"#utility.yul\":3807:3819   */\n      revert\n        /* \"#utility.yul\":3758:3821   */\n    tag_348:\n        /* \"#utility.yul\":3705:3827   */\n      pop\n      jump\t// out\n        /* \"#utility.yul\":3833:3972   */\n    tag_258:\n        /* \"#utility.yul\":3879:3884   */\n      0x00\n        /* \"#utility.yul\":3917:3923   */\n      dup2\n        /* \"#utility.yul\":3904:3924   */\n      calldataload\n        /* \"#utility.yul\":3895:3924   */\n      swap1\n      pop\n        /* \"#utility.yul\":3933:3966   */\n      tag_350\n        /* \"#utility.yul\":3960:3965   */\n      dup2\n        /* \"#utility.yul\":3933:3966   */\n      tag_257\n      jump\t// in\n    tag_350:\n        /* \"#utility.yul\":3833:3972   */\n      swap3\n      swap2\n      pop\n      pop\n      jump\t// out\n        /* \"#utility.yul\":3978:4452   */\n    tag_38:\n        /* \"#utility.yul\":4046:4052   */\n      0x00\n        /* \"#utility.yul\":4054:4060   */\n      0x00\n        /* \"#utility.yul\":4103:4105   */\n      0x40\n        /* \"#utility.yul\":4091:4100   */\n      dup4\n        /* \"#utility.yul\":4082:4089   */\n      dup6\n        /* \"#utility.yul\":4078:4101   */\n      sub\n        /* \"#utility.yul\":4074:4106   */\n      slt\n        /* \"#utility.yul\":4071:4190   */\n      iszero\n      tag_352\n      jumpi\n        /* \"#utility.yul\":4109:4188   */\n      tag_353\n      tag_248\n      jump\t// in\n    tag_353:\n        /* \"#utility.yul\":4071:4190   */\n    tag_352:\n        /* \"#utility.yul\":4229:4230   */\n      0x00\n        /* \"#utility.yul\":4254:4307   */\n      tag_354\n        /* \"#utility.yul\":4299:4306   */\n      dup6\n        /* \"#utility.yul\":4290:4296   */\n      dup3\n        /* \"#utility.yul\":4279:4288   */\n      dup7\n        /* \"#utility.yul\":4275:4297   */\n      add\n        /* \"#utility.yul\":4254:4307   */\n      tag_252\n      jump\t// in\n    tag_354:\n        /* \"#utility.yul\":4244:4307   */\n      swap3\n      pop\n        /* \"#utility.yul\":4200:4317   */\n      pop\n        /* \"#utility.yul\":4356:4358   */\n      0x20\n        /* \"#utility.yul\":4382:4435   */\n      tag_355\n        /* \"#utility.yul\":4427:4434   */\n      dup6\n        /* \"#utility.yul\":4418:4424   */\n      dup3\n        /* \"#utility.yul\":4407:4416   */\n      dup7\n        /* \"#utility.yul\":4403:4425   */\n      add\n        /* \"#utility.yul\":4382:4435   */\n      tag_258\n      jump\t// in\n    tag_355:\n        /* \"#utility.yul\":4372:4435   */\n      swap2\n      pop\n        /* \"#utility.yul\":4327:4445   */\n      pop\n        /* \"#utility.yul\":3978:4452   */\n      swap3\n      pop\n      swap3\n      swap1\n      pop\n      jump\t// out\n        /* \"#utility.yul\":4458:4575   */\n    tag_259:\n        /* \"#utility.yul\":4567:4568   */\n      0x00\n        /* \"#utility.yul\":4564:4565   */\n      0x00\n        /* \"#utility.yul\":4557:4569   */\n      revert\n        /* \"#utility.yul\":4581:4761   */\n    tag_125:\n        /* \"#utility.yul\":4629:4706   */\n      0x4e487b7100000000000000000000000000000000000000000000000000000000\n        /* \"#utility.yul\":4626:4627   */\n      0x00\n        /* \"#utility.yul\":4619:4707   */\n      mstore\n        /* \"#utility.yul\":4726:4730   */\n      0x41\n        /* \"#utility.yul\":4723:4724   */\n      0x04\n        /* \"#utility.yul\":4716:4731   */\n      mstore\n        /* \"#utility.yul\":4750:4754   */\n      0x24\n        /* \"#utility.yul\":4747:4748   */\n      0x00\n        /* \"#utility.yul\":4740:4755   */\n      revert\n        /* \"#utility.yul\":4767:5048   */\n    tag_260:\n        /* \"#utility.yul\":4850:4877   */\n      tag_359\n        /* \"#utility.yul\":4872:4876   */\n      dup3\n        /* \"#utility.yul\":4850:4877   */\n      tag_245\n      jump\t// in\n    tag_359:\n        /* \"#utility.yul\":4842:4848   */\n      dup2\n        /* \"#utility.yul\":4838:4878   */\n      add\n        /* \"#utility.yul\":4980:4986   */\n      dup2\n        /* \"#utility.yul\":4968:4978   */\n      dup2\n        /* \"#utility.yul\":4965:4987   */\n      lt\n        /* \"#utility.yul\":4944:4962   */\n      0xffffffffffffffff\n        /* \"#utility.yul\":4932:4942   */\n      dup3\n        /* \"#utility.yul\":4929:4963   */\n      gt\n        /* \"#utility.yul\":4926:4988   */\n      or\n        /* \"#utility.yul\":4923:5011   */\n      iszero\n      tag_360\n      jumpi\n        /* \"#utility.yul\":4991:5009   */\n      tag_361\n      tag_125\n      jump\t// in\n    tag_361:\n        /* \"#utility.yul\":4923:5011   */\n    tag_360:\n        /* \"#utility.yul\":5031:5041   */\n      dup1\n        /* \"#utility.yul\":5027:5029   */\n      0x40\n        /* \"#utility.yul\":5020:5042   */\n      mstore\n        /* \"#utility.yul\":4810:5048   */\n      pop\n        /* \"#utility.yul\":4767:5048   */\n      pop\n      pop\n      jump\t// out\n        /* \"#utility.yul\":5054:5183   */\n    tag_261:\n        /* \"#utility.yul\":5088:5094   */\n      0x00\n        /* \"#utility.yul\":5115:5135   */\n      tag_363\n      tag_247\n      jump\t// in\n    tag_363:\n        /* \"#utility.yul\":5105:5135   */\n      swap1\n      pop\n        /* \"#utility.yul\":5144:5177   */\n      tag_364\n        /* \"#utility.yul\":5172:5176   */\n      dup3\n        /* \"#utility.yul\":5164:5170   */\n      dup3\n        /* \"#utility.yul\":5144:5177   */\n      tag_260\n      jump\t// in\n    tag_364:\n        /* \"#utility.yul\":5054:5183   */\n      swap2\n      swap1\n      pop\n      jump\t// out\n        /* \"#utility.yul\":5189:5500   */\n    tag_262:\n        /* \"#utility.yul\":5266:5270   */\n      0x00\n        /* \"#utility.yul\":5356:5374   */\n      0xffffffffffffffff\n        /* \"#utility.yul\":5348:5354   */\n      dup3\n        /* \"#utility.yul\":5345:5375   */\n      gt\n        /* \"#utility.yul\":5342:5398   */\n      iszero\n      tag_366\n      jumpi\n        /* \"#utility.yul\":5378:5396   */\n      tag_367\n      tag_125\n      jump\t// in\n    tag_367:\n        /* \"#utility.yul\":5342:5398   */\n    tag_366:\n        /* \"#utility.yul\":5428:5432   */\n      0x20\n        /* \"#utility.yul\":5420:5426   */\n      dup3\n        /* \"#utility.yul\":5416:5433   */\n      mul\n        /* \"#utility.yul\":5408:5433   */\n      swap1\n      pop\n        /* \"#utility.yul\":5488:5492   */\n      0x20\n        /* \"#utility.yul\":5482:5486   */\n      dup2\n        /* \"#utility.yul\":5478:5493   */\n      add\n        /* \"#utility.yul\":5470:5493   */\n      swap1\n      pop\n        /* \"#utility.yul\":5189:5500   */\n      swap2\n      swap1\n      pop\n      jump\t// out\n        /* \"#utility.yul\":5506:5623   */\n    tag_263:\n        /* \"#utility.yul\":5615:5616   */\n      0x00\n        /* \"#utility.yul\":5612:5613   */\n      0x00\n        /* \"#utility.yul\":5605:5617   */\n      revert\n        /* \"#utility.yul\":5646:6356   */\n    tag_264:\n        /* \"#utility.yul\":5742:5747   */\n      0x00\n        /* \"#utility.yul\":5767:5848   */\n      tag_370\n        /* \"#utility.yul\":5783:5847   */\n      tag_371\n        /* \"#utility.yul\":5840:5846   */\n      dup5\n        /* \"#utility.yul\":5783:5847   */\n      tag_262\n      jump\t// in\n    tag_371:\n        /* \"#utility.yul\":5767:5848   */\n      tag_261\n      jump\t// in\n    tag_370:\n        /* \"#utility.yul\":5758:5848   */\n      swap1\n      pop\n        /* \"#utility.yul\":5868:5873   */\n      dup1\n        /* \"#utility.yul\":5897:5903   */\n      dup4\n        /* \"#utility.yul\":5890:5895   */\n      dup3\n        /* \"#utility.yul\":5883:5904   */\n      mstore\n        /* \"#utility.yul\":5931:5935   */\n      0x20\n        /* \"#utility.yul\":5924:5929   */\n      dup3\n        /* \"#utility.yul\":5920:5936   */\n      add\n        /* \"#utility.yul\":5913:5936   */\n      swap1\n      pop\n        /* \"#utility.yul\":5984:5988   */\n      0x20\n        /* \"#utility.yul\":5976:5982   */\n      dup5\n        /* \"#utility.yul\":5972:5989   */\n      mul\n        /* \"#utility.yul\":5964:5970   */\n      dup4\n        /* \"#utility.yul\":5960:5990   */\n      add\n        /* \"#utility.yul\":6013:6016   */\n      dup6\n        /* \"#utility.yul\":6005:6011   */\n      dup2\n        /* \"#utility.yul\":6002:6017   */\n      gt\n        /* \"#utility.yul\":5999:6121   */\n      iszero\n      tag_372\n      jumpi\n        /* \"#utility.yul\":6032:6111   */\n      tag_373\n      tag_263\n      jump\t// in\n    tag_373:\n        /* \"#utility.yul\":5999:6121   */\n    tag_372:\n        /* \"#utility.yul\":6147:6153   */\n      dup4\n        /* \"#utility.yul\":6130:6350   */\n    tag_374:\n        /* \"#utility.yul\":6164:6170   */\n      dup2\n        /* \"#utility.yul\":6159:6162   */\n      dup2\n        /* \"#utility.yul\":6156:6171   */\n      lt\n        /* \"#utility.yul\":6130:6350   */\n      iszero\n      tag_376\n      jumpi\n        /* \"#utility.yul\":6239:6242   */\n      dup1\n        /* \"#utility.yul\":6268:6305   */\n      tag_377\n        /* \"#utility.yul\":6301:6304   */\n      dup9\n        /* \"#utility.yul\":6289:6299   */\n      dup3\n        /* \"#utility.yul\":6268:6305   */\n      tag_252\n      jump\t// in\n    tag_377:\n        /* \"#utility.yul\":6263:6266   */\n      dup5\n        /* \"#utility.yul\":6256:6306   */\n      mstore\n        /* \"#utility.yul\":6335:6339   */\n      0x20\n        /* \"#utility.yul\":6330:6333   */\n      dup5\n        /* \"#utility.yul\":6326:6340   */\n      add\n        /* \"#utility.yul\":6319:6340   */\n      swap4\n      pop\n        /* \"#utility.yul\":6206:6350   */\n      pop\n        /* \"#utility.yul\":6190:6194   */\n      0x20\n        /* \"#utility.yul\":6185:6188   */\n      dup2\n        /* \"#utility.yul\":6181:6195   */\n      add\n        /* \"#utility.yul\":6174:6195   */\n      swap1\n      pop\n        /* \"#utility.yul\":6130:6350   */\n      jump(tag_374)\n    tag_376:\n        /* \"#utility.yul\":6134:6155   */\n      pop\n        /* \"#utility.yul\":5748:6356   */\n      pop\n      pop\n        /* \"#utility.yul\":5646:6356   */\n      swap4\n      swap3\n      pop\n      pop\n      pop\n      jump\t// out\n        /* \"#utility.yul\":6379:6749   */\n    tag_265:\n        /* \"#utility.yul\":6450:6455   */\n      0x00\n        /* \"#utility.yul\":6499:6502   */\n      dup3\n        /* \"#utility.yul\":6492:6496   */\n      0x1f\n        /* \"#utility.yul\":6484:6490   */\n      dup4\n        /* \"#utility.yul\":6480:6497   */\n      add\n        /* \"#utility.yul\":6476:6503   */\n      slt\n        /* \"#utility.yul\":6466:6588   */\n      tag_379\n      jumpi\n        /* \"#utility.yul\":6507:6586   */\n      tag_380\n      tag_259\n      jump\t// in\n    tag_380:\n        /* \"#utility.yul\":6466:6588   */\n    tag_379:\n        /* \"#utility.yul\":6624:6630   */\n      dup2\n        /* \"#utility.yul\":6611:6631   */\n      calldataload\n        /* \"#utility.yul\":6649:6743   */\n      tag_381\n        /* \"#utility.yul\":6739:6742   */\n      dup5\n        /* \"#utility.yul\":6731:6737   */\n      dup3\n        /* \"#utility.yul\":6724:6728   */\n      0x20\n        /* \"#utility.yul\":6716:6722   */\n      dup7\n        /* \"#utility.yul\":6712:6729   */\n      add\n        /* \"#utility.yul\":6649:6743   */\n      tag_264\n      jump\t// in\n    tag_381:\n        /* \"#utility.yul\":6640:6743   */\n      swap2\n      pop\n        /* \"#utility.yul\":6456:6749   */\n      pop\n        /* \"#utility.yul\":6379:6749   */\n      swap3\n      swap2\n      pop\n      pop\n      jump\t// out\n        /* \"#utility.yul\":6755:7294   */\n    tag_42:\n        /* \"#utility.yul\":6839:6845   */\n      0x00\n        /* \"#utility.yul\":6888:6890   */\n      0x20\n        /* \"#utility.yul\":6876:6885   */\n      dup3\n        /* \"#utility.yul\":6867:6874   */\n      dup5\n        /* \"#utility.yul\":6863:6886   */\n      sub\n        /* \"#utility.yul\":6859:6891   */\n      slt\n        /* \"#utility.yul\":6856:6975   */\n      iszero\n      tag_383\n      jumpi\n        /* \"#utility.yul\":6894:6973   */\n      tag_384\n      tag_248\n      jump\t// in\n    tag_384:\n        /* \"#utility.yul\":6856:6975   */\n    tag_383:\n        /* \"#utility.yul\":7042:7043   */\n      0x00\n        /* \"#utility.yul\":7031:7040   */\n      dup3\n        /* \"#utility.yul\":7027:7044   */\n      add\n        /* \"#utility.yul\":7014:7045   */\n      calldataload\n        /* \"#utility.yul\":7072:7090   */\n      0xffffffffffffffff\n        /* \"#utility.yul\":7064:7070   */\n      dup2\n        /* \"#utility.yul\":7061:7091   */\n      gt\n        /* \"#utility.yul\":7058:7175   */\n      iszero\n      tag_385\n      jumpi\n        /* \"#utility.yul\":7094:7173   */\n      tag_386\n      tag_249\n      jump\t// in\n    tag_386:\n        /* \"#utility.yul\":7058:7175   */\n    tag_385:\n        /* \"#utility.yul\":7199:7277   */\n      tag_387\n        /* \"#utility.yul\":7269:7276   */\n      dup5\n        /* \"#utility.yul\":7260:7266   */\n      dup3\n        /* \"#utility.yul\":7249:7258   */\n      dup6\n        /* \"#utility.yul\":7245:7267   */\n      add\n        /* \"#utility.yul\":7199:7277   */\n      tag_265\n      jump\t// in\n    tag_387:\n        /* \"#utility.yul\":7189:7277   */\n      swap2\n      pop\n        /* \"#utility.yul\":6985:7287   */\n      pop\n        /* \"#utility.yul\":6755:7294   */\n      swap3\n      swap2\n      pop\n      pop\n      jump\t// out\n        /* \"#utility.yul\":7300:7390   */\n    tag_266:\n        /* \"#utility.yul\":7334:7341   */\n      0x00\n        /* \"#utility.yul\":7377:7382   */\n      dup2\n        /* \"#utility.yul\":7370:7383   */\n      iszero\n        /* \"#utility.yul\":7363:7384   */\n      iszero\n        /* \"#utility.yul\":7352:7384   */\n      swap1\n      pop\n        /* \"#utility.yul\":7300:7390   */\n      swap2\n      swap1\n      pop\n      jump\t// out\n        /* \"#utility.yul\":7396:7505   */\n    tag_267:\n        /* \"#utility.yul\":7477:7498   */\n      tag_390\n        /* \"#utility.yul\":7492:7497   */\n      dup2\n        /* \"#utility.yul\":7477:7498   */\n      tag_266\n      jump\t// in\n    tag_390:\n        /* \"#utility.yul\":7472:7475   */\n      dup3\n        /* \"#utility.yul\":7465:7499   */\n      mstore\n        /* \"#utility.yul\":7396:7505   */\n      pop\n      pop\n      jump\t// out\n        /* \"#utility.yul\":7511:7721   */\n    tag_45:\n        /* \"#utility.yul\":7598:7602   */\n      0x00\n        /* \"#utility.yul\":7636:7638   */\n      0x20\n        /* \"#utility.yul\":7625:7634   */\n      dup3\n        /* \"#utility.yul\":7621:7639   */\n      add\n        /* \"#utility.yul\":7613:7639   */\n      swap1\n      pop\n        /* \"#utility.yul\":7649:7714   */\n      tag_392\n        /* \"#utility.yul\":7711:7712   */\n      0x00\n        /* \"#utility.yul\":7700:7709   */\n      dup4\n        /* \"#utility.yul\":7696:7713   */\n      add\n        /* \"#utility.yul\":7687:7693   */\n      dup5\n        /* \"#utility.yul\":7649:7714   */\n      tag_267\n      jump\t// in\n    tag_392:\n        /* \"#utility.yul\":7511:7721   */\n      swap3\n      swap2\n      pop\n      pop\n      jump\t// out\n        /* \"#utility.yul\":7727:7949   */\n    tag_49:\n        /* \"#utility.yul\":7820:7824   */\n      0x00\n        /* \"#utility.yul\":7858:7860   */\n      0x20\n        /* \"#utility.yul\":7847:7856   */\n      dup3\n        /* \"#utility.yul\":7843:7861   */\n      add\n        /* \"#utility.yul\":7835:7861   */\n      swap1\n      pop\n        /* \"#utility.yul\":7871:7942   */\n      tag_394\n        /* \"#utility.yul\":7939:7940   */\n      0x00\n        /* \"#utility.yul\":7928:7937   */\n      dup4\n        /* \"#utility.yul\":7924:7941   */\n      add\n        /* \"#utility.yul\":7915:7921   */\n      dup5\n        /* \"#utility.yul\":7871:7942   */\n      tag_253\n      jump\t// in\n    tag_394:\n        /* \"#utility.yul\":7727:7949   */\n      swap3\n      swap2\n      pop\n      pop\n      jump\t// out\n        /* \"#utility.yul\":7955:8072   */\n    tag_268:\n        /* \"#utility.yul\":8064:8065   */\n      0x00\n        /* \"#utility.yul\":8061:8062   */\n      0x00\n        /* \"#utility.yul\":8054:8066   */\n      revert\n        /* \"#utility.yul\":8078:8386   */\n    tag_269:\n        /* \"#utility.yul\":8140:8144   */\n      0x00\n        /* \"#utility.yul\":8230:8248   */\n      0xffffffffffffffff\n        /* \"#utility.yul\":8222:8228   */\n      dup3\n        /* \"#utility.yul\":8219:8249   */\n      gt\n        /* \"#utility.yul\":8216:8272   */\n      iszero\n      tag_397\n      jumpi\n        /* \"#utility.yul\":8252:8270   */\n      tag_398\n      tag_125\n      jump\t// in\n    tag_398:\n        /* \"#utility.yul\":8216:8272   */\n    tag_397:\n        /* \"#utility.yul\":8290:8319   */\n      tag_399\n        /* \"#utility.yul\":8312:8318   */\n      dup3\n        /* \"#utility.yul\":8290:8319   */\n      tag_245\n      jump\t// in\n    tag_399:\n        /* \"#utility.yul\":8282:8319   */\n      swap1\n      pop\n        /* \"#utility.yul\":8374:8378   */\n      0x20\n        /* \"#utility.yul\":8368:8372   */\n      dup2\n        /* \"#utility.yul\":8364:8379   */\n      add\n        /* \"#utility.yul\":8356:8379   */\n      swap1\n      pop\n        /* \"#utility.yul\":8078:8386   */\n      swap2\n      swap1\n      pop\n      jump\t// out\n        /* \"#utility.yul\":8392:8540   */\n    tag_270:\n        /* \"#utility.yul\":8490:8496   */\n      dup3\n        /* \"#utility.yul\":8485:8488   */\n      dup2\n        /* \"#utility.yul\":8480:8483   */\n      dup4\n        /* \"#utility.yul\":8467:8497   */\n      calldatacopy\n        /* \"#utility.yul\":8531:8532   */\n      0x00\n        /* \"#utility.yul\":8522:8528   */\n      dup4\n        /* \"#utility.yul\":8517:8520   */\n      dup4\n        /* \"#utility.yul\":8513:8529   */\n      add\n        /* \"#utility.yul\":8506:8533   */\n      mstore\n        /* \"#utility.yul\":8392:8540   */\n      pop\n      pop\n      pop\n      jump\t// out\n        /* \"#utility.yul\":8546:8971   */\n    tag_271:\n        /* \"#utility.yul\":8624:8629   */\n      0x00\n        /* \"#utility.yul\":8649:8715   */\n      tag_402\n        /* \"#utility.yul\":8665:8714   */\n      tag_403\n        /* \"#utility.yul\":8707:8713   */\n      dup5\n        /* \"#utility.yul\":8665:8714   */\n      tag_269\n      jump\t// in\n    tag_403:\n        /* \"#utility.yul\":8649:8715   */\n      tag_261\n      jump\t// in\n    tag_402:\n        /* \"#utility.yul\":8640:8715   */\n      swap1\n      pop\n        /* \"#utility.yul\":8738:8744   */\n      dup3\n        /* \"#utility.yul\":8731:8736   */\n      dup2\n        /* \"#utility.yul\":8724:8745   */\n      mstore\n        /* \"#utility.yul\":8776:8780   */\n      0x20\n        /* \"#utility.yul\":8769:8774   */\n      dup2\n        /* \"#utility.yul\":8765:8781   */\n      add\n        /* \"#utility.yul\":8814:8817   */\n      dup5\n        /* \"#utility.yul\":8805:8811   */\n      dup5\n        /* \"#utility.yul\":8800:8803   */\n      dup5\n        /* \"#utility.yul\":8796:8812   */\n      add\n        /* \"#utility.yul\":8793:8818   */\n      gt\n        /* \"#utility.yul\":8790:8902   */\n      iszero\n      tag_404\n      jumpi\n        /* \"#utility.yul\":8821:8900   */\n      tag_405\n      tag_268\n      jump\t// in\n    tag_405:\n        /* \"#utility.yul\":8790:8902   */\n    tag_404:\n        /* \"#utility.yul\":8911:8965   */\n      tag_406\n        /* \"#utility.yul\":8958:8964   */\n      dup5\n        /* \"#utility.yul\":8953:8956   */\n      dup3\n        /* \"#utility.yul\":8948:8951   */\n      dup6\n        /* \"#utility.yul\":8911:8965   */\n      tag_270\n      jump\t// in\n    tag_406:\n        /* \"#utility.yul\":8630:8971   */\n      pop\n        /* \"#utility.yul\":8546:8971   */\n      swap4\n      swap3\n      pop\n      pop\n      pop\n      jump\t// out\n        /* \"#utility.yul\":8991:9331   */\n    tag_272:\n        /* \"#utility.yul\":9047:9052   */\n      0x00\n        /* \"#utility.yul\":9096:9099   */\n      dup3\n        /* \"#utility.yul\":9089:9093   */\n      0x1f\n        /* \"#utility.yul\":9081:9087   */\n      dup4\n        /* \"#utility.yul\":9077:9094   */\n      add\n        /* \"#utility.yul\":9073:9100   */\n      slt\n        /* \"#utility.yul\":9063:9185   */\n      tag_408\n      jumpi\n        /* \"#utility.yul\":9104:9183   */\n      tag_409\n      tag_259\n      jump\t// in\n    tag_409:\n        /* \"#utility.yul\":9063:9185   */\n    tag_408:\n        /* \"#utility.yul\":9221:9227   */\n      dup2\n        /* \"#utility.yul\":9208:9228   */\n      calldataload\n        /* \"#utility.yul\":9246:9325   */\n      tag_410\n        /* \"#utility.yul\":9321:9324   */\n      dup5\n        /* \"#utility.yul\":9313:9319   */\n      dup3\n        /* \"#utility.yul\":9306:9310   */\n      0x20\n        /* \"#utility.yul\":9298:9304   */\n      dup7\n        /* \"#utility.yul\":9294:9311   */\n      add\n        /* \"#utility.yul\":9246:9325   */\n      tag_271\n      jump\t// in\n    tag_410:\n        /* \"#utility.yul\":9237:9325   */\n      swap2\n      pop\n        /* \"#utility.yul\":9053:9331   */\n      pop\n        /* \"#utility.yul\":8991:9331   */\n      swap3\n      swap2\n      pop\n      pop\n      jump\t// out\n        /* \"#utility.yul\":9337:10754   */\n    tag_54:\n        /* \"#utility.yul\":9461:9467   */\n      0x00\n        /* \"#utility.yul\":9469:9475   */\n      0x00\n        /* \"#utility.yul\":9477:9483   */\n      0x00\n        /* \"#utility.yul\":9485:9491   */\n      0x00\n        /* \"#utility.yul\":9493:9499   */\n      0x00\n        /* \"#utility.yul\":9501:9507   */\n      0x00\n        /* \"#utility.yul\":9550:9553   */\n      0xc0\n        /* \"#utility.yul\":9538:9547   */\n      dup8\n        /* \"#utility.yul\":9529:9536   */\n      dup10\n        /* \"#utility.yul\":9525:9548   */\n      sub\n        /* \"#utility.yul\":9521:9554   */\n      slt\n        /* \"#utility.yul\":9518:9638   */\n      iszero\n      tag_412\n      jumpi\n        /* \"#utility.yul\":9557:9636   */\n      tag_413\n      tag_248\n      jump\t// in\n    tag_413:\n        /* \"#utility.yul\":9518:9638   */\n    tag_412:\n        /* \"#utility.yul\":9705:9706   */\n      0x00\n        /* \"#utility.yul\":9694:9703   */\n      dup8\n        /* \"#utility.yul\":9690:9707   */\n      add\n        /* \"#utility.yul\":9677:9708   */\n      calldataload\n        /* \"#utility.yul\":9735:9753   */\n      0xffffffffffffffff\n        /* \"#utility.yul\":9727:9733   */\n      dup2\n        /* \"#utility.yul\":9724:9754   */\n      gt\n        /* \"#utility.yul\":9721:9838   */\n      iszero\n      tag_414\n      jumpi\n        /* \"#utility.yul\":9757:9836   */\n      tag_415\n      tag_249\n      jump\t// in\n    tag_415:\n        /* \"#utility.yul\":9721:9838   */\n    tag_414:\n        /* \"#utility.yul\":9862:9925   */\n      tag_416\n        /* \"#utility.yul\":9917:9924   */\n      dup10\n        /* \"#utility.yul\":9908:9914   */\n      dup3\n        /* \"#utility.yul\":9897:9906   */\n      dup11\n        /* \"#utility.yul\":9893:9915   */\n      add\n        /* \"#utility.yul\":9862:9925   */\n      tag_272\n      jump\t// in\n    tag_416:\n        /* \"#utility.yul\":9852:9925   */\n      swap7\n      pop\n        /* \"#utility.yul\":9648:9935   */\n      pop\n        /* \"#utility.yul\":9974:9976   */\n      0x20\n        /* \"#utility.yul\":10000:10053   */\n      tag_417\n        /* \"#utility.yul\":10045:10052   */\n      dup10\n        /* \"#utility.yul\":10036:10042   */\n      dup3\n        /* \"#utility.yul\":10025:10034   */\n      dup11\n        /* \"#utility.yul\":10021:10043   */\n      add\n        /* \"#utility.yul\":10000:10053   */\n      tag_252\n      jump\t// in\n    tag_417:\n        /* \"#utility.yul\":9990:10053   */\n      swap6\n      pop\n        /* \"#utility.yul\":9945:10063   */\n      pop\n        /* \"#utility.yul\":10102:10104   */\n      0x40\n        /* \"#utility.yul\":10128:10181   */\n      tag_418\n        /* \"#utility.yul\":10173:10180   */\n      dup10\n        /* \"#utility.yul\":10164:10170   */\n      dup3\n        /* \"#utility.yul\":10153:10162   */\n      dup11\n        /* \"#utility.yul\":10149:10171   */\n      add\n        /* \"#utility.yul\":10128:10181   */\n      tag_252\n      jump\t// in\n    tag_418:\n        /* \"#utility.yul\":10118:10181   */\n      swap5\n      pop\n        /* \"#utility.yul\":10073:10191   */\n      pop\n        /* \"#utility.yul\":10230:10232   */\n      0x60\n        /* \"#utility.yul\":10256:10309   */\n      tag_419\n        /* \"#utility.yul\":10301:10308   */\n      dup10\n        /* \"#utility.yul\":10292:10298   */\n      dup3\n        /* \"#utility.yul\":10281:10290   */\n      dup11\n        /* \"#utility.yul\":10277:10299   */\n      add\n        /* \"#utility.yul\":10256:10309   */\n      tag_258\n      jump\t// in\n    tag_419:\n        /* \"#utility.yul\":10246:10309   */\n      swap4\n      pop\n        /* \"#utility.yul\":10201:10319   */\n      pop\n        /* \"#utility.yul\":10386:10389   */\n      0x80\n        /* \"#utility.yul\":10375:10384   */\n      dup8\n        /* \"#utility.yul\":10371:10390   */\n      add\n        /* \"#utility.yul\":10358:10391   */\n      calldataload\n        /* \"#utility.yul\":10418:10436   */\n      0xffffffffffffffff\n        /* \"#utility.yul\":10410:10416   */\n      dup2\n        /* \"#utility.yul\":10407:10437   */\n      gt\n        /* \"#utility.yul\":10404:10521   */\n      iszero\n      tag_420\n      jumpi\n        /* \"#utility.yul\":10440:10519   */\n      tag_421\n      tag_249\n      jump\t// in\n    tag_421:\n        /* \"#utility.yul\":10404:10521   */\n    tag_420:\n        /* \"#utility.yul\":10545:10608   */\n      tag_422\n        /* \"#utility.yul\":10600:10607   */\n      dup10\n        /* \"#utility.yul\":10591:10597   */\n      dup3\n        /* \"#utility.yul\":10580:10589   */\n      dup11\n        /* \"#utility.yul\":10576:10598   */\n      add\n        /* \"#utility.yul\":10545:10608   */\n      tag_272\n      jump\t// in\n    tag_422:\n        /* \"#utility.yul\":10535:10608   */\n      swap3\n      pop\n        /* \"#utility.yul\":10329:10618   */\n      pop\n        /* \"#utility.yul\":10657:10660   */\n      0xa0\n        /* \"#utility.yul\":10684:10737   */\n      tag_423\n        /* \"#utility.yul\":10729:10736   */\n      dup10\n        /* \"#utility.yul\":10720:10726   */\n      dup3\n        /* \"#utility.yul\":10709:10718   */\n      dup11\n        /* \"#utility.yul\":10705:10727   */\n      add\n        /* \"#utility.yul\":10684:10737   */\n      tag_252\n      jump\t// in\n    tag_423:\n        /* \"#utility.yul\":10674:10737   */\n      swap2\n      pop\n        /* \"#utility.yul\":10628:10747   */\n      pop\n        /* \"#utility.yul\":9337:10754   */\n      swap3\n      swap6\n      pop\n      swap3\n      swap6\n      pop\n      swap3\n      swap6\n      jump\t// out\n        /* \"#utility.yul\":10760:10982   */\n    tag_60:\n        /* \"#utility.yul\":10853:10857   */\n      0x00\n        /* \"#utility.yul\":10891:10893   */\n      0x20\n        /* \"#utility.yul\":10880:10889   */\n      dup3\n        /* \"#utility.yul\":10876:10894   */\n      add\n        /* \"#utility.yul\":10868:10894   */\n      swap1\n      pop\n        /* \"#utility.yul\":10904:10975   */\n      tag_425\n        /* \"#utility.yul\":10972:10973   */\n      0x00\n        /* \"#utility.yul\":10961:10970   */\n      dup4\n        /* \"#utility.yul\":10957:10974   */\n      add\n        /* \"#utility.yul\":10948:10954   */\n      dup5\n        /* \"#utility.yul\":10904:10975   */\n      tag_256\n      jump\t// in\n    tag_425:\n        /* \"#utility.yul\":10760:10982   */\n      swap3\n      swap2\n      pop\n      pop\n      jump\t// out\n        /* \"#utility.yul\":10988:11743   */\n    tag_65:\n        /* \"#utility.yul\":11213:11217   */\n      0x00\n        /* \"#utility.yul\":11251:11254   */\n      0xa0\n        /* \"#utility.yul\":11240:11249   */\n      dup3\n        /* \"#utility.yul\":11236:11255   */\n      add\n        /* \"#utility.yul\":11228:11255   */\n      swap1\n      pop\n        /* \"#utility.yul\":11301:11310   */\n      dup2\n        /* \"#utility.yul\":11295:11299   */\n      dup2\n        /* \"#utility.yul\":11291:11311   */\n      sub\n        /* \"#utility.yul\":11287:11288   */\n      0x00\n        /* \"#utility.yul\":11276:11285   */\n      dup4\n        /* \"#utility.yul\":11272:11289   */\n      add\n        /* \"#utility.yul\":11265:11312   */\n      mstore\n        /* \"#utility.yul\":11329:11407   */\n      tag_427\n        /* \"#utility.yul\":11402:11406   */\n      dup2\n        /* \"#utility.yul\":11393:11399   */\n      dup9\n        /* \"#utility.yul\":11329:11407   */\n      tag_246\n      jump\t// in\n    tag_427:\n        /* \"#utility.yul\":11321:11407   */\n      swap1\n      pop\n        /* \"#utility.yul\":11417:11489   */\n      tag_428\n        /* \"#utility.yul\":11485:11487   */\n      0x20\n        /* \"#utility.yul\":11474:11483   */\n      dup4\n        /* \"#utility.yul\":11470:11488   */\n      add\n        /* \"#utility.yul\":11461:11467   */\n      dup8\n        /* \"#utility.yul\":11417:11489   */\n      tag_253\n      jump\t// in\n    tag_428:\n        /* \"#utility.yul\":11499:11571   */\n      tag_429\n        /* \"#utility.yul\":11567:11569   */\n      0x40\n        /* \"#utility.yul\":11556:11565   */\n      dup4\n        /* \"#utility.yul\":11552:11570   */\n      add\n        /* \"#utility.yul\":11543:11549   */\n      dup7\n        /* \"#utility.yul\":11499:11571   */\n      tag_253\n      jump\t// in\n    tag_429:\n        /* \"#utility.yul\":11581:11653   */\n      tag_430\n        /* \"#utility.yul\":11649:11651   */\n      0x60\n        /* \"#utility.yul\":11638:11647   */\n      dup4\n        /* \"#utility.yul\":11634:11652   */\n      add\n        /* \"#utility.yul\":11625:11631   */\n      dup6\n        /* \"#utility.yul\":11581:11653   */\n      tag_253\n      jump\t// in\n    tag_430:\n        /* \"#utility.yul\":11663:11736   */\n      tag_431\n        /* \"#utility.yul\":11731:11734   */\n      0x80\n        /* \"#utility.yul\":11720:11729   */\n      dup4\n        /* \"#utility.yul\":11716:11735   */\n      add\n        /* \"#utility.yul\":11707:11713   */\n      dup5\n        /* \"#utility.yul\":11663:11736   */\n      tag_256\n      jump\t// in\n    tag_431:\n        /* \"#utility.yul\":10988:11743   */\n      swap7\n      swap6\n      pop\n      pop\n      pop\n      pop\n      pop\n      pop\n      jump\t// out\n        /* \"#utility.yul\":11749:12403   */\n    tag_76:\n        /* \"#utility.yul\":11827:11833   */\n      0x00\n        /* \"#utility.yul\":11835:11841   */\n      0x00\n        /* \"#utility.yul\":11884:11886   */\n      0x40\n        /* \"#utility.yul\":11872:11881   */\n      dup4\n        /* \"#utility.yul\":11863:11870   */\n      dup6\n        /* \"#utility.yul\":11859:11882   */\n      sub\n        /* \"#utility.yul\":11855:11887   */\n      slt\n        /* \"#utility.yul\":11852:11971   */\n      iszero\n      tag_433\n      jumpi\n        /* \"#utility.yul\":11890:11969   */\n      tag_434\n      tag_248\n      jump\t// in\n    tag_434:\n        /* \"#utility.yul\":11852:11971   */\n    tag_433:\n        /* \"#utility.yul\":12038:12039   */\n      0x00\n        /* \"#utility.yul\":12027:12036   */\n      dup4\n        /* \"#utility.yul\":12023:12040   */\n      add\n        /* \"#utility.yul\":12010:12041   */\n      calldataload\n        /* \"#utility.yul\":12068:12086   */\n      0xffffffffffffffff\n        /* \"#utility.yul\":12060:12066   */\n      dup2\n        /* \"#utility.yul\":12057:12087   */\n      gt\n        /* \"#utility.yul\":12054:12171   */\n      iszero\n      tag_435\n      jumpi\n        /* \"#utility.yul\":12090:12169   */\n      tag_436\n      tag_249\n      jump\t// in\n    tag_436:\n        /* \"#utility.yul\":12054:12171   */\n    tag_435:\n        /* \"#utility.yul\":12195:12258   */\n      tag_437\n        /* \"#utility.yul\":12250:12257   */\n      dup6\n        /* \"#utility.yul\":12241:12247   */\n      dup3\n        /* \"#utility.yul\":12230:12239   */\n      dup7\n        /* \"#utility.yul\":12226:12248   */\n      add\n        /* \"#utility.yul\":12195:12258   */\n      tag_272\n      jump\t// in\n    tag_437:\n        /* \"#utility.yul\":12185:12258   */\n      swap3\n      pop\n        /* \"#utility.yul\":11981:12268   */\n      pop\n        /* \"#utility.yul\":12307:12309   */\n      0x20\n        /* \"#utility.yul\":12333:12386   */\n      tag_438\n        /* \"#utility.yul\":12378:12385   */\n      dup6\n        /* \"#utility.yul\":12369:12375   */\n      dup3\n        /* \"#utility.yul\":12358:12367   */\n      dup7\n        /* \"#utility.yul\":12354:12376   */\n      add\n        /* \"#utility.yul\":12333:12386   */\n      tag_252\n      jump\t// in\n    tag_438:\n        /* \"#utility.yul\":12323:12386   */\n      swap2\n      pop\n        /* \"#utility.yul\":12278:12396   */\n      pop\n        /* \"#utility.yul\":11749:12403   */\n      swap3\n      pop\n      swap3\n      swap1\n      pop\n      jump\t// out\n        /* \"#utility.yul\":12409:13303   */\n    tag_81:\n        /* \"#utility.yul\":12527:12533   */\n      0x00\n        /* \"#utility.yul\":12535:12541   */\n      0x00\n        /* \"#utility.yul\":12584:12586   */\n      0x40\n        /* \"#utility.yul\":12572:12581   */\n      dup4\n        /* \"#utility.yul\":12563:12570   */\n      dup6\n        /* \"#utility.yul\":12559:12582   */\n      sub\n        /* \"#utility.yul\":12555:12587   */\n      slt\n        /* \"#utility.yul\":12552:12671   */\n      iszero\n      tag_440\n      jumpi\n        /* \"#utility.yul\":12590:12669   */\n      tag_441\n      tag_248\n      jump\t// in\n    tag_441:\n        /* \"#utility.yul\":12552:12671   */\n    tag_440:\n        /* \"#utility.yul\":12738:12739   */\n      0x00\n        /* \"#utility.yul\":12727:12736   */\n      dup4\n        /* \"#utility.yul\":12723:12740   */\n      add\n        /* \"#utility.yul\":12710:12741   */\n      calldataload\n        /* \"#utility.yul\":12768:12786   */\n      0xffffffffffffffff\n        /* \"#utility.yul\":12760:12766   */\n      dup2\n        /* \"#utility.yul\":12757:12787   */\n      gt\n        /* \"#utility.yul\":12754:12871   */\n      iszero\n      tag_442\n      jumpi\n        /* \"#utility.yul\":12790:12869   */\n      tag_443\n      tag_249\n      jump\t// in\n    tag_443:\n        /* \"#utility.yul\":12754:12871   */\n    tag_442:\n        /* \"#utility.yul\":12895:12973   */\n      tag_444\n        /* \"#utility.yul\":12965:12972   */\n      dup6\n        /* \"#utility.yul\":12956:12962   */\n      dup3\n        /* \"#utility.yul\":12945:12954   */\n      dup7\n        /* \"#utility.yul\":12941:12963   */\n      add\n        /* \"#utility.yul\":12895:12973   */\n      tag_265\n      jump\t// in\n    tag_444:\n        /* \"#utility.yul\":12885:12973   */\n      swap3\n      pop\n        /* \"#utility.yul\":12681:12983   */\n      pop\n        /* \"#utility.yul\":13050:13052   */\n      0x20\n        /* \"#utility.yul\":13039:13048   */\n      dup4\n        /* \"#utility.yul\":13035:13053   */\n      add\n        /* \"#utility.yul\":13022:13054   */\n      calldataload\n        /* \"#utility.yul\":13081:13099   */\n      0xffffffffffffffff\n        /* \"#utility.yul\":13073:13079   */\n      dup2\n        /* \"#utility.yul\":13070:13100   */\n      gt\n        /* \"#utility.yul\":13067:13184   */\n      iszero\n      tag_445\n      jumpi\n        /* \"#utility.yul\":13103:13182   */\n      tag_446\n      tag_249\n      jump\t// in\n    tag_446:\n        /* \"#utility.yul\":13067:13184   */\n    tag_445:\n        /* \"#utility.yul\":13208:13286   */\n      tag_447\n        /* \"#utility.yul\":13278:13285   */\n      dup6\n        /* \"#utility.yul\":13269:13275   */\n      dup3\n        /* \"#utility.yul\":13258:13267   */\n      dup7\n        /* \"#utility.yul\":13254:13276   */\n      add\n        /* \"#utility.yul\":13208:13286   */\n      tag_265\n      jump\t// in\n    tag_447:\n        /* \"#utility.yul\":13198:13286   */\n      swap2\n      pop\n        /* \"#utility.yul\":12993:13296   */\n      pop\n        /* \"#utility.yul\":12409:13303   */\n      swap3\n      pop\n      swap3\n      swap1\n      pop\n      jump\t// out\n        /* \"#utility.yul\":13309:13638   */\n    tag_85:\n        /* \"#utility.yul\":13368:13374   */\n      0x00\n        /* \"#utility.yul\":13417:13419   */\n      0x20\n        /* \"#utility.yul\":13405:13414   */\n      dup3\n        /* \"#utility.yul\":13396:13403   */\n      dup5\n        /* \"#utility.yul\":13392:13415   */\n      sub\n        /* \"#utility.yul\":13388:13420   */\n      slt\n        /* \"#utility.yul\":13385:13504   */\n      iszero\n      tag_449\n      jumpi\n        /* \"#utility.yul\":13423:13502   */\n      tag_450\n      tag_248\n      jump\t// in\n    tag_450:\n        /* \"#utility.yul\":13385:13504   */\n    tag_449:\n        /* \"#utility.yul\":13543:13544   */\n      0x00\n        /* \"#utility.yul\":13568:13621   */\n      tag_451\n        /* \"#utility.yul\":13613:13620   */\n      dup5\n        /* \"#utility.yul\":13604:13610   */\n      dup3\n        /* \"#utility.yul\":13593:13602   */\n      dup6\n        /* \"#utility.yul\":13589:13611   */\n      add\n        /* \"#utility.yul\":13568:13621   */\n      tag_258\n      jump\t// in\n    tag_451:\n        /* \"#utility.yul\":13558:13621   */\n      swap2\n      pop\n        /* \"#utility.yul\":13514:13631   */\n      pop\n        /* \"#utility.yul\":13309:13638   */\n      swap3\n      swap2\n      pop\n      pop\n      jump\t// out\n        /* \"#utility.yul\":13644:13824   */\n    tag_273:\n        /* \"#utility.yul\":13692:13769   */\n      0x4e487b7100000000000000000000000000000000000000000000000000000000\n        /* \"#utility.yul\":13689:13690   */\n      0x00\n        /* \"#utility.yul\":13682:13770   */\n      mstore\n        /* \"#utility.yul\":13789:13793   */\n      0x22\n        /* \"#utility.yul\":13786:13787   */\n      0x04\n        /* \"#utility.yul\":13779:13794   */\n      mstore\n        /* \"#utility.yul\":13813:13817   */\n      0x24\n        /* \"#utility.yul\":13810:13811   */\n      0x00\n        /* \"#utility.yul\":13803:13818   */\n      revert\n        /* \"#utility.yul\":13830:14150   */\n    tag_91:\n        /* \"#utility.yul\":13874:13880   */\n      0x00\n        /* \"#utility.yul\":13911:13912   */\n      0x02\n        /* \"#utility.yul\":13905:13909   */\n      dup3\n        /* \"#utility.yul\":13901:13913   */\n      div\n        /* \"#utility.yul\":13891:13913   */\n      swap1\n      pop\n        /* \"#utility.yul\":13958:13959   */\n      0x01\n        /* \"#utility.yul\":13952:13956   */\n      dup3\n        /* \"#utility.yul\":13948:13960   */\n      and\n        /* \"#utility.yul\":13979:13997   */\n      dup1\n        /* \"#utility.yul\":13969:14050   */\n      tag_454\n      jumpi\n        /* \"#utility.yul\":14035:14039   */\n      0x7f\n        /* \"#utility.yul\":14027:14033   */\n      dup3\n        /* \"#utility.yul\":14023:14040   */\n      and\n        /* \"#utility.yul\":14013:14040   */\n      swap2\n      pop\n        /* \"#utility.yul\":13969:14050   */\n    tag_454:\n        /* \"#utility.yul\":14097:14099   */\n      0x20\n        /* \"#utility.yul\":14089:14095   */\n      dup3\n        /* \"#utility.yul\":14086:14100   */\n      lt\n        /* \"#utility.yul\":14066:14084   */\n      dup2\n        /* \"#utility.yul\":14063:14101   */\n      sub\n        /* \"#utility.yul\":14060:14144   */\n      tag_455\n      jumpi\n        /* \"#utility.yul\":14116:14134   */\n      tag_456\n      tag_273\n      jump\t// in\n    tag_456:\n        /* \"#utility.yul\":14060:14144   */\n    tag_455:\n        /* \"#utility.yul\":13881:14150   */\n      pop\n        /* \"#utility.yul\":13830:14150   */\n      swap2\n      swap1\n      pop\n      jump\t// out\n        /* \"#utility.yul\":14156:14336   */\n    tag_129:\n        /* \"#utility.yul\":14204:14281   */\n      0x4e487b7100000000000000000000000000000000000000000000000000000000\n        /* \"#utility.yul\":14201:14202   */\n      0x00\n        /* \"#utility.yul\":14194:14282   */\n      mstore\n        /* \"#utility.yul\":14301:14305   */\n      0x32\n        /* \"#utility.yul\":14298:14299   */\n      0x04\n        /* \"#utility.yul\":14291:14306   */\n      mstore\n        /* \"#utility.yul\":14325:14329   */\n      0x24\n        /* \"#utility.yul\":14322:14323   */\n      0x00\n        /* \"#utility.yul\":14315:14330   */\n      revert\n        /* \"#utility.yul\":14342:14510   */\n    tag_274:\n        /* \"#utility.yul\":14482:14502   */\n      0x50424d3a20496e76616c696420746f6b656e0000000000000000000000000000\n        /* \"#utility.yul\":14478:14479   */\n      0x00\n        /* \"#utility.yul\":14470:14476   */\n      dup3\n        /* \"#utility.yul\":14466:14480   */\n      add\n        /* \"#utility.yul\":14459:14503   */\n      mstore\n        /* \"#utility.yul\":14342:14510   */\n      pop\n      jump\t// out\n        /* \"#utility.yul\":14516:14882   */\n    tag_275:\n        /* \"#utility.yul\":14658:14661   */\n      0x00\n        /* \"#utility.yul\":14679:14746   */\n      tag_460\n        /* \"#utility.yul\":14743:14745   */\n      0x12\n        /* \"#utility.yul\":14738:14741   */\n      dup4\n        /* \"#utility.yul\":14679:14746   */\n      tag_243\n      jump\t// in\n    tag_460:\n        /* \"#utility.yul\":14672:14746   */\n      swap2\n      pop\n        /* \"#utility.yul\":14755:14848   */\n      tag_461\n        /* \"#utility.yul\":14844:14847   */\n      dup3\n        /* \"#utility.yul\":14755:14848   */\n      tag_274\n      jump\t// in\n    tag_461:\n        /* \"#utility.yul\":14873:14875   */\n      0x20\n        /* \"#utility.yul\":14868:14871   */\n      dup3\n        /* \"#utility.yul\":14864:14876   */\n      add\n        /* \"#utility.yul\":14857:14876   */\n      swap1\n      pop\n        /* \"#utility.yul\":14516:14882   */\n      swap2\n      swap1\n      pop\n      jump\t// out\n        /* \"#utility.yul\":14888:15307   */\n    tag_133:\n        /* \"#utility.yul\":15054:15058   */\n      0x00\n        /* \"#utility.yul\":15092:15094   */\n      0x20\n        /* \"#utility.yul\":15081:15090   */\n      dup3\n        /* \"#utility.yul\":15077:15095   */\n      add\n        /* \"#utility.yul\":15069:15095   */\n      swap1\n      pop\n        /* \"#utility.yul\":15141:15150   */\n      dup2\n        /* \"#utility.yul\":15135:15139   */\n      dup2\n        /* \"#utility.yul\":15131:15151   */\n      sub\n        /* \"#utility.yul\":15127:15128   */\n      0x00\n        /* \"#utility.yul\":15116:15125   */\n      dup4\n        /* \"#utility.yul\":15112:15129   */\n      add\n        /* \"#utility.yul\":15105:15152   */\n      mstore\n        /* \"#utility.yul\":15169:15300   */\n      tag_463\n        /* \"#utility.yul\":15295:15299   */\n      dup2\n        /* \"#utility.yul\":15169:15300   */\n      tag_275\n      jump\t// in\n    tag_463:\n        /* \"#utility.yul\":15161:15300   */\n      swap1\n      pop\n        /* \"#utility.yul\":14888:15307   */\n      swap2\n      swap1\n      pop\n      jump\t// out\n        /* \"#utility.yul\":15313:15485   */\n    tag_276:\n        /* \"#utility.yul\":15453:15477   */\n      0x50424d3a20546f6b656e206e6f74206578706972656400000000000000000000\n        /* \"#utility.yul\":15449:15450   */\n      0x00\n        /* \"#utility.yul\":15441:15447   */\n      dup3\n        /* \"#utility.yul\":15437:15451   */\n      add\n        /* \"#utility.yul\":15430:15478   */\n      mstore\n        /* \"#utility.yul\":15313:15485   */\n      pop\n      jump\t// out\n        /* \"#utility.yul\":15491:15857   */\n    tag_277:\n        /* \"#utility.yul\":15633:15636   */\n      0x00\n        /* \"#utility.yul\":15654:15721   */\n      tag_466\n        /* \"#utility.yul\":15718:15720   */\n      0x16\n        /* \"#utility.yul\":15713:15716   */\n      dup4\n        /* \"#utility.yul\":15654:15721   */\n      tag_243\n      jump\t// in\n    tag_466:\n        /* \"#utility.yul\":15647:15721   */\n      swap2\n      pop\n        /* \"#utility.yul\":15730:15823   */\n      tag_467\n        /* \"#utility.yul\":15819:15822   */\n      dup3\n        /* \"#utility.yul\":15730:15823   */\n      tag_276\n      jump\t// in\n    tag_467:\n        /* \"#utility.yul\":15848:15850   */\n      0x20\n        /* \"#utility.yul\":15843:15846   */\n      dup3\n        /* \"#utility.yul\":15839:15851   */\n      add\n        /* \"#utility.yul\":15832:15851   */\n      swap1\n      pop\n        /* \"#utility.yul\":15491:15857   */\n      swap2\n      swap1\n      pop\n      jump\t// out\n        /* \"#utility.yul\":15863:16282   */\n    tag_136:\n        /* \"#utility.yul\":16029:16033   */\n      0x00\n        /* \"#utility.yul\":16067:16069   */\n      0x20\n        /* \"#utility.yul\":16056:16065   */\n      dup3\n        /* \"#utility.yul\":16052:16070   */\n      add\n        /* \"#utility.yul\":16044:16070   */\n      swap1\n      pop\n        /* \"#utility.yul\":16116:16125   */\n      dup2\n        /* \"#utility.yul\":16110:16114   */\n      dup2\n        /* \"#utility.yul\":16106:16126   */\n      sub\n        /* \"#utility.yul\":16102:16103   */\n      0x00\n        /* \"#utility.yul\":16091:16100   */\n      dup4\n        /* \"#utility.yul\":16087:16104   */\n      add\n        /* \"#utility.yul\":16080:16127   */\n      mstore\n        /* \"#utility.yul\":16144:16275   */\n      tag_469\n        /* \"#utility.yul\":16270:16274   */\n      dup2\n        /* \"#utility.yul\":16144:16275   */\n      tag_277\n      jump\t// in\n    tag_469:\n        /* \"#utility.yul\":16136:16275   */\n      swap1\n      pop\n        /* \"#utility.yul\":15863:16282   */\n      swap2\n      swap1\n      pop\n      jump\t// out\n        /* \"#utility.yul\":16288:16454   */\n    tag_278:\n        /* \"#utility.yul\":16428:16446   */\n      0x50424d3a204e6f742063726561746f7200000000000000000000000000000000\n        /* \"#utility.yul\":16424:16425   */\n      0x00\n        /* \"#utility.yul\":16416:16422   */\n      dup3\n        /* \"#utility.yul\":16412:16426   */\n      add\n        /* \"#utility.yul\":16405:16447   */\n      mstore\n        /* \"#utility.yul\":16288:16454   */\n      pop\n      jump\t// out\n        /* \"#utility.yul\":16460:16826   */\n    tag_279:\n        /* \"#utility.yul\":16602:16605   */\n      0x00\n        /* \"#utility.yul\":16623:16690   */\n      tag_472\n        /* \"#utility.yul\":16687:16689   */\n      0x10\n        /* \"#utility.yul\":16682:16685   */\n      dup4\n        /* \"#utility.yul\":16623:16690   */\n      tag_243\n      jump\t// in\n    tag_472:\n        /* \"#utility.yul\":16616:16690   */\n      swap2\n      pop\n        /* \"#utility.yul\":16699:16792   */\n      tag_473\n        /* \"#utility.yul\":16788:16791   */\n      dup3\n        /* \"#utility.yul\":16699:16792   */\n      tag_278\n      jump\t// in\n    tag_473:\n        /* \"#utility.yul\":16817:16819   */\n      0x20\n        /* \"#utility.yul\":16812:16815   */\n      dup3\n        /* \"#utility.yul\":16808:16820   */\n      add\n        /* \"#utility.yul\":16801:16820   */\n      swap1\n      pop\n        /* \"#utility.yul\":16460:16826   */\n      swap2\n      swap1\n      pop\n      jump\t// out\n        /* \"#utility.yul\":16832:17251   */\n    tag_139:\n        /* \"#utility.yul\":16998:17002   */\n      0x00\n        /* \"#utility.yul\":17036:17038   */\n      0x20\n        /* \"#utility.yul\":17025:17034   */\n      dup3\n        /* \"#utility.yul\":17021:17039   */\n      add\n        /* \"#utility.yul\":17013:17039   */\n      swap1\n      pop\n        /* \"#utility.yul\":17085:17094   */\n      dup2\n        /* \"#utility.yul\":17079:17083   */\n      dup2\n        /* \"#utility.yul\":17075:17095   */\n      sub\n        /* \"#utility.yul\":17071:17072   */\n      0x00\n        /* \"#utility.yul\":17060:17069   */\n      dup4\n        /* \"#utility.yul\":17056:17073   */\n      add\n        /* \"#utility.yul\":17049:17096   */\n      mstore\n        /* \"#utility.yul\":17113:17244   */\n      tag_475\n        /* \"#utility.yul\":17239:17243   */\n      dup2\n        /* \"#utility.yul\":17113:17244   */\n      tag_279\n      jump\t// in\n    tag_475:\n        /* \"#utility.yul\":17105:17244   */\n      swap1\n      pop\n        /* \"#utility.yul\":16832:17251   */\n      swap2\n      swap1\n      pop\n      jump\t// out\n        /* \"#utility.yul\":17257:17429   */\n    tag_280:\n        /* \"#utility.yul\":17397:17421   */\n      0x496e76616c696420746f6b656e206578706972792d3100000000000000000000\n        /* \"#utility.yul\":17393:17394   */\n      0x00\n        /* \"#utility.yul\":17385:17391   */\n      dup3\n        /* \"#utility.yul\":17381:17395   */\n      add\n        /* \"#utility.yul\":17374:17422   */\n      mstore\n        /* \"#utility.yul\":17257:17429   */\n      pop\n      jump\t// out\n        /* \"#utility.yul\":17435:17801   */\n    tag_281:\n        /* \"#utility.yul\":17577:17580   */\n      0x00\n        /* \"#utility.yul\":17598:17665   */\n      tag_478\n        /* \"#utility.yul\":17662:17664   */\n      0x16\n        /* \"#utility.yul\":17657:17660   */\n      dup4\n        /* \"#utility.yul\":17598:17665   */\n      tag_243\n      jump\t// in\n    tag_478:\n        /* \"#utility.yul\":17591:17665   */\n      swap2\n      pop\n        /* \"#utility.yul\":17674:17767   */\n      tag_479\n        /* \"#utility.yul\":17763:17766   */\n      dup3\n        /* \"#utility.yul\":17674:17767   */\n      tag_280\n      jump\t// in\n    tag_479:\n        /* \"#utility.yul\":17792:17794   */\n      0x20\n        /* \"#utility.yul\":17787:17790   */\n      dup3\n        /* \"#utility.yul\":17783:17795   */\n      add\n        /* \"#utility.yul\":17776:17795   */\n      swap1\n      pop\n        /* \"#utility.yul\":17435:17801   */\n      swap2\n      swap1\n      pop\n      jump\t// out\n        /* \"#utility.yul\":17807:18226   */\n    tag_160:\n        /* \"#utility.yul\":17973:17977   */\n      0x00\n        /* \"#utility.yul\":18011:18013   */\n      0x20\n        /* \"#utility.yul\":18000:18009   */\n      dup3\n        /* \"#utility.yul\":17996:18014   */\n      add\n        /* \"#utility.yul\":17988:18014   */\n      swap1\n      pop\n        /* \"#utility.yul\":18060:18069   */\n      dup2\n        /* \"#utility.yul\":18054:18058   */\n      dup2\n        /* \"#utility.yul\":18050:18070   */\n      sub\n        /* \"#utility.yul\":18046:18047   */\n      0x00\n        /* \"#utility.yul\":18035:18044   */\n      dup4\n        /* \"#utility.yul\":18031:18048   */\n      add\n        /* \"#utility.yul\":18024:18071   */\n      mstore\n        /* \"#utility.yul\":18088:18219   */\n      tag_481\n        /* \"#utility.yul\":18214:18218   */\n      dup2\n        /* \"#utility.yul\":18088:18219   */\n      tag_281\n      jump\t// in\n    tag_481:\n        /* \"#utility.yul\":18080:18219   */\n      swap1\n      pop\n        /* \"#utility.yul\":17807:18226   */\n      swap2\n      swap1\n      pop\n      jump\t// out\n        /* \"#utility.yul\":18232:18404   */\n    tag_282:\n        /* \"#utility.yul\":18372:18396   */\n      0x496e76616c696420746f6b656e206578706972792d3200000000000000000000\n        /* \"#utility.yul\":18368:18369   */\n      0x00\n        /* \"#utility.yul\":18360:18366   */\n      dup3\n        /* \"#utility.yul\":18356:18370   */\n      add\n        /* \"#utility.yul\":18349:18397   */\n      mstore\n        /* \"#utility.yul\":18232:18404   */\n      pop\n      jump\t// out\n        /* \"#utility.yul\":18410:18776   */\n    tag_283:\n        /* \"#utility.yul\":18552:18555   */\n      0x00\n        /* \"#utility.yul\":18573:18640   */\n      tag_484\n        /* \"#utility.yul\":18637:18639   */\n      0x16\n        /* \"#utility.yul\":18632:18635   */\n      dup4\n        /* \"#utility.yul\":18573:18640   */\n      tag_243\n      jump\t// in\n    tag_484:\n        /* \"#utility.yul\":18566:18640   */\n      swap2\n      pop\n        /* \"#utility.yul\":18649:18742   */\n      tag_485\n        /* \"#utility.yul\":18738:18741   */\n      dup3\n        /* \"#utility.yul\":18649:18742   */\n      tag_282\n      jump\t// in\n    tag_485:\n        /* \"#utility.yul\":18767:18769   */\n      0x20\n        /* \"#utility.yul\":18762:18765   */\n      dup3\n        /* \"#utility.yul\":18758:18770   */\n      add\n        /* \"#utility.yul\":18751:18770   */\n      swap1\n      pop\n        /* \"#utility.yul\":18410:18776   */\n      swap2\n      swap1\n      pop\n      jump\t// out\n        /* \"#utility.yul\":18782:19201   */\n    tag_163:\n        /* \"#utility.yul\":18948:18952   */\n      0x00\n        /* \"#utility.yul\":18986:18988   */\n      0x20\n        /* \"#utility.yul\":18975:18984   */\n      dup3\n        /* \"#utility.yul\":18971:18989   */\n      add\n        /* \"#utility.yul\":18963:18989   */\n      swap1\n      pop\n        /* \"#utility.yul\":19035:19044   */\n      dup2\n        /* \"#utility.yul\":19029:19033   */\n      dup2\n        /* \"#utility.yul\":19025:19045   */\n      sub\n        /* \"#utility.yul\":19021:19022   */\n      0x00\n        /* \"#utility.yul\":19010:19019   */\n      dup4\n        /* \"#utility.yul\":19006:19023   */\n      add\n        /* \"#utility.yul\":18999:19046   */\n      mstore\n        /* \"#utility.yul\":19063:19194   */\n      tag_487\n        /* \"#utility.yul\":19189:19193   */\n      dup2\n        /* \"#utility.yul\":19063:19194   */\n      tag_283\n      jump\t// in\n    tag_487:\n        /* \"#utility.yul\":19055:19194   */\n      swap1\n      pop\n        /* \"#utility.yul\":18782:19201   */\n      swap2\n      swap1\n      pop\n      jump\t// out\n        /* \"#utility.yul\":19207:19373   */\n    tag_284:\n        /* \"#utility.yul\":19347:19365   */\n      0x53706f7420616d6f756e74206973203000000000000000000000000000000000\n        /* \"#utility.yul\":19343:19344   */\n      0x00\n        /* \"#utility.yul\":19335:19341   */\n      dup3\n        /* \"#utility.yul\":19331:19345   */\n      add\n        /* \"#utility.yul\":19324:19366   */\n      mstore\n        /* \"#utility.yul\":19207:19373   */\n      pop\n      jump\t// out\n        /* \"#utility.yul\":19379:19745   */\n    tag_285:\n        /* \"#utility.yul\":19521:19524   */\n      0x00\n        /* \"#utility.yul\":19542:19609   */\n      tag_490\n        /* \"#utility.yul\":19606:19608   */\n      0x10\n        /* \"#utility.yul\":19601:19604   */\n      dup4\n        /* \"#utility.yul\":19542:19609   */\n      tag_243\n      jump\t// in\n    tag_490:\n        /* \"#utility.yul\":19535:19609   */\n      swap2\n      pop\n        /* \"#utility.yul\":19618:19711   */\n      tag_491\n        /* \"#utility.yul\":19707:19710   */\n      dup3\n        /* \"#utility.yul\":19618:19711   */\n      tag_284\n      jump\t// in\n    tag_491:\n        /* \"#utility.yul\":19736:19738   */\n      0x20\n        /* \"#utility.yul\":19731:19734   */\n      dup3\n        /* \"#utility.yul\":19727:19739   */\n      add\n        /* \"#utility.yul\":19720:19739   */\n      swap1\n      pop\n        /* \"#utility.yul\":19379:19745   */\n      swap2\n      swap1\n      pop\n      jump\t// out\n        /* \"#utility.yul\":19751:20170   */\n    tag_166:\n        /* \"#utility.yul\":19917:19921   */\n      0x00\n        /* \"#utility.yul\":19955:19957   */\n      0x20\n        /* \"#utility.yul\":19944:19953   */\n      dup3\n        /* \"#utility.yul\":19940:19958   */\n      add\n        /* \"#utility.yul\":19932:19958   */\n      swap1\n      pop\n        /* \"#utility.yul\":20004:20013   */\n      dup2\n        /* \"#utility.yul\":19998:20002   */\n      dup2\n        /* \"#utility.yul\":19994:20014   */\n      sub\n        /* \"#utility.yul\":19990:19991   */\n      0x00\n        /* \"#utility.yul\":19979:19988   */\n      dup4\n        /* \"#utility.yul\":19975:19992   */\n      add\n        /* \"#utility.yul\":19968:20015   */\n      mstore\n        /* \"#utility.yul\":20032:20163   */\n      tag_493\n        /* \"#utility.yul\":20158:20162   */\n      dup2\n        /* \"#utility.yul\":20032:20163   */\n      tag_285\n      jump\t// in\n    tag_493:\n        /* \"#utility.yul\":20024:20163   */\n      swap1\n      pop\n        /* \"#utility.yul\":19751:20170   */\n      swap2\n      swap1\n      pop\n      jump\t// out\n        /* \"#utility.yul\":20176:20317   */\n    tag_286:\n        /* \"#utility.yul\":20225:20229   */\n      0x00\n        /* \"#utility.yul\":20248:20251   */\n      dup2\n        /* \"#utility.yul\":20240:20251   */\n      swap1\n      pop\n        /* \"#utility.yul\":20271:20274   */\n      dup2\n        /* \"#utility.yul\":20268:20269   */\n      0x00\n        /* \"#utility.yul\":20261:20275   */\n      mstore\n        /* \"#utility.yul\":20305:20309   */\n      0x20\n        /* \"#utility.yul\":20302:20303   */\n      0x00\n        /* \"#utility.yul\":20292:20310   */\n      keccak256\n        /* \"#utility.yul\":20284:20310   */\n      swap1\n      pop\n        /* \"#utility.yul\":20176:20317   */\n      swap2\n      swap1\n      pop\n      jump\t// out\n        /* \"#utility.yul\":20323:20416   */\n    tag_287:\n        /* \"#utility.yul\":20360:20366   */\n      0x00\n        /* \"#utility.yul\":20407:20409   */\n      0x20\n        /* \"#utility.yul\":20402:20404   */\n      0x1f\n        /* \"#utility.yul\":20395:20400   */\n      dup4\n        /* \"#utility.yul\":20391:20405   */\n      add\n        /* \"#utility.yul\":20387:20410   */\n      div\n        /* \"#utility.yul\":20377:20410   */\n      swap1\n      pop\n        /* \"#utility.yul\":20323:20416   */\n      swap2\n      swap1\n      pop\n      jump\t// out\n        /* \"#utility.yul\":20422:20529   */\n    tag_288:\n        /* \"#utility.yul\":20466:20474   */\n      0x00\n        /* \"#utility.yul\":20516:20521   */\n      dup3\n        /* \"#utility.yul\":20510:20514   */\n      dup3\n        /* \"#utility.yul\":20506:20522   */\n      shl\n        /* \"#utility.yul\":20485:20522   */\n      swap1\n      pop\n        /* \"#utility.yul\":20422:20529   */\n      swap3\n      swap2\n      pop\n      pop\n      jump\t// out\n        /* \"#utility.yul\":20535:20928   */\n    tag_289:\n        /* \"#utility.yul\":20604:20610   */\n      0x00\n        /* \"#utility.yul\":20654:20655   */\n      0x08\n        /* \"#utility.yul\":20642:20652   */\n      dup4\n        /* \"#utility.yul\":20638:20656   */\n      mul\n        /* \"#utility.yul\":20677:20774   */\n      tag_498\n        /* \"#utility.yul\":20707:20773   */\n      0xffffffffffffffffffffffffffffffffffffffffffffffffffffffffffffffff\n        /* \"#utility.yul\":20696:20705   */\n      dup3\n        /* \"#utility.yul\":20677:20774   */\n      tag_288\n      jump\t// in\n    tag_498:\n        /* \"#utility.yul\":20795:20834   */\n      tag_499\n        /* \"#utility.yul\":20825:20833   */\n      dup7\n        /* \"#utility.yul\":20814:20823   */\n      dup4\n        /* \"#utility.yul\":20795:20834   */\n      tag_288\n      jump\t// in\n    tag_499:\n        /* \"#utility.yul\":20783:20834   */\n      swap6\n      pop\n        /* \"#utility.yul\":20867:20871   */\n      dup1\n        /* \"#utility.yul\":20863:20872   */\n      not\n        /* \"#utility.yul\":20856:20861   */\n      dup5\n        /* \"#utility.yul\":20852:20873   */\n      and\n        /* \"#utility.yul\":20843:20873   */\n      swap4\n      pop\n        /* \"#utility.yul\":20916:20920   */\n      dup1\n        /* \"#utility.yul\":20906:20914   */\n      dup7\n        /* \"#utility.yul\":20902:20921   */\n      and\n        /* \"#utility.yul\":20895:20900   */\n      dup5\n        /* \"#utility.yul\":20892:20922   */\n      or\n        /* \"#utility.yul\":20882:20922   */\n      swap3\n      pop\n        /* \"#utility.yul\":20611:20928   */\n      pop\n      pop\n        /* \"#utility.yul\":20535:20928   */\n      swap4\n      swap3\n      pop\n      pop\n      pop\n      jump\t// out\n        /* \"#utility.yul\":20934:20994   */\n    tag_290:\n        /* \"#utility.yul\":20962:20965   */\n      0x00\n        /* \"#utility.yul\":20983:20988   */\n      dup2\n        /* \"#utility.yul\":20976:20988   */\n      swap1\n      pop\n        /* \"#utility.yul\":20934:20994   */\n      swap2\n      swap1\n      pop\n      jump\t// out\n        /* \"#utility.yul\":21000:21142   */\n    tag_291:\n        /* \"#utility.yul\":21050:21059   */\n      0x00\n        /* \"#utility.yul\":21083:21136   */\n      tag_502\n        /* \"#utility.yul\":21101:21135   */\n      tag_503\n        /* \"#utility.yul\":21110:21134   */\n      tag_504\n        /* \"#utility.yul\":21128:21133   */\n      dup5\n        /* \"#utility.yul\":21110:21134   */\n      tag_250\n      jump\t// in\n    tag_504:\n        /* \"#utility.yul\":21101:21135   */\n      tag_290\n      jump\t// in\n    tag_503:\n        /* \"#utility.yul\":21083:21136   */\n      tag_250\n      jump\t// in\n    tag_502:\n        /* \"#utility.yul\":21070:21136   */\n      swap1\n      pop\n        /* \"#utility.yul\":21000:21142   */\n      swap2\n      swap1\n      pop\n      jump\t// out\n        /* \"#utility.yul\":21148:21223   */\n    tag_292:\n        /* \"#utility.yul\":21191:21194   */\n      0x00\n        /* \"#utility.yul\":21212:21217   */\n      dup2\n        /* \"#utility.yul\":21205:21217   */\n      swap1\n      pop\n        /* \"#utility.yul\":21148:21223   */\n      swap2\n      swap1\n      pop\n      jump\t// out\n        /* \"#utility.yul\":21229:21498   */\n    tag_293:\n        /* \"#utility.yul\":21339:21378   */\n      tag_507\n        /* \"#utility.yul\":21370:21377   */\n      dup4\n        /* \"#utility.yul\":21339:21378   */\n      tag_291\n      jump\t// in\n    tag_507:\n        /* \"#utility.yul\":21400:21491   */\n      tag_508\n        /* \"#utility.yul\":21449:21490   */\n      tag_509\n        /* \"#utility.yul\":21473:21489   */\n      dup3\n        /* \"#utility.yul\":21449:21490   */\n      tag_292\n      jump\t// in\n    tag_509:\n        /* \"#utility.yul\":21441:21447   */\n      dup5\n        /* \"#utility.yul\":21434:21438   */\n      dup5\n        /* \"#utility.yul\":21428:21439   */\n      sload\n        /* \"#utility.yul\":21400:21491   */\n      tag_289\n      jump\t// in\n    tag_508:\n        /* \"#utility.yul\":21394:21398   */\n      dup3\n        /* \"#utility.yul\":21387:21492   */\n      sstore\n        /* \"#utility.yul\":21305:21498   */\n      pop\n        /* \"#utility.yul\":21229:21498   */\n      pop\n      pop\n      pop\n      jump\t// out\n        /* \"#utility.yul\":21504:21577   */\n    tag_294:\n        /* \"#utility.yul\":21549:21552   */\n      0x00\n        /* \"#utility.yul\":21570:21571   */\n      0x00\n        /* \"#utility.yul\":21563:21571   */\n      swap1\n      pop\n        /* \"#utility.yul\":21504:21577   */\n      swap1\n      jump\t// out\n        /* \"#utility.yul\":21583:21772   */\n    tag_295:\n        /* \"#utility.yul\":21660:21692   */\n      tag_512\n      tag_294\n      jump\t// in\n    tag_512:\n        /* \"#utility.yul\":21701:21766   */\n      tag_513\n        /* \"#utility.yul\":21759:21765   */\n      dup2\n        /* \"#utility.yul\":21751:21757   */\n      dup5\n        /* \"#utility.yul\":21745:21749   */\n      dup5\n        /* \"#utility.yul\":21701:21766   */\n      tag_293\n      jump\t// in\n    tag_513:\n        /* \"#utility.yul\":21636:21772   */\n      pop\n        /* \"#utility.yul\":21583:21772   */\n      pop\n      pop\n      jump\t// out\n        /* \"#utility.yul\":21778:21964   */\n    tag_296:\n        /* \"#utility.yul\":21838:21958   */\n    tag_515:\n        /* \"#utility.yul\":21855:21858   */\n      dup2\n        /* \"#utility.yul\":21848:21853   */\n      dup2\n        /* \"#utility.yul\":21845:21859   */\n      lt\n        /* \"#utility.yul\":21838:21958   */\n      iszero\n      tag_517\n      jumpi\n        /* \"#utility.yul\":21909:21948   */\n      tag_518\n        /* \"#utility.yul\":21946:21947   */\n      0x00\n        /* \"#utility.yul\":21939:21944   */\n      dup3\n        /* \"#utility.yul\":21909:21948   */\n      tag_295\n      jump\t// in\n    tag_518:\n        /* \"#utility.yul\":21882:21883   */\n      0x01\n        /* \"#utility.yul\":21875:21880   */\n      dup2\n        /* \"#utility.yul\":21871:21884   */\n      add\n        /* \"#utility.yul\":21862:21884   */\n      swap1\n      pop\n        /* \"#utility.yul\":21838:21958   */\n      jump(tag_515)\n    tag_517:\n        /* \"#utility.yul\":21778:21964   */\n      pop\n      pop\n      jump\t// out\n        /* \"#utility.yul\":21970:22513   */\n    tag_297:\n        /* \"#utility.yul\":22071:22073   */\n      0x1f\n        /* \"#utility.yul\":22066:22069   */\n      dup3\n        /* \"#utility.yul\":22063:22074   */\n      gt\n        /* \"#utility.yul\":22060:22506   */\n      iszero\n      tag_520\n      jumpi\n        /* \"#utility.yul\":22105:22143   */\n      tag_521\n        /* \"#utility.yul\":22137:22142   */\n      dup2\n        /* \"#utility.yul\":22105:22143   */\n      tag_286\n      jump\t// in\n    tag_521:\n        /* \"#utility.yul\":22189:22218   */\n      tag_522\n        /* \"#utility.yul\":22207:22217   */\n      dup5\n        /* \"#utility.yul\":22189:22218   */\n      tag_287\n      jump\t// in\n    tag_522:\n        /* \"#utility.yul\":22179:22187   */\n      dup2\n        /* \"#utility.yul\":22175:22219   */\n      add\n        /* \"#utility.yul\":22372:22374   */\n      0x20\n        /* \"#utility.yul\":22360:22370   */\n      dup6\n        /* \"#utility.yul\":22357:22375   */\n      lt\n        /* \"#utility.yul\":22354:22403   */\n      iszero\n      tag_523\n      jumpi\n        /* \"#utility.yul\":22393:22401   */\n      dup2\n        /* \"#utility.yul\":22378:22401   */\n      swap1\n      pop\n        /* \"#utility.yul\":22354:22403   */\n    tag_523:\n        /* \"#utility.yul\":22416:22496   */\n      tag_524\n        /* \"#utility.yul\":22472:22494   */\n      tag_525\n        /* \"#utility.yul\":22490:22493   */\n      dup6\n        /* \"#utility.yul\":22472:22494   */\n      tag_287\n      jump\t// in\n    tag_525:\n        /* \"#utility.yul\":22462:22470   */\n      dup4\n        /* \"#utility.yul\":22458:22495   */\n      add\n        /* \"#utility.yul\":22445:22456   */\n      dup3\n        /* \"#utility.yul\":22416:22496   */\n      tag_296\n      jump\t// in\n    tag_524:\n        /* \"#utility.yul\":22075:22506   */\n      pop\n      pop\n        /* \"#utility.yul\":22060:22506   */\n    tag_520:\n        /* \"#utility.yul\":21970:22513   */\n      pop\n      pop\n      pop\n      jump\t// out\n        /* \"#utility.yul\":22519:22636   */\n    tag_298:\n        /* \"#utility.yul\":22573:22581   */\n      0x00\n        /* \"#utility.yul\":22623:22628   */\n      dup3\n        /* \"#utility.yul\":22617:22621   */\n      dup3\n        /* \"#utility.yul\":22613:22629   */\n      shr\n        /* \"#utility.yul\":22592:22629   */\n      swap1\n      pop\n        /* \"#utility.yul\":22519:22636   */\n      swap3\n      swap2\n      pop\n      pop\n      jump\t// out\n        /* \"#utility.yul\":22642:22811   */\n    tag_299:\n        /* \"#utility.yul\":22686:22692   */\n      0x00\n        /* \"#utility.yul\":22719:22770   */\n      tag_528\n        /* \"#utility.yul\":22767:22768   */\n      0x00\n        /* \"#utility.yul\":22763:22769   */\n      not\n        /* \"#utility.yul\":22755:22760   */\n      dup5\n        /* \"#utility.yul\":22752:22753   */\n      0x08\n        /* \"#utility.yul\":22748:22761   */\n      mul\n        /* \"#utility.yul\":22719:22770   */\n      tag_298\n      jump\t// in\n    tag_528:\n        /* \"#utility.yul\":22715:22771   */\n      not\n        /* \"#utility.yul\":22800:22804   */\n      dup1\n        /* \"#utility.yul\":22794:22798   */\n      dup4\n        /* \"#utility.yul\":22790:22805   */\n      and\n        /* \"#utility.yul\":22780:22805   */\n      swap2\n      pop\n        /* \"#utility.yul\":22693:22811   */\n      pop\n        /* \"#utility.yul\":22642:22811   */\n      swap3\n      swap2\n      pop\n      pop\n      jump\t// out\n        /* \"#utility.yul\":22816:23111   */\n    tag_300:\n        /* \"#utility.yul\":22892:22896   */\n      0x00\n        /* \"#utility.yul\":23038:23067   */\n      tag_530\n        /* \"#utility.yul\":23063:23066   */\n      dup4\n        /* \"#utility.yul\":23057:23061   */\n      dup4\n        /* \"#utility.yul\":23038:23067   */\n      tag_299\n      jump\t// in\n    tag_530:\n        /* \"#utility.yul\":23030:23067   */\n      swap2\n      pop\n        /* \"#utility.yul\":23100:23103   */\n      dup3\n        /* \"#utility.yul\":23097:23098   */\n      0x02\n        /* \"#utility.yul\":23093:23104   */\n      mul\n        /* \"#utility.yul\":23087:23091   */\n      dup3\n        /* \"#utility.yul\":23084:23105   */\n      or\n        /* \"#utility.yul\":23076:23105   */\n      swap1\n      pop\n        /* \"#utility.yul\":22816:23111   */\n      swap3\n      swap2\n      pop\n      pop\n      jump\t// out\n        /* \"#utility.yul\":23116:24511   */\n    tag_168:\n        /* \"#utility.yul\":23233:23270   */\n      tag_532\n        /* \"#utility.yul\":23266:23269   */\n      dup3\n        /* \"#utility.yul\":23233:23270   */\n      tag_242\n      jump\t// in\n    tag_532:\n        /* \"#utility.yul\":23335:23353   */\n      0xffffffffffffffff\n        /* \"#utility.yul\":23327:23333   */\n      dup2\n        /* \"#utility.yul\":23324:23354   */\n      gt\n        /* \"#utility.yul\":23321:23377   */\n      iszero\n      tag_533\n      jumpi\n        /* \"#utility.yul\":23357:23375   */\n      tag_534\n      tag_125\n      jump\t// in\n    tag_534:\n        /* \"#utility.yul\":23321:23377   */\n    tag_533:\n        /* \"#utility.yul\":23401:23439   */\n      tag_535\n        /* \"#utility.yul\":23433:23437   */\n      dup3\n        /* \"#utility.yul\":23427:23438   */\n      sload\n        /* \"#utility.yul\":23401:23439   */\n      tag_91\n      jump\t// in\n    tag_535:\n        /* \"#utility.yul\":23486:23553   */\n      tag_536\n        /* \"#utility.yul\":23546:23552   */\n      dup3\n        /* \"#utility.yul\":23538:23544   */\n      dup3\n        /* \"#utility.yul\":23532:23536   */\n      dup6\n        /* \"#utility.yul\":23486:23553   */\n      tag_297\n      jump\t// in\n    tag_536:\n        /* \"#utility.yul\":23580:23581   */\n      0x00\n        /* \"#utility.yul\":23604:23608   */\n      0x20\n        /* \"#utility.yul\":23591:23608   */\n      swap1\n      pop\n        /* \"#utility.yul\":23636:23638   */\n      0x1f\n        /* \"#utility.yul\":23628:23634   */\n      dup4\n        /* \"#utility.yul\":23625:23639   */\n      gt\n        /* \"#utility.yul\":23653:23654   */\n      0x01\n        /* \"#utility.yul\":23648:24266   */\n      dup2\n      eq\n      tag_538\n      jumpi\n        /* \"#utility.yul\":24310:24311   */\n      0x00\n        /* \"#utility.yul\":24327:24333   */\n      dup5\n        /* \"#utility.yul\":24324:24401   */\n      iszero\n      tag_539\n      jumpi\n        /* \"#utility.yul\":24376:24385   */\n      dup3\n        /* \"#utility.yul\":24371:24374   */\n      dup8\n        /* \"#utility.yul\":24367:24386   */\n      add\n        /* \"#utility.yul\":24361:24387   */\n      mload\n        /* \"#utility.yul\":24352:24387   */\n      swap1\n      pop\n        /* \"#utility.yul\":24324:24401   */\n    tag_539:\n        /* \"#utility.yul\":24427:24494   */\n      tag_540\n        /* \"#utility.yul\":24487:24493   */\n      dup6\n        /* \"#utility.yul\":24480:24485   */\n      dup3\n        /* \"#utility.yul\":24427:24494   */\n      tag_300\n      jump\t// in\n    tag_540:\n        /* \"#utility.yul\":24421:24425   */\n      dup7\n        /* \"#utility.yul\":24414:24495   */\n      sstore\n        /* \"#utility.yul\":24283:24505   */\n      pop\n        /* \"#utility.yul\":23618:24505   */\n      jump(tag_537)\n        /* \"#utility.yul\":23648:24266   */\n    tag_538:\n        /* \"#utility.yul\":23700:23704   */\n      0x1f\n        /* \"#utility.yul\":23696:23705   */\n      not\n        /* \"#utility.yul\":23688:23694   */\n      dup5\n        /* \"#utility.yul\":23684:23706   */\n      and\n        /* \"#utility.yul\":23734:23771   */\n      tag_541\n        /* \"#utility.yul\":23766:23770   */\n      dup7\n        /* \"#utility.yul\":23734:23771   */\n      tag_286\n      jump\t// in\n    tag_541:\n        /* \"#utility.yul\":23793:23794   */\n      0x00\n        /* \"#utility.yul\":23807:24015   */\n    tag_542:\n        /* \"#utility.yul\":23821:23828   */\n      dup3\n        /* \"#utility.yul\":23818:23819   */\n      dup2\n        /* \"#utility.yul\":23815:23829   */\n      lt\n        /* \"#utility.yul\":23807:24015   */\n      iszero\n      tag_544\n      jumpi\n        /* \"#utility.yul\":23900:23909   */\n      dup5\n        /* \"#utility.yul\":23895:23898   */\n      dup10\n        /* \"#utility.yul\":23891:23910   */\n      add\n        /* \"#utility.yul\":23885:23911   */\n      mload\n        /* \"#utility.yul\":23877:23883   */\n      dup3\n        /* \"#utility.yul\":23870:23912   */\n      sstore\n        /* \"#utility.yul\":23951:23952   */\n      0x01\n        /* \"#utility.yul\":23943:23949   */\n      dup3\n        /* \"#utility.yul\":23939:23953   */\n      add\n        /* \"#utility.yul\":23929:23953   */\n      swap2\n      pop\n        /* \"#utility.yul\":23998:24000   */\n      0x20\n        /* \"#utility.yul\":23987:23996   */\n      dup6\n        /* \"#utility.yul\":23983:24001   */\n      add\n        /* \"#utility.yul\":23970:24001   */\n      swap5\n      pop\n        /* \"#utility.yul\":23844:23848   */\n      0x20\n        /* \"#utility.yul\":23841:23842   */\n      dup2\n        /* \"#utility.yul\":23837:23849   */\n      add\n        /* \"#utility.yul\":23832:23849   */\n      swap1\n      pop\n        /* \"#utility.yul\":23807:24015   */\n      jump(tag_542)\n    tag_544:\n        /* \"#utility.yul\":24043:24049   */\n      dup7\n        /* \"#utility.yul\":24034:24041   */\n      dup4\n        /* \"#utility.yul\":24031:24050   */\n      lt\n        /* \"#utility.yul\":24028:24207   */\n      iszero\n      tag_545\n      jumpi\n        /* \"#utility.yul\":24101:24110   */\n      dup5\n        /* \"#utility.yul\":24096:24099   */\n      dup10\n        /* \"#utility.yul\":24092:24111   */\n      add\n        /* \"#utility.yul\":24086:24112   */\n      mload\n        /* \"#utility.yul\":24144:24192   */\n      tag_546\n        /* \"#utility.yul\":24186:24190   */\n      0x1f\n        /* \"#utility.yul\":24178:24184   */\n      dup10\n        /* \"#utility.yul\":24174:24191   */\n      and\n        /* \"#utility.yul\":24163:24172   */\n      dup3\n        /* \"#utility.yul\":24144:24192   */\n      tag_299\n      jump\t// in\n    tag_546:\n        /* \"#utility.yul\":24136:24142   */\n      dup4\n        /* \"#utility.yul\":24129:24193   */\n      sstore\n        /* \"#utility.yul\":24051:24207   */\n      pop\n        /* \"#utility.yul\":24028:24207   */\n    tag_545:\n        /* \"#utility.yul\":24253:24254   */\n      0x01\n        /* \"#utility.yul\":24249:24250   */\n      0x02\n        /* \"#utility.yul\":24241:24247   */\n      dup9\n        /* \"#utility.yul\":24237:24251   */\n      mul\n        /* \"#utility.yul\":24233:24255   */\n      add\n        /* \"#utility.yul\":24227:24231   */\n      dup9\n        /* \"#utility.yul\":24220:24256   */\n      sstore\n        /* \"#utility.yul\":23655:24266   */\n      pop\n      pop\n      pop\n        /* \"#utility.yul\":23618:24505   */\n    tag_537:\n      pop\n        /* \"#utility.yul\":23208:24511   */\n      pop\n      pop\n      pop\n        /* \"#utility.yul\":23116:24511   */\n      pop\n      pop\n      jump\t// out\n        /* \"#utility.yul\":24517:24697   */\n    tag_301:\n        /* \"#utility.yul\":24565:24642   */\n      0x4e487b7100000000000000000000000000000000000000000000000000000000\n        /* \"#utility.yul\":24562:24563   */\n      0x00\n        /* \"#utility.yul\":24555:24643   */\n      mstore\n        /* \"#utility.yul\":24662:24666   */\n      0x11\n        /* \"#utility.yul\":24659:24660   */\n      0x04\n        /* \"#utility.yul\":24652:24667   */\n      mstore\n        /* \"#utility.yul\":24686:24690   */\n      0x24\n        /* \"#utility.yul\":24683:24684   */\n      0x00\n        /* \"#utility.yul\":24676:24691   */\n      revert\n        /* \"#utility.yul\":24703:24894   */\n    tag_171:\n        /* \"#utility.yul\":24743:24746   */\n      0x00\n        /* \"#utility.yul\":24762:24782   */\n      tag_549\n        /* \"#utility.yul\":24780:24781   */\n      dup3\n        /* \"#utility.yul\":24762:24782   */\n      tag_250\n      jump\t// in\n    tag_549:\n        /* \"#utility.yul\":24757:24782   */\n      swap2\n      pop\n        /* \"#utility.yul\":24796:24816   */\n      tag_550\n        /* \"#utility.yul\":24814:24815   */\n      dup4\n        /* \"#utility.yul\":24796:24816   */\n      tag_250\n      jump\t// in\n    tag_550:\n        /* \"#utility.yul\":24791:24816   */\n      swap3\n      pop\n        /* \"#utility.yul\":24839:24840   */\n      dup3\n        /* \"#utility.yul\":24836:24837   */\n      dup3\n        /* \"#utility.yul\":24832:24841   */\n      add\n        /* \"#utility.yul\":24825:24841   */\n      swap1\n      pop\n        /* \"#utility.yul\":24860:24863   */\n      dup1\n        /* \"#utility.yul\":24857:24858   */\n      dup3\n        /* \"#utility.yul\":24854:24864   */\n      gt\n        /* \"#utility.yul\":24851:24887   */\n      iszero\n      tag_551\n      jumpi\n        /* \"#utility.yul\":24867:24885   */\n      tag_552\n      tag_301\n      jump\t// in\n    tag_552:\n        /* \"#utility.yul\":24851:24887   */\n    tag_551:\n        /* \"#utility.yul\":24703:24894   */\n      swap3\n      swap2\n      pop\n      pop\n      jump\t// out\n        /* \"#utility.yul\":24900:25310   */\n    tag_182:\n        /* \"#utility.yul\":24940:24947   */\n      0x00\n        /* \"#utility.yul\":24963:24983   */\n      tag_554\n        /* \"#utility.yul\":24981:24982   */\n      dup3\n        /* \"#utility.yul\":24963:24983   */\n      tag_250\n      jump\t// in\n    tag_554:\n        /* \"#utility.yul\":24958:24983   */\n      swap2\n      pop\n        /* \"#utility.yul\":24997:25017   */\n      tag_555\n        /* \"#utility.yul\":25015:25016   */\n      dup4\n        /* \"#utility.yul\":24997:25017   */\n      tag_250\n      jump\t// in\n    tag_555:\n        /* \"#utility.yul\":24992:25017   */\n      swap3\n      pop\n        /* \"#utility.yul\":25052:25053   */\n      dup3\n        /* \"#utility.yul\":25049:25050   */\n      dup3\n        /* \"#utility.yul\":25045:25054   */\n      mul\n        /* \"#utility.yul\":25074:25104   */\n      tag_556\n        /* \"#utility.yul\":25092:25103   */\n      dup2\n        /* \"#utility.yul\":25074:25104   */\n      tag_250\n      jump\t// in\n    tag_556:\n        /* \"#utility.yul\":25063:25104   */\n      swap2\n      pop\n        /* \"#utility.yul\":25253:25254   */\n      dup3\n        /* \"#utility.yul\":25244:25251   */\n      dup3\n        /* \"#utility.yul\":25240:25255   */\n      div\n        /* \"#utility.yul\":25237:25238   */\n      dup5\n        /* \"#utility.yul\":25234:25256   */\n      eq\n        /* \"#utility.yul\":25214:25215   */\n      dup4\n        /* \"#utility.yul\":25207:25216   */\n      iszero\n        /* \"#utility.yul\":25187:25270   */\n      or\n        /* \"#utility.yul\":25164:25303   */\n      tag_557\n      jumpi\n        /* \"#utility.yul\":25283:25301   */\n      tag_558\n      tag_301\n      jump\t// in\n    tag_558:\n        /* \"#utility.yul\":25164:25303   */\n    tag_557:\n        /* \"#utility.yul\":24948:25310   */\n      pop\n        /* \"#utility.yul\":24900:25310   */\n      swap3\n      swap2\n      pop\n      pop\n      jump\t// out\n        /* \"#utility.yul\":25316:25464   */\n    tag_302:\n        /* \"#utility.yul\":25418:25429   */\n      0x00\n        /* \"#utility.yul\":25455:25458   */\n      dup2\n        /* \"#utility.yul\":25440:25458   */\n      swap1\n      pop\n        /* \"#utility.yul\":25316:25464   */\n      swap3\n      swap2\n      pop\n      pop\n      jump\t// out\n        /* \"#utility.yul\":25470:25860   */\n    tag_303:\n        /* \"#utility.yul\":25576:25579   */\n      0x00\n        /* \"#utility.yul\":25604:25643   */\n      tag_561\n        /* \"#utility.yul\":25637:25642   */\n      dup3\n        /* \"#utility.yul\":25604:25643   */\n      tag_242\n      jump\t// in\n    tag_561:\n        /* \"#utility.yul\":25659:25748   */\n      tag_562\n        /* \"#utility.yul\":25741:25747   */\n      dup2\n        /* \"#utility.yul\":25736:25739   */\n      dup6\n        /* \"#utility.yul\":25659:25748   */\n      tag_302\n      jump\t// in\n    tag_562:\n        /* \"#utility.yul\":25652:25748   */\n      swap4\n      pop\n        /* \"#utility.yul\":25757:25822   */\n      tag_563\n        /* \"#utility.yul\":25815:25821   */\n      dup2\n        /* \"#utility.yul\":25810:25813   */\n      dup6\n        /* \"#utility.yul\":25803:25807   */\n      0x20\n        /* \"#utility.yul\":25796:25801   */\n      dup7\n        /* \"#utility.yul\":25792:25808   */\n      add\n        /* \"#utility.yul\":25757:25822   */\n      tag_244\n      jump\t// in\n    tag_563:\n        /* \"#utility.yul\":25847:25853   */\n      dup1\n        /* \"#utility.yul\":25842:25845   */\n      dup5\n        /* \"#utility.yul\":25838:25854   */\n      add\n        /* \"#utility.yul\":25831:25854   */\n      swap2\n      pop\n        /* \"#utility.yul\":25580:25860   */\n      pop\n        /* \"#utility.yul\":25470:25860   */\n      swap3\n      swap2\n      pop\n      pop\n      jump\t// out\n        /* \"#utility.yul\":25866:26141   */\n    tag_188:\n        /* \"#utility.yul\":25998:26001   */\n      0x00\n        /* \"#utility.yul\":26020:26115   */\n      tag_565\n        /* \"#utility.yul\":26111:26114   */\n      dup3\n        /* \"#utility.yul\":26102:26108   */\n      dup5\n        /* \"#utility.yul\":26020:26115   */\n      tag_303\n      jump\t// in\n    tag_565:\n        /* \"#utility.yul\":26013:26115   */\n      swap2\n      pop\n        /* \"#utility.yul\":26132:26135   */\n      dup2\n        /* \"#utility.yul\":26125:26135   */\n      swap1\n      pop\n        /* \"#utility.yul\":25866:26141   */\n      swap3\n      swap2\n      pop\n      pop\n      jump\t// out\n        /* \"#utility.yul\":26171:27045   */\n    tag_304:\n        /* \"#utility.yul\":26274:26277   */\n      0x00\n        /* \"#utility.yul\":26311:26316   */\n      dup2\n        /* \"#utility.yul\":26305:26317   */\n      sload\n        /* \"#utility.yul\":26340:26376   */\n      tag_567\n        /* \"#utility.yul\":26366:26375   */\n      dup2\n        /* \"#utility.yul\":26340:26376   */\n      tag_91\n      jump\t// in\n    tag_567:\n        /* \"#utility.yul\":26392:26481   */\n      tag_568\n        /* \"#utility.yul\":26474:26480   */\n      dup2\n        /* \"#utility.yul\":26469:26472   */\n      dup7\n        /* \"#utility.yul\":26392:26481   */\n      tag_302\n      jump\t// in\n    tag_568:\n        /* \"#utility.yul\":26385:26481   */\n      swap5\n      pop\n        /* \"#utility.yul\":26512:26513   */\n      0x01\n        /* \"#utility.yul\":26501:26510   */\n      dup3\n        /* \"#utility.yul\":26497:26514   */\n      and\n        /* \"#utility.yul\":26528:26529   */\n      0x00\n        /* \"#utility.yul\":26523:26689   */\n      dup2\n      eq\n      tag_570\n      jumpi\n        /* \"#utility.yul\":26703:26704   */\n      0x01\n        /* \"#utility.yul\":26698:27039   */\n      dup2\n      eq\n      tag_571\n      jumpi\n        /* \"#utility.yul\":26490:27039   */\n      jump(tag_569)\n        /* \"#utility.yul\":26523:26689   */\n    tag_570:\n        /* \"#utility.yul\":26607:26611   */\n      0xff\n        /* \"#utility.yul\":26603:26612   */\n      not\n        /* \"#utility.yul\":26592:26601   */\n      dup4\n        /* \"#utility.yul\":26588:26613   */\n      and\n        /* \"#utility.yul\":26583:26586   */\n      dup7\n        /* \"#utility.yul\":26576:26614   */\n      mstore\n        /* \"#utility.yul\":26669:26675   */\n      dup2\n        /* \"#utility.yul\":26662:26676   */\n      iszero\n        /* \"#utility.yul\":26655:26677   */\n      iszero\n        /* \"#utility.yul\":26647:26653   */\n      dup3\n        /* \"#utility.yul\":26643:26678   */\n      mul\n        /* \"#utility.yul\":26638:26641   */\n      dup7\n        /* \"#utility.yul\":26634:26679   */\n      add\n        /* \"#utility.yul\":26627:26679   */\n      swap4\n      pop\n        /* \"#utility.yul\":26523:26689   */\n      jump(tag_569)\n        /* \"#utility.yul\":26698:27039   */\n    tag_571:\n        /* \"#utility.yul\":26765:26803   */\n      tag_572\n        /* \"#utility.yul\":26797:26802   */\n      dup6\n        /* \"#utility.yul\":26765:26803   */\n      tag_286\n      jump\t// in\n    tag_572:\n        /* \"#utility.yul\":26825:26826   */\n      0x00\n        /* \"#utility.yul\":26839:26993   */\n    tag_573:\n        /* \"#utility.yul\":26853:26859   */\n      dup4\n        /* \"#utility.yul\":26850:26851   */\n      dup2\n        /* \"#utility.yul\":26847:26860   */\n      lt\n        /* \"#utility.yul\":26839:26993   */\n      iszero\n      tag_575\n      jumpi\n        /* \"#utility.yul\":26927:26934   */\n      dup2\n        /* \"#utility.yul\":26921:26935   */\n      sload\n        /* \"#utility.yul\":26917:26918   */\n      dup2\n        /* \"#utility.yul\":26912:26915   */\n      dup10\n        /* \"#utility.yul\":26908:26919   */\n      add\n        /* \"#utility.yul\":26901:26936   */\n      mstore\n        /* \"#utility.yul\":26977:26978   */\n      0x01\n        /* \"#utility.yul\":26968:26975   */\n      dup3\n        /* \"#utility.yul\":26964:26979   */\n      add\n        /* \"#utility.yul\":26953:26979   */\n      swap2\n      pop\n        /* \"#utility.yul\":26875:26879   */\n      0x20\n        /* \"#utility.yul\":26872:26873   */\n      dup2\n        /* \"#utility.yul\":26868:26880   */\n      add\n        /* \"#utility.yul\":26863:26880   */\n      swap1\n      pop\n        /* \"#utility.yul\":26839:26993   */\n      jump(tag_573)\n    tag_575:\n        /* \"#utility.yul\":27022:27028   */\n      dup4\n        /* \"#utility.yul\":27017:27020   */\n      dup9\n        /* \"#utility.yul\":27013:27029   */\n      add\n        /* \"#utility.yul\":27006:27029   */\n      swap6\n      pop\n        /* \"#utility.yul\":26705:27039   */\n      pop\n      pop\n        /* \"#utility.yul\":26490:27039   */\n    tag_569:\n      pop\n        /* \"#utility.yul\":26278:27045   */\n      pop\n      pop\n        /* \"#utility.yul\":26171:27045   */\n      swap3\n      swap2\n      pop\n      pop\n      jump\t// out\n        /* \"#utility.yul\":27051:27320   */\n    tag_190:\n        /* \"#utility.yul\":27180:27183   */\n      0x00\n        /* \"#utility.yul\":27202:27294   */\n      tag_577\n        /* \"#utility.yul\":27290:27293   */\n      dup3\n        /* \"#utility.yul\":27281:27287   */\n      dup5\n        /* \"#utility.yul\":27202:27294   */\n      tag_304\n      jump\t// in\n    tag_577:\n        /* \"#utility.yul\":27195:27294   */\n      swap2\n      pop\n        /* \"#utility.yul\":27311:27314   */\n      dup2\n        /* \"#utility.yul\":27304:27314   */\n      swap1\n      pop\n        /* \"#utility.yul\":27051:27320   */\n      swap3\n      swap2\n      pop\n      pop\n      jump\t// out\n        /* \"#utility.yul\":27326:27497   */\n    tag_305:\n        /* \"#utility.yul\":27466:27489   */\n      0x4172726179206c656e677468206d69736d617463680000000000000000000000\n        /* \"#utility.yul\":27462:27463   */\n      0x00\n        /* \"#utility.yul\":27454:27460   */\n      dup3\n        /* \"#utility.yul\":27450:27464   */\n      add\n        /* \"#utility.yul\":27443:27490   */\n      mstore\n        /* \"#utility.yul\":27326:27497   */\n      pop\n      jump\t// out\n        /* \"#utility.yul\":27503:27869   */\n    tag_306:\n        /* \"#utility.yul\":27645:27648   */\n      0x00\n        /* \"#utility.yul\":27666:27733   */\n      tag_580\n        /* \"#utility.yul\":27730:27732   */\n      0x15\n        /* \"#utility.yul\":27725:27728   */\n      dup4\n        /* \"#utility.yul\":27666:27733   */\n      tag_243\n      jump\t// in\n    tag_580:\n        /* \"#utility.yul\":27659:27733   */\n      swap2\n      pop\n        /* \"#utility.yul\":27742:27835   */\n      tag_581\n        /* \"#utility.yul\":27831:27834   */\n      dup3\n        /* \"#utility.yul\":27742:27835   */\n      tag_305\n      jump\t// in\n    tag_581:\n        /* \"#utility.yul\":27860:27862   */\n      0x20\n        /* \"#utility.yul\":27855:27858   */\n      dup3\n        /* \"#utility.yul\":27851:27863   */\n      add\n        /* \"#utility.yul\":27844:27863   */\n      swap1\n      pop\n        /* \"#utility.yul\":27503:27869   */\n      swap2\n      swap1\n      pop\n      jump\t// out\n        /* \"#utility.yul\":27875:28294   */\n    tag_198:\n        /* \"#utility.yul\":28041:28045   */\n      0x00\n        /* \"#utility.yul\":28079:28081   */\n      0x20\n        /* \"#utility.yul\":28068:28077   */\n      dup3\n        /* \"#utility.yul\":28064:28082   */\n      add\n        /* \"#utility.yul\":28056:28082   */\n      swap1\n      pop\n        /* \"#utility.yul\":28128:28137   */\n      dup2\n        /* \"#utility.yul\":28122:28126   */\n      dup2\n        /* \"#utility.yul\":28118:28138   */\n      sub\n        /* \"#utility.yul\":28114:28115   */\n      0x00\n        /* \"#utility.yul\":28103:28112   */\n      dup4\n        /* \"#utility.yul\":28099:28116   */\n      add\n        /* \"#utility.yul\":28092:28139   */\n      mstore\n        /* \"#utility.yul\":28156:28287   */\n      tag_583\n        /* \"#utility.yul\":28282:28286   */\n      dup2\n        /* \"#utility.yul\":28156:28287   */\n      tag_306\n      jump\t// in\n    tag_583:\n        /* \"#utility.yul\":28148:28287   */\n      swap1\n      pop\n        /* \"#utility.yul\":27875:28294   */\n      swap2\n      swap1\n      pop\n      jump\t// out\n        /* \"#utility.yul\":28300:28494   */\n    tag_210:\n        /* \"#utility.yul\":28340:28344   */\n      0x00\n        /* \"#utility.yul\":28360:28380   */\n      tag_585\n        /* \"#utility.yul\":28378:28379   */\n      dup3\n        /* \"#utility.yul\":28360:28380   */\n      tag_250\n      jump\t// in\n    tag_585:\n        /* \"#utility.yul\":28355:28380   */\n      swap2\n      pop\n        /* \"#utility.yul\":28394:28414   */\n      tag_586\n        /* \"#utility.yul\":28412:28413   */\n      dup4\n        /* \"#utility.yul\":28394:28414   */\n      tag_250\n      jump\t// in\n    tag_586:\n        /* \"#utility.yul\":28389:28414   */\n      swap3\n      pop\n        /* \"#utility.yul\":28438:28439   */\n      dup3\n        /* \"#utility.yul\":28435:28436   */\n      dup3\n        /* \"#utility.yul\":28431:28440   */\n      sub\n        /* \"#utility.yul\":28423:28440   */\n      swap1\n      pop\n        /* \"#utility.yul\":28462:28463   */\n      dup2\n        /* \"#utility.yul\":28456:28460   */\n      dup2\n        /* \"#utility.yul\":28453:28464   */\n      gt\n        /* \"#utility.yul\":28450:28487   */\n      iszero\n      tag_587\n      jumpi\n        /* \"#utility.yul\":28467:28485   */\n      tag_588\n      tag_301\n      jump\t// in\n    tag_588:\n        /* \"#utility.yul\":28450:28487   */\n    tag_587:\n        /* \"#utility.yul\":28300:28494   */\n      swap3\n      swap2\n      pop\n      pop\n      jump\t// out\n\n    auxdata: 0xa264697066735822122004dfed53c6852494fb5ae519318129ccded5e12bca5143b0395820fc6cfb029b64736f6c634300081e0033\n}\n",
				"bytecode": {
					"linkReferences": {},
					"object": "608060405234801561000f575f5ffd5b50604051612633380380612633833981810160405281019061003191906102dd565b335f73ffffffffffffffffffffffffffffffffffffffff168173ffffffffffffffffffffffffffffffffffffffff16036100a2575f6040517f1e4fbdf70000000000000000000000000000000000000000000000000000000081526004016100999190610363565b60405180910390fd5b6100b1816100cf60201b60201c565b506001808190555080600290816100c8919061058c565b505061065b565b5f5f5f9054906101000a900473ffffffffffffffffffffffffffffffffffffffff169050815f5f6101000a81548173ffffffffffffffffffffffffffffffffffffffff021916908373ffffffffffffffffffffffffffffffffffffffff1602179055508173ffffffffffffffffffffffffffffffffffffffff168173ffffffffffffffffffffffffffffffffffffffff167f8be0079c531659141344cd1fd0a4f28419497f9722a3daafe3b4186f6b6457e060405160405180910390a35050565b5f604051905090565b5f5ffd5b5f5ffd5b5f5ffd5b5f5ffd5b5f601f19601f8301169050919050565b7f4e487b71000000000000000000000000000000000000000000000000000000005f52604160045260245ffd5b6101ef826101a9565b810181811067ffffffffffffffff8211171561020e5761020d6101b9565b5b80604052505050565b5f610220610190565b905061022c82826101e6565b919050565b5f67ffffffffffffffff82111561024b5761024a6101b9565b5b610254826101a9565b9050602081019050919050565b8281835e5f83830152505050565b5f61028161027c84610231565b610217565b90508281526020810184848401111561029d5761029c6101a5565b5b6102a8848285610261565b509392505050565b5f82601f8301126102c4576102c36101a1565b5b81516102d484826020860161026f565b91505092915050565b5f602082840312156102f2576102f1610199565b5b5f82015167ffffffffffffffff81111561030f5761030e61019d565b5b61031b848285016102b0565b91505092915050565b5f73ffffffffffffffffffffffffffffffffffffffff82169050919050565b5f61034d82610324565b9050919050565b61035d81610343565b82525050565b5f6020820190506103765f830184610354565b92915050565b5f81519050919050565b7f4e487b71000000000000000000000000000000000000000000000000000000005f52602260045260245ffd5b5f60028204905060018216806103ca57607f821691505b6020821081036103dd576103dc610386565b5b50919050565b5f819050815f5260205f209050919050565b5f6020601f8301049050919050565b5f82821b905092915050565b5f6008830261043f7fffffffffffffffffffffffffffffffffffffffffffffffffffffffffffffffff82610404565b6104498683610404565b95508019841693508086168417925050509392505050565b5f819050919050565b5f819050919050565b5f61048d61048861048384610461565b61046a565b610461565b9050919050565b5f819050919050565b6104a683610473565b6104ba6104b282610494565b848454610410565b825550505050565b5f5f905090565b6104d16104c2565b6104dc81848461049d565b505050565b5b818110156104ff576104f45f826104c9565b6001810190506104e2565b5050565b601f82111561054457610515816103e3565b61051e846103f5565b8101602085101561052d578190505b610541610539856103f5565b8301826104e1565b50505b505050565b5f82821c905092915050565b5f6105645f1984600802610549565b1980831691505092915050565b5f61057c8383610555565b9150826002028217905092915050565b6105958261037c565b67ffffffffffffffff8111156105ae576105ad6101b9565b5b6105b882546103b3565b6105c3828285610503565b5f60209050601f8311600181146105f4575f84156105e2578287015190505b6105ec8582610571565b865550610653565b601f198416610602866103e3565b5f5b8281101561062957848901518255600182019150602085019450602081019050610604565b868310156106465784890151610642601f891682610555565b8355505b6001600288020188555050505b505050505050565b611fcb806106685f395ff3fe608060405234801561000f575f5ffd5b50600436106100fe575f3560e01c80638da5cb5b11610095578063db84d99511610064578063db84d995146102db578063e21c8b591461030b578063f2fde38b14610327578063f600d9f414610343576100fe565b80638da5cb5b14610229578063c1e0372814610247578063d10424c71461027b578063d20874d8146102ab576100fe565b806348fd09f5116100d157806348fd09f5146101a157806371185897146101d1578063715018a6146101ef57806380d69c8a146101f9576100fe565b806303b5a3d3146101025780630e89341c1461012057806333f6832a1461015057806336a3409c14610185575b5f5ffd5b61010a61035f565b60405161011791906111a8565b60405180910390f35b61013a6004803603810190610135919061120c565b6103eb565b60405161014791906111a8565b60405180910390f35b61016a6004803603810190610165919061120c565b61053c565b60405161017c96959493929190611285565b60405180910390f35b61019f600480360381019061019a919061131c565b61069f565b005b6101bb60048036038101906101b6919061149a565b610871565b6040516101c891906114fb565b60405180910390f35b6101d96108ea565b6040516101e69190611514565b60405180910390f35b6101f76108f0565b005b610213600480360381019061020e91906115dd565b610903565b6040516102209190611514565b60405180910390f35b610231610ae1565b60405161023e919061169e565b60405180910390f35b610261600480360381019061025c919061120c565b610b08565b6040516102729594939291906116b7565b60405180910390f35b6102956004803603810190610290919061120c565b610c31565b6040516102a29190611514565b60405180910390f35b6102c560048036038101906102c0919061120c565b610c4e565b6040516102d29190611514565b60405180910390f35b6102f560048036038101906102f0919061170f565b610c8a565b6040516103029190611514565b60405180910390f35b61032560048036038101906103209190611769565b610d41565b005b610341600480360381019061033c91906117df565b610e53565b005b61035d60048036038101906103589190611769565b610ed7565b005b6002805461036c90611837565b80601f016020809104026020016040519081016040528092919081815260200182805461039890611837565b80156103e35780601f106103ba576101008083540402835291602001916103e3565b820191905f5260205f20905b8154815290600101906020018083116103c657829003601f168201915b505050505081565b606060035f8381526020019081526020015f2060030154421115610499576002805461041690611837565b80601f016020809104026020016040519081016040528092919081815260200182805461044290611837565b801561048d5780601f106104645761010080835404028352916020019161048d565b820191905f5260205f20905b81548152906001019060200180831161047057829003601f168201915b50505050509050610537565b60035f8381526020019081526020015f2060050180546104b890611837565b80601f01602080910402602001604051908101604052809291908181526020018280546104e490611837565b801561052f5780601f106105065761010080835404028352916020019161052f565b820191905f5260205f20905b81548152906001019060200180831161051257829003601f168201915b505050505090505b919050565b6003602052805f5260405f205f91509050805f01805461055b90611837565b80601f016020809104026020016040519081016040528092919081815260200182805461058790611837565b80156105d25780601f106105a9576101008083540402835291602001916105d2565b820191905f5260205f20905b8154815290600101906020018083116105b557829003601f168201915b505050505090806001015490806002015490806003015490806004015f9054906101000a900473ffffffffffffffffffffffffffffffffffffffff169080600501805461061e90611837565b80601f016020809104026020016040519081016040528092919081815260200182805461064a90611837565b80156106955780601f1061066c57610100808354040283529160200191610695565b820191905f5260205f20905b81548152906001019060200180831161067857829003601f168201915b5050505050905086565b6106a7610fe9565b5f600167ffffffffffffffff8111156106c3576106c261135e565b5b6040519080825280602002602001820160405280156106f15781602001602082028036833780820191505090505b50905082815f8151811061070857610707611867565b5b60200260200101818152505061071d81610871565b61075c576040517f08c379a0000000000000000000000000000000000000000000000000000000008152600401610753906118de565b60405180910390fd5b60035f8481526020019081526020015f206003015442116107b2576040517f08c379a00000000000000000000000000000000000000000000000000000000081526004016107a990611946565b60405180910390fd5b60035f8481526020019081526020015f206004015f9054906101000a900473ffffffffffffffffffffffffffffffffffffffff1673ffffffffffffffffffffffffffffffffffffffff168273ffffffffffffffffffffffffffffffffffffffff1614610853576040517f08c379a000000000000000000000000000000000000000000000000000000000815260040161084a906119ae565b60405180910390fd5b5f60035f8581526020019081526020015f2060020181905550505050565b5f5f5f90505b82518110156108df575f83828151811061089457610893611867565b5b602002602001015114806108c457506001548382815181106108b9576108b8611867565b5b602002602001015110155b156108d2575f9150506108e5565b8080600101915050610877565b50600190505b919050565b60015481565b6108f8610fe9565b6109015f611070565b565b5f61090c610fe9565b8185111561094f576040517f08c379a000000000000000000000000000000000000000000000000000000000815260040161094690611a16565b60405180910390fd5b428511610991576040517f08c379a000000000000000000000000000000000000000000000000000000000815260040161098890611a7e565b60405180910390fd5b5f86036109d3576040517f08c379a00000000000000000000000000000000000000000000000000000000081526004016109ca90611ae6565b60405180910390fd5b6040518060c001604052808881526020018781526020015f81526020018681526020018573ffffffffffffffffffffffffffffffffffffffff1681526020018481525060035f60015481526020019081526020015f205f820151815f019081610a3c9190611ca4565b506020820151816001015560408201518160020155606082015181600301556080820151816004015f6101000a81548173ffffffffffffffffffffffffffffffffffffffff021916908373ffffffffffffffffffffffffffffffffffffffff16021790555060a0820151816005019081610ab69190611ca4565b5090505060015490506001805f828254610ad09190611da0565b925050819055509695505050505050565b5f5f5f9054906101000a900473ffffffffffffffffffffffffffffffffffffffff16905090565b60605f5f5f5f60035f8781526020019081526020015f205f0160035f8881526020019081526020015f206001015460035f8981526020019081526020015f206002015460035f8a81526020019081526020015f206003015460035f8b81526020019081526020015f206004015f9054906101000a900473ffffffffffffffffffffffffffffffffffffffff16848054610ba090611837565b80601f0160208091040260200160405190810160405280929190818152602001828054610bcc90611837565b8015610c175780601f10610bee57610100808354040283529160200191610c17565b820191905f5260205f20905b815481529060010190602001808311610bfa57829003601f168201915b505050505094509450945094509450945091939590929450565b5f60035f8381526020019081526020015f20600101549050919050565b5f60035f8381526020019081526020015f206001015460035f8481526020019081526020015f2060020154610c839190611dd3565b9050919050565b5f5f600190505b600154811015610d365783604051602001610cac9190611e4e565b6040516020818303038152906040528051906020012060035f8381526020019081526020015f205f01604051602001610ce59190611ee4565b60405160208183030381529060405280519060200120148015610d1b57508260035f8381526020019081526020015f2060010154145b15610d295780915050610d3b565b8080600101915050610c91565b505f90505b92915050565b610d49610fe9565b8051825114610d8d576040517f08c379a0000000000000000000000000000000000000000000000000000000008152600401610d8490611f44565b60405180910390fd5b610d9682610871565b610dd5576040517f08c379a0000000000000000000000000000000000000000000000000000000008152600401610dcc906118de565b60405180910390fd5b5f5f90505b8251811015610e4e57818181518110610df657610df5611867565b5b602002602001015160035f858481518110610e1457610e13611867565b5b602002602001015181526020019081526020015f206002015f828254610e3a9190611f62565b925050819055508080600101915050610dda565b505050565b610e5b610fe9565b5f73ffffffffffffffffffffffffffffffffffffffff168173ffffffffffffffffffffffffffffffffffffffff1603610ecb575f6040517f1e4fbdf7000000000000000000000000000000000000000000000000000000008152600401610ec2919061169e565b60405180910390fd5b610ed481611070565b50565b610edf610fe9565b8051825114610f23576040517f08c379a0000000000000000000000000000000000000000000000000000000008152600401610f1a90611f44565b60405180910390fd5b610f2c82610871565b610f6b576040517f08c379a0000000000000000000000000000000000000000000000000000000008152600401610f62906118de565b60405180910390fd5b5f5f90505b8251811015610fe457818181518110610f8c57610f8b611867565b5b602002602001015160035f858481518110610faa57610fa9611867565b5b602002602001015181526020019081526020015f206002015f828254610fd09190611da0565b925050819055508080600101915050610f70565b505050565b610ff1611131565b73ffffffffffffffffffffffffffffffffffffffff1661100f610ae1565b73ffffffffffffffffffffffffffffffffffffffff161461106e57611032611131565b6040517f118cdaa7000000000000000000000000000000000000000000000000000000008152600401611065919061169e565b60405180910390fd5b565b5f5f5f9054906101000a900473ffffffffffffffffffffffffffffffffffffffff169050815f5f6101000a81548173ffffffffffffffffffffffffffffffffffffffff021916908373ffffffffffffffffffffffffffffffffffffffff1602179055508173ffffffffffffffffffffffffffffffffffffffff168173ffffffffffffffffffffffffffffffffffffffff167f8be0079c531659141344cd1fd0a4f28419497f9722a3daafe3b4186f6b6457e060405160405180910390a35050565b5f33905090565b5f81519050919050565b5f82825260208201905092915050565b8281835e5f83830152505050565b5f601f19601f8301169050919050565b5f61117a82611138565b6111848185611142565b9350611194818560208601611152565b61119d81611160565b840191505092915050565b5f6020820190508181035f8301526111c08184611170565b905092915050565b5f604051905090565b5f5ffd5b5f5ffd5b5f819050919050565b6111eb816111d9565b81146111f5575f5ffd5b50565b5f81359050611206816111e2565b92915050565b5f60208284031215611221576112206111d1565b5b5f61122e848285016111f8565b91505092915050565b611240816111d9565b82525050565b5f73ffffffffffffffffffffffffffffffffffffffff82169050919050565b5f61126f82611246565b9050919050565b61127f81611265565b82525050565b5f60c0820190508181035f83015261129d8189611170565b90506112ac6020830188611237565b6112b96040830187611237565b6112c66060830186611237565b6112d36080830185611276565b81810360a08301526112e58184611170565b9050979650505050505050565b6112fb81611265565b8114611305575f5ffd5b50565b5f81359050611316816112f2565b92915050565b5f5f60408385031215611332576113316111d1565b5b5f61133f858286016111f8565b925050602061135085828601611308565b9150509250929050565b5f5ffd5b7f4e487b71000000000000000000000000000000000000000000000000000000005f52604160045260245ffd5b61139482611160565b810181811067ffffffffffffffff821117156113b3576113b261135e565b5b80604052505050565b5f6113c56111c8565b90506113d1828261138b565b919050565b5f67ffffffffffffffff8211156113f0576113ef61135e565b5b602082029050602081019050919050565b5f5ffd5b5f611417611412846113d6565b6113bc565b9050808382526020820190506020840283018581111561143a57611439611401565b5b835b81811015611463578061144f88826111f8565b84526020840193505060208101905061143c565b5050509392505050565b5f82601f8301126114815761148061135a565b5b8135611491848260208601611405565b91505092915050565b5f602082840312156114af576114ae6111d1565b5b5f82013567ffffffffffffffff8111156114cc576114cb6111d5565b5b6114d88482850161146d565b91505092915050565b5f8115159050919050565b6114f5816114e1565b82525050565b5f60208201905061150e5f8301846114ec565b92915050565b5f6020820190506115275f830184611237565b92915050565b5f5ffd5b5f67ffffffffffffffff82111561154b5761154a61135e565b5b61155482611160565b9050602081019050919050565b828183375f83830152505050565b5f61158161157c84611531565b6113bc565b90508281526020810184848401111561159d5761159c61152d565b5b6115a8848285611561565b509392505050565b5f82601f8301126115c4576115c361135a565b5b81356115d484826020860161156f565b91505092915050565b5f5f5f5f5f5f60c087890312156115f7576115f66111d1565b5b5f87013567ffffffffffffffff811115611614576116136111d5565b5b61162089828a016115b0565b965050602061163189828a016111f8565b955050604061164289828a016111f8565b945050606061165389828a01611308565b935050608087013567ffffffffffffffff811115611674576116736111d5565b5b61168089828a016115b0565b92505060a061169189828a016111f8565b9150509295509295509295565b5f6020820190506116b15f830184611276565b92915050565b5f60a0820190508181035f8301526116cf8188611170565b90506116de6020830187611237565b6116eb6040830186611237565b6116f86060830185611237565b6117056080830184611276565b9695505050505050565b5f5f60408385031215611725576117246111d1565b5b5f83013567ffffffffffffffff811115611742576117416111d5565b5b61174e858286016115b0565b925050602061175f858286016111f8565b9150509250929050565b5f5f6040838503121561177f5761177e6111d1565b5b5f83013567ffffffffffffffff81111561179c5761179b6111d5565b5b6117a88582860161146d565b925050602083013567ffffffffffffffff8111156117c9576117c86111d5565b5b6117d58582860161146d565b9150509250929050565b5f602082840312156117f4576117f36111d1565b5b5f61180184828501611308565b91505092915050565b7f4e487b71000000000000000000000000000000000000000000000000000000005f52602260045260245ffd5b5f600282049050600182168061184e57607f821691505b6020821081036118615761186061180a565b5b50919050565b7f4e487b71000000000000000000000000000000000000000000000000000000005f52603260045260245ffd5b7f50424d3a20496e76616c696420746f6b656e00000000000000000000000000005f82015250565b5f6118c8601283611142565b91506118d382611894565b602082019050919050565b5f6020820190508181035f8301526118f5816118bc565b9050919050565b7f50424d3a20546f6b656e206e6f742065787069726564000000000000000000005f82015250565b5f611930601683611142565b915061193b826118fc565b602082019050919050565b5f6020820190508181035f83015261195d81611924565b9050919050565b7f50424d3a204e6f742063726561746f72000000000000000000000000000000005f82015250565b5f611998601083611142565b91506119a382611964565b602082019050919050565b5f6020820190508181035f8301526119c58161198c565b9050919050565b7f496e76616c696420746f6b656e206578706972792d31000000000000000000005f82015250565b5f611a00601683611142565b9150611a0b826119cc565b602082019050919050565b5f6020820190508181035f830152611a2d816119f4565b9050919050565b7f496e76616c696420746f6b656e206578706972792d32000000000000000000005f82015250565b5f611a68601683611142565b9150611a7382611a34565b602082019050919050565b5f6020820190508181035f830152611a9581611a5c565b9050919050565b7f53706f7420616d6f756e742069732030000000000000000000000000000000005f82015250565b5f611ad0601083611142565b9150611adb82611a9c565b602082019050919050565b5f6020820190508181035f830152611afd81611ac4565b9050919050565b5f819050815f5260205f209050919050565b5f6020601f8301049050919050565b5f82821b905092915050565b5f60088302611b607fffffffffffffffffffffffffffffffffffffffffffffffffffffffffffffffff82611b25565b611b6a8683611b25565b95508019841693508086168417925050509392505050565b5f819050919050565b5f611ba5611ba0611b9b846111d9565b611b82565b6111d9565b9050919050565b5f819050919050565b611bbe83611b8b565b611bd2611bca82611bac565b848454611b31565b825550505050565b5f5f905090565b611be9611bda565b611bf4818484611bb5565b505050565b5b81811015611c1757611c0c5f82611be1565b600181019050611bfa565b5050565b601f821115611c5c57611c2d81611b04565b611c3684611b16565b81016020851015611c45578190505b611c59611c5185611b16565b830182611bf9565b50505b505050565b5f82821c905092915050565b5f611c7c5f1984600802611c61565b1980831691505092915050565b5f611c948383611c6d565b9150826002028217905092915050565b611cad82611138565b67ffffffffffffffff811115611cc657611cc561135e565b5b611cd08254611837565b611cdb828285611c1b565b5f60209050601f831160018114611d0c575f8415611cfa578287015190505b611d048582611c89565b865550611d6b565b601f198416611d1a86611b04565b5f5b82811015611d4157848901518255600182019150602085019450602081019050611d1c565b86831015611d5e5784890151611d5a601f891682611c6d565b8355505b6001600288020188555050505b505050505050565b7f4e487b71000000000000000000000000000000000000000000000000000000005f52601160045260245ffd5b5f611daa826111d9565b9150611db5836111d9565b9250828201905080821115611dcd57611dcc611d73565b5b92915050565b5f611ddd826111d9565b9150611de8836111d9565b9250828202611df6816111d9565b91508282048414831517611e0d57611e0c611d73565b5b5092915050565b5f81905092915050565b5f611e2882611138565b611e328185611e14565b9350611e42818560208601611152565b80840191505092915050565b5f611e598284611e1e565b915081905092915050565b5f8154611e7081611837565b611e7a8186611e14565b9450600182165f8114611e945760018114611ea957611edb565b60ff1983168652811515820286019350611edb565b611eb285611b04565b5f5b83811015611ed357815481890152600182019150602081019050611eb4565b838801955050505b50505092915050565b5f611eef8284611e64565b915081905092915050565b7f4172726179206c656e677468206d69736d6174636800000000000000000000005f82015250565b5f611f2e601583611142565b9150611f3982611efa565b602082019050919050565b5f6020820190508181035f830152611f5b81611f22565b9050919050565b5f611f6c826111d9565b9150611f77836111d9565b9250828203905081811115611f8f57611f8e611d73565b5b9291505056fea264697066735822122004dfed53c6852494fb5ae519318129ccded5e12bca5143b0395820fc6cfb029b64736f6c634300081e0033",
					"opcodes": "PUSH1 0x80 PUSH1 0x40 MSTORE CALLVALUE DUP1 ISZERO PUSH2 0xF JUMPI PUSH0 PUSH0 REVERT JUMPDEST POP PUSH1 0x40 MLOAD PUSH2 0x2633 CODESIZE SUB DUP1 PUSH2 0x2633 DUP4 CODECOPY DUP2 DUP2 ADD PUSH1 0x40 MSTORE DUP2 ADD SWAP1 PUSH2 0x31 SWAP2 SWAP1 PUSH2 0x2DD JUMP JUMPDEST CALLER PUSH0 PUSH20 0xFFFFFFFFFFFFFFFFFFFFFFFFFFFFFFFFFFFFFFFF AND DUP2 PUSH20 0xFFFFFFFFFFFFFFFFFFFFFFFFFFFFFFFFFFFFFFFF AND SUB PUSH2 0xA2 JUMPI PUSH0 PUSH1 0x40 MLOAD PUSH32 0x1E4FBDF700000000000000000000000000000000000000000000000000000000 DUP2 MSTORE PUSH1 0x4 ADD PUSH2 0x99 SWAP2 SWAP1 PUSH2 0x363 JUMP JUMPDEST PUSH1 0x40 MLOAD DUP1 SWAP2 SUB SWAP1 REVERT JUMPDEST PUSH2 0xB1 DUP2 PUSH2 0xCF PUSH1 0x20 SHL PUSH1 0x20 SHR JUMP JUMPDEST POP PUSH1 0x1 DUP1 DUP2 SWAP1 SSTORE POP DUP1 PUSH1 0x2 SWAP1 DUP2 PUSH2 0xC8 SWAP2 SWAP1 PUSH2 0x58C JUMP JUMPDEST POP POP PUSH2 0x65B JUMP JUMPDEST PUSH0 PUSH0 PUSH0 SWAP1 SLOAD SWAP1 PUSH2 0x100 EXP SWAP1 DIV PUSH20 0xFFFFFFFFFFFFFFFFFFFFFFFFFFFFFFFFFFFFFFFF AND SWAP1 POP DUP2 PUSH0 PUSH0 PUSH2 0x100 EXP DUP2 SLOAD DUP2 PUSH20 0xFFFFFFFFFFFFFFFFFFFFFFFFFFFFFFFFFFFFFFFF MUL NOT AND SWAP1 DUP4 PUSH20 0xFFFFFFFFFFFFFFFFFFFFFFFFFFFFFFFFFFFFFFFF AND MUL OR SWAP1 SSTORE POP DUP2 PUSH20 0xFFFFFFFFFFFFFFFFFFFFFFFFFFFFFFFFFFFFFFFF AND DUP2 PUSH20 0xFFFFFFFFFFFFFFFFFFFFFFFFFFFFFFFFFFFFFFFF AND PUSH32 0x8BE0079C531659141344CD1FD0A4F28419497F9722A3DAAFE3B4186F6B6457E0 PUSH1 0x40 MLOAD PUSH1 0x40 MLOAD DUP1 SWAP2 SUB SWAP1 LOG3 POP POP JUMP JUMPDEST PUSH0 PUSH1 0x40 MLOAD SWAP1 POP SWAP1 JUMP JUMPDEST PUSH0 PUSH0 REVERT JUMPDEST PUSH0 PUSH0 REVERT JUMPDEST PUSH0 PUSH0 REVERT JUMPDEST PUSH0 PUSH0 REVERT JUMPDEST PUSH0 PUSH1 0x1F NOT PUSH1 0x1F DUP4 ADD AND SWAP1 POP SWAP2 SWAP1 POP JUMP JUMPDEST PUSH32 0x4E487B7100000000000000000000000000000000000000000000000000000000 PUSH0 MSTORE PUSH1 0x41 PUSH1 0x4 MSTORE PUSH1 0x24 PUSH0 REVERT JUMPDEST PUSH2 0x1EF DUP3 PUSH2 0x1A9 JUMP JUMPDEST DUP2 ADD DUP2 DUP2 LT PUSH8 0xFFFFFFFFFFFFFFFF DUP3 GT OR ISZERO PUSH2 0x20E JUMPI PUSH2 0x20D PUSH2 0x1B9 JUMP JUMPDEST JUMPDEST DUP1 PUSH1 0x40 MSTORE POP POP POP JUMP JUMPDEST PUSH0 PUSH2 0x220 PUSH2 0x190 JUMP JUMPDEST SWAP1 POP PUSH2 0x22C DUP3 DUP3 PUSH2 0x1E6 JUMP JUMPDEST SWAP2 SWAP1 POP JUMP JUMPDEST PUSH0 PUSH8 0xFFFFFFFFFFFFFFFF DUP3 GT ISZERO PUSH2 0x24B JUMPI PUSH2 0x24A PUSH2 0x1B9 JUMP JUMPDEST JUMPDEST PUSH2 0x254 DUP3 PUSH2 0x1A9 JUMP JUMPDEST SWAP1 POP PUSH1 0x20 DUP2 ADD SWAP1 POP SWAP2 SWAP1 POP JUMP JUMPDEST DUP3 DUP2 DUP4 MCOPY PUSH0 DUP4 DUP4 ADD MSTORE POP POP POP JUMP JUMPDEST PUSH0 PUSH2 0x281 PUSH2 0x27C DUP5 PUSH2 0x231 JUMP JUMPDEST PUSH2 0x217 JUMP JUMPDEST SWAP1 POP DUP3 DUP2 MSTORE PUSH1 0x20 DUP2 ADD DUP5 DUP5 DUP5 ADD GT ISZERO PUSH2 0x29D JUMPI PUSH2 0x29C PUSH2 0x1A5 JUMP JUMPDEST JUMPDEST PUSH2 0x2A8 DUP5 DUP3 DUP6 PUSH2 0x261 JUMP JUMPDEST POP SWAP4 SWAP3 POP POP POP JUMP JUMPDEST PUSH0 DUP3 PUSH1 0x1F DUP4 ADD SLT PUSH2 0x2C4 JUMPI PUSH2 0x2C3 PUSH2 0x1A1 JUMP JUMPDEST JUMPDEST DUP2 MLOAD PUSH2 0x2D4 DUP5 DUP3 PUSH1 0x20 DUP7 ADD PUSH2 0x26F JUMP JUMPDEST SWAP2 POP POP SWAP3 SWAP2 POP POP JUMP JUMPDEST PUSH0 PUSH1 0x20 DUP3 DUP5 SUB SLT ISZERO PUSH2 0x2F2 JUMPI PUSH2 0x2F1 PUSH2 0x199 JUMP JUMPDEST JUMPDEST PUSH0 DUP3 ADD MLOAD PUSH8 0xFFFFFFFFFFFFFFFF DUP2 GT ISZERO PUSH2 0x30F JUMPI PUSH2 0x30E PUSH2 0x19D JUMP JUMPDEST JUMPDEST PUSH2 0x31B DUP5 DUP3 DUP6 ADD PUSH2 0x2B0 JUMP JUMPDEST SWAP2 POP POP SWAP3 SWAP2 POP POP JUMP JUMPDEST PUSH0 PUSH20 0xFFFFFFFFFFFFFFFFFFFFFFFFFFFFFFFFFFFFFFFF DUP3 AND SWAP1 POP SWAP2 SWAP1 POP JUMP JUMPDEST PUSH0 PUSH2 0x34D DUP3 PUSH2 0x324 JUMP JUMPDEST SWAP1 POP SWAP2 SWAP1 POP JUMP JUMPDEST PUSH2 0x35D DUP2 PUSH2 0x343 JUMP JUMPDEST DUP3 MSTORE POP POP JUMP JUMPDEST PUSH0 PUSH1 0x20 DUP3 ADD SWAP1 POP PUSH2 0x376 PUSH0 DUP4 ADD DUP5 PUSH2 0x354 JUMP JUMPDEST SWAP3 SWAP2 POP POP JUMP JUMPDEST PUSH0 DUP2 MLOAD SWAP1 POP SWAP2 SWAP1 POP JUMP JUMPDEST PUSH32 0x4E487B7100000000000000000000000000000000000000000000000000000000 PUSH0 MSTORE PUSH1 0x22 PUSH1 0x4 MSTORE PUSH1 0x24 PUSH0 REVERT JUMPDEST PUSH0 PUSH1 0x2 DUP3 DIV SWAP1 POP PUSH1 0x1 DUP3 AND DUP1 PUSH2 0x3CA JUMPI PUSH1 0x7F DUP3 AND SWAP2 POP JUMPDEST PUSH1 0x20 DUP3 LT DUP2 SUB PUSH2 0x3DD JUMPI PUSH2 0x3DC PUSH2 0x386 JUMP JUMPDEST JUMPDEST POP SWAP2 SWAP1 POP JUMP JUMPDEST PUSH0 DUP2 SWAP1 POP DUP2 PUSH0 MSTORE PUSH1 0x20 PUSH0 KECCAK256 SWAP1 POP SWAP2 SWAP1 POP JUMP JUMPDEST PUSH0 PUSH1 0x20 PUSH1 0x1F DUP4 ADD DIV SWAP1 POP SWAP2 SWAP1 POP JUMP JUMPDEST PUSH0 DUP3 DUP3 SHL SWAP1 POP SWAP3 SWAP2 POP POP JUMP JUMPDEST PUSH0 PUSH1 0x8 DUP4 MUL PUSH2 0x43F PUSH32 0xFFFFFFFFFFFFFFFFFFFFFFFFFFFFFFFFFFFFFFFFFFFFFFFFFFFFFFFFFFFFFFFF DUP3 PUSH2 0x404 JUMP JUMPDEST PUSH2 0x449 DUP7 DUP4 PUSH2 0x404 JUMP JUMPDEST SWAP6 POP DUP1 NOT DUP5 AND SWAP4 POP DUP1 DUP7 AND DUP5 OR SWAP3 POP POP POP SWAP4 SWAP3 POP POP POP JUMP JUMPDEST PUSH0 DUP2 SWAP1 POP SWAP2 SWAP1 POP JUMP JUMPDEST PUSH0 DUP2 SWAP1 POP SWAP2 SWAP1 POP JUMP JUMPDEST PUSH0 PUSH2 0x48D PUSH2 0x488 PUSH2 0x483 DUP5 PUSH2 0x461 JUMP JUMPDEST PUSH2 0x46A JUMP JUMPDEST PUSH2 0x461 JUMP JUMPDEST SWAP1 POP SWAP2 SWAP1 POP JUMP JUMPDEST PUSH0 DUP2 SWAP1 POP SWAP2 SWAP1 POP JUMP JUMPDEST PUSH2 0x4A6 DUP4 PUSH2 0x473 JUMP JUMPDEST PUSH2 0x4BA PUSH2 0x4B2 DUP3 PUSH2 0x494 JUMP JUMPDEST DUP5 DUP5 SLOAD PUSH2 0x410 JUMP JUMPDEST DUP3 SSTORE POP POP POP POP JUMP JUMPDEST PUSH0 PUSH0 SWAP1 POP SWAP1 JUMP JUMPDEST PUSH2 0x4D1 PUSH2 0x4C2 JUMP JUMPDEST PUSH2 0x4DC DUP2 DUP5 DUP5 PUSH2 0x49D JUMP JUMPDEST POP POP POP JUMP JUMPDEST JUMPDEST DUP2 DUP2 LT ISZERO PUSH2 0x4FF JUMPI PUSH2 0x4F4 PUSH0 DUP3 PUSH2 0x4C9 JUMP JUMPDEST PUSH1 0x1 DUP2 ADD SWAP1 POP PUSH2 0x4E2 JUMP JUMPDEST POP POP JUMP JUMPDEST PUSH1 0x1F DUP3 GT ISZERO PUSH2 0x544 JUMPI PUSH2 0x515 DUP2 PUSH2 0x3E3 JUMP JUMPDEST PUSH2 0x51E DUP5 PUSH2 0x3F5 JUMP JUMPDEST DUP2 ADD PUSH1 0x20 DUP6 LT ISZERO PUSH2 0x52D JUMPI DUP2 SWAP1 POP JUMPDEST PUSH2 0x541 PUSH2 0x539 DUP6 PUSH2 0x3F5 JUMP JUMPDEST DUP4 ADD DUP3 PUSH2 0x4E1 JUMP JUMPDEST POP POP JUMPDEST POP POP POP JUMP JUMPDEST PUSH0 DUP3 DUP3 SHR SWAP1 POP SWAP3 SWAP2 POP POP JUMP JUMPDEST PUSH0 PUSH2 0x564 PUSH0 NOT DUP5 PUSH1 0x8 MUL PUSH2 0x549 JUMP JUMPDEST NOT DUP1 DUP4 AND SWAP2 POP POP SWAP3 SWAP2 POP POP JUMP JUMPDEST PUSH0 PUSH2 0x57C DUP4 DUP4 PUSH2 0x555 JUMP JUMPDEST SWAP2 POP DUP3 PUSH1 0x2 MUL DUP3 OR SWAP1 POP SWAP3 SWAP2 POP POP JUMP JUMPDEST PUSH2 0x595 DUP3 PUSH2 0x37C JUMP JUMPDEST PUSH8 0xFFFFFFFFFFFFFFFF DUP2 GT ISZERO PUSH2 0x5AE JUMPI PUSH2 0x5AD PUSH2 0x1B9 JUMP JUMPDEST JUMPDEST PUSH2 0x5B8 DUP3 SLOAD PUSH2 0x3B3 JUMP JUMPDEST PUSH2 0x5C3 DUP3 DUP3 DUP6 PUSH2 0x503 JUMP JUMPDEST PUSH0 PUSH1 0x20 SWAP1 POP PUSH1 0x1F DUP4 GT PUSH1 0x1 DUP2 EQ PUSH2 0x5F4 JUMPI PUSH0 DUP5 ISZERO PUSH2 0x5E2 JUMPI DUP3 DUP8 ADD MLOAD SWAP1 POP JUMPDEST PUSH2 0x5EC DUP6 DUP3 PUSH2 0x571 JUMP JUMPDEST DUP7 SSTORE POP PUSH2 0x653 JUMP JUMPDEST PUSH1 0x1F NOT DUP5 AND PUSH2 0x602 DUP7 PUSH2 0x3E3 JUMP JUMPDEST PUSH0 JUMPDEST DUP3 DUP2 LT ISZERO PUSH2 0x629 JUMPI DUP5 DUP10 ADD MLOAD DUP3 SSTORE PUSH1 0x1 DUP3 ADD SWAP2 POP PUSH1 0x20 DUP6 ADD SWAP5 POP PUSH1 0x20 DUP2 ADD SWAP1 POP PUSH2 0x604 JUMP JUMPDEST DUP7 DUP4 LT ISZERO PUSH2 0x646 JUMPI DUP5 DUP10 ADD MLOAD PUSH2 0x642 PUSH1 0x1F DUP10 AND DUP3 PUSH2 0x555 JUMP JUMPDEST DUP4 SSTORE POP JUMPDEST PUSH1 0x1 PUSH1 0x2 DUP9 MUL ADD DUP9 SSTORE POP POP POP JUMPDEST POP POP POP POP POP POP JUMP JUMPDEST PUSH2 0x1FCB DUP1 PUSH2 0x668 PUSH0 CODECOPY PUSH0 RETURN INVALID PUSH1 0x80 PUSH1 0x40 MSTORE CALLVALUE DUP1 ISZERO PUSH2 0xF JUMPI PUSH0 PUSH0 REVERT JUMPDEST POP PUSH1 0x4 CALLDATASIZE LT PUSH2 0xFE JUMPI PUSH0 CALLDATALOAD PUSH1 0xE0 SHR DUP1 PUSH4 0x8DA5CB5B GT PUSH2 0x95 JUMPI DUP1 PUSH4 0xDB84D995 GT PUSH2 0x64 JUMPI DUP1 PUSH4 0xDB84D995 EQ PUSH2 0x2DB JUMPI DUP1 PUSH4 0xE21C8B59 EQ PUSH2 0x30B JUMPI DUP1 PUSH4 0xF2FDE38B EQ PUSH2 0x327 JUMPI DUP1 PUSH4 0xF600D9F4 EQ PUSH2 0x343 JUMPI PUSH2 0xFE JUMP JUMPDEST DUP1 PUSH4 0x8DA5CB5B EQ PUSH2 0x229 JUMPI DUP1 PUSH4 0xC1E03728 EQ PUSH2 0x247 JUMPI DUP1 PUSH4 0xD10424C7 EQ PUSH2 0x27B JUMPI DUP1 PUSH4 0xD20874D8 EQ PUSH2 0x2AB JUMPI PUSH2 0xFE JUMP JUMPDEST DUP1 PUSH4 0x48FD09F5 GT PUSH2 0xD1 JUMPI DUP1 PUSH4 0x48FD09F5 EQ PUSH2 0x1A1 JUMPI DUP1 PUSH4 0x71185897 EQ PUSH2 0x1D1 JUMPI DUP1 PUSH4 0x715018A6 EQ PUSH2 0x1EF JUMPI DUP1 PUSH4 0x80D69C8A EQ PUSH2 0x1F9 JUMPI PUSH2 0xFE JUMP JUMPDEST DUP1 PUSH4 0x3B5A3D3 EQ PUSH2 0x102 JUMPI DUP1 PUSH4 0xE89341C EQ PUSH2 0x120 JUMPI DUP1 PUSH4 0x33F6832A EQ PUSH2 0x150 JUMPI DUP1 PUSH4 0x36A3409C EQ PUSH2 0x185 JUMPI JUMPDEST PUSH0 PUSH0 REVERT JUMPDEST PUSH2 0x10A PUSH2 0x35F JUMP JUMPDEST PUSH1 0x40 MLOAD PUSH2 0x117 SWAP2 SWAP1 PUSH2 0x11A8 JUMP JUMPDEST PUSH1 0x40 MLOAD DUP1 SWAP2 SUB SWAP1 RETURN JUMPDEST PUSH2 0x13A PUSH1 0x4 DUP1 CALLDATASIZE SUB DUP2 ADD SWAP1 PUSH2 0x135 SWAP2 SWAP1 PUSH2 0x120C JUMP JUMPDEST PUSH2 0x3EB JUMP JUMPDEST PUSH1 0x40 MLOAD PUSH2 0x147 SWAP2 SWAP1 PUSH2 0x11A8 JUMP JUMPDEST PUSH1 0x40 MLOAD DUP1 SWAP2 SUB SWAP1 RETURN JUMPDEST PUSH2 0x16A PUSH1 0x4 DUP1 CALLDATASIZE SUB DUP2 ADD SWAP1 PUSH2 0x165 SWAP2 SWAP1 PUSH2 0x120C JUMP JUMPDEST PUSH2 0x53C JUMP JUMPDEST PUSH1 0x40 MLOAD PUSH2 0x17C SWAP7 SWAP6 SWAP5 SWAP4 SWAP3 SWAP2 SWAP1 PUSH2 0x1285 JUMP JUMPDEST PUSH1 0x40 MLOAD DUP1 SWAP2 SUB SWAP1 RETURN JUMPDEST PUSH2 0x19F PUSH1 0x4 DUP1 CALLDATASIZE SUB DUP2 ADD SWAP1 PUSH2 0x19A SWAP2 SWAP1 PUSH2 0x131C JUMP JUMPDEST PUSH2 0x69F JUMP JUMPDEST STOP JUMPDEST PUSH2 0x1BB PUSH1 0x4 DUP1 CALLDATASIZE SUB DUP2 ADD SWAP1 PUSH2 0x1B6 SWAP2 SWAP1 PUSH2 0x149A JUMP JUMPDEST PUSH2 0x871 JUMP JUMPDEST PUSH1 0x40 MLOAD PUSH2 0x1C8 SWAP2 SWAP1 PUSH2 0x14FB JUMP JUMPDEST PUSH1 0x40 MLOAD DUP1 SWAP2 SUB SWAP1 RETURN JUMPDEST PUSH2 0x1D9 PUSH2 0x8EA JUMP JUMPDEST PUSH1 0x40 MLOAD PUSH2 0x1E6 SWAP2 SWAP1 PUSH2 0x1514 JUMP JUMPDEST PUSH1 0x40 MLOAD DUP1 SWAP2 SUB SWAP1 RETURN JUMPDEST PUSH2 0x1F7 PUSH2 0x8F0 JUMP JUMPDEST STOP JUMPDEST PUSH2 0x213 PUSH1 0x4 DUP1 CALLDATASIZE SUB DUP2 ADD SWAP1 PUSH2 0x20E SWAP2 SWAP1 PUSH2 0x15DD JUMP JUMPDEST PUSH2 0x903 JUMP JUMPDEST PUSH1 0x40 MLOAD PUSH2 0x220 SWAP2 SWAP1 PUSH2 0x1514 JUMP JUMPDEST PUSH1 0x40 MLOAD DUP1 SWAP2 SUB SWAP1 RETURN JUMPDEST PUSH2 0x231 PUSH2 0xAE1 JUMP JUMPDEST PUSH1 0x40 MLOAD PUSH2 0x23E SWAP2 SWAP1 PUSH2 0x169E JUMP JUMPDEST PUSH1 0x40 MLOAD DUP1 SWAP2 SUB SWAP1 RETURN JUMPDEST PUSH2 0x261 PUSH1 0x4 DUP1 CALLDATASIZE SUB DUP2 ADD SWAP1 PUSH2 0x25C SWAP2 SWAP1 PUSH2 0x120C JUMP JUMPDEST PUSH2 0xB08 JUMP JUMPDEST PUSH1 0x40 MLOAD PUSH2 0x272 SWAP6 SWAP5 SWAP4 SWAP3 SWAP2 SWAP1 PUSH2 0x16B7 JUMP JUMPDEST PUSH1 0x40 MLOAD DUP1 SWAP2 SUB SWAP1 RETURN JUMPDEST PUSH2 0x295 PUSH1 0x4 DUP1 CALLDATASIZE SUB DUP2 ADD SWAP1 PUSH2 0x290 SWAP2 SWAP1 PUSH2 0x120C JUMP JUMPDEST PUSH2 0xC31 JUMP JUMPDEST PUSH1 0x40 MLOAD PUSH2 0x2A2 SWAP2 SWAP1 PUSH2 0x1514 JUMP JUMPDEST PUSH1 0x40 MLOAD DUP1 SWAP2 SUB SWAP1 RETURN JUMPDEST PUSH2 0x2C5 PUSH1 0x4 DUP1 CALLDATASIZE SUB DUP2 ADD SWAP1 PUSH2 0x2C0 SWAP2 SWAP1 PUSH2 0x120C JUMP JUMPDEST PUSH2 0xC4E JUMP JUMPDEST PUSH1 0x40 MLOAD PUSH2 0x2D2 SWAP2 SWAP1 PUSH2 0x1514 JUMP JUMPDEST PUSH1 0x40 MLOAD DUP1 SWAP2 SUB SWAP1 RETURN JUMPDEST PUSH2 0x2F5 PUSH1 0x4 DUP1 CALLDATASIZE SUB DUP2 ADD SWAP1 PUSH2 0x2F0 SWAP2 SWAP1 PUSH2 0x170F JUMP JUMPDEST PUSH2 0xC8A JUMP JUMPDEST PUSH1 0x40 MLOAD PUSH2 0x302 SWAP2 SWAP1 PUSH2 0x1514 JUMP JUMPDEST PUSH1 0x40 MLOAD DUP1 SWAP2 SUB SWAP1 RETURN JUMPDEST PUSH2 0x325 PUSH1 0x4 DUP1 CALLDATASIZE SUB DUP2 ADD SWAP1 PUSH2 0x320 SWAP2 SWAP1 PUSH2 0x1769 JUMP JUMPDEST PUSH2 0xD41 JUMP JUMPDEST STOP JUMPDEST PUSH2 0x341 PUSH1 0x4 DUP1 CALLDATASIZE SUB DUP2 ADD SWAP1 PUSH2 0x33C SWAP2 SWAP1 PUSH2 0x17DF JUMP JUMPDEST PUSH2 0xE53 JUMP JUMPDEST STOP JUMPDEST PUSH2 0x35D PUSH1 0x4 DUP1 CALLDATASIZE SUB DUP2 ADD SWAP1 PUSH2 0x358 SWAP2 SWAP1 PUSH2 0x1769 JUMP JUMPDEST PUSH2 0xED7 JUMP JUMPDEST STOP JUMPDEST PUSH1 0x2 DUP1 SLOAD PUSH2 0x36C SWAP1 PUSH2 0x1837 JUMP JUMPDEST DUP1 PUSH1 0x1F ADD PUSH1 0x20 DUP1 SWAP2 DIV MUL PUSH1 0x20 ADD PUSH1 0x40 MLOAD SWAP1 DUP2 ADD PUSH1 0x40 MSTORE DUP1 SWAP3 SWAP2 SWAP1 DUP2 DUP2 MSTORE PUSH1 0x20 ADD DUP3 DUP1 SLOAD PUSH2 0x398 SWAP1 PUSH2 0x1837 JUMP JUMPDEST DUP1 ISZERO PUSH2 0x3E3 JUMPI DUP1 PUSH1 0x1F LT PUSH2 0x3BA JUMPI PUSH2 0x100 DUP1 DUP4 SLOAD DIV MUL DUP4 MSTORE SWAP2 PUSH1 0x20 ADD SWAP2 PUSH2 0x3E3 JUMP JUMPDEST DUP3 ADD SWAP2 SWAP1 PUSH0 MSTORE PUSH1 0x20 PUSH0 KECCAK256 SWAP1 JUMPDEST DUP2 SLOAD DUP2 MSTORE SWAP1 PUSH1 0x1 ADD SWAP1 PUSH1 0x20 ADD DUP1 DUP4 GT PUSH2 0x3C6 JUMPI DUP3 SWAP1 SUB PUSH1 0x1F AND DUP3 ADD SWAP2 JUMPDEST POP POP POP POP POP DUP2 JUMP JUMPDEST PUSH1 0x60 PUSH1 0x3 PUSH0 DUP4 DUP2 MSTORE PUSH1 0x20 ADD SWAP1 DUP2 MSTORE PUSH1 0x20 ADD PUSH0 KECCAK256 PUSH1 0x3 ADD SLOAD TIMESTAMP GT ISZERO PUSH2 0x499 JUMPI PUSH1 0x2 DUP1 SLOAD PUSH2 0x416 SWAP1 PUSH2 0x1837 JUMP JUMPDEST DUP1 PUSH1 0x1F ADD PUSH1 0x20 DUP1 SWAP2 DIV MUL PUSH1 0x20 ADD PUSH1 0x40 MLOAD SWAP1 DUP2 ADD PUSH1 0x40 MSTORE DUP1 SWAP3 SWAP2 SWAP1 DUP2 DUP2 MSTORE PUSH1 0x20 ADD DUP3 DUP1 SLOAD PUSH2 0x442 SWAP1 PUSH2 0x1837 JUMP JUMPDEST DUP1 ISZERO PUSH2 0x48D JUMPI DUP1 PUSH1 0x1F LT PUSH2 0x464 JUMPI PUSH2 0x100 DUP1 DUP4 SLOAD DIV MUL DUP4 MSTORE SWAP2 PUSH1 0x20 ADD SWAP2 PUSH2 0x48D JUMP JUMPDEST DUP3 ADD SWAP2 SWAP1 PUSH0 MSTORE PUSH1 0x20 PUSH0 KECCAK256 SWAP1 JUMPDEST DUP2 SLOAD DUP2 MSTORE SWAP1 PUSH1 0x1 ADD SWAP1 PUSH1 0x20 ADD DUP1 DUP4 GT PUSH2 0x470 JUMPI DUP3 SWAP1 SUB PUSH1 0x1F AND DUP3 ADD SWAP2 JUMPDEST POP POP POP POP POP SWAP1 POP PUSH2 0x537 JUMP JUMPDEST PUSH1 0x3 PUSH0 DUP4 DUP2 MSTORE PUSH1 0x20 ADD SWAP1 DUP2 MSTORE PUSH1 0x20 ADD PUSH0 KECCAK256 PUSH1 0x5 ADD DUP1 SLOAD PUSH2 0x4B8 SWAP1 PUSH2 0x1837 JUMP JUMPDEST DUP1 PUSH1 0x1F ADD PUSH1 0x20 DUP1 SWAP2 DIV MUL PUSH1 0x20 ADD PUSH1 0x40 MLOAD SWAP1 DUP2 ADD PUSH1 0x40 MSTORE DUP1 SWAP3 SWAP2 SWAP1 DUP2 DUP2 MSTORE PUSH1 0x20 ADD DUP3 DUP1 SLOAD PUSH2 0x4E4 SWAP1 PUSH2 0x1837 JUMP JUMPDEST DUP1 ISZERO PUSH2 0x52F JUMPI DUP1 PUSH1 0x1F LT PUSH2 0x506 JUMPI PUSH2 0x100 DUP1 DUP4 SLOAD DIV MUL DUP4 MSTORE SWAP2 PUSH1 0x20 ADD SWAP2 PUSH2 0x52F JUMP JUMPDEST DUP3 ADD SWAP2 SWAP1 PUSH0 MSTORE PUSH1 0x20 PUSH0 KECCAK256 SWAP1 JUMPDEST DUP2 SLOAD DUP2 MSTORE SWAP1 PUSH1 0x1 ADD SWAP1 PUSH1 0x20 ADD DUP1 DUP4 GT PUSH2 0x512 JUMPI DUP3 SWAP1 SUB PUSH1 0x1F AND DUP3 ADD SWAP2 JUMPDEST POP POP POP POP POP SWAP1 POP JUMPDEST SWAP2 SWAP1 POP JUMP JUMPDEST PUSH1 0x3 PUSH1 0x20 MSTORE DUP1 PUSH0 MSTORE PUSH1 0x40 PUSH0 KECCAK256 PUSH0 SWAP2 POP SWAP1 POP DUP1 PUSH0 ADD DUP1 SLOAD PUSH2 0x55B SWAP1 PUSH2 0x1837 JUMP JUMPDEST DUP1 PUSH1 0x1F ADD PUSH1 0x20 DUP1 SWAP2 DIV MUL PUSH1 0x20 ADD PUSH1 0x40 MLOAD SWAP1 DUP2 ADD PUSH1 0x40 MSTORE DUP1 SWAP3 SWAP2 SWAP1 DUP2 DUP2 MSTORE PUSH1 0x20 ADD DUP3 DUP1 SLOAD PUSH2 0x587 SWAP1 PUSH2 0x1837 JUMP JUMPDEST DUP1 ISZERO PUSH2 0x5D2 JUMPI DUP1 PUSH1 0x1F LT PUSH2 0x5A9 JUMPI PUSH2 0x100 DUP1 DUP4 SLOAD DIV MUL DUP4 MSTORE SWAP2 PUSH1 0x20 ADD SWAP2 PUSH2 0x5D2 JUMP JUMPDEST DUP3 ADD SWAP2 SWAP1 PUSH0 MSTORE PUSH1 0x20 PUSH0 KECCAK256 SWAP1 JUMPDEST DUP2 SLOAD DUP2 MSTORE SWAP1 PUSH1 0x1 ADD SWAP1 PUSH1 0x20 ADD DUP1 DUP4 GT PUSH2 0x5B5 JUMPI DUP3 SWAP1 SUB PUSH1 0x1F AND DUP3 ADD SWAP2 JUMPDEST POP POP POP POP POP SWAP1 DUP1 PUSH1 0x1 ADD SLOAD SWAP1 DUP1 PUSH1 0x2 ADD SLOAD SWAP1 DUP1 PUSH1 0x3 ADD SLOAD SWAP1 DUP1 PUSH1 0x4 ADD PUSH0 SWAP1 SLOAD SWAP1 PUSH2 0x100 EXP SWAP1 DIV PUSH20 0xFFFFFFFFFFFFFFFFFFFFFFFFFFFFFFFFFFFFFFFF AND SWAP1 DUP1 PUSH1 0x5 ADD DUP1 SLOAD PUSH2 0x61E SWAP1 PUSH2 0x1837 JUMP JUMPDEST DUP1 PUSH1 0x1F ADD PUSH1 0x20 DUP1 SWAP2 DIV MUL PUSH1 0x20 ADD PUSH1 0x40 MLOAD SWAP1 DUP2 ADD PUSH1 0x40 MSTORE DUP1 SWAP3 SWAP2 SWAP1 DUP2 DUP2 MSTORE PUSH1 0x20 ADD DUP3 DUP1 SLOAD PUSH2 0x64A SWAP1 PUSH2 0x1837 JUMP JUMPDEST DUP1 ISZERO PUSH2 0x695 JUMPI DUP1 PUSH1 0x1F LT PUSH2 0x66C JUMPI PUSH2 0x100 DUP1 DUP4 SLOAD DIV MUL DUP4 MSTORE SWAP2 PUSH1 0x20 ADD SWAP2 PUSH2 0x695 JUMP JUMPDEST DUP3 ADD SWAP2 SWAP1 PUSH0 MSTORE PUSH1 0x20 PUSH0 KECCAK256 SWAP1 JUMPDEST DUP2 SLOAD DUP2 MSTORE SWAP1 PUSH1 0x1 ADD SWAP1 PUSH1 0x20 ADD DUP1 DUP4 GT PUSH2 0x678 JUMPI DUP3 SWAP1 SUB PUSH1 0x1F AND DUP3 ADD SWAP2 JUMPDEST POP POP POP POP POP SWAP1 POP DUP7 JUMP JUMPDEST PUSH2 0x6A7 PUSH2 0xFE9 JUMP JUMPDEST PUSH0 PUSH1 0x1 PUSH8 0xFFFFFFFFFFFFFFFF DUP2 GT ISZERO PUSH2 0x6C3 JUMPI PUSH2 0x6C2 PUSH2 0x135E JUMP JUMPDEST JUMPDEST PUSH1 0x40 MLOAD SWAP1 DUP1 DUP3 MSTORE DUP1 PUSH1 0x20 MUL PUSH1 0x20 ADD DUP3 ADD PUSH1 0x40 MSTORE DUP1 ISZERO PUSH2 0x6F1 JUMPI DUP2 PUSH1 0x20 ADD PUSH1 0x20 DUP3 MUL DUP1 CALLDATASIZE DUP4 CALLDATACOPY DUP1 DUP3 ADD SWAP2 POP POP SWAP1 POP JUMPDEST POP SWAP1 POP DUP3 DUP2 PUSH0 DUP2 MLOAD DUP2 LT PUSH2 0x708 JUMPI PUSH2 0x707 PUSH2 0x1867 JUMP JUMPDEST JUMPDEST PUSH1 0x20 MUL PUSH1 0x20 ADD ADD DUP2 DUP2 MSTORE POP POP PUSH2 0x71D DUP2 PUSH2 0x871 JUMP JUMPDEST PUSH2 0x75C JUMPI PUSH1 0x40 MLOAD PUSH32 0x8C379A000000000000000000000000000000000000000000000000000000000 DUP2 MSTORE PUSH1 0x4 ADD PUSH2 0x753 SWAP1 PUSH2 0x18DE JUMP JUMPDEST PUSH1 0x40 MLOAD DUP1 SWAP2 SUB SWAP1 REVERT JUMPDEST PUSH1 0x3 PUSH0 DUP5 DUP2 MSTORE PUSH1 0x20 ADD SWAP1 DUP2 MSTORE PUSH1 0x20 ADD PUSH0 KECCAK256 PUSH1 0x3 ADD SLOAD TIMESTAMP GT PUSH2 0x7B2 JUMPI PUSH1 0x40 MLOAD PUSH32 0x8C379A000000000000000000000000000000000000000000000000000000000 DUP2 MSTORE PUSH1 0x4 ADD PUSH2 0x7A9 SWAP1 PUSH2 0x1946 JUMP JUMPDEST PUSH1 0x40 MLOAD DUP1 SWAP2 SUB SWAP1 REVERT JUMPDEST PUSH1 0x3 PUSH0 DUP5 DUP2 MSTORE PUSH1 0x20 ADD SWAP1 DUP2 MSTORE PUSH1 0x20 ADD PUSH0 KECCAK256 PUSH1 0x4 ADD PUSH0 SWAP1 SLOAD SWAP1 PUSH2 0x100 EXP SWAP1 DIV PUSH20 0xFFFFFFFFFFFFFFFFFFFFFFFFFFFFFFFFFFFFFFFF AND PUSH20 0xFFFFFFFFFFFFFFFFFFFFFFFFFFFFFFFFFFFFFFFF AND DUP3 PUSH20 0xFFFFFFFFFFFFFFFFFFFFFFFFFFFFFFFFFFFFFFFF AND EQ PUSH2 0x853 JUMPI PUSH1 0x40 MLOAD PUSH32 0x8C379A000000000000000000000000000000000000000000000000000000000 DUP2 MSTORE PUSH1 0x4 ADD PUSH2 0x84A SWAP1 PUSH2 0x19AE JUMP JUMPDEST PUSH1 0x40 MLOAD DUP1 SWAP2 SUB SWAP1 REVERT JUMPDEST PUSH0 PUSH1 0x3 PUSH0 DUP6 DUP2 MSTORE PUSH1 0x20 ADD SWAP1 DUP2 MSTORE PUSH1 0x20 ADD PUSH0 KECCAK256 PUSH1 0x2 ADD DUP2 SWAP1 SSTORE POP POP POP POP JUMP JUMPDEST PUSH0 PUSH0 PUSH0 SWAP1 POP JUMPDEST DUP3 MLOAD DUP2 LT ISZERO PUSH2 0x8DF JUMPI PUSH0 DUP4 DUP3 DUP2 MLOAD DUP2 LT PUSH2 0x894 JUMPI PUSH2 0x893 PUSH2 0x1867 JUMP JUMPDEST JUMPDEST PUSH1 0x20 MUL PUSH1 0x20 ADD ADD MLOAD EQ DUP1 PUSH2 0x8C4 JUMPI POP PUSH1 0x1 SLOAD DUP4 DUP3 DUP2 MLOAD DUP2 LT PUSH2 0x8B9 JUMPI PUSH2 0x8B8 PUSH2 0x1867 JUMP JUMPDEST JUMPDEST PUSH1 0x20 MUL PUSH1 0x20 ADD ADD MLOAD LT ISZERO JUMPDEST ISZERO PUSH2 0x8D2 JUMPI PUSH0 SWAP2 POP POP PUSH2 0x8E5 JUMP JUMPDEST DUP1 DUP1 PUSH1 0x1 ADD SWAP2 POP POP PUSH2 0x877 JUMP JUMPDEST POP PUSH1 0x1 SWAP1 POP JUMPDEST SWAP2 SWAP1 POP JUMP JUMPDEST PUSH1 0x1 SLOAD DUP2 JUMP JUMPDEST PUSH2 0x8F8 PUSH2 0xFE9 JUMP JUMPDEST PUSH2 0x901 PUSH0 PUSH2 0x1070 JUMP JUMPDEST JUMP JUMPDEST PUSH0 PUSH2 0x90C PUSH2 0xFE9 JUMP JUMPDEST DUP2 DUP6 GT ISZERO PUSH2 0x94F JUMPI PUSH1 0x40 MLOAD PUSH32 0x8C379A000000000000000000000000000000000000000000000000000000000 DUP2 MSTORE PUSH1 0x4 ADD PUSH2 0x946 SWAP1 PUSH2 0x1A16 JUMP JUMPDEST PUSH1 0x40 MLOAD DUP1 SWAP2 SUB SWAP1 REVERT JUMPDEST TIMESTAMP DUP6 GT PUSH2 0x991 JUMPI PUSH1 0x40 MLOAD PUSH32 0x8C379A000000000000000000000000000000000000000000000000000000000 DUP2 MSTORE PUSH1 0x4 ADD PUSH2 0x988 SWAP1 PUSH2 0x1A7E JUMP JUMPDEST PUSH1 0x40 MLOAD DUP1 SWAP2 SUB SWAP1 REVERT JUMPDEST PUSH0 DUP7 SUB PUSH2 0x9D3 JUMPI PUSH1 0x40 MLOAD PUSH32 0x8C379A000000000000000000000000000000000000000000000000000000000 DUP2 MSTORE PUSH1 0x4 ADD PUSH2 0x9CA SWAP1 PUSH2 0x1AE6 JUMP JUMPDEST PUSH1 0x40 MLOAD DUP1 SWAP2 SUB SWAP1 REVERT JUMPDEST PUSH1 0x40 MLOAD DUP1 PUSH1 0xC0 ADD PUSH1 0x40 MSTORE DUP1 DUP9 DUP2 MSTORE PUSH1 0x20 ADD DUP8 DUP2 MSTORE PUSH1 0x20 ADD PUSH0 DUP2 MSTORE PUSH1 0x20 ADD DUP7 DUP2 MSTORE PUSH1 0x20 ADD DUP6 PUSH20 0xFFFFFFFFFFFFFFFFFFFFFFFFFFFFFFFFFFFFFFFF AND DUP2 MSTORE PUSH1 0x20 ADD DUP5 DUP2 MSTORE POP PUSH1 0x3 PUSH0 PUSH1 0x1 SLOAD DUP2 MSTORE PUSH1 0x20 ADD SWAP1 DUP2 MSTORE PUSH1 0x20 ADD PUSH0 KECCAK256 PUSH0 DUP3 ADD MLOAD DUP2 PUSH0 ADD SWAP1 DUP2 PUSH2 0xA3C SWAP2 SWAP1 PUSH2 0x1CA4 JUMP JUMPDEST POP PUSH1 0x20 DUP3 ADD MLOAD DUP2 PUSH1 0x1 ADD SSTORE PUSH1 0x40 DUP3 ADD MLOAD DUP2 PUSH1 0x2 ADD SSTORE PUSH1 0x60 DUP3 ADD MLOAD DUP2 PUSH1 0x3 ADD SSTORE PUSH1 0x80 DUP3 ADD MLOAD DUP2 PUSH1 0x4 ADD PUSH0 PUSH2 0x100 EXP DUP2 SLOAD DUP2 PUSH20 0xFFFFFFFFFFFFFFFFFFFFFFFFFFFFFFFFFFFFFFFF MUL NOT AND SWAP1 DUP4 PUSH20 0xFFFFFFFFFFFFFFFFFFFFFFFFFFFFFFFFFFFFFFFF AND MUL OR SWAP1 SSTORE POP PUSH1 0xA0 DUP3 ADD MLOAD DUP2 PUSH1 0x5 ADD SWAP1 DUP2 PUSH2 0xAB6 SWAP2 SWAP1 PUSH2 0x1CA4 JUMP JUMPDEST POP SWAP1 POP POP PUSH1 0x1 SLOAD SWAP1 POP PUSH1 0x1 DUP1 PUSH0 DUP3 DUP3 SLOAD PUSH2 0xAD0 SWAP2 SWAP1 PUSH2 0x1DA0 JUMP JUMPDEST SWAP3 POP POP DUP2 SWAP1 SSTORE POP SWAP7 SWAP6 POP POP POP POP POP POP JUMP JUMPDEST PUSH0 PUSH0 PUSH0 SWAP1 SLOAD SWAP1 PUSH2 0x100 EXP SWAP1 DIV PUSH20 0xFFFFFFFFFFFFFFFFFFFFFFFFFFFFFFFFFFFFFFFF AND SWAP1 POP SWAP1 JUMP JUMPDEST PUSH1 0x60 PUSH0 PUSH0 PUSH0 PUSH0 PUSH1 0x3 PUSH0 DUP8 DUP2 MSTORE PUSH1 0x20 ADD SWAP1 DUP2 MSTORE PUSH1 0x20 ADD PUSH0 KECCAK256 PUSH0 ADD PUSH1 0x3 PUSH0 DUP9 DUP2 MSTORE PUSH1 0x20 ADD SWAP1 DUP2 MSTORE PUSH1 0x20 ADD PUSH0 KECCAK256 PUSH1 0x1 ADD SLOAD PUSH1 0x3 PUSH0 DUP10 DUP2 MSTORE PUSH1 0x20 ADD SWAP1 DUP2 MSTORE PUSH1 0x20 ADD PUSH0 KECCAK256 PUSH1 0x2 ADD SLOAD PUSH1 0x3 PUSH0 DUP11 DUP2 MSTORE PUSH1 0x20 ADD SWAP1 DUP2 MSTORE PUSH1 0x20 ADD PUSH0 KECCAK256 PUSH1 0x3 ADD SLOAD PUSH1 0x3 PUSH0 DUP12 DUP2 MSTORE PUSH1 0x20 ADD SWAP1 DUP2 MSTORE PUSH1 0x20 ADD PUSH0 KECCAK256 PUSH1 0x4 ADD PUSH0 SWAP1 SLOAD SWAP1 PUSH2 0x100 EXP SWAP1 DIV PUSH20 0xFFFFFFFFFFFFFFFFFFFFFFFFFFFFFFFFFFFFFFFF AND DUP5 DUP1 SLOAD PUSH2 0xBA0 SWAP1 PUSH2 0x1837 JUMP JUMPDEST DUP1 PUSH1 0x1F ADD PUSH1 0x20 DUP1 SWAP2 DIV MUL PUSH1 0x20 ADD PUSH1 0x40 MLOAD SWAP1 DUP2 ADD PUSH1 0x40 MSTORE DUP1 SWAP3 SWAP2 SWAP1 DUP2 DUP2 MSTORE PUSH1 0x20 ADD DUP3 DUP1 SLOAD PUSH2 0xBCC SWAP1 PUSH2 0x1837 JUMP JUMPDEST DUP1 ISZERO PUSH2 0xC17 JUMPI DUP1 PUSH1 0x1F LT PUSH2 0xBEE JUMPI PUSH2 0x100 DUP1 DUP4 SLOAD DIV MUL DUP4 MSTORE SWAP2 PUSH1 0x20 ADD SWAP2 PUSH2 0xC17 JUMP JUMPDEST DUP3 ADD SWAP2 SWAP1 PUSH0 MSTORE PUSH1 0x20 PUSH0 KECCAK256 SWAP1 JUMPDEST DUP2 SLOAD DUP2 MSTORE SWAP1 PUSH1 0x1 ADD SWAP1 PUSH1 0x20 ADD DUP1 DUP4 GT PUSH2 0xBFA JUMPI DUP3 SWAP1 SUB PUSH1 0x1F AND DUP3 ADD SWAP2 JUMPDEST POP POP POP POP POP SWAP5 POP SWAP5 POP SWAP5 POP SWAP5 POP SWAP5 POP SWAP5 POP SWAP2 SWAP4 SWAP6 SWAP1 SWAP3 SWAP5 POP JUMP JUMPDEST PUSH0 PUSH1 0x3 PUSH0 DUP4 DUP2 MSTORE PUSH1 0x20 ADD SWAP1 DUP2 MSTORE PUSH1 0x20 ADD PUSH0 KECCAK256 PUSH1 0x1 ADD SLOAD SWAP1 POP SWAP2 SWAP1 POP JUMP JUMPDEST PUSH0 PUSH1 0x3 PUSH0 DUP4 DUP2 MSTORE PUSH1 0x20 ADD SWAP1 DUP2 MSTORE PUSH1 0x20 ADD PUSH0 KECCAK256 PUSH1 0x1 ADD SLOAD PUSH1 0x3 PUSH0 DUP5 DUP2 MSTORE PUSH1 0x20 ADD SWAP1 DUP2 MSTORE PUSH1 0x20 ADD PUSH0 KECCAK256 PUSH1 0x2 ADD SLOAD PUSH2 0xC83 SWAP2 SWAP1 PUSH2 0x1DD3 JUMP JUMPDEST SWAP1 POP SWAP2 SWAP1 POP JUMP JUMPDEST PUSH0 PUSH0 PUSH1 0x1 SWAP1 POP JUMPDEST PUSH1 0x1 SLOAD DUP2 LT ISZERO PUSH2 0xD36 JUMPI DUP4 PUSH1 0x40 MLOAD PUSH1 0x20 ADD PUSH2 0xCAC SWAP2 SWAP1 PUSH2 0x1E4E JUMP JUMPDEST PUSH1 0x40 MLOAD PUSH1 0x20 DUP2 DUP4 SUB SUB DUP2 MSTORE SWAP1 PUSH1 0x40 MSTORE DUP1 MLOAD SWAP1 PUSH1 0x20 ADD KECCAK256 PUSH1 0x3 PUSH0 DUP4 DUP2 MSTORE PUSH1 0x20 ADD SWAP1 DUP2 MSTORE PUSH1 0x20 ADD PUSH0 KECCAK256 PUSH0 ADD PUSH1 0x40 MLOAD PUSH1 0x20 ADD PUSH2 0xCE5 SWAP2 SWAP1 PUSH2 0x1EE4 JUMP JUMPDEST PUSH1 0x40 MLOAD PUSH1 0x20 DUP2 DUP4 SUB SUB DUP2 MSTORE SWAP1 PUSH1 0x40 MSTORE DUP1 MLOAD SWAP1 PUSH1 0x20 ADD KECCAK256 EQ DUP1 ISZERO PUSH2 0xD1B JUMPI POP DUP3 PUSH1 0x3 PUSH0 DUP4 DUP2 MSTORE PUSH1 0x20 ADD SWAP1 DUP2 MSTORE PUSH1 0x20 ADD PUSH0 KECCAK256 PUSH1 0x1 ADD SLOAD EQ JUMPDEST ISZERO PUSH2 0xD29 JUMPI DUP1 SWAP2 POP POP PUSH2 0xD3B JUMP JUMPDEST DUP1 DUP1 PUSH1 0x1 ADD SWAP2 POP POP PUSH2 0xC91 JUMP JUMPDEST POP PUSH0 SWAP1 POP JUMPDEST SWAP3 SWAP2 POP POP JUMP JUMPDEST PUSH2 0xD49 PUSH2 0xFE9 JUMP JUMPDEST DUP1 MLOAD DUP3 MLOAD EQ PUSH2 0xD8D JUMPI PUSH1 0x40 MLOAD PUSH32 0x8C379A000000000000000000000000000000000000000000000000000000000 DUP2 MSTORE PUSH1 0x4 ADD PUSH2 0xD84 SWAP1 PUSH2 0x1F44 JUMP JUMPDEST PUSH1 0x40 MLOAD DUP1 SWAP2 SUB SWAP1 REVERT JUMPDEST PUSH2 0xD96 DUP3 PUSH2 0x871 JUMP JUMPDEST PUSH2 0xDD5 JUMPI PUSH1 0x40 MLOAD PUSH32 0x8C379A000000000000000000000000000000000000000000000000000000000 DUP2 MSTORE PUSH1 0x4 ADD PUSH2 0xDCC SWAP1 PUSH2 0x18DE JUMP JUMPDEST PUSH1 0x40 MLOAD DUP1 SWAP2 SUB SWAP1 REVERT JUMPDEST PUSH0 PUSH0 SWAP1 POP JUMPDEST DUP3 MLOAD DUP2 LT ISZERO PUSH2 0xE4E JUMPI DUP2 DUP2 DUP2 MLOAD DUP2 LT PUSH2 0xDF6 JUMPI PUSH2 0xDF5 PUSH2 0x1867 JUMP JUMPDEST JUMPDEST PUSH1 0x20 MUL PUSH1 0x20 ADD ADD MLOAD PUSH1 0x3 PUSH0 DUP6 DUP5 DUP2 MLOAD DUP2 LT PUSH2 0xE14 JUMPI PUSH2 0xE13 PUSH2 0x1867 JUMP JUMPDEST JUMPDEST PUSH1 0x20 MUL PUSH1 0x20 ADD ADD MLOAD DUP2 MSTORE PUSH1 0x20 ADD SWAP1 DUP2 MSTORE PUSH1 0x20 ADD PUSH0 KECCAK256 PUSH1 0x2 ADD PUSH0 DUP3 DUP3 SLOAD PUSH2 0xE3A SWAP2 SWAP1 PUSH2 0x1F62 JUMP JUMPDEST SWAP3 POP POP DUP2 SWAP1 SSTORE POP DUP1 DUP1 PUSH1 0x1 ADD SWAP2 POP POP PUSH2 0xDDA JUMP JUMPDEST POP POP POP JUMP JUMPDEST PUSH2 0xE5B PUSH2 0xFE9 JUMP JUMPDEST PUSH0 PUSH20 0xFFFFFFFFFFFFFFFFFFFFFFFFFFFFFFFFFFFFFFFF AND DUP2 PUSH20 0xFFFFFFFFFFFFFFFFFFFFFFFFFFFFFFFFFFFFFFFF AND SUB PUSH2 0xECB JUMPI PUSH0 PUSH1 0x40 MLOAD PUSH32 0x1E4FBDF700000000000000000000000000000000000000000000000000000000 DUP2 MSTORE PUSH1 0x4 ADD PUSH2 0xEC2 SWAP2 SWAP1 PUSH2 0x169E JUMP JUMPDEST PUSH1 0x40 MLOAD DUP1 SWAP2 SUB SWAP1 REVERT JUMPDEST PUSH2 0xED4 DUP2 PUSH2 0x1070 JUMP JUMPDEST POP JUMP JUMPDEST PUSH2 0xEDF PUSH2 0xFE9 JUMP JUMPDEST DUP1 MLOAD DUP3 MLOAD EQ PUSH2 0xF23 JUMPI PUSH1 0x40 MLOAD PUSH32 0x8C379A000000000000000000000000000000000000000000000000000000000 DUP2 MSTORE PUSH1 0x4 ADD PUSH2 0xF1A SWAP1 PUSH2 0x1F44 JUMP JUMPDEST PUSH1 0x40 MLOAD DUP1 SWAP2 SUB SWAP1 REVERT JUMPDEST PUSH2 0xF2C DUP3 PUSH2 0x871 JUMP JUMPDEST PUSH2 0xF6B JUMPI PUSH1 0x40 MLOAD PUSH32 0x8C379A000000000000000000000000000000000000000000000000000000000 DUP2 MSTORE PUSH1 0x4 ADD PUSH2 0xF62 SWAP1 PUSH2 0x18DE JUMP JUMPDEST PUSH1 0x40 MLOAD DUP1 SWAP2 SUB SWAP1 REVERT JUMPDEST PUSH0 PUSH0 SWAP1 POP JUMPDEST DUP3 MLOAD DUP2 LT ISZERO PUSH2 0xFE4 JUMPI DUP2 DUP2 DUP2 MLOAD DUP2 LT PUSH2 0xF8C JUMPI PUSH2 0xF8B PUSH2 0x1867 JUMP JUMPDEST JUMPDEST PUSH1 0x20 MUL PUSH1 0x20 ADD ADD MLOAD PUSH1 0x3 PUSH0 DUP6 DUP5 DUP2 MLOAD DUP2 LT PUSH2 0xFAA JUMPI PUSH2 0xFA9 PUSH2 0x1867 JUMP JUMPDEST JUMPDEST PUSH1 0x20 MUL PUSH1 0x20 ADD ADD MLOAD DUP2 MSTORE PUSH1 0x20 ADD SWAP1 DUP2 MSTORE PUSH1 0x20 ADD PUSH0 KECCAK256 PUSH1 0x2 ADD PUSH0 DUP3 DUP3 SLOAD PUSH2 0xFD0 SWAP2 SWAP1 PUSH2 0x1DA0 JUMP JUMPDEST SWAP3 POP POP DUP2 SWAP1 SSTORE POP DUP1 DUP1 PUSH1 0x1 ADD SWAP2 POP POP PUSH2 0xF70 JUMP JUMPDEST POP POP POP JUMP JUMPDEST PUSH2 0xFF1 PUSH2 0x1131 JUMP JUMPDEST PUSH20 0xFFFFFFFFFFFFFFFFFFFFFFFFFFFFFFFFFFFFFFFF AND PUSH2 0x100F PUSH2 0xAE1 JUMP JUMPDEST PUSH20 0xFFFFFFFFFFFFFFFFFFFFFFFFFFFFFFFFFFFFFFFF AND EQ PUSH2 0x106E JUMPI PUSH2 0x1032 PUSH2 0x1131 JUMP JUMPDEST PUSH1 0x40 MLOAD PUSH32 0x118CDAA700000000000000000000000000000000000000000000000000000000 DUP2 MSTORE PUSH1 0x4 ADD PUSH2 0x1065 SWAP2 SWAP1 PUSH2 0x169E JUMP JUMPDEST PUSH1 0x40 MLOAD DUP1 SWAP2 SUB SWAP1 REVERT JUMPDEST JUMP JUMPDEST PUSH0 PUSH0 PUSH0 SWAP1 SLOAD SWAP1 PUSH2 0x100 EXP SWAP1 DIV PUSH20 0xFFFFFFFFFFFFFFFFFFFFFFFFFFFFFFFFFFFFFFFF AND SWAP1 POP DUP2 PUSH0 PUSH0 PUSH2 0x100 EXP DUP2 SLOAD DUP2 PUSH20 0xFFFFFFFFFFFFFFFFFFFFFFFFFFFFFFFFFFFFFFFF MUL NOT AND SWAP1 DUP4 PUSH20 0xFFFFFFFFFFFFFFFFFFFFFFFFFFFFFFFFFFFFFFFF AND MUL OR SWAP1 SSTORE POP DUP2 PUSH20 0xFFFFFFFFFFFFFFFFFFFFFFFFFFFFFFFFFFFFFFFF AND DUP2 PUSH20 0xFFFFFFFFFFFFFFFFFFFFFFFFFFFFFFFFFFFFFFFF AND PUSH32 0x8BE0079C531659141344CD1FD0A4F28419497F9722A3DAAFE3B4186F6B6457E0 PUSH1 0x40 MLOAD PUSH1 0x40 MLOAD DUP1 SWAP2 SUB SWAP1 LOG3 POP POP JUMP JUMPDEST PUSH0 CALLER SWAP1 POP SWAP1 JUMP JUMPDEST PUSH0 DUP2 MLOAD SWAP1 POP SWAP2 SWAP1 POP JUMP JUMPDEST PUSH0 DUP3 DUP3 MSTORE PUSH1 0x20 DUP3 ADD SWAP1 POP SWAP3 SWAP2 POP POP JUMP JUMPDEST DUP3 DUP2 DUP4 MCOPY PUSH0 DUP4 DUP4 ADD MSTORE POP POP POP JUMP JUMPDEST PUSH0 PUSH1 0x1F NOT PUSH1 0x1F DUP4 ADD AND SWAP1 POP SWAP2 SWAP1 POP JUMP JUMPDEST PUSH0 PUSH2 0x117A DUP3 PUSH2 0x1138 JUMP JUMPDEST PUSH2 0x1184 DUP2 DUP6 PUSH2 0x1142 JUMP JUMPDEST SWAP4 POP PUSH2 0x1194 DUP2 DUP6 PUSH1 0x20 DUP7 ADD PUSH2 0x1152 JUMP JUMPDEST PUSH2 0x119D DUP2 PUSH2 0x1160 JUMP JUMPDEST DUP5 ADD SWAP2 POP POP SWAP3 SWAP2 POP POP JUMP JUMPDEST PUSH0 PUSH1 0x20 DUP3 ADD SWAP1 POP DUP2 DUP2 SUB PUSH0 DUP4 ADD MSTORE PUSH2 0x11C0 DUP2 DUP5 PUSH2 0x1170 JUMP JUMPDEST SWAP1 POP SWAP3 SWAP2 POP POP JUMP JUMPDEST PUSH0 PUSH1 0x40 MLOAD SWAP1 POP SWAP1 JUMP JUMPDEST PUSH0 PUSH0 REVERT JUMPDEST PUSH0 PUSH0 REVERT JUMPDEST PUSH0 DUP2 SWAP1 POP SWAP2 SWAP1 POP JUMP JUMPDEST PUSH2 0x11EB DUP2 PUSH2 0x11D9 JUMP JUMPDEST DUP2 EQ PUSH2 0x11F5 JUMPI PUSH0 PUSH0 REVERT JUMPDEST POP JUMP JUMPDEST PUSH0 DUP2 CALLDATALOAD SWAP1 POP PUSH2 0x1206 DUP2 PUSH2 0x11E2 JUMP JUMPDEST SWAP3 SWAP2 POP POP JUMP JUMPDEST PUSH0 PUSH1 0x20 DUP3 DUP5 SUB SLT ISZERO PUSH2 0x1221 JUMPI PUSH2 0x1220 PUSH2 0x11D1 JUMP JUMPDEST JUMPDEST PUSH0 PUSH2 0x122E DUP5 DUP3 DUP6 ADD PUSH2 0x11F8 JUMP JUMPDEST SWAP2 POP POP SWAP3 SWAP2 POP POP JUMP JUMPDEST PUSH2 0x1240 DUP2 PUSH2 0x11D9 JUMP JUMPDEST DUP3 MSTORE POP POP JUMP JUMPDEST PUSH0 PUSH20 0xFFFFFFFFFFFFFFFFFFFFFFFFFFFFFFFFFFFFFFFF DUP3 AND SWAP1 POP SWAP2 SWAP1 POP JUMP JUMPDEST PUSH0 PUSH2 0x126F DUP3 PUSH2 0x1246 JUMP JUMPDEST SWAP1 POP SWAP2 SWAP1 POP JUMP JUMPDEST PUSH2 0x127F DUP2 PUSH2 0x1265 JUMP JUMPDEST DUP3 MSTORE POP POP JUMP JUMPDEST PUSH0 PUSH1 0xC0 DUP3 ADD SWAP1 POP DUP2 DUP2 SUB PUSH0 DUP4 ADD MSTORE PUSH2 0x129D DUP2 DUP10 PUSH2 0x1170 JUMP JUMPDEST SWAP1 POP PUSH2 0x12AC PUSH1 0x20 DUP4 ADD DUP9 PUSH2 0x1237 JUMP JUMPDEST PUSH2 0x12B9 PUSH1 0x40 DUP4 ADD DUP8 PUSH2 0x1237 JUMP JUMPDEST PUSH2 0x12C6 PUSH1 0x60 DUP4 ADD DUP7 PUSH2 0x1237 JUMP JUMPDEST PUSH2 0x12D3 PUSH1 0x80 DUP4 ADD DUP6 PUSH2 0x1276 JUMP JUMPDEST DUP2 DUP2 SUB PUSH1 0xA0 DUP4 ADD MSTORE PUSH2 0x12E5 DUP2 DUP5 PUSH2 0x1170 JUMP JUMPDEST SWAP1 POP SWAP8 SWAP7 POP POP POP POP POP POP POP JUMP JUMPDEST PUSH2 0x12FB DUP2 PUSH2 0x1265 JUMP JUMPDEST DUP2 EQ PUSH2 0x1305 JUMPI PUSH0 PUSH0 REVERT JUMPDEST POP JUMP JUMPDEST PUSH0 DUP2 CALLDATALOAD SWAP1 POP PUSH2 0x1316 DUP2 PUSH2 0x12F2 JUMP JUMPDEST SWAP3 SWAP2 POP POP JUMP JUMPDEST PUSH0 PUSH0 PUSH1 0x40 DUP4 DUP6 SUB SLT ISZERO PUSH2 0x1332 JUMPI PUSH2 0x1331 PUSH2 0x11D1 JUMP JUMPDEST JUMPDEST PUSH0 PUSH2 0x133F DUP6 DUP3 DUP7 ADD PUSH2 0x11F8 JUMP JUMPDEST SWAP3 POP POP PUSH1 0x20 PUSH2 0x1350 DUP6 DUP3 DUP7 ADD PUSH2 0x1308 JUMP JUMPDEST SWAP2 POP POP SWAP3 POP SWAP3 SWAP1 POP JUMP JUMPDEST PUSH0 PUSH0 REVERT JUMPDEST PUSH32 0x4E487B7100000000000000000000000000000000000000000000000000000000 PUSH0 MSTORE PUSH1 0x41 PUSH1 0x4 MSTORE PUSH1 0x24 PUSH0 REVERT JUMPDEST PUSH2 0x1394 DUP3 PUSH2 0x1160 JUMP JUMPDEST DUP2 ADD DUP2 DUP2 LT PUSH8 0xFFFFFFFFFFFFFFFF DUP3 GT OR ISZERO PUSH2 0x13B3 JUMPI PUSH2 0x13B2 PUSH2 0x135E JUMP JUMPDEST JUMPDEST DUP1 PUSH1 0x40 MSTORE POP POP POP JUMP JUMPDEST PUSH0 PUSH2 0x13C5 PUSH2 0x11C8 JUMP JUMPDEST SWAP1 POP PUSH2 0x13D1 DUP3 DUP3 PUSH2 0x138B JUMP JUMPDEST SWAP2 SWAP1 POP JUMP JUMPDEST PUSH0 PUSH8 0xFFFFFFFFFFFFFFFF DUP3 GT ISZERO PUSH2 0x13F0 JUMPI PUSH2 0x13EF PUSH2 0x135E JUMP JUMPDEST JUMPDEST PUSH1 0x20 DUP3 MUL SWAP1 POP PUSH1 0x20 DUP2 ADD SWAP1 POP SWAP2 SWAP1 POP JUMP JUMPDEST PUSH0 PUSH0 REVERT JUMPDEST PUSH0 PUSH2 0x1417 PUSH2 0x1412 DUP5 PUSH2 0x13D6 JUMP JUMPDEST PUSH2 0x13BC JUMP JUMPDEST SWAP1 POP DUP1 DUP4 DUP3 MSTORE PUSH1 0x20 DUP3 ADD SWAP1 POP PUSH1 0x20 DUP5 MUL DUP4 ADD DUP6 DUP2 GT ISZERO PUSH2 0x143A JUMPI PUSH2 0x1439 PUSH2 0x1401 JUMP JUMPDEST JUMPDEST DUP4 JUMPDEST DUP2 DUP2 LT ISZERO PUSH2 0x1463 JUMPI DUP1 PUSH2 0x144F DUP9 DUP3 PUSH2 0x11F8 JUMP JUMPDEST DUP5 MSTORE PUSH1 0x20 DUP5 ADD SWAP4 POP POP PUSH1 0x20 DUP2 ADD SWAP1 POP PUSH2 0x143C JUMP JUMPDEST POP POP POP SWAP4 SWAP3 POP POP POP JUMP JUMPDEST PUSH0 DUP3 PUSH1 0x1F DUP4 ADD SLT PUSH2 0x1481 JUMPI PUSH2 0x1480 PUSH2 0x135A JUMP JUMPDEST JUMPDEST DUP2 CALLDATALOAD PUSH2 0x1491 DUP5 DUP3 PUSH1 0x20 DUP7 ADD PUSH2 0x1405 JUMP JUMPDEST SWAP2 POP POP SWAP3 SWAP2 POP POP JUMP JUMPDEST PUSH0 PUSH1 0x20 DUP3 DUP5 SUB SLT ISZERO PUSH2 0x14AF JUMPI PUSH2 0x14AE PUSH2 0x11D1 JUMP JUMPDEST JUMPDEST PUSH0 DUP3 ADD CALLDATALOAD PUSH8 0xFFFFFFFFFFFFFFFF DUP2 GT ISZERO PUSH2 0x14CC JUMPI PUSH2 0x14CB PUSH2 0x11D5 JUMP JUMPDEST JUMPDEST PUSH2 0x14D8 DUP5 DUP3 DUP6 ADD PUSH2 0x146D JUMP JUMPDEST SWAP2 POP POP SWAP3 SWAP2 POP POP JUMP JUMPDEST PUSH0 DUP2 ISZERO ISZERO SWAP1 POP SWAP2 SWAP1 POP JUMP JUMPDEST PUSH2 0x14F5 DUP2 PUSH2 0x14E1 JUMP JUMPDEST DUP3 MSTORE POP POP JUMP JUMPDEST PUSH0 PUSH1 0x20 DUP3 ADD SWAP1 POP PUSH2 0x150E PUSH0 DUP4 ADD DUP5 PUSH2 0x14EC JUMP JUMPDEST SWAP3 SWAP2 POP POP JUMP JUMPDEST PUSH0 PUSH1 0x20 DUP3 ADD SWAP1 POP PUSH2 0x1527 PUSH0 DUP4 ADD DUP5 PUSH2 0x1237 JUMP JUMPDEST SWAP3 SWAP2 POP POP JUMP JUMPDEST PUSH0 PUSH0 REVERT JUMPDEST PUSH0 PUSH8 0xFFFFFFFFFFFFFFFF DUP3 GT ISZERO PUSH2 0x154B JUMPI PUSH2 0x154A PUSH2 0x135E JUMP JUMPDEST JUMPDEST PUSH2 0x1554 DUP3 PUSH2 0x1160 JUMP JUMPDEST SWAP1 POP PUSH1 0x20 DUP2 ADD SWAP1 POP SWAP2 SWAP1 POP JUMP JUMPDEST DUP3 DUP2 DUP4 CALLDATACOPY PUSH0 DUP4 DUP4 ADD MSTORE POP POP POP JUMP JUMPDEST PUSH0 PUSH2 0x1581 PUSH2 0x157C DUP5 PUSH2 0x1531 JUMP JUMPDEST PUSH2 0x13BC JUMP JUMPDEST SWAP1 POP DUP3 DUP2 MSTORE PUSH1 0x20 DUP2 ADD DUP5 DUP5 DUP5 ADD GT ISZERO PUSH2 0x159D JUMPI PUSH2 0x159C PUSH2 0x152D JUMP JUMPDEST JUMPDEST PUSH2 0x15A8 DUP5 DUP3 DUP6 PUSH2 0x1561 JUMP JUMPDEST POP SWAP4 SWAP3 POP POP POP JUMP JUMPDEST PUSH0 DUP3 PUSH1 0x1F DUP4 ADD SLT PUSH2 0x15C4 JUMPI PUSH2 0x15C3 PUSH2 0x135A JUMP JUMPDEST JUMPDEST DUP2 CALLDATALOAD PUSH2 0x15D4 DUP5 DUP3 PUSH1 0x20 DUP7 ADD PUSH2 0x156F JUMP JUMPDEST SWAP2 POP POP SWAP3 SWAP2 POP POP JUMP JUMPDEST PUSH0 PUSH0 PUSH0 PUSH0 PUSH0 PUSH0 PUSH1 0xC0 DUP8 DUP10 SUB SLT ISZERO PUSH2 0x15F7 JUMPI PUSH2 0x15F6 PUSH2 0x11D1 JUMP JUMPDEST JUMPDEST PUSH0 DUP8 ADD CALLDATALOAD PUSH8 0xFFFFFFFFFFFFFFFF DUP2 GT ISZERO PUSH2 0x1614 JUMPI PUSH2 0x1613 PUSH2 0x11D5 JUMP JUMPDEST JUMPDEST PUSH2 0x1620 DUP10 DUP3 DUP11 ADD PUSH2 0x15B0 JUMP JUMPDEST SWAP7 POP POP PUSH1 0x20 PUSH2 0x1631 DUP10 DUP3 DUP11 ADD PUSH2 0x11F8 JUMP JUMPDEST SWAP6 POP POP PUSH1 0x40 PUSH2 0x1642 DUP10 DUP3 DUP11 ADD PUSH2 0x11F8 JUMP JUMPDEST SWAP5 POP POP PUSH1 0x60 PUSH2 0x1653 DUP10 DUP3 DUP11 ADD PUSH2 0x1308 JUMP JUMPDEST SWAP4 POP POP PUSH1 0x80 DUP8 ADD CALLDATALOAD PUSH8 0xFFFFFFFFFFFFFFFF DUP2 GT ISZERO PUSH2 0x1674 JUMPI PUSH2 0x1673 PUSH2 0x11D5 JUMP JUMPDEST JUMPDEST PUSH2 0x1680 DUP10 DUP3 DUP11 ADD PUSH2 0x15B0 JUMP JUMPDEST SWAP3 POP POP PUSH1 0xA0 PUSH2 0x1691 DUP10 DUP3 DUP11 ADD PUSH2 0x11F8 JUMP JUMPDEST SWAP2 POP POP SWAP3 SWAP6 POP SWAP3 SWAP6 POP SWAP3 SWAP6 JUMP JUMPDEST PUSH0 PUSH1 0x20 DUP3 ADD SWAP1 POP PUSH2 0x16B1 PUSH0 DUP4 ADD DUP5 PUSH2 0x1276 JUMP JUMPDEST SWAP3 SWAP2 POP POP JUMP JUMPDEST PUSH0 PUSH1 0xA0 DUP3 ADD SWAP1 POP DUP2 DUP2 SUB PUSH0 DUP4 ADD MSTORE PUSH2 0x16CF DUP2 DUP9 PUSH2 0x1170 JUMP JUMPDEST SWAP1 POP PUSH2 0x16DE PUSH1 0x20 DUP4 ADD DUP8 PUSH2 0x1237 JUMP JUMPDEST PUSH2 0x16EB PUSH1 0x40 DUP4 ADD DUP7 PUSH2 0x1237 JUMP JUMPDEST PUSH2 0x16F8 PUSH1 0x60 DUP4 ADD DUP6 PUSH2 0x1237 JUMP JUMPDEST PUSH2 0x1705 PUSH1 0x80 DUP4 ADD DUP5 PUSH2 0x1276 JUMP JUMPDEST SWAP7 SWAP6 POP POP POP POP POP POP JUMP JUMPDEST PUSH0 PUSH0 PUSH1 0x40 DUP4 DUP6 SUB SLT ISZERO PUSH2 0x1725 JUMPI PUSH2 0x1724 PUSH2 0x11D1 JUMP JUMPDEST JUMPDEST PUSH0 DUP4 ADD CALLDATALOAD PUSH8 0xFFFFFFFFFFFFFFFF DUP2 GT ISZERO PUSH2 0x1742 JUMPI PUSH2 0x1741 PUSH2 0x11D5 JUMP JUMPDEST JUMPDEST PUSH2 0x174E DUP6 DUP3 DUP7 ADD PUSH2 0x15B0 JUMP JUMPDEST SWAP3 POP POP PUSH1 0x20 PUSH2 0x175F DUP6 DUP3 DUP7 ADD PUSH2 0x11F8 JUMP JUMPDEST SWAP2 POP POP SWAP3 POP SWAP3 SWAP1 POP JUMP JUMPDEST PUSH0 PUSH0 PUSH1 0x40 DUP4 DUP6 SUB SLT ISZERO PUSH2 0x177F JUMPI PUSH2 0x177E PUSH2 0x11D1 JUMP JUMPDEST JUMPDEST PUSH0 DUP4 ADD CALLDATALOAD PUSH8 0xFFFFFFFFFFFFFFFF DUP2 GT ISZERO PUSH2 0x179C JUMPI PUSH2 0x179B PUSH2 0x11D5 JUMP JUMPDEST JUMPDEST PUSH2 0x17A8 DUP6 DUP3 DUP7 ADD PUSH2 0x146D JUMP JUMPDEST SWAP3 POP POP PUSH1 0x20 DUP4 ADD CALLDATALOAD PUSH8 0xFFFFFFFFFFFFFFFF DUP2 GT ISZERO PUSH2 0x17C9 JUMPI PUSH2 0x17C8 PUSH2 0x11D5 JUMP JUMPDEST JUMPDEST PUSH2 0x17D5 DUP6 DUP3 DUP7 ADD PUSH2 0x146D JUMP JUMPDEST SWAP2 POP POP SWAP3 POP SWAP3 SWAP1 POP JUMP JUMPDEST PUSH0 PUSH1 0x20 DUP3 DUP5 SUB SLT ISZERO PUSH2 0x17F4 JUMPI PUSH2 0x17F3 PUSH2 0x11D1 JUMP JUMPDEST JUMPDEST PUSH0 PUSH2 0x1801 DUP5 DUP3 DUP6 ADD PUSH2 0x1308 JUMP JUMPDEST SWAP2 POP POP SWAP3 SWAP2 POP POP JUMP JUMPDEST PUSH32 0x4E487B7100000000000000000000000000000000000000000000000000000000 PUSH0 MSTORE PUSH1 0x22 PUSH1 0x4 MSTORE PUSH1 0x24 PUSH0 REVERT JUMPDEST PUSH0 PUSH1 0x2 DUP3 DIV SWAP1 POP PUSH1 0x1 DUP3 AND DUP1 PUSH2 0x184E JUMPI PUSH1 0x7F DUP3 AND SWAP2 POP JUMPDEST PUSH1 0x20 DUP3 LT DUP2 SUB PUSH2 0x1861 JUMPI PUSH2 0x1860 PUSH2 0x180A JUMP JUMPDEST JUMPDEST POP SWAP2 SWAP1 POP JUMP JUMPDEST PUSH32 0x4E487B7100000000000000000000000000000000000000000000000000000000 PUSH0 MSTORE PUSH1 0x32 PUSH1 0x4 MSTORE PUSH1 0x24 PUSH0 REVERT JUMPDEST PUSH32 0x50424D3A20496E76616C696420746F6B656E0000000000000000000000000000 PUSH0 DUP3 ADD MSTORE POP JUMP JUMPDEST PUSH0 PUSH2 0x18C8 PUSH1 0x12 DUP4 PUSH2 0x1142 JUMP JUMPDEST SWAP2 POP PUSH2 0x18D3 DUP3 PUSH2 0x1894 JUMP JUMPDEST PUSH1 0x20 DUP3 ADD SWAP1 POP SWAP2 SWAP1 POP JUMP JUMPDEST PUSH0 PUSH1 0x20 DUP3 ADD SWAP1 POP DUP2 DUP2 SUB PUSH0 DUP4 ADD MSTORE PUSH2 0x18F5 DUP2 PUSH2 0x18BC JUMP JUMPDEST SWAP1 POP SWAP2 SWAP1 POP JUMP JUMPDEST PUSH32 0x50424D3A20546F6B656E206E6F74206578706972656400000000000000000000 PUSH0 DUP3 ADD MSTORE POP JUMP JUMPDEST PUSH0 PUSH2 0x1930 PUSH1 0x16 DUP4 PUSH2 0x1142 JUMP JUMPDEST SWAP2 POP PUSH2 0x193B DUP3 PUSH2 0x18FC JUMP JUMPDEST PUSH1 0x20 DUP3 ADD SWAP1 POP SWAP2 SWAP1 POP JUMP JUMPDEST PUSH0 PUSH1 0x20 DUP3 ADD SWAP1 POP DUP2 DUP2 SUB PUSH0 DUP4 ADD MSTORE PUSH2 0x195D DUP2 PUSH2 0x1924 JUMP JUMPDEST SWAP1 POP SWAP2 SWAP1 POP JUMP JUMPDEST PUSH32 0x50424D3A204E6F742063726561746F7200000000000000000000000000000000 PUSH0 DUP3 ADD MSTORE POP JUMP JUMPDEST PUSH0 PUSH2 0x1998 PUSH1 0x10 DUP4 PUSH2 0x1142 JUMP JUMPDEST SWAP2 POP PUSH2 0x19A3 DUP3 PUSH2 0x1964 JUMP JUMPDEST PUSH1 0x20 DUP3 ADD SWAP1 POP SWAP2 SWAP1 POP JUMP JUMPDEST PUSH0 PUSH1 0x20 DUP3 ADD SWAP1 POP DUP2 DUP2 SUB PUSH0 DUP4 ADD MSTORE PUSH2 0x19C5 DUP2 PUSH2 0x198C JUMP JUMPDEST SWAP1 POP SWAP2 SWAP1 POP JUMP JUMPDEST PUSH32 0x496E76616C696420746F6B656E206578706972792D3100000000000000000000 PUSH0 DUP3 ADD MSTORE POP JUMP JUMPDEST PUSH0 PUSH2 0x1A00 PUSH1 0x16 DUP4 PUSH2 0x1142 JUMP JUMPDEST SWAP2 POP PUSH2 0x1A0B DUP3 PUSH2 0x19CC JUMP JUMPDEST PUSH1 0x20 DUP3 ADD SWAP1 POP SWAP2 SWAP1 POP JUMP JUMPDEST PUSH0 PUSH1 0x20 DUP3 ADD SWAP1 POP DUP2 DUP2 SUB PUSH0 DUP4 ADD MSTORE PUSH2 0x1A2D DUP2 PUSH2 0x19F4 JUMP JUMPDEST SWAP1 POP SWAP2 SWAP1 POP JUMP JUMPDEST PUSH32 0x496E76616C696420746F6B656E206578706972792D3200000000000000000000 PUSH0 DUP3 ADD MSTORE POP JUMP JUMPDEST PUSH0 PUSH2 0x1A68 PUSH1 0x16 DUP4 PUSH2 0x1142 JUMP JUMPDEST SWAP2 POP PUSH2 0x1A73 DUP3 PUSH2 0x1A34 JUMP JUMPDEST PUSH1 0x20 DUP3 ADD SWAP1 POP SWAP2 SWAP1 POP JUMP JUMPDEST PUSH0 PUSH1 0x20 DUP3 ADD SWAP1 POP DUP2 DUP2 SUB PUSH0 DUP4 ADD MSTORE PUSH2 0x1A95 DUP2 PUSH2 0x1A5C JUMP JUMPDEST SWAP1 POP SWAP2 SWAP1 POP JUMP JUMPDEST PUSH32 0x53706F7420616D6F756E74206973203000000000000000000000000000000000 PUSH0 DUP3 ADD MSTORE POP JUMP JUMPDEST PUSH0 PUSH2 0x1AD0 PUSH1 0x10 DUP4 PUSH2 0x1142 JUMP JUMPDEST SWAP2 POP PUSH2 0x1ADB DUP3 PUSH2 0x1A9C JUMP JUMPDEST PUSH1 0x20 DUP3 ADD SWAP1 POP SWAP2 SWAP1 POP JUMP JUMPDEST PUSH0 PUSH1 0x20 DUP3 ADD SWAP1 POP DUP2 DUP2 SUB PUSH0 DUP4 ADD MSTORE PUSH2 0x1AFD DUP2 PUSH2 0x1AC4 JUMP JUMPDEST SWAP1 POP SWAP2 SWAP1 POP JUMP JUMPDEST PUSH0 DUP2 SWAP1 POP DUP2 PUSH0 MSTORE PUSH1 0x20 PUSH0 KECCAK256 SWAP1 POP SWAP2 SWAP1 POP JUMP JUMPDEST PUSH0 PUSH1 0x20 PUSH1 0x1F DUP4 ADD DIV SWAP1 POP SWAP2 SWAP1 POP JUMP JUMPDEST PUSH0 DUP3 DUP3 SHL SWAP1 POP SWAP3 SWAP2 POP POP JUMP JUMPDEST PUSH0 PUSH1 0x8 DUP4 MUL PUSH2 0x1B60 PUSH32 0xFFFFFFFFFFFFFFFFFFFFFFFFFFFFFFFFFFFFFFFFFFFFFFFFFFFFFFFFFFFFFFFF DUP3 PUSH2 0x1B25 JUMP JUMPDEST PUSH2 0x1B6A DUP7 DUP4 PUSH2 0x1B25 JUMP JUMPDEST SWAP6 POP DUP1 NOT DUP5 AND SWAP4 POP DUP1 DUP7 AND DUP5 OR SWAP3 POP POP POP SWAP4 SWAP3 POP POP POP JUMP JUMPDEST PUSH0 DUP2 SWAP1 POP SWAP2 SWAP1 POP JUMP JUMPDEST PUSH0 PUSH2 0x1BA5 PUSH2 0x1BA0 PUSH2 0x1B9B DUP5 PUSH2 0x11D9 JUMP JUMPDEST PUSH2 0x1B82 JUMP JUMPDEST PUSH2 0x11D9 JUMP JUMPDEST SWAP1 POP SWAP2 SWAP1 POP JUMP JUMPDEST PUSH0 DUP2 SWAP1 POP SWAP2 SWAP1 POP JUMP JUMPDEST PUSH2 0x1BBE DUP4 PUSH2 0x1B8B JUMP JUMPDEST PUSH2 0x1BD2 PUSH2 0x1BCA DUP3 PUSH2 0x1BAC JUMP JUMPDEST DUP5 DUP5 SLOAD PUSH2 0x1B31 JUMP JUMPDEST DUP3 SSTORE POP POP POP POP JUMP JUMPDEST PUSH0 PUSH0 SWAP1 POP SWAP1 JUMP JUMPDEST PUSH2 0x1BE9 PUSH2 0x1BDA JUMP JUMPDEST PUSH2 0x1BF4 DUP2 DUP5 DUP5 PUSH2 0x1BB5 JUMP JUMPDEST POP POP POP JUMP JUMPDEST JUMPDEST DUP2 DUP2 LT ISZERO PUSH2 0x1C17 JUMPI PUSH2 0x1C0C PUSH0 DUP3 PUSH2 0x1BE1 JUMP JUMPDEST PUSH1 0x1 DUP2 ADD SWAP1 POP PUSH2 0x1BFA JUMP JUMPDEST POP POP JUMP JUMPDEST PUSH1 0x1F DUP3 GT ISZERO PUSH2 0x1C5C JUMPI PUSH2 0x1C2D DUP2 PUSH2 0x1B04 JUMP JUMPDEST PUSH2 0x1C36 DUP5 PUSH2 0x1B16 JUMP JUMPDEST DUP2 ADD PUSH1 0x20 DUP6 LT ISZERO PUSH2 0x1C45 JUMPI DUP2 SWAP1 POP JUMPDEST PUSH2 0x1C59 PUSH2 0x1C51 DUP6 PUSH2 0x1B16 JUMP JUMPDEST DUP4 ADD DUP3 PUSH2 0x1BF9 JUMP JUMPDEST POP POP JUMPDEST POP POP POP JUMP JUMPDEST PUSH0 DUP3 DUP3 SHR SWAP1 POP SWAP3 SWAP2 POP POP JUMP JUMPDEST PUSH0 PUSH2 0x1C7C PUSH0 NOT DUP5 PUSH1 0x8 MUL PUSH2 0x1C61 JUMP JUMPDEST NOT DUP1 DUP4 AND SWAP2 POP POP SWAP3 SWAP2 POP POP JUMP JUMPDEST PUSH0 PUSH2 0x1C94 DUP4 DUP4 PUSH2 0x1C6D JUMP JUMPDEST SWAP2 POP DUP3 PUSH1 0x2 MUL DUP3 OR SWAP1 POP SWAP3 SWAP2 POP POP JUMP JUMPDEST PUSH2 0x1CAD DUP3 PUSH2 0x1138 JUMP JUMPDEST PUSH8 0xFFFFFFFFFFFFFFFF DUP2 GT ISZERO PUSH2 0x1CC6 JUMPI PUSH2 0x1CC5 PUSH2 0x135E JUMP JUMPDEST JUMPDEST PUSH2 0x1CD0 DUP3 SLOAD PUSH2 0x1837 JUMP JUMPDEST PUSH2 0x1CDB DUP3 DUP3 DUP6 PUSH2 0x1C1B JUMP JUMPDEST PUSH0 PUSH1 0x20 SWAP1 POP PUSH1 0x1F DUP4 GT PUSH1 0x1 DUP2 EQ PUSH2 0x1D0C JUMPI PUSH0 DUP5 ISZERO PUSH2 0x1CFA JUMPI DUP3 DUP8 ADD MLOAD SWAP1 POP JUMPDEST PUSH2 0x1D04 DUP6 DUP3 PUSH2 0x1C89 JUMP JUMPDEST DUP7 SSTORE POP PUSH2 0x1D6B JUMP JUMPDEST PUSH1 0x1F NOT DUP5 AND PUSH2 0x1D1A DUP7 PUSH2 0x1B04 JUMP JUMPDEST PUSH0 JUMPDEST DUP3 DUP2 LT ISZERO PUSH2 0x1D41 JUMPI DUP5 DUP10 ADD MLOAD DUP3 SSTORE PUSH1 0x1 DUP3 ADD SWAP2 POP PUSH1 0x20 DUP6 ADD SWAP5 POP PUSH1 0x20 DUP2 ADD SWAP1 POP PUSH2 0x1D1C JUMP JUMPDEST DUP7 DUP4 LT ISZERO PUSH2 0x1D5E JUMPI DUP5 DUP10 ADD MLOAD PUSH2 0x1D5A PUSH1 0x1F DUP10 AND DUP3 PUSH2 0x1C6D JUMP JUMPDEST DUP4 SSTORE POP JUMPDEST PUSH1 0x1 PUSH1 0x2 DUP9 MUL ADD DUP9 SSTORE POP POP POP JUMPDEST POP POP POP POP POP POP JUMP JUMPDEST PUSH32 0x4E487B7100000000000000000000000000000000000000000000000000000000 PUSH0 MSTORE PUSH1 0x11 PUSH1 0x4 MSTORE PUSH1 0x24 PUSH0 REVERT JUMPDEST PUSH0 PUSH2 0x1DAA DUP3 PUSH2 0x11D9 JUMP JUMPDEST SWAP2 POP PUSH2 0x1DB5 DUP4 PUSH2 0x11D9 JUMP JUMPDEST SWAP3 POP DUP3 DUP3 ADD SWAP1 POP DUP1 DUP3 GT ISZERO PUSH2 0x1DCD JUMPI PUSH2 0x1DCC PUSH2 0x1D73 JUMP JUMPDEST JUMPDEST SWAP3 SWAP2 POP POP JUMP JUMPDEST PUSH0 PUSH2 0x1DDD DUP3 PUSH2 0x11D9 JUMP JUMPDEST SWAP2 POP PUSH2 0x1DE8 DUP4 PUSH2 0x11D9 JUMP JUMPDEST SWAP3 POP DUP3 DUP3 MUL PUSH2 0x1DF6 DUP2 PUSH2 0x11D9 JUMP JUMPDEST SWAP2 POP DUP3 DUP3 DIV DUP5 EQ DUP4 ISZERO OR PUSH2 0x1E0D JUMPI PUSH2 0x1E0C PUSH2 0x1D73 JUMP JUMPDEST JUMPDEST POP SWAP3 SWAP2 POP POP JUMP JUMPDEST PUSH0 DUP2 SWAP1 POP SWAP3 SWAP2 POP POP JUMP JUMPDEST PUSH0 PUSH2 0x1E28 DUP3 PUSH2 0x1138 JUMP JUMPDEST PUSH2 0x1E32 DUP2 DUP6 PUSH2 0x1E14 JUMP JUMPDEST SWAP4 POP PUSH2 0x1E42 DUP2 DUP6 PUSH1 0x20 DUP7 ADD PUSH2 0x1152 JUMP JUMPDEST DUP1 DUP5 ADD SWAP2 POP POP SWAP3 SWAP2 POP POP JUMP JUMPDEST PUSH0 PUSH2 0x1E59 DUP3 DUP5 PUSH2 0x1E1E JUMP JUMPDEST SWAP2 POP DUP2 SWAP1 POP SWAP3 SWAP2 POP POP JUMP JUMPDEST PUSH0 DUP2 SLOAD PUSH2 0x1E70 DUP2 PUSH2 0x1837 JUMP JUMPDEST PUSH2 0x1E7A DUP2 DUP7 PUSH2 0x1E14 JUMP JUMPDEST SWAP5 POP PUSH1 0x1 DUP3 AND PUSH0 DUP2 EQ PUSH2 0x1E94 JUMPI PUSH1 0x1 DUP2 EQ PUSH2 0x1EA9 JUMPI PUSH2 0x1EDB JUMP JUMPDEST PUSH1 0xFF NOT DUP4 AND DUP7 MSTORE DUP2 ISZERO ISZERO DUP3 MUL DUP7 ADD SWAP4 POP PUSH2 0x1EDB JUMP JUMPDEST PUSH2 0x1EB2 DUP6 PUSH2 0x1B04 JUMP JUMPDEST PUSH0 JUMPDEST DUP4 DUP2 LT ISZERO PUSH2 0x1ED3 JUMPI DUP2 SLOAD DUP2 DUP10 ADD MSTORE PUSH1 0x1 DUP3 ADD SWAP2 POP PUSH1 0x20 DUP2 ADD SWAP1 POP PUSH2 0x1EB4 JUMP JUMPDEST DUP4 DUP9 ADD SWAP6 POP POP POP JUMPDEST POP POP POP SWAP3 SWAP2 POP POP JUMP JUMPDEST PUSH0 PUSH2 0x1EEF DUP3 DUP5 PUSH2 0x1E64 JUMP JUMPDEST SWAP2 POP DUP2 SWAP1 POP SWAP3 SWAP2 POP POP JUMP JUMPDEST PUSH32 0x4172726179206C656E677468206D69736D617463680000000000000000000000 PUSH0 DUP3 ADD MSTORE POP JUMP JUMPDEST PUSH0 PUSH2 0x1F2E PUSH1 0x15 DUP4 PUSH2 0x1142 JUMP JUMPDEST SWAP2 POP PUSH2 0x1F39 DUP3 PUSH2 0x1EFA JUMP JUMPDEST PUSH1 0x20 DUP3 ADD SWAP1 POP SWAP2 SWAP1 POP JUMP JUMPDEST PUSH0 PUSH1 0x20 DUP3 ADD SWAP1 POP DUP2 DUP2 SUB PUSH0 DUP4 ADD MSTORE PUSH2 0x1F5B DUP2 PUSH2 0x1F22 JUMP JUMPDEST SWAP1 POP SWAP2 SWAP1 POP JUMP JUMPDEST PUSH0 PUSH2 0x1F6C DUP3 PUSH2 0x11D9 JUMP JUMPDEST SWAP2 POP PUSH2 0x1F77 DUP4 PUSH2 0x11D9 JUMP JUMPDEST SWAP3 POP DUP3 DUP3 SUB SWAP1 POP DUP2 DUP2 GT ISZERO PUSH2 0x1F8F JUMPI PUSH2 0x1F8E PUSH2 0x1D73 JUMP JUMPDEST JUMPDEST SWAP3 SWAP2 POP POP JUMP INVALID LOG2 PUSH5 0x6970667358 0x22 SLT KECCAK256 DIV 0xDF 0xED MSTORE8 0xC6 DUP6 0x24 SWAP5 EXTSTATICCALL GAS JUMPF 0x1931 DUP2 0x29 0xCC 0xDE 0xD5 RJUMPI 0x2BCA MLOAD NUMBER 0xB0 CODECOPY PC KECCAK256 0xFC PUSH13 0xFB029B64736F6C634300081E00 CALLER "
				},
				"gasEstimates": {
					"creation": {
						"codeDepositCost": "1627800",
						"executionCost": "infinite",
						"totalCost": "infinite"
					},
					"external": {
						"URIPostExpiry()": "infinite",
						"areTokensValid(uint256[])": "infinite",
						"createTokenType(string,uint256,uint256,address,string,uint256)": "infinite",
						"decreaseBalanceSupply(uint256[],uint256[])": "infinite",
						"getPBMRevokeValue(uint256)": "infinite",
						"getTokenDetails(uint256)": "infinite",
						"getTokenIdByTypeName(string,uint256)": "infinite",
						"getTokenValue(uint256)": "infinite",
						"increaseBalanceSupply(uint256[],uint256[])": "infinite",
						"owner()": "2537",
						"renounceOwnership()": "infinite",
						"revokePBM(uint256,address)": "infinite",
						"tokenTypeCount()": "2470",
						"tokenTypes(uint256)": "infinite",
						"transferOwnership(address)": "infinite",
						"uri(uint256)": "infinite"
					}
				},
				"methodIdentifiers": {
					"URIPostExpiry()": "03b5a3d3",
					"areTokensValid(uint256[])": "48fd09f5",
					"createTokenType(string,uint256,uint256,address,string,uint256)": "80d69c8a",
					"decreaseBalanceSupply(uint256[],uint256[])": "e21c8b59",
					"getPBMRevokeValue(uint256)": "d20874d8",
					"getTokenDetails(uint256)": "c1e03728",
					"getTokenIdByTypeName(string,uint256)": "db84d995",
					"getTokenValue(uint256)": "d10424c7",
					"increaseBalanceSupply(uint256[],uint256[])": "f600d9f4",
					"owner()": "8da5cb5b",
					"renounceOwnership()": "715018a6",
					"revokePBM(uint256,address)": "36a3409c",
					"tokenTypeCount()": "71185897",
					"tokenTypes(uint256)": "33f6832a",
					"transferOwnership(address)": "f2fde38b",
					"uri(uint256)": "0e89341c"
				}
			},
			"storageLayout": {
				"storage": [
					{
						"astId": 8,
						"contract": "contracts/PBMTokenManager.sol:PBMTokenManager",
						"label": "_owner",
						"offset": 0,
						"slot": "0",
						"type": "t_address"
					},
					{
						"astId": 290,
						"contract": "contracts/PBMTokenManager.sol:PBMTokenManager",
						"label": "tokenTypeCount",
						"offset": 0,
						"slot": "1",
						"type": "t_uint256"
					},
					{
						"astId": 292,
						"contract": "contracts/PBMTokenManager.sol:PBMTokenManager",
						"label": "URIPostExpiry",
						"offset": 0,
						"slot": "2",
						"type": "t_string_storage"
					},
					{
						"astId": 297,
						"contract": "contracts/PBMTokenManager.sol:PBMTokenManager",
						"label": "tokenTypes",
						"offset": 0,
						"slot": "3",
						"type": "t_mapping(t_uint256,t_struct(TokenConfig)192_storage)"
					}
				],
				"types": {
					"t_address": {
						"encoding": "inplace",
						"label": "address",
						"numberOfBytes": "20"
					},
					"t_mapping(t_uint256,t_struct(TokenConfig)192_storage)": {
						"encoding": "mapping",
						"key": "t_uint256",
						"label": "mapping(uint256 => struct IPBMTokenManager.TokenConfig)",
						"numberOfBytes": "32",
						"value": "t_struct(TokenConfig)192_storage"
					},
					"t_string_storage": {
						"encoding": "bytes",
						"label": "string",
						"numberOfBytes": "32"
					},
					"t_struct(TokenConfig)192_storage": {
						"encoding": "inplace",
						"label": "struct IPBMTokenManager.TokenConfig",
						"members": [
							{
								"astId": 181,
								"contract": "contracts/PBMTokenManager.sol:PBMTokenManager",
								"label": "name",
								"offset": 0,
								"slot": "0",
								"type": "t_string_storage"
							},
							{
								"astId": 183,
								"contract": "contracts/PBMTokenManager.sol:PBMTokenManager",
								"label": "amount",
								"offset": 0,
								"slot": "1",
								"type": "t_uint256"
							},
							{
								"astId": 185,
								"contract": "contracts/PBMTokenManager.sol:PBMTokenManager",
								"label": "balanceSupply",
								"offset": 0,
								"slot": "2",
								"type": "t_uint256"
							},
							{
								"astId": 187,
								"contract": "contracts/PBMTokenManager.sol:PBMTokenManager",
								"label": "expiry",
								"offset": 0,
								"slot": "3",
								"type": "t_uint256"
							},
							{
								"astId": 189,
								"contract": "contracts/PBMTokenManager.sol:PBMTokenManager",
								"label": "creator",
								"offset": 0,
								"slot": "4",
								"type": "t_address"
							},
							{
								"astId": 191,
								"contract": "contracts/PBMTokenManager.sol:PBMTokenManager",
								"label": "uri",
								"offset": 0,
								"slot": "5",
								"type": "t_string_storage"
							}
						],
						"numberOfBytes": "192"
					},
					"t_uint256": {
						"encoding": "inplace",
						"label": "uint256",
						"numberOfBytes": "32"
					}
				}
			},
			"userdoc": {
				"kind": "user",
				"methods": {},
				"version": 1
			}
		}
	}
}