{
	"contracts/PBMTokenManager.sol": {
		"PBMTokenManager": {
			"abi": [
				{
					"inputs": [
						{
							"internalType": "string",
							"name": "_uriPostExpiry",
							"type": "string"
						}
					],
					"stateMutability": "nonpayable",
					"type": "constructor"
				},
				{
					"inputs": [
						{
							"internalType": "address",
							"name": "owner",
							"type": "address"
						}
					],
					"name": "OwnableInvalidOwner",
					"type": "error"
				},
				{
					"inputs": [
						{
							"internalType": "address",
							"name": "account",
							"type": "address"
						}
					],
					"name": "OwnableUnauthorizedAccount",
					"type": "error"
				},
				{
					"anonymous": false,
					"inputs": [
						{
							"indexed": true,
							"internalType": "uint256",
							"name": "tokenId",
							"type": "uint256"
						},
						{
							"indexed": false,
							"internalType": "string",
							"name": "tokenName",
							"type": "string"
						},
						{
							"indexed": false,
							"internalType": "uint256",
							"name": "spotAmount",
							"type": "uint256"
						},
						{
							"indexed": false,
							"internalType": "uint256",
							"name": "tokenExpiry",
							"type": "uint256"
						},
						{
							"indexed": false,
							"internalType": "address",
							"name": "creator",
							"type": "address"
						}
					],
					"name": "NewPBMTypeCreated",
					"type": "event"
				},
				{
					"anonymous": false,
					"inputs": [
						{
							"indexed": true,
							"internalType": "address",
							"name": "previousOwner",
							"type": "address"
						},
						{
							"indexed": true,
							"internalType": "address",
							"name": "newOwner",
							"type": "address"
						}
					],
					"name": "OwnershipTransferred",
					"type": "event"
				},
				{
					"anonymous": false,
					"inputs": [
						{
							"indexed": true,
							"internalType": "uint256",
							"name": "tokenId",
							"type": "uint256"
						},
						{
							"indexed": false,
							"internalType": "address",
							"name": "sender",
							"type": "address"
						}
					],
					"name": "PBMRevoked",
					"type": "event"
				},
				{
					"inputs": [],
					"name": "URIPostExpiry",
					"outputs": [
						{
							"internalType": "string",
							"name": "",
							"type": "string"
						}
					],
					"stateMutability": "view",
					"type": "function"
				},
				{
					"inputs": [
						{
							"internalType": "uint256[]",
							"name": "tokenIds",
							"type": "uint256[]"
						}
					],
					"name": "areTokensValid",
					"outputs": [
						{
							"internalType": "bool",
							"name": "",
							"type": "bool"
						}
					],
					"stateMutability": "view",
					"type": "function"
				},
				{
					"inputs": [
						{
							"internalType": "string",
							"name": "tokenName",
							"type": "string"
						},
						{
							"internalType": "uint256",
							"name": "spotAmount",
							"type": "uint256"
						},
						{
							"internalType": "uint256",
							"name": "tokenExpiry",
							"type": "uint256"
						},
						{
							"internalType": "address",
							"name": "creator",
							"type": "address"
						},
						{
							"internalType": "string",
							"name": "tokenURI",
							"type": "string"
						},
						{
							"internalType": "uint256",
							"name": "contractExpiry",
							"type": "uint256"
						}
					],
					"name": "createTokenType",
					"outputs": [
						{
							"internalType": "uint256",
							"name": "tokenId",
							"type": "uint256"
						}
					],
					"stateMutability": "nonpayable",
					"type": "function"
				},
				{
					"inputs": [
						{
							"internalType": "uint256[]",
							"name": "tokenIds",
							"type": "uint256[]"
						},
						{
							"internalType": "uint256[]",
							"name": "amounts",
							"type": "uint256[]"
						}
					],
					"name": "decreaseBalanceSupply",
					"outputs": [],
					"stateMutability": "nonpayable",
					"type": "function"
				},
				{
					"inputs": [
						{
							"internalType": "uint256",
							"name": "tokenId",
							"type": "uint256"
						}
					],
					"name": "getPBMRevokeValue",
					"outputs": [
						{
							"internalType": "uint256",
							"name": "",
							"type": "uint256"
						}
					],
					"stateMutability": "view",
					"type": "function"
				},
				{
					"inputs": [
						{
							"internalType": "uint256",
							"name": "tokenId",
							"type": "uint256"
						}
					],
					"name": "getTokenDetails",
					"outputs": [
						{
							"internalType": "string",
							"name": "",
							"type": "string"
						},
						{
							"internalType": "uint256",
							"name": "",
							"type": "uint256"
						},
						{
							"internalType": "uint256",
							"name": "",
							"type": "uint256"
						},
						{
							"internalType": "uint256",
							"name": "",
							"type": "uint256"
						},
						{
							"internalType": "address",
							"name": "",
							"type": "address"
						}
					],
					"stateMutability": "view",
					"type": "function"
				},
				{
					"inputs": [
						{
							"internalType": "uint256",
							"name": "tokenId",
							"type": "uint256"
						}
					],
					"name": "getTokenValue",
					"outputs": [
						{
							"internalType": "uint256",
							"name": "",
							"type": "uint256"
						}
					],
					"stateMutability": "view",
					"type": "function"
				},
				{
					"inputs": [
						{
							"internalType": "uint256[]",
							"name": "tokenIds",
							"type": "uint256[]"
						},
						{
							"internalType": "uint256[]",
							"name": "amounts",
							"type": "uint256[]"
						}
					],
					"name": "increaseBalanceSupply",
					"outputs": [],
					"stateMutability": "nonpayable",
					"type": "function"
				},
				{
					"inputs": [],
					"name": "owner",
					"outputs": [
						{
							"internalType": "address",
							"name": "",
							"type": "address"
						}
					],
					"stateMutability": "view",
					"type": "function"
				},
				{
					"inputs": [],
					"name": "renounceOwnership",
					"outputs": [],
					"stateMutability": "nonpayable",
					"type": "function"
				},
				{
					"inputs": [
						{
							"internalType": "uint256",
							"name": "tokenId",
							"type": "uint256"
						},
						{
							"internalType": "address",
							"name": "sender",
							"type": "address"
						}
					],
					"name": "revokePBM",
					"outputs": [],
					"stateMutability": "nonpayable",
					"type": "function"
				},
				{
					"inputs": [],
					"name": "tokenTypeCount",
					"outputs": [
						{
							"internalType": "uint256",
							"name": "",
							"type": "uint256"
						}
					],
					"stateMutability": "view",
					"type": "function"
				},
				{
					"inputs": [
						{
							"internalType": "uint256",
							"name": "",
							"type": "uint256"
						}
					],
					"name": "tokenTypes",
					"outputs": [
						{
							"internalType": "string",
							"name": "name",
							"type": "string"
						},
						{
							"internalType": "uint256",
							"name": "amount",
							"type": "uint256"
						},
						{
							"internalType": "uint256",
							"name": "balanceSupply",
							"type": "uint256"
						},
						{
							"internalType": "uint256",
							"name": "expiry",
							"type": "uint256"
						},
						{
							"internalType": "address",
							"name": "creator",
							"type": "address"
						},
						{
							"internalType": "string",
							"name": "uri",
							"type": "string"
						}
					],
					"stateMutability": "view",
					"type": "function"
				},
				{
					"inputs": [
						{
							"internalType": "address",
							"name": "newOwner",
							"type": "address"
						}
					],
					"name": "transferOwnership",
					"outputs": [],
					"stateMutability": "nonpayable",
					"type": "function"
				},
				{
					"inputs": [
						{
							"internalType": "uint256",
							"name": "tokenId",
							"type": "uint256"
						}
					],
					"name": "uri",
					"outputs": [
						{
							"internalType": "string",
							"name": "",
							"type": "string"
						}
					],
					"stateMutability": "view",
					"type": "function"
				}
			],
			"devdoc": {
				"errors": {
					"OwnableInvalidOwner(address)": [
						{
							"details": "The owner is not a valid owner account. (eg. `address(0)`)"
						}
					],
					"OwnableUnauthorizedAccount(address)": [
						{
							"details": "The caller account is not authorized to perform an operation."
						}
					]
				},
				"kind": "dev",
				"methods": {
					"owner()": {
						"details": "Returns the address of the current owner."
					},
					"renounceOwnership()": {
						"details": "Leaves the contract without owner. It will not be possible to call `onlyOwner` functions. Can only be called by the current owner. NOTE: Renouncing ownership will leave the contract without an owner, thereby disabling any functionality that is only available to the owner."
					},
					"transferOwnership(address)": {
						"details": "Transfers ownership of the contract to a new account (`newOwner`). Can only be called by the current owner."
					}
				},
				"version": 1
			},
			"evm": {
				"assembly": "    /* \"contracts/PBMTokenManager.sol\":144:3955  contract PBMTokenManager is IPBMTokenManager, Ownable {... */\n  mstore(0x40, 0x80)\n    /* \"contracts/PBMTokenManager.sol\":328:482  constructor(string memory _uriPostExpiry) Ownable(msg.sender) {... */\n  callvalue\n  dup1\n  iszero\n  tag_1\n  jumpi\n  revert(0x00, 0x00)\ntag_1:\n  pop\n  mload(0x40)\n  sub(codesize, bytecodeSize)\n  dup1\n  bytecodeSize\n  dup4\n  codecopy\n  dup2\n  dup2\n  add\n  0x40\n  mstore\n  dup2\n  add\n  swap1\n  tag_2\n  swap2\n  swap1\n  tag_3\n  jump\t// in\ntag_2:\n    /* \"contracts/PBMTokenManager.sol\":378:388  msg.sender */\n  caller\n    /* \"@openzeppelin/contracts/access/Ownable.sol\":1297:1298  0 */\n  0x00\n    /* \"@openzeppelin/contracts/access/Ownable.sol\":1273:1299  initialOwner == address(0) */\n  0xffffffffffffffffffffffffffffffffffffffff\n  and\n    /* \"@openzeppelin/contracts/access/Ownable.sol\":1273:1285  initialOwner */\n  dup2\n    /* \"@openzeppelin/contracts/access/Ownable.sol\":1273:1299  initialOwner == address(0) */\n  0xffffffffffffffffffffffffffffffffffffffff\n  and\n  sub\n    /* \"@openzeppelin/contracts/access/Ownable.sol\":1269:1364  if (initialOwner == address(0)) {... */\n  tag_7\n  jumpi\n    /* \"@openzeppelin/contracts/access/Ownable.sol\":1350:1351  0 */\n  0x00\n    /* \"@openzeppelin/contracts/access/Ownable.sol\":1322:1353  OwnableInvalidOwner(address(0)) */\n  mload(0x40)\n  0x1e4fbdf700000000000000000000000000000000000000000000000000000000\n  dup2\n  mstore\n  0x04\n  add\n  tag_8\n  swap2\n  swap1\n  tag_9\n  jump\t// in\ntag_8:\n  mload(0x40)\n  dup1\n  swap2\n  sub\n  swap1\n  revert\n    /* \"@openzeppelin/contracts/access/Ownable.sol\":1269:1364  if (initialOwner == address(0)) {... */\ntag_7:\n    /* \"@openzeppelin/contracts/access/Ownable.sol\":1373:1405  _transferOwnership(initialOwner) */\n  tag_10\n    /* \"@openzeppelin/contracts/access/Ownable.sol\":1392:1404  initialOwner */\n  dup2\n    /* \"@openzeppelin/contracts/access/Ownable.sol\":1373:1391  _transferOwnership */\n  shl(0x20, tag_11)\n    /* \"@openzeppelin/contracts/access/Ownable.sol\":1373:1405  _transferOwnership(initialOwner) */\n  0x20\n  shr\n  jump\t// in\ntag_10:\n    /* \"@openzeppelin/contracts/access/Ownable.sol\":1225:1412  constructor(address initialOwner) {... */\n  pop\n    /* \"contracts/PBMTokenManager.sol\":417:418  1 */\n  0x01\n    /* \"contracts/PBMTokenManager.sol\":400:414  tokenTypeCount */\n  dup1\n    /* \"contracts/PBMTokenManager.sol\":400:418  tokenTypeCount = 1 */\n  dup2\n  swap1\n  sstore\n  pop\n    /* \"contracts/PBMTokenManager.sol\":461:475  _uriPostExpiry */\n  dup1\n    /* \"contracts/PBMTokenManager.sol\":445:458  URIPostExpiry */\n  0x02\n    /* \"contracts/PBMTokenManager.sol\":445:475  URIPostExpiry = _uriPostExpiry */\n  swap1\n  dup2\n  tag_13\n  swap2\n  swap1\n  tag_14\n  jump\t// in\ntag_13:\n  pop\n    /* \"contracts/PBMTokenManager.sol\":328:482  constructor(string memory _uriPostExpiry) Ownable(msg.sender) {... */\n  pop\n    /* \"contracts/PBMTokenManager.sol\":144:3955  contract PBMTokenManager is IPBMTokenManager, Ownable {... */\n  jump(tag_15)\n    /* \"@openzeppelin/contracts/access/Ownable.sol\":2912:3099  function _transferOwnership(address newOwner) internal virtual {... */\ntag_11:\n    /* \"@openzeppelin/contracts/access/Ownable.sol\":2985:3001  address oldOwner */\n  0x00\n    /* \"@openzeppelin/contracts/access/Ownable.sol\":3004:3010  _owner */\n  0x00\n  0x00\n  swap1\n  sload\n  swap1\n  0x0100\n  exp\n  swap1\n  div\n  0xffffffffffffffffffffffffffffffffffffffff\n  and\n    /* \"@openzeppelin/contracts/access/Ownable.sol\":2985:3010  address oldOwner = _owner */\n  swap1\n  pop\n    /* \"@openzeppelin/contracts/access/Ownable.sol\":3029:3037  newOwner */\n  dup2\n    /* \"@openzeppelin/contracts/access/Ownable.sol\":3020:3026  _owner */\n  0x00\n  0x00\n    /* \"@openzeppelin/contracts/access/Ownable.sol\":3020:3037  _owner = newOwner */\n  0x0100\n  exp\n  dup2\n  sload\n  dup2\n  0xffffffffffffffffffffffffffffffffffffffff\n  mul\n  not\n  and\n  swap1\n  dup4\n  0xffffffffffffffffffffffffffffffffffffffff\n  and\n  mul\n  or\n  swap1\n  sstore\n  pop\n    /* \"@openzeppelin/contracts/access/Ownable.sol\":3083:3091  newOwner */\n  dup2\n    /* \"@openzeppelin/contracts/access/Ownable.sol\":3052:3092  OwnershipTransferred(oldOwner, newOwner) */\n  0xffffffffffffffffffffffffffffffffffffffff\n  and\n    /* \"@openzeppelin/contracts/access/Ownable.sol\":3073:3081  oldOwner */\n  dup2\n    /* \"@openzeppelin/contracts/access/Ownable.sol\":3052:3092  OwnershipTransferred(oldOwner, newOwner) */\n  0xffffffffffffffffffffffffffffffffffffffff\n  and\n  0x8be0079c531659141344cd1fd0a4f28419497f9722a3daafe3b4186f6b6457e0\n  mload(0x40)\n  mload(0x40)\n  dup1\n  swap2\n  sub\n  swap1\n  log3\n    /* \"@openzeppelin/contracts/access/Ownable.sol\":2975:3099  {... */\n  pop\n    /* \"@openzeppelin/contracts/access/Ownable.sol\":2912:3099  function _transferOwnership(address newOwner) internal virtual {... */\n  pop\n  jump\t// out\n    /* \"#utility.yul\":7:82   */\ntag_17:\n    /* \"#utility.yul\":40:46   */\n  0x00\n    /* \"#utility.yul\":73:75   */\n  0x40\n    /* \"#utility.yul\":67:76   */\n  mload\n    /* \"#utility.yul\":57:76   */\n  swap1\n  pop\n    /* \"#utility.yul\":7:82   */\n  swap1\n  jump\t// out\n    /* \"#utility.yul\":88:205   */\ntag_18:\n    /* \"#utility.yul\":197:198   */\n  0x00\n    /* \"#utility.yul\":194:195   */\n  0x00\n    /* \"#utility.yul\":187:199   */\n  revert\n    /* \"#utility.yul\":211:328   */\ntag_19:\n    /* \"#utility.yul\":320:321   */\n  0x00\n    /* \"#utility.yul\":317:318   */\n  0x00\n    /* \"#utility.yul\":310:322   */\n  revert\n    /* \"#utility.yul\":334:451   */\ntag_20:\n    /* \"#utility.yul\":443:444   */\n  0x00\n    /* \"#utility.yul\":440:441   */\n  0x00\n    /* \"#utility.yul\":433:445   */\n  revert\n    /* \"#utility.yul\":457:574   */\ntag_21:\n    /* \"#utility.yul\":566:567   */\n  0x00\n    /* \"#utility.yul\":563:564   */\n  0x00\n    /* \"#utility.yul\":556:568   */\n  revert\n    /* \"#utility.yul\":580:682   */\ntag_22:\n    /* \"#utility.yul\":621:627   */\n  0x00\n    /* \"#utility.yul\":672:674   */\n  0x1f\n    /* \"#utility.yul\":668:675   */\n  not\n    /* \"#utility.yul\":663:665   */\n  0x1f\n    /* \"#utility.yul\":656:661   */\n  dup4\n    /* \"#utility.yul\":652:666   */\n  add\n    /* \"#utility.yul\":648:676   */\n  and\n    /* \"#utility.yul\":638:676   */\n  swap1\n  pop\n    /* \"#utility.yul\":580:682   */\n  swap2\n  swap1\n  pop\n  jump\t// out\n    /* \"#utility.yul\":688:868   */\ntag_23:\n    /* \"#utility.yul\":736:813   */\n  0x4e487b7100000000000000000000000000000000000000000000000000000000\n    /* \"#utility.yul\":733:734   */\n  0x00\n    /* \"#utility.yul\":726:814   */\n  mstore\n    /* \"#utility.yul\":833:837   */\n  0x41\n    /* \"#utility.yul\":830:831   */\n  0x04\n    /* \"#utility.yul\":823:838   */\n  mstore\n    /* \"#utility.yul\":857:861   */\n  0x24\n    /* \"#utility.yul\":854:855   */\n  0x00\n    /* \"#utility.yul\":847:862   */\n  revert\n    /* \"#utility.yul\":874:1155   */\ntag_24:\n    /* \"#utility.yul\":957:984   */\n  tag_61\n    /* \"#utility.yul\":979:983   */\n  dup3\n    /* \"#utility.yul\":957:984   */\n  tag_22\n  jump\t// in\ntag_61:\n    /* \"#utility.yul\":949:955   */\n  dup2\n    /* \"#utility.yul\":945:985   */\n  add\n    /* \"#utility.yul\":1087:1093   */\n  dup2\n    /* \"#utility.yul\":1075:1085   */\n  dup2\n    /* \"#utility.yul\":1072:1094   */\n  lt\n    /* \"#utility.yul\":1051:1069   */\n  0xffffffffffffffff\n    /* \"#utility.yul\":1039:1049   */\n  dup3\n    /* \"#utility.yul\":1036:1070   */\n  gt\n    /* \"#utility.yul\":1033:1095   */\n  or\n    /* \"#utility.yul\":1030:1118   */\n  iszero\n  tag_62\n  jumpi\n    /* \"#utility.yul\":1098:1116   */\n  tag_63\n  tag_23\n  jump\t// in\ntag_63:\n    /* \"#utility.yul\":1030:1118   */\ntag_62:\n    /* \"#utility.yul\":1138:1148   */\n  dup1\n    /* \"#utility.yul\":1134:1136   */\n  0x40\n    /* \"#utility.yul\":1127:1149   */\n  mstore\n    /* \"#utility.yul\":917:1155   */\n  pop\n    /* \"#utility.yul\":874:1155   */\n  pop\n  pop\n  jump\t// out\n    /* \"#utility.yul\":1161:1290   */\ntag_25:\n    /* \"#utility.yul\":1195:1201   */\n  0x00\n    /* \"#utility.yul\":1222:1242   */\n  tag_65\n  tag_17\n  jump\t// in\ntag_65:\n    /* \"#utility.yul\":1212:1242   */\n  swap1\n  pop\n    /* \"#utility.yul\":1251:1284   */\n  tag_66\n    /* \"#utility.yul\":1279:1283   */\n  dup3\n    /* \"#utility.yul\":1271:1277   */\n  dup3\n    /* \"#utility.yul\":1251:1284   */\n  tag_24\n  jump\t// in\ntag_66:\n    /* \"#utility.yul\":1161:1290   */\n  swap2\n  swap1\n  pop\n  jump\t// out\n    /* \"#utility.yul\":1296:1604   */\ntag_26:\n    /* \"#utility.yul\":1358:1362   */\n  0x00\n    /* \"#utility.yul\":1448:1466   */\n  0xffffffffffffffff\n    /* \"#utility.yul\":1440:1446   */\n  dup3\n    /* \"#utility.yul\":1437:1467   */\n  gt\n    /* \"#utility.yul\":1434:1490   */\n  iszero\n  tag_68\n  jumpi\n    /* \"#utility.yul\":1470:1488   */\n  tag_69\n  tag_23\n  jump\t// in\ntag_69:\n    /* \"#utility.yul\":1434:1490   */\ntag_68:\n    /* \"#utility.yul\":1508:1537   */\n  tag_70\n    /* \"#utility.yul\":1530:1536   */\n  dup3\n    /* \"#utility.yul\":1508:1537   */\n  tag_22\n  jump\t// in\ntag_70:\n    /* \"#utility.yul\":1500:1537   */\n  swap1\n  pop\n    /* \"#utility.yul\":1592:1596   */\n  0x20\n    /* \"#utility.yul\":1586:1590   */\n  dup2\n    /* \"#utility.yul\":1582:1597   */\n  add\n    /* \"#utility.yul\":1574:1597   */\n  swap1\n  pop\n    /* \"#utility.yul\":1296:1604   */\n  swap2\n  swap1\n  pop\n  jump\t// out\n    /* \"#utility.yul\":1610:1749   */\ntag_27:\n    /* \"#utility.yul\":1699:1705   */\n  dup3\n    /* \"#utility.yul\":1694:1697   */\n  dup2\n    /* \"#utility.yul\":1689:1692   */\n  dup4\n    /* \"#utility.yul\":1683:1706   */\n  mcopy\n    /* \"#utility.yul\":1740:1741   */\n  0x00\n    /* \"#utility.yul\":1731:1737   */\n  dup4\n    /* \"#utility.yul\":1726:1729   */\n  dup4\n    /* \"#utility.yul\":1722:1738   */\n  add\n    /* \"#utility.yul\":1715:1742   */\n  mstore\n    /* \"#utility.yul\":1610:1749   */\n  pop\n  pop\n  pop\n  jump\t// out\n    /* \"#utility.yul\":1755:2189   */\ntag_28:\n    /* \"#utility.yul\":1844:1849   */\n  0x00\n    /* \"#utility.yul\":1869:1935   */\n  tag_73\n    /* \"#utility.yul\":1885:1934   */\n  tag_74\n    /* \"#utility.yul\":1927:1933   */\n  dup5\n    /* \"#utility.yul\":1885:1934   */\n  tag_26\n  jump\t// in\ntag_74:\n    /* \"#utility.yul\":1869:1935   */\n  tag_25\n  jump\t// in\ntag_73:\n    /* \"#utility.yul\":1860:1935   */\n  swap1\n  pop\n    /* \"#utility.yul\":1958:1964   */\n  dup3\n    /* \"#utility.yul\":1951:1956   */\n  dup2\n    /* \"#utility.yul\":1944:1965   */\n  mstore\n    /* \"#utility.yul\":1996:2000   */\n  0x20\n    /* \"#utility.yul\":1989:1994   */\n  dup2\n    /* \"#utility.yul\":1985:2001   */\n  add\n    /* \"#utility.yul\":2034:2037   */\n  dup5\n    /* \"#utility.yul\":2025:2031   */\n  dup5\n    /* \"#utility.yul\":2020:2023   */\n  dup5\n    /* \"#utility.yul\":2016:2032   */\n  add\n    /* \"#utility.yul\":2013:2038   */\n  gt\n    /* \"#utility.yul\":2010:2122   */\n  iszero\n  tag_75\n  jumpi\n    /* \"#utility.yul\":2041:2120   */\n  tag_76\n  tag_21\n  jump\t// in\ntag_76:\n    /* \"#utility.yul\":2010:2122   */\ntag_75:\n    /* \"#utility.yul\":2131:2183   */\n  tag_77\n    /* \"#utility.yul\":2176:2182   */\n  dup5\n    /* \"#utility.yul\":2171:2174   */\n  dup3\n    /* \"#utility.yul\":2166:2169   */\n  dup6\n    /* \"#utility.yul\":2131:2183   */\n  tag_27\n  jump\t// in\ntag_77:\n    /* \"#utility.yul\":1850:2189   */\n  pop\n    /* \"#utility.yul\":1755:2189   */\n  swap4\n  swap3\n  pop\n  pop\n  pop\n  jump\t// out\n    /* \"#utility.yul\":2209:2564   */\ntag_29:\n    /* \"#utility.yul\":2276:2281   */\n  0x00\n    /* \"#utility.yul\":2325:2328   */\n  dup3\n    /* \"#utility.yul\":2318:2322   */\n  0x1f\n    /* \"#utility.yul\":2310:2316   */\n  dup4\n    /* \"#utility.yul\":2306:2323   */\n  add\n    /* \"#utility.yul\":2302:2329   */\n  slt\n    /* \"#utility.yul\":2292:2414   */\n  tag_79\n  jumpi\n    /* \"#utility.yul\":2333:2412   */\n  tag_80\n  tag_20\n  jump\t// in\ntag_80:\n    /* \"#utility.yul\":2292:2414   */\ntag_79:\n    /* \"#utility.yul\":2443:2449   */\n  dup2\n    /* \"#utility.yul\":2437:2450   */\n  mload\n    /* \"#utility.yul\":2468:2558   */\n  tag_81\n    /* \"#utility.yul\":2554:2557   */\n  dup5\n    /* \"#utility.yul\":2546:2552   */\n  dup3\n    /* \"#utility.yul\":2539:2543   */\n  0x20\n    /* \"#utility.yul\":2531:2537   */\n  dup7\n    /* \"#utility.yul\":2527:2544   */\n  add\n    /* \"#utility.yul\":2468:2558   */\n  tag_28\n  jump\t// in\ntag_81:\n    /* \"#utility.yul\":2459:2558   */\n  swap2\n  pop\n    /* \"#utility.yul\":2282:2564   */\n  pop\n    /* \"#utility.yul\":2209:2564   */\n  swap3\n  swap2\n  pop\n  pop\n  jump\t// out\n    /* \"#utility.yul\":2570:3094   */\ntag_3:\n    /* \"#utility.yul\":2650:2656   */\n  0x00\n    /* \"#utility.yul\":2699:2701   */\n  0x20\n    /* \"#utility.yul\":2687:2696   */\n  dup3\n    /* \"#utility.yul\":2678:2685   */\n  dup5\n    /* \"#utility.yul\":2674:2697   */\n  sub\n    /* \"#utility.yul\":2670:2702   */\n  slt\n    /* \"#utility.yul\":2667:2786   */\n  iszero\n  tag_83\n  jumpi\n    /* \"#utility.yul\":2705:2784   */\n  tag_84\n  tag_18\n  jump\t// in\ntag_84:\n    /* \"#utility.yul\":2667:2786   */\ntag_83:\n    /* \"#utility.yul\":2846:2847   */\n  0x00\n    /* \"#utility.yul\":2835:2844   */\n  dup3\n    /* \"#utility.yul\":2831:2848   */\n  add\n    /* \"#utility.yul\":2825:2849   */\n  mload\n    /* \"#utility.yul\":2876:2894   */\n  0xffffffffffffffff\n    /* \"#utility.yul\":2868:2874   */\n  dup2\n    /* \"#utility.yul\":2865:2895   */\n  gt\n    /* \"#utility.yul\":2862:2979   */\n  iszero\n  tag_85\n  jumpi\n    /* \"#utility.yul\":2898:2977   */\n  tag_86\n  tag_19\n  jump\t// in\ntag_86:\n    /* \"#utility.yul\":2862:2979   */\ntag_85:\n    /* \"#utility.yul\":3003:3077   */\n  tag_87\n    /* \"#utility.yul\":3069:3076   */\n  dup5\n    /* \"#utility.yul\":3060:3066   */\n  dup3\n    /* \"#utility.yul\":3049:3058   */\n  dup6\n    /* \"#utility.yul\":3045:3067   */\n  add\n    /* \"#utility.yul\":3003:3077   */\n  tag_29\n  jump\t// in\ntag_87:\n    /* \"#utility.yul\":2993:3077   */\n  swap2\n  pop\n    /* \"#utility.yul\":2796:3087   */\n  pop\n    /* \"#utility.yul\":2570:3094   */\n  swap3\n  swap2\n  pop\n  pop\n  jump\t// out\n    /* \"#utility.yul\":3100:3226   */\ntag_30:\n    /* \"#utility.yul\":3137:3144   */\n  0x00\n    /* \"#utility.yul\":3177:3219   */\n  0xffffffffffffffffffffffffffffffffffffffff\n    /* \"#utility.yul\":3170:3175   */\n  dup3\n    /* \"#utility.yul\":3166:3220   */\n  and\n    /* \"#utility.yul\":3155:3220   */\n  swap1\n  pop\n    /* \"#utility.yul\":3100:3226   */\n  swap2\n  swap1\n  pop\n  jump\t// out\n    /* \"#utility.yul\":3232:3328   */\ntag_31:\n    /* \"#utility.yul\":3269:3276   */\n  0x00\n    /* \"#utility.yul\":3298:3322   */\n  tag_90\n    /* \"#utility.yul\":3316:3321   */\n  dup3\n    /* \"#utility.yul\":3298:3322   */\n  tag_30\n  jump\t// in\ntag_90:\n    /* \"#utility.yul\":3287:3322   */\n  swap1\n  pop\n    /* \"#utility.yul\":3232:3328   */\n  swap2\n  swap1\n  pop\n  jump\t// out\n    /* \"#utility.yul\":3334:3452   */\ntag_32:\n    /* \"#utility.yul\":3421:3445   */\n  tag_92\n    /* \"#utility.yul\":3439:3444   */\n  dup2\n    /* \"#utility.yul\":3421:3445   */\n  tag_31\n  jump\t// in\ntag_92:\n    /* \"#utility.yul\":3416:3419   */\n  dup3\n    /* \"#utility.yul\":3409:3446   */\n  mstore\n    /* \"#utility.yul\":3334:3452   */\n  pop\n  pop\n  jump\t// out\n    /* \"#utility.yul\":3458:3680   */\ntag_9:\n    /* \"#utility.yul\":3551:3555   */\n  0x00\n    /* \"#utility.yul\":3589:3591   */\n  0x20\n    /* \"#utility.yul\":3578:3587   */\n  dup3\n    /* \"#utility.yul\":3574:3592   */\n  add\n    /* \"#utility.yul\":3566:3592   */\n  swap1\n  pop\n    /* \"#utility.yul\":3602:3673   */\n  tag_94\n    /* \"#utility.yul\":3670:3671   */\n  0x00\n    /* \"#utility.yul\":3659:3668   */\n  dup4\n    /* \"#utility.yul\":3655:3672   */\n  add\n    /* \"#utility.yul\":3646:3652   */\n  dup5\n    /* \"#utility.yul\":3602:3673   */\n  tag_32\n  jump\t// in\ntag_94:\n    /* \"#utility.yul\":3458:3680   */\n  swap3\n  swap2\n  pop\n  pop\n  jump\t// out\n    /* \"#utility.yul\":3686:3785   */\ntag_33:\n    /* \"#utility.yul\":3738:3744   */\n  0x00\n    /* \"#utility.yul\":3772:3777   */\n  dup2\n    /* \"#utility.yul\":3766:3778   */\n  mload\n    /* \"#utility.yul\":3756:3778   */\n  swap1\n  pop\n    /* \"#utility.yul\":3686:3785   */\n  swap2\n  swap1\n  pop\n  jump\t// out\n    /* \"#utility.yul\":3791:3971   */\ntag_34:\n    /* \"#utility.yul\":3839:3916   */\n  0x4e487b7100000000000000000000000000000000000000000000000000000000\n    /* \"#utility.yul\":3836:3837   */\n  0x00\n    /* \"#utility.yul\":3829:3917   */\n  mstore\n    /* \"#utility.yul\":3936:3940   */\n  0x22\n    /* \"#utility.yul\":3933:3934   */\n  0x04\n    /* \"#utility.yul\":3926:3941   */\n  mstore\n    /* \"#utility.yul\":3960:3964   */\n  0x24\n    /* \"#utility.yul\":3957:3958   */\n  0x00\n    /* \"#utility.yul\":3950:3965   */\n  revert\n    /* \"#utility.yul\":3977:4297   */\ntag_35:\n    /* \"#utility.yul\":4021:4027   */\n  0x00\n    /* \"#utility.yul\":4058:4059   */\n  0x02\n    /* \"#utility.yul\":4052:4056   */\n  dup3\n    /* \"#utility.yul\":4048:4060   */\n  div\n    /* \"#utility.yul\":4038:4060   */\n  swap1\n  pop\n    /* \"#utility.yul\":4105:4106   */\n  0x01\n    /* \"#utility.yul\":4099:4103   */\n  dup3\n    /* \"#utility.yul\":4095:4107   */\n  and\n    /* \"#utility.yul\":4126:4144   */\n  dup1\n    /* \"#utility.yul\":4116:4197   */\n  tag_98\n  jumpi\n    /* \"#utility.yul\":4182:4186   */\n  0x7f\n    /* \"#utility.yul\":4174:4180   */\n  dup3\n    /* \"#utility.yul\":4170:4187   */\n  and\n    /* \"#utility.yul\":4160:4187   */\n  swap2\n  pop\n    /* \"#utility.yul\":4116:4197   */\ntag_98:\n    /* \"#utility.yul\":4244:4246   */\n  0x20\n    /* \"#utility.yul\":4236:4242   */\n  dup3\n    /* \"#utility.yul\":4233:4247   */\n  lt\n    /* \"#utility.yul\":4213:4231   */\n  dup2\n    /* \"#utility.yul\":4210:4248   */\n  sub\n    /* \"#utility.yul\":4207:4291   */\n  tag_99\n  jumpi\n    /* \"#utility.yul\":4263:4281   */\n  tag_100\n  tag_34\n  jump\t// in\ntag_100:\n    /* \"#utility.yul\":4207:4291   */\ntag_99:\n    /* \"#utility.yul\":4028:4297   */\n  pop\n    /* \"#utility.yul\":3977:4297   */\n  swap2\n  swap1\n  pop\n  jump\t// out\n    /* \"#utility.yul\":4303:4444   */\ntag_36:\n    /* \"#utility.yul\":4352:4356   */\n  0x00\n    /* \"#utility.yul\":4375:4378   */\n  dup2\n    /* \"#utility.yul\":4367:4378   */\n  swap1\n  pop\n    /* \"#utility.yul\":4398:4401   */\n  dup2\n    /* \"#utility.yul\":4395:4396   */\n  0x00\n    /* \"#utility.yul\":4388:4402   */\n  mstore\n    /* \"#utility.yul\":4432:4436   */\n  0x20\n    /* \"#utility.yul\":4429:4430   */\n  0x00\n    /* \"#utility.yul\":4419:4437   */\n  keccak256\n    /* \"#utility.yul\":4411:4437   */\n  swap1\n  pop\n    /* \"#utility.yul\":4303:4444   */\n  swap2\n  swap1\n  pop\n  jump\t// out\n    /* \"#utility.yul\":4450:4543   */\ntag_37:\n    /* \"#utility.yul\":4487:4493   */\n  0x00\n    /* \"#utility.yul\":4534:4536   */\n  0x20\n    /* \"#utility.yul\":4529:4531   */\n  0x1f\n    /* \"#utility.yul\":4522:4527   */\n  dup4\n    /* \"#utility.yul\":4518:4532   */\n  add\n    /* \"#utility.yul\":4514:4537   */\n  div\n    /* \"#utility.yul\":4504:4537   */\n  swap1\n  pop\n    /* \"#utility.yul\":4450:4543   */\n  swap2\n  swap1\n  pop\n  jump\t// out\n    /* \"#utility.yul\":4549:4656   */\ntag_38:\n    /* \"#utility.yul\":4593:4601   */\n  0x00\n    /* \"#utility.yul\":4643:4648   */\n  dup3\n    /* \"#utility.yul\":4637:4641   */\n  dup3\n    /* \"#utility.yul\":4633:4649   */\n  shl\n    /* \"#utility.yul\":4612:4649   */\n  swap1\n  pop\n    /* \"#utility.yul\":4549:4656   */\n  swap3\n  swap2\n  pop\n  pop\n  jump\t// out\n    /* \"#utility.yul\":4662:5055   */\ntag_39:\n    /* \"#utility.yul\":4731:4737   */\n  0x00\n    /* \"#utility.yul\":4781:4782   */\n  0x08\n    /* \"#utility.yul\":4769:4779   */\n  dup4\n    /* \"#utility.yul\":4765:4783   */\n  mul\n    /* \"#utility.yul\":4804:4901   */\n  tag_105\n    /* \"#utility.yul\":4834:4900   */\n  0xffffffffffffffffffffffffffffffffffffffffffffffffffffffffffffffff\n    /* \"#utility.yul\":4823:4832   */\n  dup3\n    /* \"#utility.yul\":4804:4901   */\n  tag_38\n  jump\t// in\ntag_105:\n    /* \"#utility.yul\":4922:4961   */\n  tag_106\n    /* \"#utility.yul\":4952:4960   */\n  dup7\n    /* \"#utility.yul\":4941:4950   */\n  dup4\n    /* \"#utility.yul\":4922:4961   */\n  tag_38\n  jump\t// in\ntag_106:\n    /* \"#utility.yul\":4910:4961   */\n  swap6\n  pop\n    /* \"#utility.yul\":4994:4998   */\n  dup1\n    /* \"#utility.yul\":4990:4999   */\n  not\n    /* \"#utility.yul\":4983:4988   */\n  dup5\n    /* \"#utility.yul\":4979:5000   */\n  and\n    /* \"#utility.yul\":4970:5000   */\n  swap4\n  pop\n    /* \"#utility.yul\":5043:5047   */\n  dup1\n    /* \"#utility.yul\":5033:5041   */\n  dup7\n    /* \"#utility.yul\":5029:5048   */\n  and\n    /* \"#utility.yul\":5022:5027   */\n  dup5\n    /* \"#utility.yul\":5019:5049   */\n  or\n    /* \"#utility.yul\":5009:5049   */\n  swap3\n  pop\n    /* \"#utility.yul\":4738:5055   */\n  pop\n  pop\n    /* \"#utility.yul\":4662:5055   */\n  swap4\n  swap3\n  pop\n  pop\n  pop\n  jump\t// out\n    /* \"#utility.yul\":5061:5138   */\ntag_40:\n    /* \"#utility.yul\":5098:5105   */\n  0x00\n    /* \"#utility.yul\":5127:5132   */\n  dup2\n    /* \"#utility.yul\":5116:5132   */\n  swap1\n  pop\n    /* \"#utility.yul\":5061:5138   */\n  swap2\n  swap1\n  pop\n  jump\t// out\n    /* \"#utility.yul\":5144:5204   */\ntag_41:\n    /* \"#utility.yul\":5172:5175   */\n  0x00\n    /* \"#utility.yul\":5193:5198   */\n  dup2\n    /* \"#utility.yul\":5186:5198   */\n  swap1\n  pop\n    /* \"#utility.yul\":5144:5204   */\n  swap2\n  swap1\n  pop\n  jump\t// out\n    /* \"#utility.yul\":5210:5352   */\ntag_42:\n    /* \"#utility.yul\":5260:5269   */\n  0x00\n    /* \"#utility.yul\":5293:5346   */\n  tag_110\n    /* \"#utility.yul\":5311:5345   */\n  tag_111\n    /* \"#utility.yul\":5320:5344   */\n  tag_112\n    /* \"#utility.yul\":5338:5343   */\n  dup5\n    /* \"#utility.yul\":5320:5344   */\n  tag_40\n  jump\t// in\ntag_112:\n    /* \"#utility.yul\":5311:5345   */\n  tag_41\n  jump\t// in\ntag_111:\n    /* \"#utility.yul\":5293:5346   */\n  tag_40\n  jump\t// in\ntag_110:\n    /* \"#utility.yul\":5280:5346   */\n  swap1\n  pop\n    /* \"#utility.yul\":5210:5352   */\n  swap2\n  swap1\n  pop\n  jump\t// out\n    /* \"#utility.yul\":5358:5433   */\ntag_43:\n    /* \"#utility.yul\":5401:5404   */\n  0x00\n    /* \"#utility.yul\":5422:5427   */\n  dup2\n    /* \"#utility.yul\":5415:5427   */\n  swap1\n  pop\n    /* \"#utility.yul\":5358:5433   */\n  swap2\n  swap1\n  pop\n  jump\t// out\n    /* \"#utility.yul\":5439:5708   */\ntag_44:\n    /* \"#utility.yul\":5549:5588   */\n  tag_115\n    /* \"#utility.yul\":5580:5587   */\n  dup4\n    /* \"#utility.yul\":5549:5588   */\n  tag_42\n  jump\t// in\ntag_115:\n    /* \"#utility.yul\":5610:5701   */\n  tag_116\n    /* \"#utility.yul\":5659:5700   */\n  tag_117\n    /* \"#utility.yul\":5683:5699   */\n  dup3\n    /* \"#utility.yul\":5659:5700   */\n  tag_43\n  jump\t// in\ntag_117:\n    /* \"#utility.yul\":5651:5657   */\n  dup5\n    /* \"#utility.yul\":5644:5648   */\n  dup5\n    /* \"#utility.yul\":5638:5649   */\n  sload\n    /* \"#utility.yul\":5610:5701   */\n  tag_39\n  jump\t// in\ntag_116:\n    /* \"#utility.yul\":5604:5608   */\n  dup3\n    /* \"#utility.yul\":5597:5702   */\n  sstore\n    /* \"#utility.yul\":5515:5708   */\n  pop\n    /* \"#utility.yul\":5439:5708   */\n  pop\n  pop\n  pop\n  jump\t// out\n    /* \"#utility.yul\":5714:5787   */\ntag_45:\n    /* \"#utility.yul\":5759:5762   */\n  0x00\n    /* \"#utility.yul\":5780:5781   */\n  0x00\n    /* \"#utility.yul\":5773:5781   */\n  swap1\n  pop\n    /* \"#utility.yul\":5714:5787   */\n  swap1\n  jump\t// out\n    /* \"#utility.yul\":5793:5982   */\ntag_46:\n    /* \"#utility.yul\":5870:5902   */\n  tag_120\n  tag_45\n  jump\t// in\ntag_120:\n    /* \"#utility.yul\":5911:5976   */\n  tag_121\n    /* \"#utility.yul\":5969:5975   */\n  dup2\n    /* \"#utility.yul\":5961:5967   */\n  dup5\n    /* \"#utility.yul\":5955:5959   */\n  dup5\n    /* \"#utility.yul\":5911:5976   */\n  tag_44\n  jump\t// in\ntag_121:\n    /* \"#utility.yul\":5846:5982   */\n  pop\n    /* \"#utility.yul\":5793:5982   */\n  pop\n  pop\n  jump\t// out\n    /* \"#utility.yul\":5988:6174   */\ntag_47:\n    /* \"#utility.yul\":6048:6168   */\ntag_123:\n    /* \"#utility.yul\":6065:6068   */\n  dup2\n    /* \"#utility.yul\":6058:6063   */\n  dup2\n    /* \"#utility.yul\":6055:6069   */\n  lt\n    /* \"#utility.yul\":6048:6168   */\n  iszero\n  tag_125\n  jumpi\n    /* \"#utility.yul\":6119:6158   */\n  tag_126\n    /* \"#utility.yul\":6156:6157   */\n  0x00\n    /* \"#utility.yul\":6149:6154   */\n  dup3\n    /* \"#utility.yul\":6119:6158   */\n  tag_46\n  jump\t// in\ntag_126:\n    /* \"#utility.yul\":6092:6093   */\n  0x01\n    /* \"#utility.yul\":6085:6090   */\n  dup2\n    /* \"#utility.yul\":6081:6094   */\n  add\n    /* \"#utility.yul\":6072:6094   */\n  swap1\n  pop\n    /* \"#utility.yul\":6048:6168   */\n  jump(tag_123)\ntag_125:\n    /* \"#utility.yul\":5988:6174   */\n  pop\n  pop\n  jump\t// out\n    /* \"#utility.yul\":6180:6723   */\ntag_48:\n    /* \"#utility.yul\":6281:6283   */\n  0x1f\n    /* \"#utility.yul\":6276:6279   */\n  dup3\n    /* \"#utility.yul\":6273:6284   */\n  gt\n    /* \"#utility.yul\":6270:6716   */\n  iszero\n  tag_128\n  jumpi\n    /* \"#utility.yul\":6315:6353   */\n  tag_129\n    /* \"#utility.yul\":6347:6352   */\n  dup2\n    /* \"#utility.yul\":6315:6353   */\n  tag_36\n  jump\t// in\ntag_129:\n    /* \"#utility.yul\":6399:6428   */\n  tag_130\n    /* \"#utility.yul\":6417:6427   */\n  dup5\n    /* \"#utility.yul\":6399:6428   */\n  tag_37\n  jump\t// in\ntag_130:\n    /* \"#utility.yul\":6389:6397   */\n  dup2\n    /* \"#utility.yul\":6385:6429   */\n  add\n    /* \"#utility.yul\":6582:6584   */\n  0x20\n    /* \"#utility.yul\":6570:6580   */\n  dup6\n    /* \"#utility.yul\":6567:6585   */\n  lt\n    /* \"#utility.yul\":6564:6613   */\n  iszero\n  tag_131\n  jumpi\n    /* \"#utility.yul\":6603:6611   */\n  dup2\n    /* \"#utility.yul\":6588:6611   */\n  swap1\n  pop\n    /* \"#utility.yul\":6564:6613   */\ntag_131:\n    /* \"#utility.yul\":6626:6706   */\n  tag_132\n    /* \"#utility.yul\":6682:6704   */\n  tag_133\n    /* \"#utility.yul\":6700:6703   */\n  dup6\n    /* \"#utility.yul\":6682:6704   */\n  tag_37\n  jump\t// in\ntag_133:\n    /* \"#utility.yul\":6672:6680   */\n  dup4\n    /* \"#utility.yul\":6668:6705   */\n  add\n    /* \"#utility.yul\":6655:6666   */\n  dup3\n    /* \"#utility.yul\":6626:6706   */\n  tag_47\n  jump\t// in\ntag_132:\n    /* \"#utility.yul\":6285:6716   */\n  pop\n  pop\n    /* \"#utility.yul\":6270:6716   */\ntag_128:\n    /* \"#utility.yul\":6180:6723   */\n  pop\n  pop\n  pop\n  jump\t// out\n    /* \"#utility.yul\":6729:6846   */\ntag_49:\n    /* \"#utility.yul\":6783:6791   */\n  0x00\n    /* \"#utility.yul\":6833:6838   */\n  dup3\n    /* \"#utility.yul\":6827:6831   */\n  dup3\n    /* \"#utility.yul\":6823:6839   */\n  shr\n    /* \"#utility.yul\":6802:6839   */\n  swap1\n  pop\n    /* \"#utility.yul\":6729:6846   */\n  swap3\n  swap2\n  pop\n  pop\n  jump\t// out\n    /* \"#utility.yul\":6852:7021   */\ntag_50:\n    /* \"#utility.yul\":6896:6902   */\n  0x00\n    /* \"#utility.yul\":6929:6980   */\n  tag_136\n    /* \"#utility.yul\":6977:6978   */\n  0x00\n    /* \"#utility.yul\":6973:6979   */\n  not\n    /* \"#utility.yul\":6965:6970   */\n  dup5\n    /* \"#utility.yul\":6962:6963   */\n  0x08\n    /* \"#utility.yul\":6958:6971   */\n  mul\n    /* \"#utility.yul\":6929:6980   */\n  tag_49\n  jump\t// in\ntag_136:\n    /* \"#utility.yul\":6925:6981   */\n  not\n    /* \"#utility.yul\":7010:7014   */\n  dup1\n    /* \"#utility.yul\":7004:7008   */\n  dup4\n    /* \"#utility.yul\":7000:7015   */\n  and\n    /* \"#utility.yul\":6990:7015   */\n  swap2\n  pop\n    /* \"#utility.yul\":6903:7021   */\n  pop\n    /* \"#utility.yul\":6852:7021   */\n  swap3\n  swap2\n  pop\n  pop\n  jump\t// out\n    /* \"#utility.yul\":7026:7321   */\ntag_51:\n    /* \"#utility.yul\":7102:7106   */\n  0x00\n    /* \"#utility.yul\":7248:7277   */\n  tag_138\n    /* \"#utility.yul\":7273:7276   */\n  dup4\n    /* \"#utility.yul\":7267:7271   */\n  dup4\n    /* \"#utility.yul\":7248:7277   */\n  tag_50\n  jump\t// in\ntag_138:\n    /* \"#utility.yul\":7240:7277   */\n  swap2\n  pop\n    /* \"#utility.yul\":7310:7313   */\n  dup3\n    /* \"#utility.yul\":7307:7308   */\n  0x02\n    /* \"#utility.yul\":7303:7314   */\n  mul\n    /* \"#utility.yul\":7297:7301   */\n  dup3\n    /* \"#utility.yul\":7294:7315   */\n  or\n    /* \"#utility.yul\":7286:7315   */\n  swap1\n  pop\n    /* \"#utility.yul\":7026:7321   */\n  swap3\n  swap2\n  pop\n  pop\n  jump\t// out\n    /* \"#utility.yul\":7326:8721   */\ntag_14:\n    /* \"#utility.yul\":7443:7480   */\n  tag_140\n    /* \"#utility.yul\":7476:7479   */\n  dup3\n    /* \"#utility.yul\":7443:7480   */\n  tag_33\n  jump\t// in\ntag_140:\n    /* \"#utility.yul\":7545:7563   */\n  0xffffffffffffffff\n    /* \"#utility.yul\":7537:7543   */\n  dup2\n    /* \"#utility.yul\":7534:7564   */\n  gt\n    /* \"#utility.yul\":7531:7587   */\n  iszero\n  tag_141\n  jumpi\n    /* \"#utility.yul\":7567:7585   */\n  tag_142\n  tag_23\n  jump\t// in\ntag_142:\n    /* \"#utility.yul\":7531:7587   */\ntag_141:\n    /* \"#utility.yul\":7611:7649   */\n  tag_143\n    /* \"#utility.yul\":7643:7647   */\n  dup3\n    /* \"#utility.yul\":7637:7648   */\n  sload\n    /* \"#utility.yul\":7611:7649   */\n  tag_35\n  jump\t// in\ntag_143:\n    /* \"#utility.yul\":7696:7763   */\n  tag_144\n    /* \"#utility.yul\":7756:7762   */\n  dup3\n    /* \"#utility.yul\":7748:7754   */\n  dup3\n    /* \"#utility.yul\":7742:7746   */\n  dup6\n    /* \"#utility.yul\":7696:7763   */\n  tag_48\n  jump\t// in\ntag_144:\n    /* \"#utility.yul\":7790:7791   */\n  0x00\n    /* \"#utility.yul\":7814:7818   */\n  0x20\n    /* \"#utility.yul\":7801:7818   */\n  swap1\n  pop\n    /* \"#utility.yul\":7846:7848   */\n  0x1f\n    /* \"#utility.yul\":7838:7844   */\n  dup4\n    /* \"#utility.yul\":7835:7849   */\n  gt\n    /* \"#utility.yul\":7863:7864   */\n  0x01\n    /* \"#utility.yul\":7858:8476   */\n  dup2\n  eq\n  tag_146\n  jumpi\n    /* \"#utility.yul\":8520:8521   */\n  0x00\n    /* \"#utility.yul\":8537:8543   */\n  dup5\n    /* \"#utility.yul\":8534:8611   */\n  iszero\n  tag_147\n  jumpi\n    /* \"#utility.yul\":8586:8595   */\n  dup3\n    /* \"#utility.yul\":8581:8584   */\n  dup8\n    /* \"#utility.yul\":8577:8596   */\n  add\n    /* \"#utility.yul\":8571:8597   */\n  mload\n    /* \"#utility.yul\":8562:8597   */\n  swap1\n  pop\n    /* \"#utility.yul\":8534:8611   */\ntag_147:\n    /* \"#utility.yul\":8637:8704   */\n  tag_148\n    /* \"#utility.yul\":8697:8703   */\n  dup6\n    /* \"#utility.yul\":8690:8695   */\n  dup3\n    /* \"#utility.yul\":8637:8704   */\n  tag_51\n  jump\t// in\ntag_148:\n    /* \"#utility.yul\":8631:8635   */\n  dup7\n    /* \"#utility.yul\":8624:8705   */\n  sstore\n    /* \"#utility.yul\":8493:8715   */\n  pop\n    /* \"#utility.yul\":7828:8715   */\n  jump(tag_145)\n    /* \"#utility.yul\":7858:8476   */\ntag_146:\n    /* \"#utility.yul\":7910:7914   */\n  0x1f\n    /* \"#utility.yul\":7906:7915   */\n  not\n    /* \"#utility.yul\":7898:7904   */\n  dup5\n    /* \"#utility.yul\":7894:7916   */\n  and\n    /* \"#utility.yul\":7944:7981   */\n  tag_149\n    /* \"#utility.yul\":7976:7980   */\n  dup7\n    /* \"#utility.yul\":7944:7981   */\n  tag_36\n  jump\t// in\ntag_149:\n    /* \"#utility.yul\":8003:8004   */\n  0x00\n    /* \"#utility.yul\":8017:8225   */\ntag_150:\n    /* \"#utility.yul\":8031:8038   */\n  dup3\n    /* \"#utility.yul\":8028:8029   */\n  dup2\n    /* \"#utility.yul\":8025:8039   */\n  lt\n    /* \"#utility.yul\":8017:8225   */\n  iszero\n  tag_152\n  jumpi\n    /* \"#utility.yul\":8110:8119   */\n  dup5\n    /* \"#utility.yul\":8105:8108   */\n  dup10\n    /* \"#utility.yul\":8101:8120   */\n  add\n    /* \"#utility.yul\":8095:8121   */\n  mload\n    /* \"#utility.yul\":8087:8093   */\n  dup3\n    /* \"#utility.yul\":8080:8122   */\n  sstore\n    /* \"#utility.yul\":8161:8162   */\n  0x01\n    /* \"#utility.yul\":8153:8159   */\n  dup3\n    /* \"#utility.yul\":8149:8163   */\n  add\n    /* \"#utility.yul\":8139:8163   */\n  swap2\n  pop\n    /* \"#utility.yul\":8208:8210   */\n  0x20\n    /* \"#utility.yul\":8197:8206   */\n  dup6\n    /* \"#utility.yul\":8193:8211   */\n  add\n    /* \"#utility.yul\":8180:8211   */\n  swap5\n  pop\n    /* \"#utility.yul\":8054:8058   */\n  0x20\n    /* \"#utility.yul\":8051:8052   */\n  dup2\n    /* \"#utility.yul\":8047:8059   */\n  add\n    /* \"#utility.yul\":8042:8059   */\n  swap1\n  pop\n    /* \"#utility.yul\":8017:8225   */\n  jump(tag_150)\ntag_152:\n    /* \"#utility.yul\":8253:8259   */\n  dup7\n    /* \"#utility.yul\":8244:8251   */\n  dup4\n    /* \"#utility.yul\":8241:8260   */\n  lt\n    /* \"#utility.yul\":8238:8417   */\n  iszero\n  tag_153\n  jumpi\n    /* \"#utility.yul\":8311:8320   */\n  dup5\n    /* \"#utility.yul\":8306:8309   */\n  dup10\n    /* \"#utility.yul\":8302:8321   */\n  add\n    /* \"#utility.yul\":8296:8322   */\n  mload\n    /* \"#utility.yul\":8354:8402   */\n  tag_154\n    /* \"#utility.yul\":8396:8400   */\n  0x1f\n    /* \"#utility.yul\":8388:8394   */\n  dup10\n    /* \"#utility.yul\":8384:8401   */\n  and\n    /* \"#utility.yul\":8373:8382   */\n  dup3\n    /* \"#utility.yul\":8354:8402   */\n  tag_50\n  jump\t// in\ntag_154:\n    /* \"#utility.yul\":8346:8352   */\n  dup4\n    /* \"#utility.yul\":8339:8403   */\n  sstore\n    /* \"#utility.yul\":8261:8417   */\n  pop\n    /* \"#utility.yul\":8238:8417   */\ntag_153:\n    /* \"#utility.yul\":8463:8464   */\n  0x01\n    /* \"#utility.yul\":8459:8460   */\n  0x02\n    /* \"#utility.yul\":8451:8457   */\n  dup9\n    /* \"#utility.yul\":8447:8461   */\n  mul\n    /* \"#utility.yul\":8443:8465   */\n  add\n    /* \"#utility.yul\":8437:8441   */\n  dup9\n    /* \"#utility.yul\":8430:8466   */\n  sstore\n    /* \"#utility.yul\":7865:8476   */\n  pop\n  pop\n  pop\n    /* \"#utility.yul\":7828:8715   */\ntag_145:\n  pop\n    /* \"#utility.yul\":7418:8721   */\n  pop\n  pop\n  pop\n    /* \"#utility.yul\":7326:8721   */\n  pop\n  pop\n  jump\t// out\n    /* \"contracts/PBMTokenManager.sol\":144:3955  contract PBMTokenManager is IPBMTokenManager, Ownable {... */\ntag_15:\n  dataSize(sub_0)\n  dup1\n  dataOffset(sub_0)\n  0x00\n  codecopy\n  0x00\n  return\nstop\n\nsub_0: assembly {\n        /* \"contracts/PBMTokenManager.sol\":144:3955  contract PBMTokenManager is IPBMTokenManager, Ownable {... */\n      mstore(0x40, 0x80)\n      callvalue\n      dup1\n      iszero\n      tag_1\n      jumpi\n      revert(0x00, 0x00)\n    tag_1:\n      pop\n      jumpi(tag_2, lt(calldatasize, 0x04))\n      shr(0xe0, calldataload(0x00))\n      dup1\n      0x80d69c8a\n      gt\n      tag_18\n      jumpi\n      dup1\n      0xd20874d8\n      gt\n      tag_19\n      jumpi\n      dup1\n      0xd20874d8\n      eq\n      tag_14\n      jumpi\n      dup1\n      0xe21c8b59\n      eq\n      tag_15\n      jumpi\n      dup1\n      0xf2fde38b\n      eq\n      tag_16\n      jumpi\n      dup1\n      0xf600d9f4\n      eq\n      tag_17\n      jumpi\n      jump(tag_2)\n    tag_19:\n      dup1\n      0x80d69c8a\n      eq\n      tag_10\n      jumpi\n      dup1\n      0x8da5cb5b\n      eq\n      tag_11\n      jumpi\n      dup1\n      0xc1e03728\n      eq\n      tag_12\n      jumpi\n      dup1\n      0xd10424c7\n      eq\n      tag_13\n      jumpi\n      jump(tag_2)\n    tag_18:\n      dup1\n      0x36a3409c\n      gt\n      tag_20\n      jumpi\n      dup1\n      0x36a3409c\n      eq\n      tag_6\n      jumpi\n      dup1\n      0x48fd09f5\n      eq\n      tag_7\n      jumpi\n      dup1\n      0x71185897\n      eq\n      tag_8\n      jumpi\n      dup1\n      0x715018a6\n      eq\n      tag_9\n      jumpi\n      jump(tag_2)\n    tag_20:\n      dup1\n      0x03b5a3d3\n      eq\n      tag_3\n      jumpi\n      dup1\n      0x0e89341c\n      eq\n      tag_4\n      jumpi\n      dup1\n      0x33f6832a\n      eq\n      tag_5\n      jumpi\n    tag_2:\n      revert(0x00, 0x00)\n        /* \"contracts/PBMTokenManager.sol\":239:266  string public URIPostExpiry */\n    tag_3:\n      tag_21\n      tag_22\n      jump\t// in\n    tag_21:\n      mload(0x40)\n      tag_23\n      swap2\n      swap1\n      tag_24\n      jump\t// in\n    tag_23:\n      mload(0x40)\n      dup1\n      swap2\n      sub\n      swap1\n      return\n        /* \"contracts/PBMTokenManager.sol\":2758:3005  function uri(uint256 tokenId) public view override returns (string memory) {... */\n    tag_4:\n      tag_25\n      0x04\n      dup1\n      calldatasize\n      sub\n      dup2\n      add\n      swap1\n      tag_26\n      swap2\n      swap1\n      tag_27\n      jump\t// in\n    tag_26:\n      tag_28\n      jump\t// in\n    tag_25:\n      mload(0x40)\n      tag_29\n      swap2\n      swap1\n      tag_24\n      jump\t// in\n    tag_29:\n      mload(0x40)\n      dup1\n      swap2\n      sub\n      swap1\n      return\n        /* \"contracts/PBMTokenManager.sol\":272:321  mapping(uint256 => TokenConfig) public tokenTypes */\n    tag_5:\n      tag_30\n      0x04\n      dup1\n      calldatasize\n      sub\n      dup2\n      add\n      swap1\n      tag_31\n      swap2\n      swap1\n      tag_27\n      jump\t// in\n    tag_31:\n      tag_32\n      jump\t// in\n    tag_30:\n      mload(0x40)\n      tag_33\n      swap7\n      swap6\n      swap5\n      swap4\n      swap3\n      swap2\n      swap1\n      tag_34\n      jump\t// in\n    tag_33:\n      mload(0x40)\n      dup1\n      swap2\n      sub\n      swap1\n      return\n        /* \"contracts/PBMTokenManager.sol\":1449:1940  function revokePBM(uint256 tokenId, address sender) external override onlyOwner {... */\n    tag_6:\n      tag_35\n      0x04\n      dup1\n      calldatasize\n      sub\n      dup2\n      add\n      swap1\n      tag_36\n      swap2\n      swap1\n      tag_37\n      jump\t// in\n    tag_36:\n      tag_38\n      jump\t// in\n    tag_35:\n      stop\n        /* \"contracts/PBMTokenManager.sol\":3011:3264  function areTokensValid(uint256[] memory tokenIds) public view returns (bool) {... */\n    tag_7:\n      tag_39\n      0x04\n      dup1\n      calldatasize\n      sub\n      dup2\n      add\n      swap1\n      tag_40\n      swap2\n      swap1\n      tag_41\n      jump\t// in\n    tag_40:\n      tag_42\n      jump\t// in\n    tag_39:\n      mload(0x40)\n      tag_43\n      swap2\n      swap1\n      tag_44\n      jump\t// in\n    tag_43:\n      mload(0x40)\n      dup1\n      swap2\n      sub\n      swap1\n      return\n        /* \"contracts/PBMTokenManager.sol\":204:233  uint256 public tokenTypeCount */\n    tag_8:\n      tag_45\n      tag_46\n      jump\t// in\n    tag_45:\n      mload(0x40)\n      tag_47\n      swap2\n      swap1\n      tag_48\n      jump\t// in\n    tag_47:\n      mload(0x40)\n      dup1\n      swap2\n      sub\n      swap1\n      return\n        /* \"@openzeppelin/contracts/access/Ownable.sol\":2293:2394  function renounceOwnership() public virtual onlyOwner {... */\n    tag_9:\n      tag_49\n      tag_50\n      jump\t// in\n    tag_49:\n      stop\n        /* \"contracts/PBMTokenManager.sol\":488:1443  function createTokenType(... */\n    tag_10:\n      tag_51\n      0x04\n      dup1\n      calldatasize\n      sub\n      dup2\n      add\n      swap1\n      tag_52\n      swap2\n      swap1\n      tag_53\n      jump\t// in\n    tag_52:\n      tag_54\n      jump\t// in\n    tag_51:\n      mload(0x40)\n      tag_55\n      swap2\n      swap1\n      tag_48\n      jump\t// in\n    tag_55:\n      mload(0x40)\n      dup1\n      swap2\n      sub\n      swap1\n      return\n        /* \"@openzeppelin/contracts/access/Ownable.sol\":1638:1723  function owner() public view virtual returns (address) {... */\n    tag_11:\n      tag_56\n      tag_57\n      jump\t// in\n    tag_56:\n      mload(0x40)\n      tag_58\n      swap2\n      swap1\n      tag_59\n      jump\t// in\n    tag_58:\n      mload(0x40)\n      dup1\n      swap2\n      sub\n      swap1\n      return\n        /* \"contracts/PBMTokenManager.sol\":3445:3818  function getTokenDetails(uint256 tokenId)... */\n    tag_12:\n      tag_60\n      0x04\n      dup1\n      calldatasize\n      sub\n      dup2\n      add\n      swap1\n      tag_61\n      swap2\n      swap1\n      tag_27\n      jump\t// in\n    tag_61:\n      tag_62\n      jump\t// in\n    tag_60:\n      mload(0x40)\n      tag_63\n      swap6\n      swap5\n      swap4\n      swap3\n      swap2\n      swap1\n      tag_64\n      jump\t// in\n    tag_63:\n      mload(0x40)\n      dup1\n      swap2\n      sub\n      swap1\n      return\n        /* \"contracts/PBMTokenManager.sol\":3824:3953  function getTokenValue(uint256 tokenId) public view override returns (uint256) {... */\n    tag_13:\n      tag_65\n      0x04\n      dup1\n      calldatasize\n      sub\n      dup2\n      add\n      swap1\n      tag_66\n      swap2\n      swap1\n      tag_27\n      jump\t// in\n    tag_66:\n      tag_67\n      jump\t// in\n    tag_65:\n      mload(0x40)\n      tag_68\n      swap2\n      swap1\n      tag_48\n      jump\t// in\n    tag_68:\n      mload(0x40)\n      dup1\n      swap2\n      sub\n      swap1\n      return\n        /* \"contracts/PBMTokenManager.sol\":3270:3439  function getPBMRevokeValue(uint256 tokenId) public view override returns (uint256) {... */\n    tag_14:\n      tag_69\n      0x04\n      dup1\n      calldatasize\n      sub\n      dup2\n      add\n      swap1\n      tag_70\n      swap2\n      swap1\n      tag_27\n      jump\t// in\n    tag_70:\n      tag_71\n      jump\t// in\n    tag_69:\n      mload(0x40)\n      tag_72\n      swap2\n      swap1\n      tag_48\n      jump\t// in\n    tag_72:\n      mload(0x40)\n      dup1\n      swap2\n      sub\n      swap1\n      return\n        /* \"contracts/PBMTokenManager.sol\":2352:2752  function decreaseBalanceSupply(uint256[] memory tokenIds, uint256[] memory amounts)... */\n    tag_15:\n      tag_73\n      0x04\n      dup1\n      calldatasize\n      sub\n      dup2\n      add\n      swap1\n      tag_74\n      swap2\n      swap1\n      tag_75\n      jump\t// in\n    tag_74:\n      tag_76\n      jump\t// in\n    tag_73:\n      stop\n        /* \"@openzeppelin/contracts/access/Ownable.sol\":2543:2758  function transferOwnership(address newOwner) public virtual onlyOwner {... */\n    tag_16:\n      tag_77\n      0x04\n      dup1\n      calldatasize\n      sub\n      dup2\n      add\n      swap1\n      tag_78\n      swap2\n      swap1\n      tag_79\n      jump\t// in\n    tag_78:\n      tag_80\n      jump\t// in\n    tag_77:\n      stop\n        /* \"contracts/PBMTokenManager.sol\":1946:2346  function increaseBalanceSupply(uint256[] memory tokenIds, uint256[] memory amounts)... */\n    tag_17:\n      tag_81\n      0x04\n      dup1\n      calldatasize\n      sub\n      dup2\n      add\n      swap1\n      tag_82\n      swap2\n      swap1\n      tag_75\n      jump\t// in\n    tag_82:\n      tag_83\n      jump\t// in\n    tag_81:\n      stop\n        /* \"contracts/PBMTokenManager.sol\":239:266  string public URIPostExpiry */\n    tag_22:\n      0x02\n      dup1\n      sload\n      tag_84\n      swap1\n      tag_85\n      jump\t// in\n    tag_84:\n      dup1\n      0x1f\n      add\n      0x20\n      dup1\n      swap2\n      div\n      mul\n      0x20\n      add\n      mload(0x40)\n      swap1\n      dup2\n      add\n      0x40\n      mstore\n      dup1\n      swap3\n      swap2\n      swap1\n      dup2\n      dup2\n      mstore\n      0x20\n      add\n      dup3\n      dup1\n      sload\n      tag_86\n      swap1\n      tag_85\n      jump\t// in\n    tag_86:\n      dup1\n      iszero\n      tag_87\n      jumpi\n      dup1\n      0x1f\n      lt\n      tag_88\n      jumpi\n      0x0100\n      dup1\n      dup4\n      sload\n      div\n      mul\n      dup4\n      mstore\n      swap2\n      0x20\n      add\n      swap2\n      jump(tag_87)\n    tag_88:\n      dup3\n      add\n      swap2\n      swap1\n      0x00\n      mstore\n      keccak256(0x00, 0x20)\n      swap1\n    tag_89:\n      dup2\n      sload\n      dup2\n      mstore\n      swap1\n      0x01\n      add\n      swap1\n      0x20\n      add\n      dup1\n      dup4\n      gt\n      tag_89\n      jumpi\n      dup3\n      swap1\n      sub\n      0x1f\n      and\n      dup3\n      add\n      swap2\n    tag_87:\n      pop\n      pop\n      pop\n      pop\n      pop\n      dup2\n      jump\t// out\n        /* \"contracts/PBMTokenManager.sol\":2758:3005  function uri(uint256 tokenId) public view override returns (string memory) {... */\n    tag_28:\n        /* \"contracts/PBMTokenManager.sol\":2818:2831  string memory */\n      0x60\n        /* \"contracts/PBMTokenManager.sol\":2865:2875  tokenTypes */\n      0x03\n        /* \"contracts/PBMTokenManager.sol\":2865:2884  tokenTypes[tokenId] */\n      0x00\n        /* \"contracts/PBMTokenManager.sol\":2876:2883  tokenId */\n      dup4\n        /* \"contracts/PBMTokenManager.sol\":2865:2884  tokenTypes[tokenId] */\n      dup2\n      mstore\n      0x20\n      add\n      swap1\n      dup2\n      mstore\n      0x20\n      add\n      0x00\n      keccak256\n        /* \"contracts/PBMTokenManager.sol\":2865:2891  tokenTypes[tokenId].expiry */\n      0x03\n      add\n      sload\n        /* \"contracts/PBMTokenManager.sol\":2847:2862  block.timestamp */\n      timestamp\n        /* \"contracts/PBMTokenManager.sol\":2847:2891  block.timestamp > tokenTypes[tokenId].expiry */\n      gt\n        /* \"contracts/PBMTokenManager.sol\":2843:2999  if (block.timestamp > tokenTypes[tokenId].expiry) {... */\n      iszero\n      tag_91\n      jumpi\n        /* \"contracts/PBMTokenManager.sol\":2914:2927  URIPostExpiry */\n      0x02\n        /* \"contracts/PBMTokenManager.sol\":2907:2927  return URIPostExpiry */\n      dup1\n      sload\n      tag_92\n      swap1\n      tag_85\n      jump\t// in\n    tag_92:\n      dup1\n      0x1f\n      add\n      0x20\n      dup1\n      swap2\n      div\n      mul\n      0x20\n      add\n      mload(0x40)\n      swap1\n      dup2\n      add\n      0x40\n      mstore\n      dup1\n      swap3\n      swap2\n      swap1\n      dup2\n      dup2\n      mstore\n      0x20\n      add\n      dup3\n      dup1\n      sload\n      tag_93\n      swap1\n      tag_85\n      jump\t// in\n    tag_93:\n      dup1\n      iszero\n      tag_94\n      jumpi\n      dup1\n      0x1f\n      lt\n      tag_95\n      jumpi\n      0x0100\n      dup1\n      dup4\n      sload\n      div\n      mul\n      dup4\n      mstore\n      swap2\n      0x20\n      add\n      swap2\n      jump(tag_94)\n    tag_95:\n      dup3\n      add\n      swap2\n      swap1\n      0x00\n      mstore\n      keccak256(0x00, 0x20)\n      swap1\n    tag_96:\n      dup2\n      sload\n      dup2\n      mstore\n      swap1\n      0x01\n      add\n      swap1\n      0x20\n      add\n      dup1\n      dup4\n      gt\n      tag_96\n      jumpi\n      dup3\n      swap1\n      sub\n      0x1f\n      and\n      dup3\n      add\n      swap2\n    tag_94:\n      pop\n      pop\n      pop\n      pop\n      pop\n      swap1\n      pop\n      jump(tag_90)\n        /* \"contracts/PBMTokenManager.sol\":2843:2999  if (block.timestamp > tokenTypes[tokenId].expiry) {... */\n    tag_91:\n        /* \"contracts/PBMTokenManager.sol\":2965:2975  tokenTypes */\n      0x03\n        /* \"contracts/PBMTokenManager.sol\":2965:2984  tokenTypes[tokenId] */\n      0x00\n        /* \"contracts/PBMTokenManager.sol\":2976:2983  tokenId */\n      dup4\n        /* \"contracts/PBMTokenManager.sol\":2965:2984  tokenTypes[tokenId] */\n      dup2\n      mstore\n      0x20\n      add\n      swap1\n      dup2\n      mstore\n      0x20\n      add\n      0x00\n      keccak256\n        /* \"contracts/PBMTokenManager.sol\":2965:2988  tokenTypes[tokenId].uri */\n      0x05\n      add\n        /* \"contracts/PBMTokenManager.sol\":2958:2988  return tokenTypes[tokenId].uri */\n      dup1\n      sload\n      tag_98\n      swap1\n      tag_85\n      jump\t// in\n    tag_98:\n      dup1\n      0x1f\n      add\n      0x20\n      dup1\n      swap2\n      div\n      mul\n      0x20\n      add\n      mload(0x40)\n      swap1\n      dup2\n      add\n      0x40\n      mstore\n      dup1\n      swap3\n      swap2\n      swap1\n      dup2\n      dup2\n      mstore\n      0x20\n      add\n      dup3\n      dup1\n      sload\n      tag_99\n      swap1\n      tag_85\n      jump\t// in\n    tag_99:\n      dup1\n      iszero\n      tag_100\n      jumpi\n      dup1\n      0x1f\n      lt\n      tag_101\n      jumpi\n      0x0100\n      dup1\n      dup4\n      sload\n      div\n      mul\n      dup4\n      mstore\n      swap2\n      0x20\n      add\n      swap2\n      jump(tag_100)\n    tag_101:\n      dup3\n      add\n      swap2\n      swap1\n      0x00\n      mstore\n      keccak256(0x00, 0x20)\n      swap1\n    tag_102:\n      dup2\n      sload\n      dup2\n      mstore\n      swap1\n      0x01\n      add\n      swap1\n      0x20\n      add\n      dup1\n      dup4\n      gt\n      tag_102\n      jumpi\n      dup3\n      swap1\n      sub\n      0x1f\n      and\n      dup3\n      add\n      swap2\n    tag_100:\n      pop\n      pop\n      pop\n      pop\n      pop\n      swap1\n      pop\n        /* \"contracts/PBMTokenManager.sol\":2758:3005  function uri(uint256 tokenId) public view override returns (string memory) {... */\n    tag_90:\n      swap2\n      swap1\n      pop\n      jump\t// out\n        /* \"contracts/PBMTokenManager.sol\":272:321  mapping(uint256 => TokenConfig) public tokenTypes */\n    tag_32:\n      mstore(0x20, 0x03)\n      dup1\n      0x00\n      mstore\n      keccak256(0x00, 0x40)\n      0x00\n      swap2\n      pop\n      swap1\n      pop\n      dup1\n      0x00\n      add\n      dup1\n      sload\n      tag_103\n      swap1\n      tag_85\n      jump\t// in\n    tag_103:\n      dup1\n      0x1f\n      add\n      0x20\n      dup1\n      swap2\n      div\n      mul\n      0x20\n      add\n      mload(0x40)\n      swap1\n      dup2\n      add\n      0x40\n      mstore\n      dup1\n      swap3\n      swap2\n      swap1\n      dup2\n      dup2\n      mstore\n      0x20\n      add\n      dup3\n      dup1\n      sload\n      tag_104\n      swap1\n      tag_85\n      jump\t// in\n    tag_104:\n      dup1\n      iszero\n      tag_105\n      jumpi\n      dup1\n      0x1f\n      lt\n      tag_106\n      jumpi\n      0x0100\n      dup1\n      dup4\n      sload\n      div\n      mul\n      dup4\n      mstore\n      swap2\n      0x20\n      add\n      swap2\n      jump(tag_105)\n    tag_106:\n      dup3\n      add\n      swap2\n      swap1\n      0x00\n      mstore\n      keccak256(0x00, 0x20)\n      swap1\n    tag_107:\n      dup2\n      sload\n      dup2\n      mstore\n      swap1\n      0x01\n      add\n      swap1\n      0x20\n      add\n      dup1\n      dup4\n      gt\n      tag_107\n      jumpi\n      dup3\n      swap1\n      sub\n      0x1f\n      and\n      dup3\n      add\n      swap2\n    tag_105:\n      pop\n      pop\n      pop\n      pop\n      pop\n      swap1\n      dup1\n      0x01\n      add\n      sload\n      swap1\n      dup1\n      0x02\n      add\n      sload\n      swap1\n      dup1\n      0x03\n      add\n      sload\n      swap1\n      dup1\n      0x04\n      add\n      0x00\n      swap1\n      sload\n      swap1\n      0x0100\n      exp\n      swap1\n      div\n      0xffffffffffffffffffffffffffffffffffffffff\n      and\n      swap1\n      dup1\n      0x05\n      add\n      dup1\n      sload\n      tag_108\n      swap1\n      tag_85\n      jump\t// in\n    tag_108:\n      dup1\n      0x1f\n      add\n      0x20\n      dup1\n      swap2\n      div\n      mul\n      0x20\n      add\n      mload(0x40)\n      swap1\n      dup2\n      add\n      0x40\n      mstore\n      dup1\n      swap3\n      swap2\n      swap1\n      dup2\n      dup2\n      mstore\n      0x20\n      add\n      dup3\n      dup1\n      sload\n      tag_109\n      swap1\n      tag_85\n      jump\t// in\n    tag_109:\n      dup1\n      iszero\n      tag_110\n      jumpi\n      dup1\n      0x1f\n      lt\n      tag_111\n      jumpi\n      0x0100\n      dup1\n      dup4\n      sload\n      div\n      mul\n      dup4\n      mstore\n      swap2\n      0x20\n      add\n      swap2\n      jump(tag_110)\n    tag_111:\n      dup3\n      add\n      swap2\n      swap1\n      0x00\n      mstore\n      keccak256(0x00, 0x20)\n      swap1\n    tag_112:\n      dup2\n      sload\n      dup2\n      mstore\n      swap1\n      0x01\n      add\n      swap1\n      0x20\n      add\n      dup1\n      dup4\n      gt\n      tag_112\n      jumpi\n      dup3\n      swap1\n      sub\n      0x1f\n      and\n      dup3\n      add\n      swap2\n    tag_110:\n      pop\n      pop\n      pop\n      pop\n      pop\n      swap1\n      pop\n      dup7\n      jump\t// out\n        /* \"contracts/PBMTokenManager.sol\":1449:1940  function revokePBM(uint256 tokenId, address sender) external override onlyOwner {... */\n    tag_38:\n        /* \"@openzeppelin/contracts/access/Ownable.sol\":1531:1544  _checkOwner() */\n      tag_114\n        /* \"@openzeppelin/contracts/access/Ownable.sol\":1531:1542  _checkOwner */\n      tag_115\n        /* \"@openzeppelin/contracts/access/Ownable.sol\":1531:1544  _checkOwner() */\n      jump\t// in\n    tag_114:\n        /* \"contracts/PBMTokenManager.sol\":1539:1564  uint256[] memory tokenIds */\n      0x00\n        /* \"contracts/PBMTokenManager.sol\":1581:1582  1 */\n      0x01\n        /* \"contracts/PBMTokenManager.sol\":1567:1583  new uint256[](1) */\n      0xffffffffffffffff\n      dup2\n      gt\n      iszero\n      tag_117\n      jumpi\n      tag_118\n      tag_119\n      jump\t// in\n    tag_118:\n    tag_117:\n      mload(0x40)\n      swap1\n      dup1\n      dup3\n      mstore\n      dup1\n      0x20\n      mul\n      0x20\n      add\n      dup3\n      add\n      0x40\n      mstore\n      dup1\n      iszero\n      tag_120\n      jumpi\n      dup2\n      0x20\n      add\n      0x20\n      dup3\n      mul\n      dup1\n      calldatasize\n      dup4\n      calldatacopy\n      dup1\n      dup3\n      add\n      swap2\n      pop\n      pop\n      swap1\n      pop\n    tag_120:\n      pop\n        /* \"contracts/PBMTokenManager.sol\":1539:1583  uint256[] memory tokenIds = new uint256[](1) */\n      swap1\n      pop\n        /* \"contracts/PBMTokenManager.sol\":1607:1614  tokenId */\n      dup3\n        /* \"contracts/PBMTokenManager.sol\":1593:1601  tokenIds */\n      dup2\n        /* \"contracts/PBMTokenManager.sol\":1602:1603  0 */\n      0x00\n        /* \"contracts/PBMTokenManager.sol\":1593:1604  tokenIds[0] */\n      dup2\n      mload\n      dup2\n      lt\n      tag_121\n      jumpi\n      tag_122\n      tag_123\n      jump\t// in\n    tag_122:\n    tag_121:\n      0x20\n      mul\n      0x20\n      add\n      add\n        /* \"contracts/PBMTokenManager.sol\":1593:1614  tokenIds[0] = tokenId */\n      dup2\n      dup2\n      mstore\n      pop\n      pop\n        /* \"contracts/PBMTokenManager.sol\":1632:1656  areTokensValid(tokenIds) */\n      tag_124\n        /* \"contracts/PBMTokenManager.sol\":1647:1655  tokenIds */\n      dup2\n        /* \"contracts/PBMTokenManager.sol\":1632:1646  areTokensValid */\n      tag_42\n        /* \"contracts/PBMTokenManager.sol\":1632:1656  areTokensValid(tokenIds) */\n      jump\t// in\n    tag_124:\n        /* \"contracts/PBMTokenManager.sol\":1624:1679  require(areTokensValid(tokenIds), \"PBM: Invalid token\") */\n      tag_125\n      jumpi\n      mload(0x40)\n      0x08c379a000000000000000000000000000000000000000000000000000000000\n      dup2\n      mstore\n      0x04\n      add\n      tag_126\n      swap1\n      tag_127\n      jump\t// in\n    tag_126:\n      mload(0x40)\n      dup1\n      swap2\n      sub\n      swap1\n      revert\n    tag_125:\n        /* \"contracts/PBMTokenManager.sol\":1715:1725  tokenTypes */\n      0x03\n        /* \"contracts/PBMTokenManager.sol\":1715:1734  tokenTypes[tokenId] */\n      0x00\n        /* \"contracts/PBMTokenManager.sol\":1726:1733  tokenId */\n      dup5\n        /* \"contracts/PBMTokenManager.sol\":1715:1734  tokenTypes[tokenId] */\n      dup2\n      mstore\n      0x20\n      add\n      swap1\n      dup2\n      mstore\n      0x20\n      add\n      0x00\n      keccak256\n        /* \"contracts/PBMTokenManager.sol\":1715:1741  tokenTypes[tokenId].expiry */\n      0x03\n      add\n      sload\n        /* \"contracts/PBMTokenManager.sol\":1697:1712  block.timestamp */\n      timestamp\n        /* \"contracts/PBMTokenManager.sol\":1697:1741  block.timestamp > tokenTypes[tokenId].expiry */\n      gt\n        /* \"contracts/PBMTokenManager.sol\":1689:1768  require(block.timestamp > tokenTypes[tokenId].expiry, \"PBM: Token not expired\") */\n      tag_128\n      jumpi\n      mload(0x40)\n      0x08c379a000000000000000000000000000000000000000000000000000000000\n      dup2\n      mstore\n      0x04\n      add\n      tag_129\n      swap1\n      tag_130\n      jump\t// in\n    tag_129:\n      mload(0x40)\n      dup1\n      swap2\n      sub\n      swap1\n      revert\n    tag_128:\n        /* \"contracts/PBMTokenManager.sol\":1796:1806  tokenTypes */\n      0x03\n        /* \"contracts/PBMTokenManager.sol\":1796:1815  tokenTypes[tokenId] */\n      0x00\n        /* \"contracts/PBMTokenManager.sol\":1807:1814  tokenId */\n      dup5\n        /* \"contracts/PBMTokenManager.sol\":1796:1815  tokenTypes[tokenId] */\n      dup2\n      mstore\n      0x20\n      add\n      swap1\n      dup2\n      mstore\n      0x20\n      add\n      0x00\n      keccak256\n        /* \"contracts/PBMTokenManager.sol\":1796:1823  tokenTypes[tokenId].creator */\n      0x04\n      add\n      0x00\n      swap1\n      sload\n      swap1\n      0x0100\n      exp\n      swap1\n      div\n      0xffffffffffffffffffffffffffffffffffffffff\n      and\n        /* \"contracts/PBMTokenManager.sol\":1786:1823  sender == tokenTypes[tokenId].creator */\n      0xffffffffffffffffffffffffffffffffffffffff\n      and\n        /* \"contracts/PBMTokenManager.sol\":1786:1792  sender */\n      dup3\n        /* \"contracts/PBMTokenManager.sol\":1786:1823  sender == tokenTypes[tokenId].creator */\n      0xffffffffffffffffffffffffffffffffffffffff\n      and\n      eq\n        /* \"contracts/PBMTokenManager.sol\":1778:1844  require(sender == tokenTypes[tokenId].creator, \"PBM: Not creator\") */\n      tag_131\n      jumpi\n      mload(0x40)\n      0x08c379a000000000000000000000000000000000000000000000000000000000\n      dup2\n      mstore\n      0x04\n      add\n      tag_132\n      swap1\n      tag_133\n      jump\t// in\n    tag_132:\n      mload(0x40)\n      dup1\n      swap2\n      sub\n      swap1\n      revert\n    tag_131:\n        /* \"contracts/PBMTokenManager.sol\":1890:1891  0 */\n      0x00\n        /* \"contracts/PBMTokenManager.sol\":1854:1864  tokenTypes */\n      0x03\n        /* \"contracts/PBMTokenManager.sol\":1854:1873  tokenTypes[tokenId] */\n      0x00\n        /* \"contracts/PBMTokenManager.sol\":1865:1872  tokenId */\n      dup6\n        /* \"contracts/PBMTokenManager.sol\":1854:1873  tokenTypes[tokenId] */\n      dup2\n      mstore\n      0x20\n      add\n      swap1\n      dup2\n      mstore\n      0x20\n      add\n      0x00\n      keccak256\n        /* \"contracts/PBMTokenManager.sol\":1854:1887  tokenTypes[tokenId].balanceSupply */\n      0x02\n      add\n        /* \"contracts/PBMTokenManager.sol\":1854:1891  tokenTypes[tokenId].balanceSupply = 0 */\n      dup2\n      swap1\n      sstore\n      pop\n        /* \"contracts/PBMTokenManager.sol\":1917:1924  tokenId */\n      dup3\n        /* \"contracts/PBMTokenManager.sol\":1906:1933  PBMRevoked(tokenId, sender) */\n      0xa22ebdccafac40b8d854e46fa173d7d1b43cb56b3e1d9faf46763611c7fcfb56\n        /* \"contracts/PBMTokenManager.sol\":1926:1932  sender */\n      dup4\n        /* \"contracts/PBMTokenManager.sol\":1906:1933  PBMRevoked(tokenId, sender) */\n      mload(0x40)\n      tag_134\n      swap2\n      swap1\n      tag_59\n      jump\t// in\n    tag_134:\n      mload(0x40)\n      dup1\n      swap2\n      sub\n      swap1\n      log2\n        /* \"contracts/PBMTokenManager.sol\":1529:1940  {... */\n      pop\n        /* \"contracts/PBMTokenManager.sol\":1449:1940  function revokePBM(uint256 tokenId, address sender) external override onlyOwner {... */\n      pop\n      pop\n      jump\t// out\n        /* \"contracts/PBMTokenManager.sol\":3011:3264  function areTokensValid(uint256[] memory tokenIds) public view returns (bool) {... */\n    tag_42:\n        /* \"contracts/PBMTokenManager.sol\":3083:3087  bool */\n      0x00\n        /* \"contracts/PBMTokenManager.sol\":3104:3113  uint256 i */\n      0x00\n        /* \"contracts/PBMTokenManager.sol\":3116:3117  0 */\n      0x00\n        /* \"contracts/PBMTokenManager.sol\":3104:3117  uint256 i = 0 */\n      swap1\n      pop\n        /* \"contracts/PBMTokenManager.sol\":3099:3237  for (uint256 i = 0; i < tokenIds.length; i++) {... */\n    tag_136:\n        /* \"contracts/PBMTokenManager.sol\":3123:3131  tokenIds */\n      dup3\n        /* \"contracts/PBMTokenManager.sol\":3123:3138  tokenIds.length */\n      mload\n        /* \"contracts/PBMTokenManager.sol\":3119:3120  i */\n      dup2\n        /* \"contracts/PBMTokenManager.sol\":3119:3138  i < tokenIds.length */\n      lt\n        /* \"contracts/PBMTokenManager.sol\":3099:3237  for (uint256 i = 0; i < tokenIds.length; i++) {... */\n      iszero\n      tag_137\n      jumpi\n        /* \"contracts/PBMTokenManager.sol\":3178:3179  0 */\n      0x00\n        /* \"contracts/PBMTokenManager.sol\":3163:3171  tokenIds */\n      dup4\n        /* \"contracts/PBMTokenManager.sol\":3172:3173  i */\n      dup3\n        /* \"contracts/PBMTokenManager.sol\":3163:3174  tokenIds[i] */\n      dup2\n      mload\n      dup2\n      lt\n      tag_139\n      jumpi\n      tag_140\n      tag_123\n      jump\t// in\n    tag_140:\n    tag_139:\n      0x20\n      mul\n      0x20\n      add\n      add\n      mload\n        /* \"contracts/PBMTokenManager.sol\":3163:3179  tokenIds[i] == 0 */\n      eq\n        /* \"contracts/PBMTokenManager.sol\":3163:3212  tokenIds[i] == 0 || tokenIds[i] >= tokenTypeCount */\n      dup1\n      tag_141\n      jumpi\n      pop\n        /* \"contracts/PBMTokenManager.sol\":3198:3212  tokenTypeCount */\n      sload(0x01)\n        /* \"contracts/PBMTokenManager.sol\":3183:3191  tokenIds */\n      dup4\n        /* \"contracts/PBMTokenManager.sol\":3192:3193  i */\n      dup3\n        /* \"contracts/PBMTokenManager.sol\":3183:3194  tokenIds[i] */\n      dup2\n      mload\n      dup2\n      lt\n      tag_142\n      jumpi\n      tag_143\n      tag_123\n      jump\t// in\n    tag_143:\n    tag_142:\n      0x20\n      mul\n      0x20\n      add\n      add\n      mload\n        /* \"contracts/PBMTokenManager.sol\":3183:3212  tokenIds[i] >= tokenTypeCount */\n      lt\n      iszero\n        /* \"contracts/PBMTokenManager.sol\":3163:3212  tokenIds[i] == 0 || tokenIds[i] >= tokenTypeCount */\n    tag_141:\n        /* \"contracts/PBMTokenManager.sol\":3159:3226  if (tokenIds[i] == 0 || tokenIds[i] >= tokenTypeCount) return false */\n      iszero\n      tag_144\n      jumpi\n        /* \"contracts/PBMTokenManager.sol\":3221:3226  false */\n      0x00\n        /* \"contracts/PBMTokenManager.sol\":3214:3226  return false */\n      swap2\n      pop\n      pop\n      jump(tag_135)\n        /* \"contracts/PBMTokenManager.sol\":3159:3226  if (tokenIds[i] == 0 || tokenIds[i] >= tokenTypeCount) return false */\n    tag_144:\n        /* \"contracts/PBMTokenManager.sol\":3140:3143  i++ */\n      dup1\n      dup1\n      0x01\n      add\n      swap2\n      pop\n      pop\n        /* \"contracts/PBMTokenManager.sol\":3099:3237  for (uint256 i = 0; i < tokenIds.length; i++) {... */\n      jump(tag_136)\n    tag_137:\n      pop\n        /* \"contracts/PBMTokenManager.sol\":3253:3257  true */\n      0x01\n        /* \"contracts/PBMTokenManager.sol\":3246:3257  return true */\n      swap1\n      pop\n        /* \"contracts/PBMTokenManager.sol\":3011:3264  function areTokensValid(uint256[] memory tokenIds) public view returns (bool) {... */\n    tag_135:\n      swap2\n      swap1\n      pop\n      jump\t// out\n        /* \"contracts/PBMTokenManager.sol\":204:233  uint256 public tokenTypeCount */\n    tag_46:\n      sload(0x01)\n      dup2\n      jump\t// out\n        /* \"@openzeppelin/contracts/access/Ownable.sol\":2293:2394  function renounceOwnership() public virtual onlyOwner {... */\n    tag_50:\n        /* \"@openzeppelin/contracts/access/Ownable.sol\":1531:1544  _checkOwner() */\n      tag_146\n        /* \"@openzeppelin/contracts/access/Ownable.sol\":1531:1542  _checkOwner */\n      tag_115\n        /* \"@openzeppelin/contracts/access/Ownable.sol\":1531:1544  _checkOwner() */\n      jump\t// in\n    tag_146:\n        /* \"@openzeppelin/contracts/access/Ownable.sol\":2357:2387  _transferOwnership(address(0)) */\n      tag_148\n        /* \"@openzeppelin/contracts/access/Ownable.sol\":2384:2385  0 */\n      0x00\n        /* \"@openzeppelin/contracts/access/Ownable.sol\":2357:2375  _transferOwnership */\n      tag_149\n        /* \"@openzeppelin/contracts/access/Ownable.sol\":2357:2387  _transferOwnership(address(0)) */\n      jump\t// in\n    tag_148:\n        /* \"@openzeppelin/contracts/access/Ownable.sol\":2293:2394  function renounceOwnership() public virtual onlyOwner {... */\n      jump\t// out\n        /* \"contracts/PBMTokenManager.sol\":488:1443  function createTokenType(... */\n    tag_54:\n        /* \"contracts/PBMTokenManager.sol\":735:750  uint256 tokenId */\n      0x00\n        /* \"@openzeppelin/contracts/access/Ownable.sol\":1531:1544  _checkOwner() */\n      tag_151\n        /* \"@openzeppelin/contracts/access/Ownable.sol\":1531:1542  _checkOwner */\n      tag_115\n        /* \"@openzeppelin/contracts/access/Ownable.sol\":1531:1544  _checkOwner() */\n      jump\t// in\n    tag_151:\n        /* \"contracts/PBMTokenManager.sol\":785:799  contractExpiry */\n      dup2\n        /* \"contracts/PBMTokenManager.sol\":770:781  tokenExpiry */\n      dup6\n        /* \"contracts/PBMTokenManager.sol\":770:799  tokenExpiry <= contractExpiry */\n      gt\n      iszero\n        /* \"contracts/PBMTokenManager.sol\":762:826  require(tokenExpiry <= contractExpiry, \"Invalid token expiry-1\") */\n      tag_153\n      jumpi\n      mload(0x40)\n      0x08c379a000000000000000000000000000000000000000000000000000000000\n      dup2\n      mstore\n      0x04\n      add\n      tag_154\n      swap1\n      tag_155\n      jump\t// in\n    tag_154:\n      mload(0x40)\n      dup1\n      swap2\n      sub\n      swap1\n      revert\n    tag_153:\n        /* \"contracts/PBMTokenManager.sol\":858:873  block.timestamp */\n      timestamp\n        /* \"contracts/PBMTokenManager.sol\":844:855  tokenExpiry */\n      dup6\n        /* \"contracts/PBMTokenManager.sol\":844:873  tokenExpiry > block.timestamp */\n      gt\n        /* \"contracts/PBMTokenManager.sol\":836:900  require(tokenExpiry > block.timestamp, \"Invalid token expiry-2\") */\n      tag_156\n      jumpi\n      mload(0x40)\n      0x08c379a000000000000000000000000000000000000000000000000000000000\n      dup2\n      mstore\n      0x04\n      add\n      tag_157\n      swap1\n      tag_158\n      jump\t// in\n    tag_157:\n      mload(0x40)\n      dup1\n      swap2\n      sub\n      swap1\n      revert\n    tag_156:\n        /* \"contracts/PBMTokenManager.sol\":932:933  0 */\n      0x00\n        /* \"contracts/PBMTokenManager.sol\":918:928  spotAmount */\n      dup7\n        /* \"contracts/PBMTokenManager.sol\":918:933  spotAmount != 0 */\n      sub\n        /* \"contracts/PBMTokenManager.sol\":910:954  require(spotAmount != 0, \"Spot amount is 0\") */\n      tag_159\n      jumpi\n      mload(0x40)\n      0x08c379a000000000000000000000000000000000000000000000000000000000\n      dup2\n      mstore\n      0x04\n      add\n      tag_160\n      swap1\n      tag_161\n      jump\t// in\n    tag_160:\n      mload(0x40)\n      dup1\n      swap2\n      sub\n      swap1\n      revert\n    tag_159:\n        /* \"contracts/PBMTokenManager.sol\":999:1008  tokenName */\n      dup7\n        /* \"contracts/PBMTokenManager.sol\":965:975  tokenTypes */\n      0x03\n        /* \"contracts/PBMTokenManager.sol\":965:991  tokenTypes[tokenTypeCount] */\n      0x00\n        /* \"contracts/PBMTokenManager.sol\":976:990  tokenTypeCount */\n      sload(0x01)\n        /* \"contracts/PBMTokenManager.sol\":965:991  tokenTypes[tokenTypeCount] */\n      dup2\n      mstore\n      0x20\n      add\n      swap1\n      dup2\n      mstore\n      0x20\n      add\n      0x00\n      keccak256\n        /* \"contracts/PBMTokenManager.sol\":965:996  tokenTypes[tokenTypeCount].name */\n      0x00\n      add\n        /* \"contracts/PBMTokenManager.sol\":965:1008  tokenTypes[tokenTypeCount].name = tokenName */\n      swap1\n      dup2\n      tag_162\n      swap2\n      swap1\n      tag_163\n      jump\t// in\n    tag_162:\n      pop\n        /* \"contracts/PBMTokenManager.sol\":1054:1064  spotAmount */\n      dup6\n        /* \"contracts/PBMTokenManager.sol\":1018:1028  tokenTypes */\n      0x03\n        /* \"contracts/PBMTokenManager.sol\":1018:1044  tokenTypes[tokenTypeCount] */\n      0x00\n        /* \"contracts/PBMTokenManager.sol\":1029:1043  tokenTypeCount */\n      sload(0x01)\n        /* \"contracts/PBMTokenManager.sol\":1018:1044  tokenTypes[tokenTypeCount] */\n      dup2\n      mstore\n      0x20\n      add\n      swap1\n      dup2\n      mstore\n      0x20\n      add\n      0x00\n      keccak256\n        /* \"contracts/PBMTokenManager.sol\":1018:1051  tokenTypes[tokenTypeCount].amount */\n      0x01\n      add\n        /* \"contracts/PBMTokenManager.sol\":1018:1064  tokenTypes[tokenTypeCount].amount = spotAmount */\n      dup2\n      swap1\n      sstore\n      pop\n        /* \"contracts/PBMTokenManager.sol\":1110:1121  tokenExpiry */\n      dup5\n        /* \"contracts/PBMTokenManager.sol\":1074:1084  tokenTypes */\n      0x03\n        /* \"contracts/PBMTokenManager.sol\":1074:1100  tokenTypes[tokenTypeCount] */\n      0x00\n        /* \"contracts/PBMTokenManager.sol\":1085:1099  tokenTypeCount */\n      sload(0x01)\n        /* \"contracts/PBMTokenManager.sol\":1074:1100  tokenTypes[tokenTypeCount] */\n      dup2\n      mstore\n      0x20\n      add\n      swap1\n      dup2\n      mstore\n      0x20\n      add\n      0x00\n      keccak256\n        /* \"contracts/PBMTokenManager.sol\":1074:1107  tokenTypes[tokenTypeCount].expiry */\n      0x03\n      add\n        /* \"contracts/PBMTokenManager.sol\":1074:1121  tokenTypes[tokenTypeCount].expiry = tokenExpiry */\n      dup2\n      swap1\n      sstore\n      pop\n        /* \"contracts/PBMTokenManager.sol\":1168:1175  creator */\n      dup4\n        /* \"contracts/PBMTokenManager.sol\":1131:1141  tokenTypes */\n      0x03\n        /* \"contracts/PBMTokenManager.sol\":1131:1157  tokenTypes[tokenTypeCount] */\n      0x00\n        /* \"contracts/PBMTokenManager.sol\":1142:1156  tokenTypeCount */\n      sload(0x01)\n        /* \"contracts/PBMTokenManager.sol\":1131:1157  tokenTypes[tokenTypeCount] */\n      dup2\n      mstore\n      0x20\n      add\n      swap1\n      dup2\n      mstore\n      0x20\n      add\n      0x00\n      keccak256\n        /* \"contracts/PBMTokenManager.sol\":1131:1165  tokenTypes[tokenTypeCount].creator */\n      0x04\n      add\n      0x00\n        /* \"contracts/PBMTokenManager.sol\":1131:1175  tokenTypes[tokenTypeCount].creator = creator */\n      0x0100\n      exp\n      dup2\n      sload\n      dup2\n      0xffffffffffffffffffffffffffffffffffffffff\n      mul\n      not\n      and\n      swap1\n      dup4\n      0xffffffffffffffffffffffffffffffffffffffff\n      and\n      mul\n      or\n      swap1\n      sstore\n      pop\n        /* \"contracts/PBMTokenManager.sol\":1228:1229  0 */\n      0x00\n        /* \"contracts/PBMTokenManager.sol\":1185:1195  tokenTypes */\n      0x03\n        /* \"contracts/PBMTokenManager.sol\":1185:1211  tokenTypes[tokenTypeCount] */\n      0x00\n        /* \"contracts/PBMTokenManager.sol\":1196:1210  tokenTypeCount */\n      sload(0x01)\n        /* \"contracts/PBMTokenManager.sol\":1185:1211  tokenTypes[tokenTypeCount] */\n      dup2\n      mstore\n      0x20\n      add\n      swap1\n      dup2\n      mstore\n      0x20\n      add\n      0x00\n      keccak256\n        /* \"contracts/PBMTokenManager.sol\":1185:1225  tokenTypes[tokenTypeCount].balanceSupply */\n      0x02\n      add\n        /* \"contracts/PBMTokenManager.sol\":1185:1229  tokenTypes[tokenTypeCount].balanceSupply = 0 */\n      dup2\n      swap1\n      sstore\n      pop\n        /* \"contracts/PBMTokenManager.sol\":1272:1280  tokenURI */\n      dup3\n        /* \"contracts/PBMTokenManager.sol\":1239:1249  tokenTypes */\n      0x03\n        /* \"contracts/PBMTokenManager.sol\":1239:1265  tokenTypes[tokenTypeCount] */\n      0x00\n        /* \"contracts/PBMTokenManager.sol\":1250:1264  tokenTypeCount */\n      sload(0x01)\n        /* \"contracts/PBMTokenManager.sol\":1239:1265  tokenTypes[tokenTypeCount] */\n      dup2\n      mstore\n      0x20\n      add\n      swap1\n      dup2\n      mstore\n      0x20\n      add\n      0x00\n      keccak256\n        /* \"contracts/PBMTokenManager.sol\":1239:1269  tokenTypes[tokenTypeCount].uri */\n      0x05\n      add\n        /* \"contracts/PBMTokenManager.sol\":1239:1280  tokenTypes[tokenTypeCount].uri = tokenURI */\n      swap1\n      dup2\n      tag_164\n      swap2\n      swap1\n      tag_163\n      jump\t// in\n    tag_164:\n      pop\n        /* \"contracts/PBMTokenManager.sol\":1313:1327  tokenTypeCount */\n      sload(0x01)\n        /* \"contracts/PBMTokenManager.sol\":1295:1373  NewPBMTypeCreated(tokenTypeCount, tokenName, spotAmount, tokenExpiry, creator) */\n      0xbbb805bf89819da42bb55052edd2bf6db1c2256ec4c19cf1607de95efc92762f\n        /* \"contracts/PBMTokenManager.sol\":1329:1338  tokenName */\n      dup9\n        /* \"contracts/PBMTokenManager.sol\":1340:1350  spotAmount */\n      dup9\n        /* \"contracts/PBMTokenManager.sol\":1352:1363  tokenExpiry */\n      dup9\n        /* \"contracts/PBMTokenManager.sol\":1365:1372  creator */\n      dup9\n        /* \"contracts/PBMTokenManager.sol\":1295:1373  NewPBMTypeCreated(tokenTypeCount, tokenName, spotAmount, tokenExpiry, creator) */\n      mload(0x40)\n      tag_165\n      swap5\n      swap4\n      swap3\n      swap2\n      swap1\n      tag_166\n      jump\t// in\n    tag_165:\n      mload(0x40)\n      dup1\n      swap2\n      sub\n      swap1\n      log2\n        /* \"contracts/PBMTokenManager.sol\":1393:1407  tokenTypeCount */\n      sload(0x01)\n        /* \"contracts/PBMTokenManager.sol\":1383:1407  tokenId = tokenTypeCount */\n      swap1\n      pop\n        /* \"contracts/PBMTokenManager.sol\":1435:1436  1 */\n      0x01\n        /* \"contracts/PBMTokenManager.sol\":1417:1431  tokenTypeCount */\n      dup1\n      0x00\n        /* \"contracts/PBMTokenManager.sol\":1417:1436  tokenTypeCount += 1 */\n      dup3\n      dup3\n      sload\n      tag_167\n      swap2\n      swap1\n      tag_168\n      jump\t// in\n    tag_167:\n      swap3\n      pop\n      pop\n      dup2\n      swap1\n      sstore\n      pop\n        /* \"contracts/PBMTokenManager.sol\":488:1443  function createTokenType(... */\n      swap7\n      swap6\n      pop\n      pop\n      pop\n      pop\n      pop\n      pop\n      jump\t// out\n        /* \"@openzeppelin/contracts/access/Ownable.sol\":1638:1723  function owner() public view virtual returns (address) {... */\n    tag_57:\n        /* \"@openzeppelin/contracts/access/Ownable.sol\":1684:1691  address */\n      0x00\n        /* \"@openzeppelin/contracts/access/Ownable.sol\":1710:1716  _owner */\n      0x00\n      0x00\n      swap1\n      sload\n      swap1\n      0x0100\n      exp\n      swap1\n      div\n      0xffffffffffffffffffffffffffffffffffffffff\n      and\n        /* \"@openzeppelin/contracts/access/Ownable.sol\":1703:1716  return _owner */\n      swap1\n      pop\n        /* \"@openzeppelin/contracts/access/Ownable.sol\":1638:1723  function owner() public view virtual returns (address) {... */\n      swap1\n      jump\t// out\n        /* \"contracts/PBMTokenManager.sol\":3445:3818  function getTokenDetails(uint256 tokenId)... */\n    tag_62:\n        /* \"contracts/PBMTokenManager.sol\":3527:3540  string memory */\n      0x60\n        /* \"contracts/PBMTokenManager.sol\":3542:3549  uint256 */\n      0x00\n        /* \"contracts/PBMTokenManager.sol\":3551:3558  uint256 */\n      0x00\n        /* \"contracts/PBMTokenManager.sol\":3560:3567  uint256 */\n      0x00\n        /* \"contracts/PBMTokenManager.sol\":3569:3576  address */\n      0x00\n        /* \"contracts/PBMTokenManager.sol\":3609:3619  tokenTypes */\n      0x03\n        /* \"contracts/PBMTokenManager.sol\":3609:3628  tokenTypes[tokenId] */\n      0x00\n        /* \"contracts/PBMTokenManager.sol\":3620:3627  tokenId */\n      dup8\n        /* \"contracts/PBMTokenManager.sol\":3609:3628  tokenTypes[tokenId] */\n      dup2\n      mstore\n      0x20\n      add\n      swap1\n      dup2\n      mstore\n      0x20\n      add\n      0x00\n      keccak256\n        /* \"contracts/PBMTokenManager.sol\":3609:3633  tokenTypes[tokenId].name */\n      0x00\n      add\n        /* \"contracts/PBMTokenManager.sol\":3647:3657  tokenTypes */\n      0x03\n        /* \"contracts/PBMTokenManager.sol\":3647:3666  tokenTypes[tokenId] */\n      0x00\n        /* \"contracts/PBMTokenManager.sol\":3658:3665  tokenId */\n      dup9\n        /* \"contracts/PBMTokenManager.sol\":3647:3666  tokenTypes[tokenId] */\n      dup2\n      mstore\n      0x20\n      add\n      swap1\n      dup2\n      mstore\n      0x20\n      add\n      0x00\n      keccak256\n        /* \"contracts/PBMTokenManager.sol\":3647:3673  tokenTypes[tokenId].amount */\n      0x01\n      add\n      sload\n        /* \"contracts/PBMTokenManager.sol\":3687:3697  tokenTypes */\n      0x03\n        /* \"contracts/PBMTokenManager.sol\":3687:3706  tokenTypes[tokenId] */\n      0x00\n        /* \"contracts/PBMTokenManager.sol\":3698:3705  tokenId */\n      dup10\n        /* \"contracts/PBMTokenManager.sol\":3687:3706  tokenTypes[tokenId] */\n      dup2\n      mstore\n      0x20\n      add\n      swap1\n      dup2\n      mstore\n      0x20\n      add\n      0x00\n      keccak256\n        /* \"contracts/PBMTokenManager.sol\":3687:3720  tokenTypes[tokenId].balanceSupply */\n      0x02\n      add\n      sload\n        /* \"contracts/PBMTokenManager.sol\":3734:3744  tokenTypes */\n      0x03\n        /* \"contracts/PBMTokenManager.sol\":3734:3753  tokenTypes[tokenId] */\n      0x00\n        /* \"contracts/PBMTokenManager.sol\":3745:3752  tokenId */\n      dup11\n        /* \"contracts/PBMTokenManager.sol\":3734:3753  tokenTypes[tokenId] */\n      dup2\n      mstore\n      0x20\n      add\n      swap1\n      dup2\n      mstore\n      0x20\n      add\n      0x00\n      keccak256\n        /* \"contracts/PBMTokenManager.sol\":3734:3760  tokenTypes[tokenId].expiry */\n      0x03\n      add\n      sload\n        /* \"contracts/PBMTokenManager.sol\":3774:3784  tokenTypes */\n      0x03\n        /* \"contracts/PBMTokenManager.sol\":3774:3793  tokenTypes[tokenId] */\n      0x00\n        /* \"contracts/PBMTokenManager.sol\":3785:3792  tokenId */\n      dup12\n        /* \"contracts/PBMTokenManager.sol\":3774:3793  tokenTypes[tokenId] */\n      dup2\n      mstore\n      0x20\n      add\n      swap1\n      dup2\n      mstore\n      0x20\n      add\n      0x00\n      keccak256\n        /* \"contracts/PBMTokenManager.sol\":3774:3801  tokenTypes[tokenId].creator */\n      0x04\n      add\n      0x00\n      swap1\n      sload\n      swap1\n      0x0100\n      exp\n      swap1\n      div\n      0xffffffffffffffffffffffffffffffffffffffff\n      and\n        /* \"contracts/PBMTokenManager.sol\":3588:3811  return (... */\n      dup5\n      dup1\n      sload\n      tag_171\n      swap1\n      tag_85\n      jump\t// in\n    tag_171:\n      dup1\n      0x1f\n      add\n      0x20\n      dup1\n      swap2\n      div\n      mul\n      0x20\n      add\n      mload(0x40)\n      swap1\n      dup2\n      add\n      0x40\n      mstore\n      dup1\n      swap3\n      swap2\n      swap1\n      dup2\n      dup2\n      mstore\n      0x20\n      add\n      dup3\n      dup1\n      sload\n      tag_172\n      swap1\n      tag_85\n      jump\t// in\n    tag_172:\n      dup1\n      iszero\n      tag_173\n      jumpi\n      dup1\n      0x1f\n      lt\n      tag_174\n      jumpi\n      0x0100\n      dup1\n      dup4\n      sload\n      div\n      mul\n      dup4\n      mstore\n      swap2\n      0x20\n      add\n      swap2\n      jump(tag_173)\n    tag_174:\n      dup3\n      add\n      swap2\n      swap1\n      0x00\n      mstore\n      keccak256(0x00, 0x20)\n      swap1\n    tag_175:\n      dup2\n      sload\n      dup2\n      mstore\n      swap1\n      0x01\n      add\n      swap1\n      0x20\n      add\n      dup1\n      dup4\n      gt\n      tag_175\n      jumpi\n      dup3\n      swap1\n      sub\n      0x1f\n      and\n      dup3\n      add\n      swap2\n    tag_173:\n      pop\n      pop\n      pop\n      pop\n      pop\n      swap5\n      pop\n      swap5\n      pop\n      swap5\n      pop\n      swap5\n      pop\n      swap5\n      pop\n      swap5\n      pop\n        /* \"contracts/PBMTokenManager.sol\":3445:3818  function getTokenDetails(uint256 tokenId)... */\n      swap2\n      swap4\n      swap6\n      swap1\n      swap3\n      swap5\n      pop\n      jump\t// out\n        /* \"contracts/PBMTokenManager.sol\":3824:3953  function getTokenValue(uint256 tokenId) public view override returns (uint256) {... */\n    tag_67:\n        /* \"contracts/PBMTokenManager.sol\":3894:3901  uint256 */\n      0x00\n        /* \"contracts/PBMTokenManager.sol\":3920:3930  tokenTypes */\n      0x03\n        /* \"contracts/PBMTokenManager.sol\":3920:3939  tokenTypes[tokenId] */\n      0x00\n        /* \"contracts/PBMTokenManager.sol\":3931:3938  tokenId */\n      dup4\n        /* \"contracts/PBMTokenManager.sol\":3920:3939  tokenTypes[tokenId] */\n      dup2\n      mstore\n      0x20\n      add\n      swap1\n      dup2\n      mstore\n      0x20\n      add\n      0x00\n      keccak256\n        /* \"contracts/PBMTokenManager.sol\":3920:3946  tokenTypes[tokenId].amount */\n      0x01\n      add\n      sload\n        /* \"contracts/PBMTokenManager.sol\":3913:3946  return tokenTypes[tokenId].amount */\n      swap1\n      pop\n        /* \"contracts/PBMTokenManager.sol\":3824:3953  function getTokenValue(uint256 tokenId) public view override returns (uint256) {... */\n      swap2\n      swap1\n      pop\n      jump\t// out\n        /* \"contracts/PBMTokenManager.sol\":3270:3439  function getPBMRevokeValue(uint256 tokenId) public view override returns (uint256) {... */\n    tag_71:\n        /* \"contracts/PBMTokenManager.sol\":3344:3351  uint256 */\n      0x00\n        /* \"contracts/PBMTokenManager.sol\":3406:3416  tokenTypes */\n      0x03\n        /* \"contracts/PBMTokenManager.sol\":3406:3425  tokenTypes[tokenId] */\n      0x00\n        /* \"contracts/PBMTokenManager.sol\":3417:3424  tokenId */\n      dup4\n        /* \"contracts/PBMTokenManager.sol\":3406:3425  tokenTypes[tokenId] */\n      dup2\n      mstore\n      0x20\n      add\n      swap1\n      dup2\n      mstore\n      0x20\n      add\n      0x00\n      keccak256\n        /* \"contracts/PBMTokenManager.sol\":3406:3432  tokenTypes[tokenId].amount */\n      0x01\n      add\n      sload\n        /* \"contracts/PBMTokenManager.sol\":3370:3380  tokenTypes */\n      0x03\n        /* \"contracts/PBMTokenManager.sol\":3370:3389  tokenTypes[tokenId] */\n      0x00\n        /* \"contracts/PBMTokenManager.sol\":3381:3388  tokenId */\n      dup5\n        /* \"contracts/PBMTokenManager.sol\":3370:3389  tokenTypes[tokenId] */\n      dup2\n      mstore\n      0x20\n      add\n      swap1\n      dup2\n      mstore\n      0x20\n      add\n      0x00\n      keccak256\n        /* \"contracts/PBMTokenManager.sol\":3370:3403  tokenTypes[tokenId].balanceSupply */\n      0x02\n      add\n      sload\n        /* \"contracts/PBMTokenManager.sol\":3370:3432  tokenTypes[tokenId].balanceSupply * tokenTypes[tokenId].amount */\n      tag_178\n      swap2\n      swap1\n      tag_179\n      jump\t// in\n    tag_178:\n        /* \"contracts/PBMTokenManager.sol\":3363:3432  return tokenTypes[tokenId].balanceSupply * tokenTypes[tokenId].amount */\n      swap1\n      pop\n        /* \"contracts/PBMTokenManager.sol\":3270:3439  function getPBMRevokeValue(uint256 tokenId) public view override returns (uint256) {... */\n      swap2\n      swap1\n      pop\n      jump\t// out\n        /* \"contracts/PBMTokenManager.sol\":2352:2752  function decreaseBalanceSupply(uint256[] memory tokenIds, uint256[] memory amounts)... */\n    tag_76:\n        /* \"@openzeppelin/contracts/access/Ownable.sol\":1531:1544  _checkOwner() */\n      tag_181\n        /* \"@openzeppelin/contracts/access/Ownable.sol\":1531:1542  _checkOwner */\n      tag_115\n        /* \"@openzeppelin/contracts/access/Ownable.sol\":1531:1544  _checkOwner() */\n      jump\t// in\n    tag_181:\n        /* \"contracts/PBMTokenManager.sol\":2509:2516  amounts */\n      dup1\n        /* \"contracts/PBMTokenManager.sol\":2509:2523  amounts.length */\n      mload\n        /* \"contracts/PBMTokenManager.sol\":2490:2498  tokenIds */\n      dup3\n        /* \"contracts/PBMTokenManager.sol\":2490:2505  tokenIds.length */\n      mload\n        /* \"contracts/PBMTokenManager.sol\":2490:2523  tokenIds.length == amounts.length */\n      eq\n        /* \"contracts/PBMTokenManager.sol\":2482:2549  require(tokenIds.length == amounts.length, \"Array length mismatch\") */\n      tag_183\n      jumpi\n      mload(0x40)\n      0x08c379a000000000000000000000000000000000000000000000000000000000\n      dup2\n      mstore\n      0x04\n      add\n      tag_184\n      swap1\n      tag_185\n      jump\t// in\n    tag_184:\n      mload(0x40)\n      dup1\n      swap2\n      sub\n      swap1\n      revert\n    tag_183:\n        /* \"contracts/PBMTokenManager.sol\":2567:2591  areTokensValid(tokenIds) */\n      tag_186\n        /* \"contracts/PBMTokenManager.sol\":2582:2590  tokenIds */\n      dup3\n        /* \"contracts/PBMTokenManager.sol\":2567:2581  areTokensValid */\n      tag_42\n        /* \"contracts/PBMTokenManager.sol\":2567:2591  areTokensValid(tokenIds) */\n      jump\t// in\n    tag_186:\n        /* \"contracts/PBMTokenManager.sol\":2559:2614  require(areTokensValid(tokenIds), \"PBM: Invalid token\") */\n      tag_187\n      jumpi\n      mload(0x40)\n      0x08c379a000000000000000000000000000000000000000000000000000000000\n      dup2\n      mstore\n      0x04\n      add\n      tag_188\n      swap1\n      tag_127\n      jump\t// in\n    tag_188:\n      mload(0x40)\n      dup1\n      swap2\n      sub\n      swap1\n      revert\n    tag_187:\n        /* \"contracts/PBMTokenManager.sol\":2629:2638  uint256 i */\n      0x00\n        /* \"contracts/PBMTokenManager.sol\":2641:2642  0 */\n      0x00\n        /* \"contracts/PBMTokenManager.sol\":2629:2642  uint256 i = 0 */\n      swap1\n      pop\n        /* \"contracts/PBMTokenManager.sol\":2624:2746  for (uint256 i = 0; i < tokenIds.length; i++) {... */\n    tag_189:\n        /* \"contracts/PBMTokenManager.sol\":2648:2656  tokenIds */\n      dup3\n        /* \"contracts/PBMTokenManager.sol\":2648:2663  tokenIds.length */\n      mload\n        /* \"contracts/PBMTokenManager.sol\":2644:2645  i */\n      dup2\n        /* \"contracts/PBMTokenManager.sol\":2644:2663  i < tokenIds.length */\n      lt\n        /* \"contracts/PBMTokenManager.sol\":2624:2746  for (uint256 i = 0; i < tokenIds.length; i++) {... */\n      iszero\n      tag_190\n      jumpi\n        /* \"contracts/PBMTokenManager.sol\":2725:2732  amounts */\n      dup2\n        /* \"contracts/PBMTokenManager.sol\":2733:2734  i */\n      dup2\n        /* \"contracts/PBMTokenManager.sol\":2725:2735  amounts[i] */\n      dup2\n      mload\n      dup2\n      lt\n      tag_192\n      jumpi\n      tag_193\n      tag_123\n      jump\t// in\n    tag_193:\n    tag_192:\n      0x20\n      mul\n      0x20\n      add\n      add\n      mload\n        /* \"contracts/PBMTokenManager.sol\":2684:2694  tokenTypes */\n      0x03\n        /* \"contracts/PBMTokenManager.sol\":2684:2707  tokenTypes[tokenIds[i]] */\n      0x00\n        /* \"contracts/PBMTokenManager.sol\":2695:2703  tokenIds */\n      dup6\n        /* \"contracts/PBMTokenManager.sol\":2704:2705  i */\n      dup5\n        /* \"contracts/PBMTokenManager.sol\":2695:2706  tokenIds[i] */\n      dup2\n      mload\n      dup2\n      lt\n      tag_194\n      jumpi\n      tag_195\n      tag_123\n      jump\t// in\n    tag_195:\n    tag_194:\n      0x20\n      mul\n      0x20\n      add\n      add\n      mload\n        /* \"contracts/PBMTokenManager.sol\":2684:2707  tokenTypes[tokenIds[i]] */\n      dup2\n      mstore\n      0x20\n      add\n      swap1\n      dup2\n      mstore\n      0x20\n      add\n      0x00\n      keccak256\n        /* \"contracts/PBMTokenManager.sol\":2684:2721  tokenTypes[tokenIds[i]].balanceSupply */\n      0x02\n      add\n      0x00\n        /* \"contracts/PBMTokenManager.sol\":2684:2735  tokenTypes[tokenIds[i]].balanceSupply -= amounts[i] */\n      dup3\n      dup3\n      sload\n      tag_196\n      swap2\n      swap1\n      tag_197\n      jump\t// in\n    tag_196:\n      swap3\n      pop\n      pop\n      dup2\n      swap1\n      sstore\n      pop\n        /* \"contracts/PBMTokenManager.sol\":2665:2668  i++ */\n      dup1\n      dup1\n      0x01\n      add\n      swap2\n      pop\n      pop\n        /* \"contracts/PBMTokenManager.sol\":2624:2746  for (uint256 i = 0; i < tokenIds.length; i++) {... */\n      jump(tag_189)\n    tag_190:\n      pop\n        /* \"contracts/PBMTokenManager.sol\":2352:2752  function decreaseBalanceSupply(uint256[] memory tokenIds, uint256[] memory amounts)... */\n      pop\n      pop\n      jump\t// out\n        /* \"@openzeppelin/contracts/access/Ownable.sol\":2543:2758  function transferOwnership(address newOwner) public virtual onlyOwner {... */\n    tag_80:\n        /* \"@openzeppelin/contracts/access/Ownable.sol\":1531:1544  _checkOwner() */\n      tag_199\n        /* \"@openzeppelin/contracts/access/Ownable.sol\":1531:1542  _checkOwner */\n      tag_115\n        /* \"@openzeppelin/contracts/access/Ownable.sol\":1531:1544  _checkOwner() */\n      jump\t// in\n    tag_199:\n        /* \"@openzeppelin/contracts/access/Ownable.sol\":2647:2648  0 */\n      0x00\n        /* \"@openzeppelin/contracts/access/Ownable.sol\":2627:2649  newOwner == address(0) */\n      0xffffffffffffffffffffffffffffffffffffffff\n      and\n        /* \"@openzeppelin/contracts/access/Ownable.sol\":2627:2635  newOwner */\n      dup2\n        /* \"@openzeppelin/contracts/access/Ownable.sol\":2627:2649  newOwner == address(0) */\n      0xffffffffffffffffffffffffffffffffffffffff\n      and\n      sub\n        /* \"@openzeppelin/contracts/access/Ownable.sol\":2623:2714  if (newOwner == address(0)) {... */\n      tag_201\n      jumpi\n        /* \"@openzeppelin/contracts/access/Ownable.sol\":2700:2701  0 */\n      0x00\n        /* \"@openzeppelin/contracts/access/Ownable.sol\":2672:2703  OwnableInvalidOwner(address(0)) */\n      mload(0x40)\n      0x1e4fbdf700000000000000000000000000000000000000000000000000000000\n      dup2\n      mstore\n      0x04\n      add\n      tag_202\n      swap2\n      swap1\n      tag_59\n      jump\t// in\n    tag_202:\n      mload(0x40)\n      dup1\n      swap2\n      sub\n      swap1\n      revert\n        /* \"@openzeppelin/contracts/access/Ownable.sol\":2623:2714  if (newOwner == address(0)) {... */\n    tag_201:\n        /* \"@openzeppelin/contracts/access/Ownable.sol\":2723:2751  _transferOwnership(newOwner) */\n      tag_203\n        /* \"@openzeppelin/contracts/access/Ownable.sol\":2742:2750  newOwner */\n      dup2\n        /* \"@openzeppelin/contracts/access/Ownable.sol\":2723:2741  _transferOwnership */\n      tag_149\n        /* \"@openzeppelin/contracts/access/Ownable.sol\":2723:2751  _transferOwnership(newOwner) */\n      jump\t// in\n    tag_203:\n        /* \"@openzeppelin/contracts/access/Ownable.sol\":2543:2758  function transferOwnership(address newOwner) public virtual onlyOwner {... */\n      pop\n      jump\t// out\n        /* \"contracts/PBMTokenManager.sol\":1946:2346  function increaseBalanceSupply(uint256[] memory tokenIds, uint256[] memory amounts)... */\n    tag_83:\n        /* \"@openzeppelin/contracts/access/Ownable.sol\":1531:1544  _checkOwner() */\n      tag_205\n        /* \"@openzeppelin/contracts/access/Ownable.sol\":1531:1542  _checkOwner */\n      tag_115\n        /* \"@openzeppelin/contracts/access/Ownable.sol\":1531:1544  _checkOwner() */\n      jump\t// in\n    tag_205:\n        /* \"contracts/PBMTokenManager.sol\":2103:2110  amounts */\n      dup1\n        /* \"contracts/PBMTokenManager.sol\":2103:2117  amounts.length */\n      mload\n        /* \"contracts/PBMTokenManager.sol\":2084:2092  tokenIds */\n      dup3\n        /* \"contracts/PBMTokenManager.sol\":2084:2099  tokenIds.length */\n      mload\n        /* \"contracts/PBMTokenManager.sol\":2084:2117  tokenIds.length == amounts.length */\n      eq\n        /* \"contracts/PBMTokenManager.sol\":2076:2143  require(tokenIds.length == amounts.length, \"Array length mismatch\") */\n      tag_207\n      jumpi\n      mload(0x40)\n      0x08c379a000000000000000000000000000000000000000000000000000000000\n      dup2\n      mstore\n      0x04\n      add\n      tag_208\n      swap1\n      tag_185\n      jump\t// in\n    tag_208:\n      mload(0x40)\n      dup1\n      swap2\n      sub\n      swap1\n      revert\n    tag_207:\n        /* \"contracts/PBMTokenManager.sol\":2161:2185  areTokensValid(tokenIds) */\n      tag_209\n        /* \"contracts/PBMTokenManager.sol\":2176:2184  tokenIds */\n      dup3\n        /* \"contracts/PBMTokenManager.sol\":2161:2175  areTokensValid */\n      tag_42\n        /* \"contracts/PBMTokenManager.sol\":2161:2185  areTokensValid(tokenIds) */\n      jump\t// in\n    tag_209:\n        /* \"contracts/PBMTokenManager.sol\":2153:2208  require(areTokensValid(tokenIds), \"PBM: Invalid token\") */\n      tag_210\n      jumpi\n      mload(0x40)\n      0x08c379a000000000000000000000000000000000000000000000000000000000\n      dup2\n      mstore\n      0x04\n      add\n      tag_211\n      swap1\n      tag_127\n      jump\t// in\n    tag_211:\n      mload(0x40)\n      dup1\n      swap2\n      sub\n      swap1\n      revert\n    tag_210:\n        /* \"contracts/PBMTokenManager.sol\":2223:2232  uint256 i */\n      0x00\n        /* \"contracts/PBMTokenManager.sol\":2235:2236  0 */\n      0x00\n        /* \"contracts/PBMTokenManager.sol\":2223:2236  uint256 i = 0 */\n      swap1\n      pop\n        /* \"contracts/PBMTokenManager.sol\":2218:2340  for (uint256 i = 0; i < tokenIds.length; i++) {... */\n    tag_212:\n        /* \"contracts/PBMTokenManager.sol\":2242:2250  tokenIds */\n      dup3\n        /* \"contracts/PBMTokenManager.sol\":2242:2257  tokenIds.length */\n      mload\n        /* \"contracts/PBMTokenManager.sol\":2238:2239  i */\n      dup2\n        /* \"contracts/PBMTokenManager.sol\":2238:2257  i < tokenIds.length */\n      lt\n        /* \"contracts/PBMTokenManager.sol\":2218:2340  for (uint256 i = 0; i < tokenIds.length; i++) {... */\n      iszero\n      tag_213\n      jumpi\n        /* \"contracts/PBMTokenManager.sol\":2319:2326  amounts */\n      dup2\n        /* \"contracts/PBMTokenManager.sol\":2327:2328  i */\n      dup2\n        /* \"contracts/PBMTokenManager.sol\":2319:2329  amounts[i] */\n      dup2\n      mload\n      dup2\n      lt\n      tag_215\n      jumpi\n      tag_216\n      tag_123\n      jump\t// in\n    tag_216:\n    tag_215:\n      0x20\n      mul\n      0x20\n      add\n      add\n      mload\n        /* \"contracts/PBMTokenManager.sol\":2278:2288  tokenTypes */\n      0x03\n        /* \"contracts/PBMTokenManager.sol\":2278:2301  tokenTypes[tokenIds[i]] */\n      0x00\n        /* \"contracts/PBMTokenManager.sol\":2289:2297  tokenIds */\n      dup6\n        /* \"contracts/PBMTokenManager.sol\":2298:2299  i */\n      dup5\n        /* \"contracts/PBMTokenManager.sol\":2289:2300  tokenIds[i] */\n      dup2\n      mload\n      dup2\n      lt\n      tag_217\n      jumpi\n      tag_218\n      tag_123\n      jump\t// in\n    tag_218:\n    tag_217:\n      0x20\n      mul\n      0x20\n      add\n      add\n      mload\n        /* \"contracts/PBMTokenManager.sol\":2278:2301  tokenTypes[tokenIds[i]] */\n      dup2\n      mstore\n      0x20\n      add\n      swap1\n      dup2\n      mstore\n      0x20\n      add\n      0x00\n      keccak256\n        /* \"contracts/PBMTokenManager.sol\":2278:2315  tokenTypes[tokenIds[i]].balanceSupply */\n      0x02\n      add\n      0x00\n        /* \"contracts/PBMTokenManager.sol\":2278:2329  tokenTypes[tokenIds[i]].balanceSupply += amounts[i] */\n      dup3\n      dup3\n      sload\n      tag_219\n      swap2\n      swap1\n      tag_168\n      jump\t// in\n    tag_219:\n      swap3\n      pop\n      pop\n      dup2\n      swap1\n      sstore\n      pop\n        /* \"contracts/PBMTokenManager.sol\":2259:2262  i++ */\n      dup1\n      dup1\n      0x01\n      add\n      swap2\n      pop\n      pop\n        /* \"contracts/PBMTokenManager.sol\":2218:2340  for (uint256 i = 0; i < tokenIds.length; i++) {... */\n      jump(tag_212)\n    tag_213:\n      pop\n        /* \"contracts/PBMTokenManager.sol\":1946:2346  function increaseBalanceSupply(uint256[] memory tokenIds, uint256[] memory amounts)... */\n      pop\n      pop\n      jump\t// out\n        /* \"@openzeppelin/contracts/access/Ownable.sol\":1796:1958  function _checkOwner() internal view virtual {... */\n    tag_115:\n        /* \"@openzeppelin/contracts/access/Ownable.sol\":1866:1878  _msgSender() */\n      tag_221\n        /* \"@openzeppelin/contracts/access/Ownable.sol\":1866:1876  _msgSender */\n      tag_222\n        /* \"@openzeppelin/contracts/access/Ownable.sol\":1866:1878  _msgSender() */\n      jump\t// in\n    tag_221:\n        /* \"@openzeppelin/contracts/access/Ownable.sol\":1855:1878  owner() != _msgSender() */\n      0xffffffffffffffffffffffffffffffffffffffff\n      and\n        /* \"@openzeppelin/contracts/access/Ownable.sol\":1855:1862  owner() */\n      tag_223\n        /* \"@openzeppelin/contracts/access/Ownable.sol\":1855:1860  owner */\n      tag_57\n        /* \"@openzeppelin/contracts/access/Ownable.sol\":1855:1862  owner() */\n      jump\t// in\n    tag_223:\n        /* \"@openzeppelin/contracts/access/Ownable.sol\":1855:1878  owner() != _msgSender() */\n      0xffffffffffffffffffffffffffffffffffffffff\n      and\n      eq\n        /* \"@openzeppelin/contracts/access/Ownable.sol\":1851:1952  if (owner() != _msgSender()) {... */\n      tag_224\n      jumpi\n        /* \"@openzeppelin/contracts/access/Ownable.sol\":1928:1940  _msgSender() */\n      tag_225\n        /* \"@openzeppelin/contracts/access/Ownable.sol\":1928:1938  _msgSender */\n      tag_222\n        /* \"@openzeppelin/contracts/access/Ownable.sol\":1928:1940  _msgSender() */\n      jump\t// in\n    tag_225:\n        /* \"@openzeppelin/contracts/access/Ownable.sol\":1901:1941  OwnableUnauthorizedAccount(_msgSender()) */\n      mload(0x40)\n      0x118cdaa700000000000000000000000000000000000000000000000000000000\n      dup2\n      mstore\n      0x04\n      add\n      tag_226\n      swap2\n      swap1\n      tag_59\n      jump\t// in\n    tag_226:\n      mload(0x40)\n      dup1\n      swap2\n      sub\n      swap1\n      revert\n        /* \"@openzeppelin/contracts/access/Ownable.sol\":1851:1952  if (owner() != _msgSender()) {... */\n    tag_224:\n        /* \"@openzeppelin/contracts/access/Ownable.sol\":1796:1958  function _checkOwner() internal view virtual {... */\n      jump\t// out\n        /* \"@openzeppelin/contracts/access/Ownable.sol\":2912:3099  function _transferOwnership(address newOwner) internal virtual {... */\n    tag_149:\n        /* \"@openzeppelin/contracts/access/Ownable.sol\":2985:3001  address oldOwner */\n      0x00\n        /* \"@openzeppelin/contracts/access/Ownable.sol\":3004:3010  _owner */\n      0x00\n      0x00\n      swap1\n      sload\n      swap1\n      0x0100\n      exp\n      swap1\n      div\n      0xffffffffffffffffffffffffffffffffffffffff\n      and\n        /* \"@openzeppelin/contracts/access/Ownable.sol\":2985:3010  address oldOwner = _owner */\n      swap1\n      pop\n        /* \"@openzeppelin/contracts/access/Ownable.sol\":3029:3037  newOwner */\n      dup2\n        /* \"@openzeppelin/contracts/access/Ownable.sol\":3020:3026  _owner */\n      0x00\n      0x00\n        /* \"@openzeppelin/contracts/access/Ownable.sol\":3020:3037  _owner = newOwner */\n      0x0100\n      exp\n      dup2\n      sload\n      dup2\n      0xffffffffffffffffffffffffffffffffffffffff\n      mul\n      not\n      and\n      swap1\n      dup4\n      0xffffffffffffffffffffffffffffffffffffffff\n      and\n      mul\n      or\n      swap1\n      sstore\n      pop\n        /* \"@openzeppelin/contracts/access/Ownable.sol\":3083:3091  newOwner */\n      dup2\n        /* \"@openzeppelin/contracts/access/Ownable.sol\":3052:3092  OwnershipTransferred(oldOwner, newOwner) */\n      0xffffffffffffffffffffffffffffffffffffffff\n      and\n        /* \"@openzeppelin/contracts/access/Ownable.sol\":3073:3081  oldOwner */\n      dup2\n        /* \"@openzeppelin/contracts/access/Ownable.sol\":3052:3092  OwnershipTransferred(oldOwner, newOwner) */\n      0xffffffffffffffffffffffffffffffffffffffff\n      and\n      0x8be0079c531659141344cd1fd0a4f28419497f9722a3daafe3b4186f6b6457e0\n      mload(0x40)\n      mload(0x40)\n      dup1\n      swap2\n      sub\n      swap1\n      log3\n        /* \"@openzeppelin/contracts/access/Ownable.sol\":2975:3099  {... */\n      pop\n        /* \"@openzeppelin/contracts/access/Ownable.sol\":2912:3099  function _transferOwnership(address newOwner) internal virtual {... */\n      pop\n      jump\t// out\n        /* \"@openzeppelin/contracts/utils/Context.sol\":656:752  function _msgSender() internal view virtual returns (address) {... */\n    tag_222:\n        /* \"@openzeppelin/contracts/utils/Context.sol\":709:716  address */\n      0x00\n        /* \"@openzeppelin/contracts/utils/Context.sol\":735:745  msg.sender */\n      caller\n        /* \"@openzeppelin/contracts/utils/Context.sol\":728:745  return msg.sender */\n      swap1\n      pop\n        /* \"@openzeppelin/contracts/utils/Context.sol\":656:752  function _msgSender() internal view virtual returns (address) {... */\n      swap1\n      jump\t// out\n        /* \"#utility.yul\":7:106   */\n    tag_229:\n        /* \"#utility.yul\":59:65   */\n      0x00\n        /* \"#utility.yul\":93:98   */\n      dup2\n        /* \"#utility.yul\":87:99   */\n      mload\n        /* \"#utility.yul\":77:99   */\n      swap1\n      pop\n        /* \"#utility.yul\":7:106   */\n      swap2\n      swap1\n      pop\n      jump\t// out\n        /* \"#utility.yul\":112:281   */\n    tag_230:\n        /* \"#utility.yul\":196:207   */\n      0x00\n        /* \"#utility.yul\":230:236   */\n      dup3\n        /* \"#utility.yul\":225:228   */\n      dup3\n        /* \"#utility.yul\":218:237   */\n      mstore\n        /* \"#utility.yul\":270:274   */\n      0x20\n        /* \"#utility.yul\":265:268   */\n      dup3\n        /* \"#utility.yul\":261:275   */\n      add\n        /* \"#utility.yul\":246:275   */\n      swap1\n      pop\n        /* \"#utility.yul\":112:281   */\n      swap3\n      swap2\n      pop\n      pop\n      jump\t// out\n        /* \"#utility.yul\":287:426   */\n    tag_231:\n        /* \"#utility.yul\":376:382   */\n      dup3\n        /* \"#utility.yul\":371:374   */\n      dup2\n        /* \"#utility.yul\":366:369   */\n      dup4\n        /* \"#utility.yul\":360:383   */\n      mcopy\n        /* \"#utility.yul\":417:418   */\n      0x00\n        /* \"#utility.yul\":408:414   */\n      dup4\n        /* \"#utility.yul\":403:406   */\n      dup4\n        /* \"#utility.yul\":399:415   */\n      add\n        /* \"#utility.yul\":392:419   */\n      mstore\n        /* \"#utility.yul\":287:426   */\n      pop\n      pop\n      pop\n      jump\t// out\n        /* \"#utility.yul\":432:534   */\n    tag_232:\n        /* \"#utility.yul\":473:479   */\n      0x00\n        /* \"#utility.yul\":524:526   */\n      0x1f\n        /* \"#utility.yul\":520:527   */\n      not\n        /* \"#utility.yul\":515:517   */\n      0x1f\n        /* \"#utility.yul\":508:513   */\n      dup4\n        /* \"#utility.yul\":504:518   */\n      add\n        /* \"#utility.yul\":500:528   */\n      and\n        /* \"#utility.yul\":490:528   */\n      swap1\n      pop\n        /* \"#utility.yul\":432:534   */\n      swap2\n      swap1\n      pop\n      jump\t// out\n        /* \"#utility.yul\":540:917   */\n    tag_233:\n        /* \"#utility.yul\":628:631   */\n      0x00\n        /* \"#utility.yul\":656:695   */\n      tag_297\n        /* \"#utility.yul\":689:694   */\n      dup3\n        /* \"#utility.yul\":656:695   */\n      tag_229\n      jump\t// in\n    tag_297:\n        /* \"#utility.yul\":711:782   */\n      tag_298\n        /* \"#utility.yul\":775:781   */\n      dup2\n        /* \"#utility.yul\":770:773   */\n      dup6\n        /* \"#utility.yul\":711:782   */\n      tag_230\n      jump\t// in\n    tag_298:\n        /* \"#utility.yul\":704:782   */\n      swap4\n      pop\n        /* \"#utility.yul\":791:856   */\n      tag_299\n        /* \"#utility.yul\":849:855   */\n      dup2\n        /* \"#utility.yul\":844:847   */\n      dup6\n        /* \"#utility.yul\":837:841   */\n      0x20\n        /* \"#utility.yul\":830:835   */\n      dup7\n        /* \"#utility.yul\":826:842   */\n      add\n        /* \"#utility.yul\":791:856   */\n      tag_231\n      jump\t// in\n    tag_299:\n        /* \"#utility.yul\":881:910   */\n      tag_300\n        /* \"#utility.yul\":903:909   */\n      dup2\n        /* \"#utility.yul\":881:910   */\n      tag_232\n      jump\t// in\n    tag_300:\n        /* \"#utility.yul\":876:879   */\n      dup5\n        /* \"#utility.yul\":872:911   */\n      add\n        /* \"#utility.yul\":865:911   */\n      swap2\n      pop\n        /* \"#utility.yul\":632:917   */\n      pop\n        /* \"#utility.yul\":540:917   */\n      swap3\n      swap2\n      pop\n      pop\n      jump\t// out\n        /* \"#utility.yul\":923:1236   */\n    tag_24:\n        /* \"#utility.yul\":1036:1040   */\n      0x00\n        /* \"#utility.yul\":1074:1076   */\n      0x20\n        /* \"#utility.yul\":1063:1072   */\n      dup3\n        /* \"#utility.yul\":1059:1077   */\n      add\n        /* \"#utility.yul\":1051:1077   */\n      swap1\n      pop\n        /* \"#utility.yul\":1123:1132   */\n      dup2\n        /* \"#utility.yul\":1117:1121   */\n      dup2\n        /* \"#utility.yul\":1113:1133   */\n      sub\n        /* \"#utility.yul\":1109:1110   */\n      0x00\n        /* \"#utility.yul\":1098:1107   */\n      dup4\n        /* \"#utility.yul\":1094:1111   */\n      add\n        /* \"#utility.yul\":1087:1134   */\n      mstore\n        /* \"#utility.yul\":1151:1229   */\n      tag_302\n        /* \"#utility.yul\":1224:1228   */\n      dup2\n        /* \"#utility.yul\":1215:1221   */\n      dup5\n        /* \"#utility.yul\":1151:1229   */\n      tag_233\n      jump\t// in\n    tag_302:\n        /* \"#utility.yul\":1143:1229   */\n      swap1\n      pop\n        /* \"#utility.yul\":923:1236   */\n      swap3\n      swap2\n      pop\n      pop\n      jump\t// out\n        /* \"#utility.yul\":1242:1317   */\n    tag_234:\n        /* \"#utility.yul\":1275:1281   */\n      0x00\n        /* \"#utility.yul\":1308:1310   */\n      0x40\n        /* \"#utility.yul\":1302:1311   */\n      mload\n        /* \"#utility.yul\":1292:1311   */\n      swap1\n      pop\n        /* \"#utility.yul\":1242:1317   */\n      swap1\n      jump\t// out\n        /* \"#utility.yul\":1323:1440   */\n    tag_235:\n        /* \"#utility.yul\":1432:1433   */\n      0x00\n        /* \"#utility.yul\":1429:1430   */\n      0x00\n        /* \"#utility.yul\":1422:1434   */\n      revert\n        /* \"#utility.yul\":1446:1563   */\n    tag_236:\n        /* \"#utility.yul\":1555:1556   */\n      0x00\n        /* \"#utility.yul\":1552:1553   */\n      0x00\n        /* \"#utility.yul\":1545:1557   */\n      revert\n        /* \"#utility.yul\":1569:1646   */\n    tag_237:\n        /* \"#utility.yul\":1606:1613   */\n      0x00\n        /* \"#utility.yul\":1635:1640   */\n      dup2\n        /* \"#utility.yul\":1624:1640   */\n      swap1\n      pop\n        /* \"#utility.yul\":1569:1646   */\n      swap2\n      swap1\n      pop\n      jump\t// out\n        /* \"#utility.yul\":1652:1774   */\n    tag_238:\n        /* \"#utility.yul\":1725:1749   */\n      tag_308\n        /* \"#utility.yul\":1743:1748   */\n      dup2\n        /* \"#utility.yul\":1725:1749   */\n      tag_237\n      jump\t// in\n    tag_308:\n        /* \"#utility.yul\":1718:1723   */\n      dup2\n        /* \"#utility.yul\":1715:1750   */\n      eq\n        /* \"#utility.yul\":1705:1768   */\n      tag_309\n      jumpi\n        /* \"#utility.yul\":1764:1765   */\n      0x00\n        /* \"#utility.yul\":1761:1762   */\n      0x00\n        /* \"#utility.yul\":1754:1766   */\n      revert\n        /* \"#utility.yul\":1705:1768   */\n    tag_309:\n        /* \"#utility.yul\":1652:1774   */\n      pop\n      jump\t// out\n        /* \"#utility.yul\":1780:1919   */\n    tag_239:\n        /* \"#utility.yul\":1826:1831   */\n      0x00\n        /* \"#utility.yul\":1864:1870   */\n      dup2\n        /* \"#utility.yul\":1851:1871   */\n      calldataload\n        /* \"#utility.yul\":1842:1871   */\n      swap1\n      pop\n        /* \"#utility.yul\":1880:1913   */\n      tag_311\n        /* \"#utility.yul\":1907:1912   */\n      dup2\n        /* \"#utility.yul\":1880:1913   */\n      tag_238\n      jump\t// in\n    tag_311:\n        /* \"#utility.yul\":1780:1919   */\n      swap3\n      swap2\n      pop\n      pop\n      jump\t// out\n        /* \"#utility.yul\":1925:2254   */\n    tag_27:\n        /* \"#utility.yul\":1984:1990   */\n      0x00\n        /* \"#utility.yul\":2033:2035   */\n      0x20\n        /* \"#utility.yul\":2021:2030   */\n      dup3\n        /* \"#utility.yul\":2012:2019   */\n      dup5\n        /* \"#utility.yul\":2008:2031   */\n      sub\n        /* \"#utility.yul\":2004:2036   */\n      slt\n        /* \"#utility.yul\":2001:2120   */\n      iszero\n      tag_313\n      jumpi\n        /* \"#utility.yul\":2039:2118   */\n      tag_314\n      tag_235\n      jump\t// in\n    tag_314:\n        /* \"#utility.yul\":2001:2120   */\n    tag_313:\n        /* \"#utility.yul\":2159:2160   */\n      0x00\n        /* \"#utility.yul\":2184:2237   */\n      tag_315\n        /* \"#utility.yul\":2229:2236   */\n      dup5\n        /* \"#utility.yul\":2220:2226   */\n      dup3\n        /* \"#utility.yul\":2209:2218   */\n      dup6\n        /* \"#utility.yul\":2205:2227   */\n      add\n        /* \"#utility.yul\":2184:2237   */\n      tag_239\n      jump\t// in\n    tag_315:\n        /* \"#utility.yul\":2174:2237   */\n      swap2\n      pop\n        /* \"#utility.yul\":2130:2247   */\n      pop\n        /* \"#utility.yul\":1925:2254   */\n      swap3\n      swap2\n      pop\n      pop\n      jump\t// out\n        /* \"#utility.yul\":2260:2378   */\n    tag_240:\n        /* \"#utility.yul\":2347:2371   */\n      tag_317\n        /* \"#utility.yul\":2365:2370   */\n      dup2\n        /* \"#utility.yul\":2347:2371   */\n      tag_237\n      jump\t// in\n    tag_317:\n        /* \"#utility.yul\":2342:2345   */\n      dup3\n        /* \"#utility.yul\":2335:2372   */\n      mstore\n        /* \"#utility.yul\":2260:2378   */\n      pop\n      pop\n      jump\t// out\n        /* \"#utility.yul\":2384:2510   */\n    tag_241:\n        /* \"#utility.yul\":2421:2428   */\n      0x00\n        /* \"#utility.yul\":2461:2503   */\n      0xffffffffffffffffffffffffffffffffffffffff\n        /* \"#utility.yul\":2454:2459   */\n      dup3\n        /* \"#utility.yul\":2450:2504   */\n      and\n        /* \"#utility.yul\":2439:2504   */\n      swap1\n      pop\n        /* \"#utility.yul\":2384:2510   */\n      swap2\n      swap1\n      pop\n      jump\t// out\n        /* \"#utility.yul\":2516:2612   */\n    tag_242:\n        /* \"#utility.yul\":2553:2560   */\n      0x00\n        /* \"#utility.yul\":2582:2606   */\n      tag_320\n        /* \"#utility.yul\":2600:2605   */\n      dup3\n        /* \"#utility.yul\":2582:2606   */\n      tag_241\n      jump\t// in\n    tag_320:\n        /* \"#utility.yul\":2571:2606   */\n      swap1\n      pop\n        /* \"#utility.yul\":2516:2612   */\n      swap2\n      swap1\n      pop\n      jump\t// out\n        /* \"#utility.yul\":2618:2736   */\n    tag_243:\n        /* \"#utility.yul\":2705:2729   */\n      tag_322\n        /* \"#utility.yul\":2723:2728   */\n      dup2\n        /* \"#utility.yul\":2705:2729   */\n      tag_242\n      jump\t// in\n    tag_322:\n        /* \"#utility.yul\":2700:2703   */\n      dup3\n        /* \"#utility.yul\":2693:2730   */\n      mstore\n        /* \"#utility.yul\":2618:2736   */\n      pop\n      pop\n      jump\t// out\n        /* \"#utility.yul\":2742:3699   */\n    tag_34:\n        /* \"#utility.yul\":3015:3019   */\n      0x00\n        /* \"#utility.yul\":3053:3056   */\n      0xc0\n        /* \"#utility.yul\":3042:3051   */\n      dup3\n        /* \"#utility.yul\":3038:3057   */\n      add\n        /* \"#utility.yul\":3030:3057   */\n      swap1\n      pop\n        /* \"#utility.yul\":3103:3112   */\n      dup2\n        /* \"#utility.yul\":3097:3101   */\n      dup2\n        /* \"#utility.yul\":3093:3113   */\n      sub\n        /* \"#utility.yul\":3089:3090   */\n      0x00\n        /* \"#utility.yul\":3078:3087   */\n      dup4\n        /* \"#utility.yul\":3074:3091   */\n      add\n        /* \"#utility.yul\":3067:3114   */\n      mstore\n        /* \"#utility.yul\":3131:3209   */\n      tag_324\n        /* \"#utility.yul\":3204:3208   */\n      dup2\n        /* \"#utility.yul\":3195:3201   */\n      dup10\n        /* \"#utility.yul\":3131:3209   */\n      tag_233\n      jump\t// in\n    tag_324:\n        /* \"#utility.yul\":3123:3209   */\n      swap1\n      pop\n        /* \"#utility.yul\":3219:3291   */\n      tag_325\n        /* \"#utility.yul\":3287:3289   */\n      0x20\n        /* \"#utility.yul\":3276:3285   */\n      dup4\n        /* \"#utility.yul\":3272:3290   */\n      add\n        /* \"#utility.yul\":3263:3269   */\n      dup9\n        /* \"#utility.yul\":3219:3291   */\n      tag_240\n      jump\t// in\n    tag_325:\n        /* \"#utility.yul\":3301:3373   */\n      tag_326\n        /* \"#utility.yul\":3369:3371   */\n      0x40\n        /* \"#utility.yul\":3358:3367   */\n      dup4\n        /* \"#utility.yul\":3354:3372   */\n      add\n        /* \"#utility.yul\":3345:3351   */\n      dup8\n        /* \"#utility.yul\":3301:3373   */\n      tag_240\n      jump\t// in\n    tag_326:\n        /* \"#utility.yul\":3383:3455   */\n      tag_327\n        /* \"#utility.yul\":3451:3453   */\n      0x60\n        /* \"#utility.yul\":3440:3449   */\n      dup4\n        /* \"#utility.yul\":3436:3454   */\n      add\n        /* \"#utility.yul\":3427:3433   */\n      dup7\n        /* \"#utility.yul\":3383:3455   */\n      tag_240\n      jump\t// in\n    tag_327:\n        /* \"#utility.yul\":3465:3538   */\n      tag_328\n        /* \"#utility.yul\":3533:3536   */\n      0x80\n        /* \"#utility.yul\":3522:3531   */\n      dup4\n        /* \"#utility.yul\":3518:3537   */\n      add\n        /* \"#utility.yul\":3509:3515   */\n      dup6\n        /* \"#utility.yul\":3465:3538   */\n      tag_243\n      jump\t// in\n    tag_328:\n        /* \"#utility.yul\":3586:3595   */\n      dup2\n        /* \"#utility.yul\":3580:3584   */\n      dup2\n        /* \"#utility.yul\":3576:3596   */\n      sub\n        /* \"#utility.yul\":3570:3573   */\n      0xa0\n        /* \"#utility.yul\":3559:3568   */\n      dup4\n        /* \"#utility.yul\":3555:3574   */\n      add\n        /* \"#utility.yul\":3548:3597   */\n      mstore\n        /* \"#utility.yul\":3614:3692   */\n      tag_329\n        /* \"#utility.yul\":3687:3691   */\n      dup2\n        /* \"#utility.yul\":3678:3684   */\n      dup5\n        /* \"#utility.yul\":3614:3692   */\n      tag_233\n      jump\t// in\n    tag_329:\n        /* \"#utility.yul\":3606:3692   */\n      swap1\n      pop\n        /* \"#utility.yul\":2742:3699   */\n      swap8\n      swap7\n      pop\n      pop\n      pop\n      pop\n      pop\n      pop\n      pop\n      jump\t// out\n        /* \"#utility.yul\":3705:3827   */\n    tag_244:\n        /* \"#utility.yul\":3778:3802   */\n      tag_331\n        /* \"#utility.yul\":3796:3801   */\n      dup2\n        /* \"#utility.yul\":3778:3802   */\n      tag_242\n      jump\t// in\n    tag_331:\n        /* \"#utility.yul\":3771:3776   */\n      dup2\n        /* \"#utility.yul\":3768:3803   */\n      eq\n        /* \"#utility.yul\":3758:3821   */\n      tag_332\n      jumpi\n        /* \"#utility.yul\":3817:3818   */\n      0x00\n        /* \"#utility.yul\":3814:3815   */\n      0x00\n        /* \"#utility.yul\":3807:3819   */\n      revert\n        /* \"#utility.yul\":3758:3821   */\n    tag_332:\n        /* \"#utility.yul\":3705:3827   */\n      pop\n      jump\t// out\n        /* \"#utility.yul\":3833:3972   */\n    tag_245:\n        /* \"#utility.yul\":3879:3884   */\n      0x00\n        /* \"#utility.yul\":3917:3923   */\n      dup2\n        /* \"#utility.yul\":3904:3924   */\n      calldataload\n        /* \"#utility.yul\":3895:3924   */\n      swap1\n      pop\n        /* \"#utility.yul\":3933:3966   */\n      tag_334\n        /* \"#utility.yul\":3960:3965   */\n      dup2\n        /* \"#utility.yul\":3933:3966   */\n      tag_244\n      jump\t// in\n    tag_334:\n        /* \"#utility.yul\":3833:3972   */\n      swap3\n      swap2\n      pop\n      pop\n      jump\t// out\n        /* \"#utility.yul\":3978:4452   */\n    tag_37:\n        /* \"#utility.yul\":4046:4052   */\n      0x00\n        /* \"#utility.yul\":4054:4060   */\n      0x00\n        /* \"#utility.yul\":4103:4105   */\n      0x40\n        /* \"#utility.yul\":4091:4100   */\n      dup4\n        /* \"#utility.yul\":4082:4089   */\n      dup6\n        /* \"#utility.yul\":4078:4101   */\n      sub\n        /* \"#utility.yul\":4074:4106   */\n      slt\n        /* \"#utility.yul\":4071:4190   */\n      iszero\n      tag_336\n      jumpi\n        /* \"#utility.yul\":4109:4188   */\n      tag_337\n      tag_235\n      jump\t// in\n    tag_337:\n        /* \"#utility.yul\":4071:4190   */\n    tag_336:\n        /* \"#utility.yul\":4229:4230   */\n      0x00\n        /* \"#utility.yul\":4254:4307   */\n      tag_338\n        /* \"#utility.yul\":4299:4306   */\n      dup6\n        /* \"#utility.yul\":4290:4296   */\n      dup3\n        /* \"#utility.yul\":4279:4288   */\n      dup7\n        /* \"#utility.yul\":4275:4297   */\n      add\n        /* \"#utility.yul\":4254:4307   */\n      tag_239\n      jump\t// in\n    tag_338:\n        /* \"#utility.yul\":4244:4307   */\n      swap3\n      pop\n        /* \"#utility.yul\":4200:4317   */\n      pop\n        /* \"#utility.yul\":4356:4358   */\n      0x20\n        /* \"#utility.yul\":4382:4435   */\n      tag_339\n        /* \"#utility.yul\":4427:4434   */\n      dup6\n        /* \"#utility.yul\":4418:4424   */\n      dup3\n        /* \"#utility.yul\":4407:4416   */\n      dup7\n        /* \"#utility.yul\":4403:4425   */\n      add\n        /* \"#utility.yul\":4382:4435   */\n      tag_245\n      jump\t// in\n    tag_339:\n        /* \"#utility.yul\":4372:4435   */\n      swap2\n      pop\n        /* \"#utility.yul\":4327:4445   */\n      pop\n        /* \"#utility.yul\":3978:4452   */\n      swap3\n      pop\n      swap3\n      swap1\n      pop\n      jump\t// out\n        /* \"#utility.yul\":4458:4575   */\n    tag_246:\n        /* \"#utility.yul\":4567:4568   */\n      0x00\n        /* \"#utility.yul\":4564:4565   */\n      0x00\n        /* \"#utility.yul\":4557:4569   */\n      revert\n        /* \"#utility.yul\":4581:4761   */\n    tag_119:\n        /* \"#utility.yul\":4629:4706   */\n      0x4e487b7100000000000000000000000000000000000000000000000000000000\n        /* \"#utility.yul\":4626:4627   */\n      0x00\n        /* \"#utility.yul\":4619:4707   */\n      mstore\n        /* \"#utility.yul\":4726:4730   */\n      0x41\n        /* \"#utility.yul\":4723:4724   */\n      0x04\n        /* \"#utility.yul\":4716:4731   */\n      mstore\n        /* \"#utility.yul\":4750:4754   */\n      0x24\n        /* \"#utility.yul\":4747:4748   */\n      0x00\n        /* \"#utility.yul\":4740:4755   */\n      revert\n        /* \"#utility.yul\":4767:5048   */\n    tag_247:\n        /* \"#utility.yul\":4850:4877   */\n      tag_343\n        /* \"#utility.yul\":4872:4876   */\n      dup3\n        /* \"#utility.yul\":4850:4877   */\n      tag_232\n      jump\t// in\n    tag_343:\n        /* \"#utility.yul\":4842:4848   */\n      dup2\n        /* \"#utility.yul\":4838:4878   */\n      add\n        /* \"#utility.yul\":4980:4986   */\n      dup2\n        /* \"#utility.yul\":4968:4978   */\n      dup2\n        /* \"#utility.yul\":4965:4987   */\n      lt\n        /* \"#utility.yul\":4944:4962   */\n      0xffffffffffffffff\n        /* \"#utility.yul\":4932:4942   */\n      dup3\n        /* \"#utility.yul\":4929:4963   */\n      gt\n        /* \"#utility.yul\":4926:4988   */\n      or\n        /* \"#utility.yul\":4923:5011   */\n      iszero\n      tag_344\n      jumpi\n        /* \"#utility.yul\":4991:5009   */\n      tag_345\n      tag_119\n      jump\t// in\n    tag_345:\n        /* \"#utility.yul\":4923:5011   */\n    tag_344:\n        /* \"#utility.yul\":5031:5041   */\n      dup1\n        /* \"#utility.yul\":5027:5029   */\n      0x40\n        /* \"#utility.yul\":5020:5042   */\n      mstore\n        /* \"#utility.yul\":4810:5048   */\n      pop\n        /* \"#utility.yul\":4767:5048   */\n      pop\n      pop\n      jump\t// out\n        /* \"#utility.yul\":5054:5183   */\n    tag_248:\n        /* \"#utility.yul\":5088:5094   */\n      0x00\n        /* \"#utility.yul\":5115:5135   */\n      tag_347\n      tag_234\n      jump\t// in\n    tag_347:\n        /* \"#utility.yul\":5105:5135   */\n      swap1\n      pop\n        /* \"#utility.yul\":5144:5177   */\n      tag_348\n        /* \"#utility.yul\":5172:5176   */\n      dup3\n        /* \"#utility.yul\":5164:5170   */\n      dup3\n        /* \"#utility.yul\":5144:5177   */\n      tag_247\n      jump\t// in\n    tag_348:\n        /* \"#utility.yul\":5054:5183   */\n      swap2\n      swap1\n      pop\n      jump\t// out\n        /* \"#utility.yul\":5189:5500   */\n    tag_249:\n        /* \"#utility.yul\":5266:5270   */\n      0x00\n        /* \"#utility.yul\":5356:5374   */\n      0xffffffffffffffff\n        /* \"#utility.yul\":5348:5354   */\n      dup3\n        /* \"#utility.yul\":5345:5375   */\n      gt\n        /* \"#utility.yul\":5342:5398   */\n      iszero\n      tag_350\n      jumpi\n        /* \"#utility.yul\":5378:5396   */\n      tag_351\n      tag_119\n      jump\t// in\n    tag_351:\n        /* \"#utility.yul\":5342:5398   */\n    tag_350:\n        /* \"#utility.yul\":5428:5432   */\n      0x20\n        /* \"#utility.yul\":5420:5426   */\n      dup3\n        /* \"#utility.yul\":5416:5433   */\n      mul\n        /* \"#utility.yul\":5408:5433   */\n      swap1\n      pop\n        /* \"#utility.yul\":5488:5492   */\n      0x20\n        /* \"#utility.yul\":5482:5486   */\n      dup2\n        /* \"#utility.yul\":5478:5493   */\n      add\n        /* \"#utility.yul\":5470:5493   */\n      swap1\n      pop\n        /* \"#utility.yul\":5189:5500   */\n      swap2\n      swap1\n      pop\n      jump\t// out\n        /* \"#utility.yul\":5506:5623   */\n    tag_250:\n        /* \"#utility.yul\":5615:5616   */\n      0x00\n        /* \"#utility.yul\":5612:5613   */\n      0x00\n        /* \"#utility.yul\":5605:5617   */\n      revert\n        /* \"#utility.yul\":5646:6356   */\n    tag_251:\n        /* \"#utility.yul\":5742:5747   */\n      0x00\n        /* \"#utility.yul\":5767:5848   */\n      tag_354\n        /* \"#utility.yul\":5783:5847   */\n      tag_355\n        /* \"#utility.yul\":5840:5846   */\n      dup5\n        /* \"#utility.yul\":5783:5847   */\n      tag_249\n      jump\t// in\n    tag_355:\n        /* \"#utility.yul\":5767:5848   */\n      tag_248\n      jump\t// in\n    tag_354:\n        /* \"#utility.yul\":5758:5848   */\n      swap1\n      pop\n        /* \"#utility.yul\":5868:5873   */\n      dup1\n        /* \"#utility.yul\":5897:5903   */\n      dup4\n        /* \"#utility.yul\":5890:5895   */\n      dup3\n        /* \"#utility.yul\":5883:5904   */\n      mstore\n        /* \"#utility.yul\":5931:5935   */\n      0x20\n        /* \"#utility.yul\":5924:5929   */\n      dup3\n        /* \"#utility.yul\":5920:5936   */\n      add\n        /* \"#utility.yul\":5913:5936   */\n      swap1\n      pop\n        /* \"#utility.yul\":5984:5988   */\n      0x20\n        /* \"#utility.yul\":5976:5982   */\n      dup5\n        /* \"#utility.yul\":5972:5989   */\n      mul\n        /* \"#utility.yul\":5964:5970   */\n      dup4\n        /* \"#utility.yul\":5960:5990   */\n      add\n        /* \"#utility.yul\":6013:6016   */\n      dup6\n        /* \"#utility.yul\":6005:6011   */\n      dup2\n        /* \"#utility.yul\":6002:6017   */\n      gt\n        /* \"#utility.yul\":5999:6121   */\n      iszero\n      tag_356\n      jumpi\n        /* \"#utility.yul\":6032:6111   */\n      tag_357\n      tag_250\n      jump\t// in\n    tag_357:\n        /* \"#utility.yul\":5999:6121   */\n    tag_356:\n        /* \"#utility.yul\":6147:6153   */\n      dup4\n        /* \"#utility.yul\":6130:6350   */\n    tag_358:\n        /* \"#utility.yul\":6164:6170   */\n      dup2\n        /* \"#utility.yul\":6159:6162   */\n      dup2\n        /* \"#utility.yul\":6156:6171   */\n      lt\n        /* \"#utility.yul\":6130:6350   */\n      iszero\n      tag_360\n      jumpi\n        /* \"#utility.yul\":6239:6242   */\n      dup1\n        /* \"#utility.yul\":6268:6305   */\n      tag_361\n        /* \"#utility.yul\":6301:6304   */\n      dup9\n        /* \"#utility.yul\":6289:6299   */\n      dup3\n        /* \"#utility.yul\":6268:6305   */\n      tag_239\n      jump\t// in\n    tag_361:\n        /* \"#utility.yul\":6263:6266   */\n      dup5\n        /* \"#utility.yul\":6256:6306   */\n      mstore\n        /* \"#utility.yul\":6335:6339   */\n      0x20\n        /* \"#utility.yul\":6330:6333   */\n      dup5\n        /* \"#utility.yul\":6326:6340   */\n      add\n        /* \"#utility.yul\":6319:6340   */\n      swap4\n      pop\n        /* \"#utility.yul\":6206:6350   */\n      pop\n        /* \"#utility.yul\":6190:6194   */\n      0x20\n        /* \"#utility.yul\":6185:6188   */\n      dup2\n        /* \"#utility.yul\":6181:6195   */\n      add\n        /* \"#utility.yul\":6174:6195   */\n      swap1\n      pop\n        /* \"#utility.yul\":6130:6350   */\n      jump(tag_358)\n    tag_360:\n        /* \"#utility.yul\":6134:6155   */\n      pop\n        /* \"#utility.yul\":5748:6356   */\n      pop\n      pop\n        /* \"#utility.yul\":5646:6356   */\n      swap4\n      swap3\n      pop\n      pop\n      pop\n      jump\t// out\n        /* \"#utility.yul\":6379:6749   */\n    tag_252:\n        /* \"#utility.yul\":6450:6455   */\n      0x00\n        /* \"#utility.yul\":6499:6502   */\n      dup3\n        /* \"#utility.yul\":6492:6496   */\n      0x1f\n        /* \"#utility.yul\":6484:6490   */\n      dup4\n        /* \"#utility.yul\":6480:6497   */\n      add\n        /* \"#utility.yul\":6476:6503   */\n      slt\n        /* \"#utility.yul\":6466:6588   */\n      tag_363\n      jumpi\n        /* \"#utility.yul\":6507:6586   */\n      tag_364\n      tag_246\n      jump\t// in\n    tag_364:\n        /* \"#utility.yul\":6466:6588   */\n    tag_363:\n        /* \"#utility.yul\":6624:6630   */\n      dup2\n        /* \"#utility.yul\":6611:6631   */\n      calldataload\n        /* \"#utility.yul\":6649:6743   */\n      tag_365\n        /* \"#utility.yul\":6739:6742   */\n      dup5\n        /* \"#utility.yul\":6731:6737   */\n      dup3\n        /* \"#utility.yul\":6724:6728   */\n      0x20\n        /* \"#utility.yul\":6716:6722   */\n      dup7\n        /* \"#utility.yul\":6712:6729   */\n      add\n        /* \"#utility.yul\":6649:6743   */\n      tag_251\n      jump\t// in\n    tag_365:\n        /* \"#utility.yul\":6640:6743   */\n      swap2\n      pop\n        /* \"#utility.yul\":6456:6749   */\n      pop\n        /* \"#utility.yul\":6379:6749   */\n      swap3\n      swap2\n      pop\n      pop\n      jump\t// out\n        /* \"#utility.yul\":6755:7294   */\n    tag_41:\n        /* \"#utility.yul\":6839:6845   */\n      0x00\n        /* \"#utility.yul\":6888:6890   */\n      0x20\n        /* \"#utility.yul\":6876:6885   */\n      dup3\n        /* \"#utility.yul\":6867:6874   */\n      dup5\n        /* \"#utility.yul\":6863:6886   */\n      sub\n        /* \"#utility.yul\":6859:6891   */\n      slt\n        /* \"#utility.yul\":6856:6975   */\n      iszero\n      tag_367\n      jumpi\n        /* \"#utility.yul\":6894:6973   */\n      tag_368\n      tag_235\n      jump\t// in\n    tag_368:\n        /* \"#utility.yul\":6856:6975   */\n    tag_367:\n        /* \"#utility.yul\":7042:7043   */\n      0x00\n        /* \"#utility.yul\":7031:7040   */\n      dup3\n        /* \"#utility.yul\":7027:7044   */\n      add\n        /* \"#utility.yul\":7014:7045   */\n      calldataload\n        /* \"#utility.yul\":7072:7090   */\n      0xffffffffffffffff\n        /* \"#utility.yul\":7064:7070   */\n      dup2\n        /* \"#utility.yul\":7061:7091   */\n      gt\n        /* \"#utility.yul\":7058:7175   */\n      iszero\n      tag_369\n      jumpi\n        /* \"#utility.yul\":7094:7173   */\n      tag_370\n      tag_236\n      jump\t// in\n    tag_370:\n        /* \"#utility.yul\":7058:7175   */\n    tag_369:\n        /* \"#utility.yul\":7199:7277   */\n      tag_371\n        /* \"#utility.yul\":7269:7276   */\n      dup5\n        /* \"#utility.yul\":7260:7266   */\n      dup3\n        /* \"#utility.yul\":7249:7258   */\n      dup6\n        /* \"#utility.yul\":7245:7267   */\n      add\n        /* \"#utility.yul\":7199:7277   */\n      tag_252\n      jump\t// in\n    tag_371:\n        /* \"#utility.yul\":7189:7277   */\n      swap2\n      pop\n        /* \"#utility.yul\":6985:7287   */\n      pop\n        /* \"#utility.yul\":6755:7294   */\n      swap3\n      swap2\n      pop\n      pop\n      jump\t// out\n        /* \"#utility.yul\":7300:7390   */\n    tag_253:\n        /* \"#utility.yul\":7334:7341   */\n      0x00\n        /* \"#utility.yul\":7377:7382   */\n      dup2\n        /* \"#utility.yul\":7370:7383   */\n      iszero\n        /* \"#utility.yul\":7363:7384   */\n      iszero\n        /* \"#utility.yul\":7352:7384   */\n      swap1\n      pop\n        /* \"#utility.yul\":7300:7390   */\n      swap2\n      swap1\n      pop\n      jump\t// out\n        /* \"#utility.yul\":7396:7505   */\n    tag_254:\n        /* \"#utility.yul\":7477:7498   */\n      tag_374\n        /* \"#utility.yul\":7492:7497   */\n      dup2\n        /* \"#utility.yul\":7477:7498   */\n      tag_253\n      jump\t// in\n    tag_374:\n        /* \"#utility.yul\":7472:7475   */\n      dup3\n        /* \"#utility.yul\":7465:7499   */\n      mstore\n        /* \"#utility.yul\":7396:7505   */\n      pop\n      pop\n      jump\t// out\n        /* \"#utility.yul\":7511:7721   */\n    tag_44:\n        /* \"#utility.yul\":7598:7602   */\n      0x00\n        /* \"#utility.yul\":7636:7638   */\n      0x20\n        /* \"#utility.yul\":7625:7634   */\n      dup3\n        /* \"#utility.yul\":7621:7639   */\n      add\n        /* \"#utility.yul\":7613:7639   */\n      swap1\n      pop\n        /* \"#utility.yul\":7649:7714   */\n      tag_376\n        /* \"#utility.yul\":7711:7712   */\n      0x00\n        /* \"#utility.yul\":7700:7709   */\n      dup4\n        /* \"#utility.yul\":7696:7713   */\n      add\n        /* \"#utility.yul\":7687:7693   */\n      dup5\n        /* \"#utility.yul\":7649:7714   */\n      tag_254\n      jump\t// in\n    tag_376:\n        /* \"#utility.yul\":7511:7721   */\n      swap3\n      swap2\n      pop\n      pop\n      jump\t// out\n        /* \"#utility.yul\":7727:7949   */\n    tag_48:\n        /* \"#utility.yul\":7820:7824   */\n      0x00\n        /* \"#utility.yul\":7858:7860   */\n      0x20\n        /* \"#utility.yul\":7847:7856   */\n      dup3\n        /* \"#utility.yul\":7843:7861   */\n      add\n        /* \"#utility.yul\":7835:7861   */\n      swap1\n      pop\n        /* \"#utility.yul\":7871:7942   */\n      tag_378\n        /* \"#utility.yul\":7939:7940   */\n      0x00\n        /* \"#utility.yul\":7928:7937   */\n      dup4\n        /* \"#utility.yul\":7924:7941   */\n      add\n        /* \"#utility.yul\":7915:7921   */\n      dup5\n        /* \"#utility.yul\":7871:7942   */\n      tag_240\n      jump\t// in\n    tag_378:\n        /* \"#utility.yul\":7727:7949   */\n      swap3\n      swap2\n      pop\n      pop\n      jump\t// out\n        /* \"#utility.yul\":7955:8072   */\n    tag_255:\n        /* \"#utility.yul\":8064:8065   */\n      0x00\n        /* \"#utility.yul\":8061:8062   */\n      0x00\n        /* \"#utility.yul\":8054:8066   */\n      revert\n        /* \"#utility.yul\":8078:8386   */\n    tag_256:\n        /* \"#utility.yul\":8140:8144   */\n      0x00\n        /* \"#utility.yul\":8230:8248   */\n      0xffffffffffffffff\n        /* \"#utility.yul\":8222:8228   */\n      dup3\n        /* \"#utility.yul\":8219:8249   */\n      gt\n        /* \"#utility.yul\":8216:8272   */\n      iszero\n      tag_381\n      jumpi\n        /* \"#utility.yul\":8252:8270   */\n      tag_382\n      tag_119\n      jump\t// in\n    tag_382:\n        /* \"#utility.yul\":8216:8272   */\n    tag_381:\n        /* \"#utility.yul\":8290:8319   */\n      tag_383\n        /* \"#utility.yul\":8312:8318   */\n      dup3\n        /* \"#utility.yul\":8290:8319   */\n      tag_232\n      jump\t// in\n    tag_383:\n        /* \"#utility.yul\":8282:8319   */\n      swap1\n      pop\n        /* \"#utility.yul\":8374:8378   */\n      0x20\n        /* \"#utility.yul\":8368:8372   */\n      dup2\n        /* \"#utility.yul\":8364:8379   */\n      add\n        /* \"#utility.yul\":8356:8379   */\n      swap1\n      pop\n        /* \"#utility.yul\":8078:8386   */\n      swap2\n      swap1\n      pop\n      jump\t// out\n        /* \"#utility.yul\":8392:8540   */\n    tag_257:\n        /* \"#utility.yul\":8490:8496   */\n      dup3\n        /* \"#utility.yul\":8485:8488   */\n      dup2\n        /* \"#utility.yul\":8480:8483   */\n      dup4\n        /* \"#utility.yul\":8467:8497   */\n      calldatacopy\n        /* \"#utility.yul\":8531:8532   */\n      0x00\n        /* \"#utility.yul\":8522:8528   */\n      dup4\n        /* \"#utility.yul\":8517:8520   */\n      dup4\n        /* \"#utility.yul\":8513:8529   */\n      add\n        /* \"#utility.yul\":8506:8533   */\n      mstore\n        /* \"#utility.yul\":8392:8540   */\n      pop\n      pop\n      pop\n      jump\t// out\n        /* \"#utility.yul\":8546:8971   */\n    tag_258:\n        /* \"#utility.yul\":8624:8629   */\n      0x00\n        /* \"#utility.yul\":8649:8715   */\n      tag_386\n        /* \"#utility.yul\":8665:8714   */\n      tag_387\n        /* \"#utility.yul\":8707:8713   */\n      dup5\n        /* \"#utility.yul\":8665:8714   */\n      tag_256\n      jump\t// in\n    tag_387:\n        /* \"#utility.yul\":8649:8715   */\n      tag_248\n      jump\t// in\n    tag_386:\n        /* \"#utility.yul\":8640:8715   */\n      swap1\n      pop\n        /* \"#utility.yul\":8738:8744   */\n      dup3\n        /* \"#utility.yul\":8731:8736   */\n      dup2\n        /* \"#utility.yul\":8724:8745   */\n      mstore\n        /* \"#utility.yul\":8776:8780   */\n      0x20\n        /* \"#utility.yul\":8769:8774   */\n      dup2\n        /* \"#utility.yul\":8765:8781   */\n      add\n        /* \"#utility.yul\":8814:8817   */\n      dup5\n        /* \"#utility.yul\":8805:8811   */\n      dup5\n        /* \"#utility.yul\":8800:8803   */\n      dup5\n        /* \"#utility.yul\":8796:8812   */\n      add\n        /* \"#utility.yul\":8793:8818   */\n      gt\n        /* \"#utility.yul\":8790:8902   */\n      iszero\n      tag_388\n      jumpi\n        /* \"#utility.yul\":8821:8900   */\n      tag_389\n      tag_255\n      jump\t// in\n    tag_389:\n        /* \"#utility.yul\":8790:8902   */\n    tag_388:\n        /* \"#utility.yul\":8911:8965   */\n      tag_390\n        /* \"#utility.yul\":8958:8964   */\n      dup5\n        /* \"#utility.yul\":8953:8956   */\n      dup3\n        /* \"#utility.yul\":8948:8951   */\n      dup6\n        /* \"#utility.yul\":8911:8965   */\n      tag_257\n      jump\t// in\n    tag_390:\n        /* \"#utility.yul\":8630:8971   */\n      pop\n        /* \"#utility.yul\":8546:8971   */\n      swap4\n      swap3\n      pop\n      pop\n      pop\n      jump\t// out\n        /* \"#utility.yul\":8991:9331   */\n    tag_259:\n        /* \"#utility.yul\":9047:9052   */\n      0x00\n        /* \"#utility.yul\":9096:9099   */\n      dup3\n        /* \"#utility.yul\":9089:9093   */\n      0x1f\n        /* \"#utility.yul\":9081:9087   */\n      dup4\n        /* \"#utility.yul\":9077:9094   */\n      add\n        /* \"#utility.yul\":9073:9100   */\n      slt\n        /* \"#utility.yul\":9063:9185   */\n      tag_392\n      jumpi\n        /* \"#utility.yul\":9104:9183   */\n      tag_393\n      tag_246\n      jump\t// in\n    tag_393:\n        /* \"#utility.yul\":9063:9185   */\n    tag_392:\n        /* \"#utility.yul\":9221:9227   */\n      dup2\n        /* \"#utility.yul\":9208:9228   */\n      calldataload\n        /* \"#utility.yul\":9246:9325   */\n      tag_394\n        /* \"#utility.yul\":9321:9324   */\n      dup5\n        /* \"#utility.yul\":9313:9319   */\n      dup3\n        /* \"#utility.yul\":9306:9310   */\n      0x20\n        /* \"#utility.yul\":9298:9304   */\n      dup7\n        /* \"#utility.yul\":9294:9311   */\n      add\n        /* \"#utility.yul\":9246:9325   */\n      tag_258\n      jump\t// in\n    tag_394:\n        /* \"#utility.yul\":9237:9325   */\n      swap2\n      pop\n        /* \"#utility.yul\":9053:9331   */\n      pop\n        /* \"#utility.yul\":8991:9331   */\n      swap3\n      swap2\n      pop\n      pop\n      jump\t// out\n        /* \"#utility.yul\":9337:10754   */\n    tag_53:\n        /* \"#utility.yul\":9461:9467   */\n      0x00\n        /* \"#utility.yul\":9469:9475   */\n      0x00\n        /* \"#utility.yul\":9477:9483   */\n      0x00\n        /* \"#utility.yul\":9485:9491   */\n      0x00\n        /* \"#utility.yul\":9493:9499   */\n      0x00\n        /* \"#utility.yul\":9501:9507   */\n      0x00\n        /* \"#utility.yul\":9550:9553   */\n      0xc0\n        /* \"#utility.yul\":9538:9547   */\n      dup8\n        /* \"#utility.yul\":9529:9536   */\n      dup10\n        /* \"#utility.yul\":9525:9548   */\n      sub\n        /* \"#utility.yul\":9521:9554   */\n      slt\n        /* \"#utility.yul\":9518:9638   */\n      iszero\n      tag_396\n      jumpi\n        /* \"#utility.yul\":9557:9636   */\n      tag_397\n      tag_235\n      jump\t// in\n    tag_397:\n        /* \"#utility.yul\":9518:9638   */\n    tag_396:\n        /* \"#utility.yul\":9705:9706   */\n      0x00\n        /* \"#utility.yul\":9694:9703   */\n      dup8\n        /* \"#utility.yul\":9690:9707   */\n      add\n        /* \"#utility.yul\":9677:9708   */\n      calldataload\n        /* \"#utility.yul\":9735:9753   */\n      0xffffffffffffffff\n        /* \"#utility.yul\":9727:9733   */\n      dup2\n        /* \"#utility.yul\":9724:9754   */\n      gt\n        /* \"#utility.yul\":9721:9838   */\n      iszero\n      tag_398\n      jumpi\n        /* \"#utility.yul\":9757:9836   */\n      tag_399\n      tag_236\n      jump\t// in\n    tag_399:\n        /* \"#utility.yul\":9721:9838   */\n    tag_398:\n        /* \"#utility.yul\":9862:9925   */\n      tag_400\n        /* \"#utility.yul\":9917:9924   */\n      dup10\n        /* \"#utility.yul\":9908:9914   */\n      dup3\n        /* \"#utility.yul\":9897:9906   */\n      dup11\n        /* \"#utility.yul\":9893:9915   */\n      add\n        /* \"#utility.yul\":9862:9925   */\n      tag_259\n      jump\t// in\n    tag_400:\n        /* \"#utility.yul\":9852:9925   */\n      swap7\n      pop\n        /* \"#utility.yul\":9648:9935   */\n      pop\n        /* \"#utility.yul\":9974:9976   */\n      0x20\n        /* \"#utility.yul\":10000:10053   */\n      tag_401\n        /* \"#utility.yul\":10045:10052   */\n      dup10\n        /* \"#utility.yul\":10036:10042   */\n      dup3\n        /* \"#utility.yul\":10025:10034   */\n      dup11\n        /* \"#utility.yul\":10021:10043   */\n      add\n        /* \"#utility.yul\":10000:10053   */\n      tag_239\n      jump\t// in\n    tag_401:\n        /* \"#utility.yul\":9990:10053   */\n      swap6\n      pop\n        /* \"#utility.yul\":9945:10063   */\n      pop\n        /* \"#utility.yul\":10102:10104   */\n      0x40\n        /* \"#utility.yul\":10128:10181   */\n      tag_402\n        /* \"#utility.yul\":10173:10180   */\n      dup10\n        /* \"#utility.yul\":10164:10170   */\n      dup3\n        /* \"#utility.yul\":10153:10162   */\n      dup11\n        /* \"#utility.yul\":10149:10171   */\n      add\n        /* \"#utility.yul\":10128:10181   */\n      tag_239\n      jump\t// in\n    tag_402:\n        /* \"#utility.yul\":10118:10181   */\n      swap5\n      pop\n        /* \"#utility.yul\":10073:10191   */\n      pop\n        /* \"#utility.yul\":10230:10232   */\n      0x60\n        /* \"#utility.yul\":10256:10309   */\n      tag_403\n        /* \"#utility.yul\":10301:10308   */\n      dup10\n        /* \"#utility.yul\":10292:10298   */\n      dup3\n        /* \"#utility.yul\":10281:10290   */\n      dup11\n        /* \"#utility.yul\":10277:10299   */\n      add\n        /* \"#utility.yul\":10256:10309   */\n      tag_245\n      jump\t// in\n    tag_403:\n        /* \"#utility.yul\":10246:10309   */\n      swap4\n      pop\n        /* \"#utility.yul\":10201:10319   */\n      pop\n        /* \"#utility.yul\":10386:10389   */\n      0x80\n        /* \"#utility.yul\":10375:10384   */\n      dup8\n        /* \"#utility.yul\":10371:10390   */\n      add\n        /* \"#utility.yul\":10358:10391   */\n      calldataload\n        /* \"#utility.yul\":10418:10436   */\n      0xffffffffffffffff\n        /* \"#utility.yul\":10410:10416   */\n      dup2\n        /* \"#utility.yul\":10407:10437   */\n      gt\n        /* \"#utility.yul\":10404:10521   */\n      iszero\n      tag_404\n      jumpi\n        /* \"#utility.yul\":10440:10519   */\n      tag_405\n      tag_236\n      jump\t// in\n    tag_405:\n        /* \"#utility.yul\":10404:10521   */\n    tag_404:\n        /* \"#utility.yul\":10545:10608   */\n      tag_406\n        /* \"#utility.yul\":10600:10607   */\n      dup10\n        /* \"#utility.yul\":10591:10597   */\n      dup3\n        /* \"#utility.yul\":10580:10589   */\n      dup11\n        /* \"#utility.yul\":10576:10598   */\n      add\n        /* \"#utility.yul\":10545:10608   */\n      tag_259\n      jump\t// in\n    tag_406:\n        /* \"#utility.yul\":10535:10608   */\n      swap3\n      pop\n        /* \"#utility.yul\":10329:10618   */\n      pop\n        /* \"#utility.yul\":10657:10660   */\n      0xa0\n        /* \"#utility.yul\":10684:10737   */\n      tag_407\n        /* \"#utility.yul\":10729:10736   */\n      dup10\n        /* \"#utility.yul\":10720:10726   */\n      dup3\n        /* \"#utility.yul\":10709:10718   */\n      dup11\n        /* \"#utility.yul\":10705:10727   */\n      add\n        /* \"#utility.yul\":10684:10737   */\n      tag_239\n      jump\t// in\n    tag_407:\n        /* \"#utility.yul\":10674:10737   */\n      swap2\n      pop\n        /* \"#utility.yul\":10628:10747   */\n      pop\n        /* \"#utility.yul\":9337:10754   */\n      swap3\n      swap6\n      pop\n      swap3\n      swap6\n      pop\n      swap3\n      swap6\n      jump\t// out\n        /* \"#utility.yul\":10760:10982   */\n    tag_59:\n        /* \"#utility.yul\":10853:10857   */\n      0x00\n        /* \"#utility.yul\":10891:10893   */\n      0x20\n        /* \"#utility.yul\":10880:10889   */\n      dup3\n        /* \"#utility.yul\":10876:10894   */\n      add\n        /* \"#utility.yul\":10868:10894   */\n      swap1\n      pop\n        /* \"#utility.yul\":10904:10975   */\n      tag_409\n        /* \"#utility.yul\":10972:10973   */\n      0x00\n        /* \"#utility.yul\":10961:10970   */\n      dup4\n        /* \"#utility.yul\":10957:10974   */\n      add\n        /* \"#utility.yul\":10948:10954   */\n      dup5\n        /* \"#utility.yul\":10904:10975   */\n      tag_243\n      jump\t// in\n    tag_409:\n        /* \"#utility.yul\":10760:10982   */\n      swap3\n      swap2\n      pop\n      pop\n      jump\t// out\n        /* \"#utility.yul\":10988:11743   */\n    tag_64:\n        /* \"#utility.yul\":11213:11217   */\n      0x00\n        /* \"#utility.yul\":11251:11254   */\n      0xa0\n        /* \"#utility.yul\":11240:11249   */\n      dup3\n        /* \"#utility.yul\":11236:11255   */\n      add\n        /* \"#utility.yul\":11228:11255   */\n      swap1\n      pop\n        /* \"#utility.yul\":11301:11310   */\n      dup2\n        /* \"#utility.yul\":11295:11299   */\n      dup2\n        /* \"#utility.yul\":11291:11311   */\n      sub\n        /* \"#utility.yul\":11287:11288   */\n      0x00\n        /* \"#utility.yul\":11276:11285   */\n      dup4\n        /* \"#utility.yul\":11272:11289   */\n      add\n        /* \"#utility.yul\":11265:11312   */\n      mstore\n        /* \"#utility.yul\":11329:11407   */\n      tag_411\n        /* \"#utility.yul\":11402:11406   */\n      dup2\n        /* \"#utility.yul\":11393:11399   */\n      dup9\n        /* \"#utility.yul\":11329:11407   */\n      tag_233\n      jump\t// in\n    tag_411:\n        /* \"#utility.yul\":11321:11407   */\n      swap1\n      pop\n        /* \"#utility.yul\":11417:11489   */\n      tag_412\n        /* \"#utility.yul\":11485:11487   */\n      0x20\n        /* \"#utility.yul\":11474:11483   */\n      dup4\n        /* \"#utility.yul\":11470:11488   */\n      add\n        /* \"#utility.yul\":11461:11467   */\n      dup8\n        /* \"#utility.yul\":11417:11489   */\n      tag_240\n      jump\t// in\n    tag_412:\n        /* \"#utility.yul\":11499:11571   */\n      tag_413\n        /* \"#utility.yul\":11567:11569   */\n      0x40\n        /* \"#utility.yul\":11556:11565   */\n      dup4\n        /* \"#utility.yul\":11552:11570   */\n      add\n        /* \"#utility.yul\":11543:11549   */\n      dup7\n        /* \"#utility.yul\":11499:11571   */\n      tag_240\n      jump\t// in\n    tag_413:\n        /* \"#utility.yul\":11581:11653   */\n      tag_414\n        /* \"#utility.yul\":11649:11651   */\n      0x60\n        /* \"#utility.yul\":11638:11647   */\n      dup4\n        /* \"#utility.yul\":11634:11652   */\n      add\n        /* \"#utility.yul\":11625:11631   */\n      dup6\n        /* \"#utility.yul\":11581:11653   */\n      tag_240\n      jump\t// in\n    tag_414:\n        /* \"#utility.yul\":11663:11736   */\n      tag_415\n        /* \"#utility.yul\":11731:11734   */\n      0x80\n        /* \"#utility.yul\":11720:11729   */\n      dup4\n        /* \"#utility.yul\":11716:11735   */\n      add\n        /* \"#utility.yul\":11707:11713   */\n      dup5\n        /* \"#utility.yul\":11663:11736   */\n      tag_243\n      jump\t// in\n    tag_415:\n        /* \"#utility.yul\":10988:11743   */\n      swap7\n      swap6\n      pop\n      pop\n      pop\n      pop\n      pop\n      pop\n      jump\t// out\n        /* \"#utility.yul\":11749:12643   */\n    tag_75:\n        /* \"#utility.yul\":11867:11873   */\n      0x00\n        /* \"#utility.yul\":11875:11881   */\n      0x00\n        /* \"#utility.yul\":11924:11926   */\n      0x40\n        /* \"#utility.yul\":11912:11921   */\n      dup4\n        /* \"#utility.yul\":11903:11910   */\n      dup6\n        /* \"#utility.yul\":11899:11922   */\n      sub\n        /* \"#utility.yul\":11895:11927   */\n      slt\n        /* \"#utility.yul\":11892:12011   */\n      iszero\n      tag_417\n      jumpi\n        /* \"#utility.yul\":11930:12009   */\n      tag_418\n      tag_235\n      jump\t// in\n    tag_418:\n        /* \"#utility.yul\":11892:12011   */\n    tag_417:\n        /* \"#utility.yul\":12078:12079   */\n      0x00\n        /* \"#utility.yul\":12067:12076   */\n      dup4\n        /* \"#utility.yul\":12063:12080   */\n      add\n        /* \"#utility.yul\":12050:12081   */\n      calldataload\n        /* \"#utility.yul\":12108:12126   */\n      0xffffffffffffffff\n        /* \"#utility.yul\":12100:12106   */\n      dup2\n        /* \"#utility.yul\":12097:12127   */\n      gt\n        /* \"#utility.yul\":12094:12211   */\n      iszero\n      tag_419\n      jumpi\n        /* \"#utility.yul\":12130:12209   */\n      tag_420\n      tag_236\n      jump\t// in\n    tag_420:\n        /* \"#utility.yul\":12094:12211   */\n    tag_419:\n        /* \"#utility.yul\":12235:12313   */\n      tag_421\n        /* \"#utility.yul\":12305:12312   */\n      dup6\n        /* \"#utility.yul\":12296:12302   */\n      dup3\n        /* \"#utility.yul\":12285:12294   */\n      dup7\n        /* \"#utility.yul\":12281:12303   */\n      add\n        /* \"#utility.yul\":12235:12313   */\n      tag_252\n      jump\t// in\n    tag_421:\n        /* \"#utility.yul\":12225:12313   */\n      swap3\n      pop\n        /* \"#utility.yul\":12021:12323   */\n      pop\n        /* \"#utility.yul\":12390:12392   */\n      0x20\n        /* \"#utility.yul\":12379:12388   */\n      dup4\n        /* \"#utility.yul\":12375:12393   */\n      add\n        /* \"#utility.yul\":12362:12394   */\n      calldataload\n        /* \"#utility.yul\":12421:12439   */\n      0xffffffffffffffff\n        /* \"#utility.yul\":12413:12419   */\n      dup2\n        /* \"#utility.yul\":12410:12440   */\n      gt\n        /* \"#utility.yul\":12407:12524   */\n      iszero\n      tag_422\n      jumpi\n        /* \"#utility.yul\":12443:12522   */\n      tag_423\n      tag_236\n      jump\t// in\n    tag_423:\n        /* \"#utility.yul\":12407:12524   */\n    tag_422:\n        /* \"#utility.yul\":12548:12626   */\n      tag_424\n        /* \"#utility.yul\":12618:12625   */\n      dup6\n        /* \"#utility.yul\":12609:12615   */\n      dup3\n        /* \"#utility.yul\":12598:12607   */\n      dup7\n        /* \"#utility.yul\":12594:12616   */\n      add\n        /* \"#utility.yul\":12548:12626   */\n      tag_252\n      jump\t// in\n    tag_424:\n        /* \"#utility.yul\":12538:12626   */\n      swap2\n      pop\n        /* \"#utility.yul\":12333:12636   */\n      pop\n        /* \"#utility.yul\":11749:12643   */\n      swap3\n      pop\n      swap3\n      swap1\n      pop\n      jump\t// out\n        /* \"#utility.yul\":12649:12978   */\n    tag_79:\n        /* \"#utility.yul\":12708:12714   */\n      0x00\n        /* \"#utility.yul\":12757:12759   */\n      0x20\n        /* \"#utility.yul\":12745:12754   */\n      dup3\n        /* \"#utility.yul\":12736:12743   */\n      dup5\n        /* \"#utility.yul\":12732:12755   */\n      sub\n        /* \"#utility.yul\":12728:12760   */\n      slt\n        /* \"#utility.yul\":12725:12844   */\n      iszero\n      tag_426\n      jumpi\n        /* \"#utility.yul\":12763:12842   */\n      tag_427\n      tag_235\n      jump\t// in\n    tag_427:\n        /* \"#utility.yul\":12725:12844   */\n    tag_426:\n        /* \"#utility.yul\":12883:12884   */\n      0x00\n        /* \"#utility.yul\":12908:12961   */\n      tag_428\n        /* \"#utility.yul\":12953:12960   */\n      dup5\n        /* \"#utility.yul\":12944:12950   */\n      dup3\n        /* \"#utility.yul\":12933:12942   */\n      dup6\n        /* \"#utility.yul\":12929:12951   */\n      add\n        /* \"#utility.yul\":12908:12961   */\n      tag_245\n      jump\t// in\n    tag_428:\n        /* \"#utility.yul\":12898:12961   */\n      swap2\n      pop\n        /* \"#utility.yul\":12854:12971   */\n      pop\n        /* \"#utility.yul\":12649:12978   */\n      swap3\n      swap2\n      pop\n      pop\n      jump\t// out\n        /* \"#utility.yul\":12984:13164   */\n    tag_260:\n        /* \"#utility.yul\":13032:13109   */\n      0x4e487b7100000000000000000000000000000000000000000000000000000000\n        /* \"#utility.yul\":13029:13030   */\n      0x00\n        /* \"#utility.yul\":13022:13110   */\n      mstore\n        /* \"#utility.yul\":13129:13133   */\n      0x22\n        /* \"#utility.yul\":13126:13127   */\n      0x04\n        /* \"#utility.yul\":13119:13134   */\n      mstore\n        /* \"#utility.yul\":13153:13157   */\n      0x24\n        /* \"#utility.yul\":13150:13151   */\n      0x00\n        /* \"#utility.yul\":13143:13158   */\n      revert\n        /* \"#utility.yul\":13170:13490   */\n    tag_85:\n        /* \"#utility.yul\":13214:13220   */\n      0x00\n        /* \"#utility.yul\":13251:13252   */\n      0x02\n        /* \"#utility.yul\":13245:13249   */\n      dup3\n        /* \"#utility.yul\":13241:13253   */\n      div\n        /* \"#utility.yul\":13231:13253   */\n      swap1\n      pop\n        /* \"#utility.yul\":13298:13299   */\n      0x01\n        /* \"#utility.yul\":13292:13296   */\n      dup3\n        /* \"#utility.yul\":13288:13300   */\n      and\n        /* \"#utility.yul\":13319:13337   */\n      dup1\n        /* \"#utility.yul\":13309:13390   */\n      tag_431\n      jumpi\n        /* \"#utility.yul\":13375:13379   */\n      0x7f\n        /* \"#utility.yul\":13367:13373   */\n      dup3\n        /* \"#utility.yul\":13363:13380   */\n      and\n        /* \"#utility.yul\":13353:13380   */\n      swap2\n      pop\n        /* \"#utility.yul\":13309:13390   */\n    tag_431:\n        /* \"#utility.yul\":13437:13439   */\n      0x20\n        /* \"#utility.yul\":13429:13435   */\n      dup3\n        /* \"#utility.yul\":13426:13440   */\n      lt\n        /* \"#utility.yul\":13406:13424   */\n      dup2\n        /* \"#utility.yul\":13403:13441   */\n      sub\n        /* \"#utility.yul\":13400:13484   */\n      tag_432\n      jumpi\n        /* \"#utility.yul\":13456:13474   */\n      tag_433\n      tag_260\n      jump\t// in\n    tag_433:\n        /* \"#utility.yul\":13400:13484   */\n    tag_432:\n        /* \"#utility.yul\":13221:13490   */\n      pop\n        /* \"#utility.yul\":13170:13490   */\n      swap2\n      swap1\n      pop\n      jump\t// out\n        /* \"#utility.yul\":13496:13676   */\n    tag_123:\n        /* \"#utility.yul\":13544:13621   */\n      0x4e487b7100000000000000000000000000000000000000000000000000000000\n        /* \"#utility.yul\":13541:13542   */\n      0x00\n        /* \"#utility.yul\":13534:13622   */\n      mstore\n        /* \"#utility.yul\":13641:13645   */\n      0x32\n        /* \"#utility.yul\":13638:13639   */\n      0x04\n        /* \"#utility.yul\":13631:13646   */\n      mstore\n        /* \"#utility.yul\":13665:13669   */\n      0x24\n        /* \"#utility.yul\":13662:13663   */\n      0x00\n        /* \"#utility.yul\":13655:13670   */\n      revert\n        /* \"#utility.yul\":13682:13850   */\n    tag_261:\n        /* \"#utility.yul\":13822:13842   */\n      0x50424d3a20496e76616c696420746f6b656e0000000000000000000000000000\n        /* \"#utility.yul\":13818:13819   */\n      0x00\n        /* \"#utility.yul\":13810:13816   */\n      dup3\n        /* \"#utility.yul\":13806:13820   */\n      add\n        /* \"#utility.yul\":13799:13843   */\n      mstore\n        /* \"#utility.yul\":13682:13850   */\n      pop\n      jump\t// out\n        /* \"#utility.yul\":13856:14222   */\n    tag_262:\n        /* \"#utility.yul\":13998:14001   */\n      0x00\n        /* \"#utility.yul\":14019:14086   */\n      tag_437\n        /* \"#utility.yul\":14083:14085   */\n      0x12\n        /* \"#utility.yul\":14078:14081   */\n      dup4\n        /* \"#utility.yul\":14019:14086   */\n      tag_230\n      jump\t// in\n    tag_437:\n        /* \"#utility.yul\":14012:14086   */\n      swap2\n      pop\n        /* \"#utility.yul\":14095:14188   */\n      tag_438\n        /* \"#utility.yul\":14184:14187   */\n      dup3\n        /* \"#utility.yul\":14095:14188   */\n      tag_261\n      jump\t// in\n    tag_438:\n        /* \"#utility.yul\":14213:14215   */\n      0x20\n        /* \"#utility.yul\":14208:14211   */\n      dup3\n        /* \"#utility.yul\":14204:14216   */\n      add\n        /* \"#utility.yul\":14197:14216   */\n      swap1\n      pop\n        /* \"#utility.yul\":13856:14222   */\n      swap2\n      swap1\n      pop\n      jump\t// out\n        /* \"#utility.yul\":14228:14647   */\n    tag_127:\n        /* \"#utility.yul\":14394:14398   */\n      0x00\n        /* \"#utility.yul\":14432:14434   */\n      0x20\n        /* \"#utility.yul\":14421:14430   */\n      dup3\n        /* \"#utility.yul\":14417:14435   */\n      add\n        /* \"#utility.yul\":14409:14435   */\n      swap1\n      pop\n        /* \"#utility.yul\":14481:14490   */\n      dup2\n        /* \"#utility.yul\":14475:14479   */\n      dup2\n        /* \"#utility.yul\":14471:14491   */\n      sub\n        /* \"#utility.yul\":14467:14468   */\n      0x00\n        /* \"#utility.yul\":14456:14465   */\n      dup4\n        /* \"#utility.yul\":14452:14469   */\n      add\n        /* \"#utility.yul\":14445:14492   */\n      mstore\n        /* \"#utility.yul\":14509:14640   */\n      tag_440\n        /* \"#utility.yul\":14635:14639   */\n      dup2\n        /* \"#utility.yul\":14509:14640   */\n      tag_262\n      jump\t// in\n    tag_440:\n        /* \"#utility.yul\":14501:14640   */\n      swap1\n      pop\n        /* \"#utility.yul\":14228:14647   */\n      swap2\n      swap1\n      pop\n      jump\t// out\n        /* \"#utility.yul\":14653:14825   */\n    tag_263:\n        /* \"#utility.yul\":14793:14817   */\n      0x50424d3a20546f6b656e206e6f74206578706972656400000000000000000000\n        /* \"#utility.yul\":14789:14790   */\n      0x00\n        /* \"#utility.yul\":14781:14787   */\n      dup3\n        /* \"#utility.yul\":14777:14791   */\n      add\n        /* \"#utility.yul\":14770:14818   */\n      mstore\n        /* \"#utility.yul\":14653:14825   */\n      pop\n      jump\t// out\n        /* \"#utility.yul\":14831:15197   */\n    tag_264:\n        /* \"#utility.yul\":14973:14976   */\n      0x00\n        /* \"#utility.yul\":14994:15061   */\n      tag_443\n        /* \"#utility.yul\":15058:15060   */\n      0x16\n        /* \"#utility.yul\":15053:15056   */\n      dup4\n        /* \"#utility.yul\":14994:15061   */\n      tag_230\n      jump\t// in\n    tag_443:\n        /* \"#utility.yul\":14987:15061   */\n      swap2\n      pop\n        /* \"#utility.yul\":15070:15163   */\n      tag_444\n        /* \"#utility.yul\":15159:15162   */\n      dup3\n        /* \"#utility.yul\":15070:15163   */\n      tag_263\n      jump\t// in\n    tag_444:\n        /* \"#utility.yul\":15188:15190   */\n      0x20\n        /* \"#utility.yul\":15183:15186   */\n      dup3\n        /* \"#utility.yul\":15179:15191   */\n      add\n        /* \"#utility.yul\":15172:15191   */\n      swap1\n      pop\n        /* \"#utility.yul\":14831:15197   */\n      swap2\n      swap1\n      pop\n      jump\t// out\n        /* \"#utility.yul\":15203:15622   */\n    tag_130:\n        /* \"#utility.yul\":15369:15373   */\n      0x00\n        /* \"#utility.yul\":15407:15409   */\n      0x20\n        /* \"#utility.yul\":15396:15405   */\n      dup3\n        /* \"#utility.yul\":15392:15410   */\n      add\n        /* \"#utility.yul\":15384:15410   */\n      swap1\n      pop\n        /* \"#utility.yul\":15456:15465   */\n      dup2\n        /* \"#utility.yul\":15450:15454   */\n      dup2\n        /* \"#utility.yul\":15446:15466   */\n      sub\n        /* \"#utility.yul\":15442:15443   */\n      0x00\n        /* \"#utility.yul\":15431:15440   */\n      dup4\n        /* \"#utility.yul\":15427:15444   */\n      add\n        /* \"#utility.yul\":15420:15467   */\n      mstore\n        /* \"#utility.yul\":15484:15615   */\n      tag_446\n        /* \"#utility.yul\":15610:15614   */\n      dup2\n        /* \"#utility.yul\":15484:15615   */\n      tag_264\n      jump\t// in\n    tag_446:\n        /* \"#utility.yul\":15476:15615   */\n      swap1\n      pop\n        /* \"#utility.yul\":15203:15622   */\n      swap2\n      swap1\n      pop\n      jump\t// out\n        /* \"#utility.yul\":15628:15794   */\n    tag_265:\n        /* \"#utility.yul\":15768:15786   */\n      0x50424d3a204e6f742063726561746f7200000000000000000000000000000000\n        /* \"#utility.yul\":15764:15765   */\n      0x00\n        /* \"#utility.yul\":15756:15762   */\n      dup3\n        /* \"#utility.yul\":15752:15766   */\n      add\n        /* \"#utility.yul\":15745:15787   */\n      mstore\n        /* \"#utility.yul\":15628:15794   */\n      pop\n      jump\t// out\n        /* \"#utility.yul\":15800:16166   */\n    tag_266:\n        /* \"#utility.yul\":15942:15945   */\n      0x00\n        /* \"#utility.yul\":15963:16030   */\n      tag_449\n        /* \"#utility.yul\":16027:16029   */\n      0x10\n        /* \"#utility.yul\":16022:16025   */\n      dup4\n        /* \"#utility.yul\":15963:16030   */\n      tag_230\n      jump\t// in\n    tag_449:\n        /* \"#utility.yul\":15956:16030   */\n      swap2\n      pop\n        /* \"#utility.yul\":16039:16132   */\n      tag_450\n        /* \"#utility.yul\":16128:16131   */\n      dup3\n        /* \"#utility.yul\":16039:16132   */\n      tag_265\n      jump\t// in\n    tag_450:\n        /* \"#utility.yul\":16157:16159   */\n      0x20\n        /* \"#utility.yul\":16152:16155   */\n      dup3\n        /* \"#utility.yul\":16148:16160   */\n      add\n        /* \"#utility.yul\":16141:16160   */\n      swap1\n      pop\n        /* \"#utility.yul\":15800:16166   */\n      swap2\n      swap1\n      pop\n      jump\t// out\n        /* \"#utility.yul\":16172:16591   */\n    tag_133:\n        /* \"#utility.yul\":16338:16342   */\n      0x00\n        /* \"#utility.yul\":16376:16378   */\n      0x20\n        /* \"#utility.yul\":16365:16374   */\n      dup3\n        /* \"#utility.yul\":16361:16379   */\n      add\n        /* \"#utility.yul\":16353:16379   */\n      swap1\n      pop\n        /* \"#utility.yul\":16425:16434   */\n      dup2\n        /* \"#utility.yul\":16419:16423   */\n      dup2\n        /* \"#utility.yul\":16415:16435   */\n      sub\n        /* \"#utility.yul\":16411:16412   */\n      0x00\n        /* \"#utility.yul\":16400:16409   */\n      dup4\n        /* \"#utility.yul\":16396:16413   */\n      add\n        /* \"#utility.yul\":16389:16436   */\n      mstore\n        /* \"#utility.yul\":16453:16584   */\n      tag_452\n        /* \"#utility.yul\":16579:16583   */\n      dup2\n        /* \"#utility.yul\":16453:16584   */\n      tag_266\n      jump\t// in\n    tag_452:\n        /* \"#utility.yul\":16445:16584   */\n      swap1\n      pop\n        /* \"#utility.yul\":16172:16591   */\n      swap2\n      swap1\n      pop\n      jump\t// out\n        /* \"#utility.yul\":16597:16769   */\n    tag_267:\n        /* \"#utility.yul\":16737:16761   */\n      0x496e76616c696420746f6b656e206578706972792d3100000000000000000000\n        /* \"#utility.yul\":16733:16734   */\n      0x00\n        /* \"#utility.yul\":16725:16731   */\n      dup3\n        /* \"#utility.yul\":16721:16735   */\n      add\n        /* \"#utility.yul\":16714:16762   */\n      mstore\n        /* \"#utility.yul\":16597:16769   */\n      pop\n      jump\t// out\n        /* \"#utility.yul\":16775:17141   */\n    tag_268:\n        /* \"#utility.yul\":16917:16920   */\n      0x00\n        /* \"#utility.yul\":16938:17005   */\n      tag_455\n        /* \"#utility.yul\":17002:17004   */\n      0x16\n        /* \"#utility.yul\":16997:17000   */\n      dup4\n        /* \"#utility.yul\":16938:17005   */\n      tag_230\n      jump\t// in\n    tag_455:\n        /* \"#utility.yul\":16931:17005   */\n      swap2\n      pop\n        /* \"#utility.yul\":17014:17107   */\n      tag_456\n        /* \"#utility.yul\":17103:17106   */\n      dup3\n        /* \"#utility.yul\":17014:17107   */\n      tag_267\n      jump\t// in\n    tag_456:\n        /* \"#utility.yul\":17132:17134   */\n      0x20\n        /* \"#utility.yul\":17127:17130   */\n      dup3\n        /* \"#utility.yul\":17123:17135   */\n      add\n        /* \"#utility.yul\":17116:17135   */\n      swap1\n      pop\n        /* \"#utility.yul\":16775:17141   */\n      swap2\n      swap1\n      pop\n      jump\t// out\n        /* \"#utility.yul\":17147:17566   */\n    tag_155:\n        /* \"#utility.yul\":17313:17317   */\n      0x00\n        /* \"#utility.yul\":17351:17353   */\n      0x20\n        /* \"#utility.yul\":17340:17349   */\n      dup3\n        /* \"#utility.yul\":17336:17354   */\n      add\n        /* \"#utility.yul\":17328:17354   */\n      swap1\n      pop\n        /* \"#utility.yul\":17400:17409   */\n      dup2\n        /* \"#utility.yul\":17394:17398   */\n      dup2\n        /* \"#utility.yul\":17390:17410   */\n      sub\n        /* \"#utility.yul\":17386:17387   */\n      0x00\n        /* \"#utility.yul\":17375:17384   */\n      dup4\n        /* \"#utility.yul\":17371:17388   */\n      add\n        /* \"#utility.yul\":17364:17411   */\n      mstore\n        /* \"#utility.yul\":17428:17559   */\n      tag_458\n        /* \"#utility.yul\":17554:17558   */\n      dup2\n        /* \"#utility.yul\":17428:17559   */\n      tag_268\n      jump\t// in\n    tag_458:\n        /* \"#utility.yul\":17420:17559   */\n      swap1\n      pop\n        /* \"#utility.yul\":17147:17566   */\n      swap2\n      swap1\n      pop\n      jump\t// out\n        /* \"#utility.yul\":17572:17744   */\n    tag_269:\n        /* \"#utility.yul\":17712:17736   */\n      0x496e76616c696420746f6b656e206578706972792d3200000000000000000000\n        /* \"#utility.yul\":17708:17709   */\n      0x00\n        /* \"#utility.yul\":17700:17706   */\n      dup3\n        /* \"#utility.yul\":17696:17710   */\n      add\n        /* \"#utility.yul\":17689:17737   */\n      mstore\n        /* \"#utility.yul\":17572:17744   */\n      pop\n      jump\t// out\n        /* \"#utility.yul\":17750:18116   */\n    tag_270:\n        /* \"#utility.yul\":17892:17895   */\n      0x00\n        /* \"#utility.yul\":17913:17980   */\n      tag_461\n        /* \"#utility.yul\":17977:17979   */\n      0x16\n        /* \"#utility.yul\":17972:17975   */\n      dup4\n        /* \"#utility.yul\":17913:17980   */\n      tag_230\n      jump\t// in\n    tag_461:\n        /* \"#utility.yul\":17906:17980   */\n      swap2\n      pop\n        /* \"#utility.yul\":17989:18082   */\n      tag_462\n        /* \"#utility.yul\":18078:18081   */\n      dup3\n        /* \"#utility.yul\":17989:18082   */\n      tag_269\n      jump\t// in\n    tag_462:\n        /* \"#utility.yul\":18107:18109   */\n      0x20\n        /* \"#utility.yul\":18102:18105   */\n      dup3\n        /* \"#utility.yul\":18098:18110   */\n      add\n        /* \"#utility.yul\":18091:18110   */\n      swap1\n      pop\n        /* \"#utility.yul\":17750:18116   */\n      swap2\n      swap1\n      pop\n      jump\t// out\n        /* \"#utility.yul\":18122:18541   */\n    tag_158:\n        /* \"#utility.yul\":18288:18292   */\n      0x00\n        /* \"#utility.yul\":18326:18328   */\n      0x20\n        /* \"#utility.yul\":18315:18324   */\n      dup3\n        /* \"#utility.yul\":18311:18329   */\n      add\n        /* \"#utility.yul\":18303:18329   */\n      swap1\n      pop\n        /* \"#utility.yul\":18375:18384   */\n      dup2\n        /* \"#utility.yul\":18369:18373   */\n      dup2\n        /* \"#utility.yul\":18365:18385   */\n      sub\n        /* \"#utility.yul\":18361:18362   */\n      0x00\n        /* \"#utility.yul\":18350:18359   */\n      dup4\n        /* \"#utility.yul\":18346:18363   */\n      add\n        /* \"#utility.yul\":18339:18386   */\n      mstore\n        /* \"#utility.yul\":18403:18534   */\n      tag_464\n        /* \"#utility.yul\":18529:18533   */\n      dup2\n        /* \"#utility.yul\":18403:18534   */\n      tag_270\n      jump\t// in\n    tag_464:\n        /* \"#utility.yul\":18395:18534   */\n      swap1\n      pop\n        /* \"#utility.yul\":18122:18541   */\n      swap2\n      swap1\n      pop\n      jump\t// out\n        /* \"#utility.yul\":18547:18713   */\n    tag_271:\n        /* \"#utility.yul\":18687:18705   */\n      0x53706f7420616d6f756e74206973203000000000000000000000000000000000\n        /* \"#utility.yul\":18683:18684   */\n      0x00\n        /* \"#utility.yul\":18675:18681   */\n      dup3\n        /* \"#utility.yul\":18671:18685   */\n      add\n        /* \"#utility.yul\":18664:18706   */\n      mstore\n        /* \"#utility.yul\":18547:18713   */\n      pop\n      jump\t// out\n        /* \"#utility.yul\":18719:19085   */\n    tag_272:\n        /* \"#utility.yul\":18861:18864   */\n      0x00\n        /* \"#utility.yul\":18882:18949   */\n      tag_467\n        /* \"#utility.yul\":18946:18948   */\n      0x10\n        /* \"#utility.yul\":18941:18944   */\n      dup4\n        /* \"#utility.yul\":18882:18949   */\n      tag_230\n      jump\t// in\n    tag_467:\n        /* \"#utility.yul\":18875:18949   */\n      swap2\n      pop\n        /* \"#utility.yul\":18958:19051   */\n      tag_468\n        /* \"#utility.yul\":19047:19050   */\n      dup3\n        /* \"#utility.yul\":18958:19051   */\n      tag_271\n      jump\t// in\n    tag_468:\n        /* \"#utility.yul\":19076:19078   */\n      0x20\n        /* \"#utility.yul\":19071:19074   */\n      dup3\n        /* \"#utility.yul\":19067:19079   */\n      add\n        /* \"#utility.yul\":19060:19079   */\n      swap1\n      pop\n        /* \"#utility.yul\":18719:19085   */\n      swap2\n      swap1\n      pop\n      jump\t// out\n        /* \"#utility.yul\":19091:19510   */\n    tag_161:\n        /* \"#utility.yul\":19257:19261   */\n      0x00\n        /* \"#utility.yul\":19295:19297   */\n      0x20\n        /* \"#utility.yul\":19284:19293   */\n      dup3\n        /* \"#utility.yul\":19280:19298   */\n      add\n        /* \"#utility.yul\":19272:19298   */\n      swap1\n      pop\n        /* \"#utility.yul\":19344:19353   */\n      dup2\n        /* \"#utility.yul\":19338:19342   */\n      dup2\n        /* \"#utility.yul\":19334:19354   */\n      sub\n        /* \"#utility.yul\":19330:19331   */\n      0x00\n        /* \"#utility.yul\":19319:19328   */\n      dup4\n        /* \"#utility.yul\":19315:19332   */\n      add\n        /* \"#utility.yul\":19308:19355   */\n      mstore\n        /* \"#utility.yul\":19372:19503   */\n      tag_470\n        /* \"#utility.yul\":19498:19502   */\n      dup2\n        /* \"#utility.yul\":19372:19503   */\n      tag_272\n      jump\t// in\n    tag_470:\n        /* \"#utility.yul\":19364:19503   */\n      swap1\n      pop\n        /* \"#utility.yul\":19091:19510   */\n      swap2\n      swap1\n      pop\n      jump\t// out\n        /* \"#utility.yul\":19516:19657   */\n    tag_273:\n        /* \"#utility.yul\":19565:19569   */\n      0x00\n        /* \"#utility.yul\":19588:19591   */\n      dup2\n        /* \"#utility.yul\":19580:19591   */\n      swap1\n      pop\n        /* \"#utility.yul\":19611:19614   */\n      dup2\n        /* \"#utility.yul\":19608:19609   */\n      0x00\n        /* \"#utility.yul\":19601:19615   */\n      mstore\n        /* \"#utility.yul\":19645:19649   */\n      0x20\n        /* \"#utility.yul\":19642:19643   */\n      0x00\n        /* \"#utility.yul\":19632:19650   */\n      keccak256\n        /* \"#utility.yul\":19624:19650   */\n      swap1\n      pop\n        /* \"#utility.yul\":19516:19657   */\n      swap2\n      swap1\n      pop\n      jump\t// out\n        /* \"#utility.yul\":19663:19756   */\n    tag_274:\n        /* \"#utility.yul\":19700:19706   */\n      0x00\n        /* \"#utility.yul\":19747:19749   */\n      0x20\n        /* \"#utility.yul\":19742:19744   */\n      0x1f\n        /* \"#utility.yul\":19735:19740   */\n      dup4\n        /* \"#utility.yul\":19731:19745   */\n      add\n        /* \"#utility.yul\":19727:19750   */\n      div\n        /* \"#utility.yul\":19717:19750   */\n      swap1\n      pop\n        /* \"#utility.yul\":19663:19756   */\n      swap2\n      swap1\n      pop\n      jump\t// out\n        /* \"#utility.yul\":19762:19869   */\n    tag_275:\n        /* \"#utility.yul\":19806:19814   */\n      0x00\n        /* \"#utility.yul\":19856:19861   */\n      dup3\n        /* \"#utility.yul\":19850:19854   */\n      dup3\n        /* \"#utility.yul\":19846:19862   */\n      shl\n        /* \"#utility.yul\":19825:19862   */\n      swap1\n      pop\n        /* \"#utility.yul\":19762:19869   */\n      swap3\n      swap2\n      pop\n      pop\n      jump\t// out\n        /* \"#utility.yul\":19875:20268   */\n    tag_276:\n        /* \"#utility.yul\":19944:19950   */\n      0x00\n        /* \"#utility.yul\":19994:19995   */\n      0x08\n        /* \"#utility.yul\":19982:19992   */\n      dup4\n        /* \"#utility.yul\":19978:19996   */\n      mul\n        /* \"#utility.yul\":20017:20114   */\n      tag_475\n        /* \"#utility.yul\":20047:20113   */\n      0xffffffffffffffffffffffffffffffffffffffffffffffffffffffffffffffff\n        /* \"#utility.yul\":20036:20045   */\n      dup3\n        /* \"#utility.yul\":20017:20114   */\n      tag_275\n      jump\t// in\n    tag_475:\n        /* \"#utility.yul\":20135:20174   */\n      tag_476\n        /* \"#utility.yul\":20165:20173   */\n      dup7\n        /* \"#utility.yul\":20154:20163   */\n      dup4\n        /* \"#utility.yul\":20135:20174   */\n      tag_275\n      jump\t// in\n    tag_476:\n        /* \"#utility.yul\":20123:20174   */\n      swap6\n      pop\n        /* \"#utility.yul\":20207:20211   */\n      dup1\n        /* \"#utility.yul\":20203:20212   */\n      not\n        /* \"#utility.yul\":20196:20201   */\n      dup5\n        /* \"#utility.yul\":20192:20213   */\n      and\n        /* \"#utility.yul\":20183:20213   */\n      swap4\n      pop\n        /* \"#utility.yul\":20256:20260   */\n      dup1\n        /* \"#utility.yul\":20246:20254   */\n      dup7\n        /* \"#utility.yul\":20242:20261   */\n      and\n        /* \"#utility.yul\":20235:20240   */\n      dup5\n        /* \"#utility.yul\":20232:20262   */\n      or\n        /* \"#utility.yul\":20222:20262   */\n      swap3\n      pop\n        /* \"#utility.yul\":19951:20268   */\n      pop\n      pop\n        /* \"#utility.yul\":19875:20268   */\n      swap4\n      swap3\n      pop\n      pop\n      pop\n      jump\t// out\n        /* \"#utility.yul\":20274:20334   */\n    tag_277:\n        /* \"#utility.yul\":20302:20305   */\n      0x00\n        /* \"#utility.yul\":20323:20328   */\n      dup2\n        /* \"#utility.yul\":20316:20328   */\n      swap1\n      pop\n        /* \"#utility.yul\":20274:20334   */\n      swap2\n      swap1\n      pop\n      jump\t// out\n        /* \"#utility.yul\":20340:20482   */\n    tag_278:\n        /* \"#utility.yul\":20390:20399   */\n      0x00\n        /* \"#utility.yul\":20423:20476   */\n      tag_479\n        /* \"#utility.yul\":20441:20475   */\n      tag_480\n        /* \"#utility.yul\":20450:20474   */\n      tag_481\n        /* \"#utility.yul\":20468:20473   */\n      dup5\n        /* \"#utility.yul\":20450:20474   */\n      tag_237\n      jump\t// in\n    tag_481:\n        /* \"#utility.yul\":20441:20475   */\n      tag_277\n      jump\t// in\n    tag_480:\n        /* \"#utility.yul\":20423:20476   */\n      tag_237\n      jump\t// in\n    tag_479:\n        /* \"#utility.yul\":20410:20476   */\n      swap1\n      pop\n        /* \"#utility.yul\":20340:20482   */\n      swap2\n      swap1\n      pop\n      jump\t// out\n        /* \"#utility.yul\":20488:20563   */\n    tag_279:\n        /* \"#utility.yul\":20531:20534   */\n      0x00\n        /* \"#utility.yul\":20552:20557   */\n      dup2\n        /* \"#utility.yul\":20545:20557   */\n      swap1\n      pop\n        /* \"#utility.yul\":20488:20563   */\n      swap2\n      swap1\n      pop\n      jump\t// out\n        /* \"#utility.yul\":20569:20838   */\n    tag_280:\n        /* \"#utility.yul\":20679:20718   */\n      tag_484\n        /* \"#utility.yul\":20710:20717   */\n      dup4\n        /* \"#utility.yul\":20679:20718   */\n      tag_278\n      jump\t// in\n    tag_484:\n        /* \"#utility.yul\":20740:20831   */\n      tag_485\n        /* \"#utility.yul\":20789:20830   */\n      tag_486\n        /* \"#utility.yul\":20813:20829   */\n      dup3\n        /* \"#utility.yul\":20789:20830   */\n      tag_279\n      jump\t// in\n    tag_486:\n        /* \"#utility.yul\":20781:20787   */\n      dup5\n        /* \"#utility.yul\":20774:20778   */\n      dup5\n        /* \"#utility.yul\":20768:20779   */\n      sload\n        /* \"#utility.yul\":20740:20831   */\n      tag_276\n      jump\t// in\n    tag_485:\n        /* \"#utility.yul\":20734:20738   */\n      dup3\n        /* \"#utility.yul\":20727:20832   */\n      sstore\n        /* \"#utility.yul\":20645:20838   */\n      pop\n        /* \"#utility.yul\":20569:20838   */\n      pop\n      pop\n      pop\n      jump\t// out\n        /* \"#utility.yul\":20844:20917   */\n    tag_281:\n        /* \"#utility.yul\":20889:20892   */\n      0x00\n        /* \"#utility.yul\":20910:20911   */\n      0x00\n        /* \"#utility.yul\":20903:20911   */\n      swap1\n      pop\n        /* \"#utility.yul\":20844:20917   */\n      swap1\n      jump\t// out\n        /* \"#utility.yul\":20923:21112   */\n    tag_282:\n        /* \"#utility.yul\":21000:21032   */\n      tag_489\n      tag_281\n      jump\t// in\n    tag_489:\n        /* \"#utility.yul\":21041:21106   */\n      tag_490\n        /* \"#utility.yul\":21099:21105   */\n      dup2\n        /* \"#utility.yul\":21091:21097   */\n      dup5\n        /* \"#utility.yul\":21085:21089   */\n      dup5\n        /* \"#utility.yul\":21041:21106   */\n      tag_280\n      jump\t// in\n    tag_490:\n        /* \"#utility.yul\":20976:21112   */\n      pop\n        /* \"#utility.yul\":20923:21112   */\n      pop\n      pop\n      jump\t// out\n        /* \"#utility.yul\":21118:21304   */\n    tag_283:\n        /* \"#utility.yul\":21178:21298   */\n    tag_492:\n        /* \"#utility.yul\":21195:21198   */\n      dup2\n        /* \"#utility.yul\":21188:21193   */\n      dup2\n        /* \"#utility.yul\":21185:21199   */\n      lt\n        /* \"#utility.yul\":21178:21298   */\n      iszero\n      tag_494\n      jumpi\n        /* \"#utility.yul\":21249:21288   */\n      tag_495\n        /* \"#utility.yul\":21286:21287   */\n      0x00\n        /* \"#utility.yul\":21279:21284   */\n      dup3\n        /* \"#utility.yul\":21249:21288   */\n      tag_282\n      jump\t// in\n    tag_495:\n        /* \"#utility.yul\":21222:21223   */\n      0x01\n        /* \"#utility.yul\":21215:21220   */\n      dup2\n        /* \"#utility.yul\":21211:21224   */\n      add\n        /* \"#utility.yul\":21202:21224   */\n      swap1\n      pop\n        /* \"#utility.yul\":21178:21298   */\n      jump(tag_492)\n    tag_494:\n        /* \"#utility.yul\":21118:21304   */\n      pop\n      pop\n      jump\t// out\n        /* \"#utility.yul\":21310:21853   */\n    tag_284:\n        /* \"#utility.yul\":21411:21413   */\n      0x1f\n        /* \"#utility.yul\":21406:21409   */\n      dup3\n        /* \"#utility.yul\":21403:21414   */\n      gt\n        /* \"#utility.yul\":21400:21846   */\n      iszero\n      tag_497\n      jumpi\n        /* \"#utility.yul\":21445:21483   */\n      tag_498\n        /* \"#utility.yul\":21477:21482   */\n      dup2\n        /* \"#utility.yul\":21445:21483   */\n      tag_273\n      jump\t// in\n    tag_498:\n        /* \"#utility.yul\":21529:21558   */\n      tag_499\n        /* \"#utility.yul\":21547:21557   */\n      dup5\n        /* \"#utility.yul\":21529:21558   */\n      tag_274\n      jump\t// in\n    tag_499:\n        /* \"#utility.yul\":21519:21527   */\n      dup2\n        /* \"#utility.yul\":21515:21559   */\n      add\n        /* \"#utility.yul\":21712:21714   */\n      0x20\n        /* \"#utility.yul\":21700:21710   */\n      dup6\n        /* \"#utility.yul\":21697:21715   */\n      lt\n        /* \"#utility.yul\":21694:21743   */\n      iszero\n      tag_500\n      jumpi\n        /* \"#utility.yul\":21733:21741   */\n      dup2\n        /* \"#utility.yul\":21718:21741   */\n      swap1\n      pop\n        /* \"#utility.yul\":21694:21743   */\n    tag_500:\n        /* \"#utility.yul\":21756:21836   */\n      tag_501\n        /* \"#utility.yul\":21812:21834   */\n      tag_502\n        /* \"#utility.yul\":21830:21833   */\n      dup6\n        /* \"#utility.yul\":21812:21834   */\n      tag_274\n      jump\t// in\n    tag_502:\n        /* \"#utility.yul\":21802:21810   */\n      dup4\n        /* \"#utility.yul\":21798:21835   */\n      add\n        /* \"#utility.yul\":21785:21796   */\n      dup3\n        /* \"#utility.yul\":21756:21836   */\n      tag_283\n      jump\t// in\n    tag_501:\n        /* \"#utility.yul\":21415:21846   */\n      pop\n      pop\n        /* \"#utility.yul\":21400:21846   */\n    tag_497:\n        /* \"#utility.yul\":21310:21853   */\n      pop\n      pop\n      pop\n      jump\t// out\n        /* \"#utility.yul\":21859:21976   */\n    tag_285:\n        /* \"#utility.yul\":21913:21921   */\n      0x00\n        /* \"#utility.yul\":21963:21968   */\n      dup3\n        /* \"#utility.yul\":21957:21961   */\n      dup3\n        /* \"#utility.yul\":21953:21969   */\n      shr\n        /* \"#utility.yul\":21932:21969   */\n      swap1\n      pop\n        /* \"#utility.yul\":21859:21976   */\n      swap3\n      swap2\n      pop\n      pop\n      jump\t// out\n        /* \"#utility.yul\":21982:22151   */\n    tag_286:\n        /* \"#utility.yul\":22026:22032   */\n      0x00\n        /* \"#utility.yul\":22059:22110   */\n      tag_505\n        /* \"#utility.yul\":22107:22108   */\n      0x00\n        /* \"#utility.yul\":22103:22109   */\n      not\n        /* \"#utility.yul\":22095:22100   */\n      dup5\n        /* \"#utility.yul\":22092:22093   */\n      0x08\n        /* \"#utility.yul\":22088:22101   */\n      mul\n        /* \"#utility.yul\":22059:22110   */\n      tag_285\n      jump\t// in\n    tag_505:\n        /* \"#utility.yul\":22055:22111   */\n      not\n        /* \"#utility.yul\":22140:22144   */\n      dup1\n        /* \"#utility.yul\":22134:22138   */\n      dup4\n        /* \"#utility.yul\":22130:22145   */\n      and\n        /* \"#utility.yul\":22120:22145   */\n      swap2\n      pop\n        /* \"#utility.yul\":22033:22151   */\n      pop\n        /* \"#utility.yul\":21982:22151   */\n      swap3\n      swap2\n      pop\n      pop\n      jump\t// out\n        /* \"#utility.yul\":22156:22451   */\n    tag_287:\n        /* \"#utility.yul\":22232:22236   */\n      0x00\n        /* \"#utility.yul\":22378:22407   */\n      tag_507\n        /* \"#utility.yul\":22403:22406   */\n      dup4\n        /* \"#utility.yul\":22397:22401   */\n      dup4\n        /* \"#utility.yul\":22378:22407   */\n      tag_286\n      jump\t// in\n    tag_507:\n        /* \"#utility.yul\":22370:22407   */\n      swap2\n      pop\n        /* \"#utility.yul\":22440:22443   */\n      dup3\n        /* \"#utility.yul\":22437:22438   */\n      0x02\n        /* \"#utility.yul\":22433:22444   */\n      mul\n        /* \"#utility.yul\":22427:22431   */\n      dup3\n        /* \"#utility.yul\":22424:22445   */\n      or\n        /* \"#utility.yul\":22416:22445   */\n      swap1\n      pop\n        /* \"#utility.yul\":22156:22451   */\n      swap3\n      swap2\n      pop\n      pop\n      jump\t// out\n        /* \"#utility.yul\":22456:23851   */\n    tag_163:\n        /* \"#utility.yul\":22573:22610   */\n      tag_509\n        /* \"#utility.yul\":22606:22609   */\n      dup3\n        /* \"#utility.yul\":22573:22610   */\n      tag_229\n      jump\t// in\n    tag_509:\n        /* \"#utility.yul\":22675:22693   */\n      0xffffffffffffffff\n        /* \"#utility.yul\":22667:22673   */\n      dup2\n        /* \"#utility.yul\":22664:22694   */\n      gt\n        /* \"#utility.yul\":22661:22717   */\n      iszero\n      tag_510\n      jumpi\n        /* \"#utility.yul\":22697:22715   */\n      tag_511\n      tag_119\n      jump\t// in\n    tag_511:\n        /* \"#utility.yul\":22661:22717   */\n    tag_510:\n        /* \"#utility.yul\":22741:22779   */\n      tag_512\n        /* \"#utility.yul\":22773:22777   */\n      dup3\n        /* \"#utility.yul\":22767:22778   */\n      sload\n        /* \"#utility.yul\":22741:22779   */\n      tag_85\n      jump\t// in\n    tag_512:\n        /* \"#utility.yul\":22826:22893   */\n      tag_513\n        /* \"#utility.yul\":22886:22892   */\n      dup3\n        /* \"#utility.yul\":22878:22884   */\n      dup3\n        /* \"#utility.yul\":22872:22876   */\n      dup6\n        /* \"#utility.yul\":22826:22893   */\n      tag_284\n      jump\t// in\n    tag_513:\n        /* \"#utility.yul\":22920:22921   */\n      0x00\n        /* \"#utility.yul\":22944:22948   */\n      0x20\n        /* \"#utility.yul\":22931:22948   */\n      swap1\n      pop\n        /* \"#utility.yul\":22976:22978   */\n      0x1f\n        /* \"#utility.yul\":22968:22974   */\n      dup4\n        /* \"#utility.yul\":22965:22979   */\n      gt\n        /* \"#utility.yul\":22993:22994   */\n      0x01\n        /* \"#utility.yul\":22988:23606   */\n      dup2\n      eq\n      tag_515\n      jumpi\n        /* \"#utility.yul\":23650:23651   */\n      0x00\n        /* \"#utility.yul\":23667:23673   */\n      dup5\n        /* \"#utility.yul\":23664:23741   */\n      iszero\n      tag_516\n      jumpi\n        /* \"#utility.yul\":23716:23725   */\n      dup3\n        /* \"#utility.yul\":23711:23714   */\n      dup8\n        /* \"#utility.yul\":23707:23726   */\n      add\n        /* \"#utility.yul\":23701:23727   */\n      mload\n        /* \"#utility.yul\":23692:23727   */\n      swap1\n      pop\n        /* \"#utility.yul\":23664:23741   */\n    tag_516:\n        /* \"#utility.yul\":23767:23834   */\n      tag_517\n        /* \"#utility.yul\":23827:23833   */\n      dup6\n        /* \"#utility.yul\":23820:23825   */\n      dup3\n        /* \"#utility.yul\":23767:23834   */\n      tag_287\n      jump\t// in\n    tag_517:\n        /* \"#utility.yul\":23761:23765   */\n      dup7\n        /* \"#utility.yul\":23754:23835   */\n      sstore\n        /* \"#utility.yul\":23623:23845   */\n      pop\n        /* \"#utility.yul\":22958:23845   */\n      jump(tag_514)\n        /* \"#utility.yul\":22988:23606   */\n    tag_515:\n        /* \"#utility.yul\":23040:23044   */\n      0x1f\n        /* \"#utility.yul\":23036:23045   */\n      not\n        /* \"#utility.yul\":23028:23034   */\n      dup5\n        /* \"#utility.yul\":23024:23046   */\n      and\n        /* \"#utility.yul\":23074:23111   */\n      tag_518\n        /* \"#utility.yul\":23106:23110   */\n      dup7\n        /* \"#utility.yul\":23074:23111   */\n      tag_273\n      jump\t// in\n    tag_518:\n        /* \"#utility.yul\":23133:23134   */\n      0x00\n        /* \"#utility.yul\":23147:23355   */\n    tag_519:\n        /* \"#utility.yul\":23161:23168   */\n      dup3\n        /* \"#utility.yul\":23158:23159   */\n      dup2\n        /* \"#utility.yul\":23155:23169   */\n      lt\n        /* \"#utility.yul\":23147:23355   */\n      iszero\n      tag_521\n      jumpi\n        /* \"#utility.yul\":23240:23249   */\n      dup5\n        /* \"#utility.yul\":23235:23238   */\n      dup10\n        /* \"#utility.yul\":23231:23250   */\n      add\n        /* \"#utility.yul\":23225:23251   */\n      mload\n        /* \"#utility.yul\":23217:23223   */\n      dup3\n        /* \"#utility.yul\":23210:23252   */\n      sstore\n        /* \"#utility.yul\":23291:23292   */\n      0x01\n        /* \"#utility.yul\":23283:23289   */\n      dup3\n        /* \"#utility.yul\":23279:23293   */\n      add\n        /* \"#utility.yul\":23269:23293   */\n      swap2\n      pop\n        /* \"#utility.yul\":23338:23340   */\n      0x20\n        /* \"#utility.yul\":23327:23336   */\n      dup6\n        /* \"#utility.yul\":23323:23341   */\n      add\n        /* \"#utility.yul\":23310:23341   */\n      swap5\n      pop\n        /* \"#utility.yul\":23184:23188   */\n      0x20\n        /* \"#utility.yul\":23181:23182   */\n      dup2\n        /* \"#utility.yul\":23177:23189   */\n      add\n        /* \"#utility.yul\":23172:23189   */\n      swap1\n      pop\n        /* \"#utility.yul\":23147:23355   */\n      jump(tag_519)\n    tag_521:\n        /* \"#utility.yul\":23383:23389   */\n      dup7\n        /* \"#utility.yul\":23374:23381   */\n      dup4\n        /* \"#utility.yul\":23371:23390   */\n      lt\n        /* \"#utility.yul\":23368:23547   */\n      iszero\n      tag_522\n      jumpi\n        /* \"#utility.yul\":23441:23450   */\n      dup5\n        /* \"#utility.yul\":23436:23439   */\n      dup10\n        /* \"#utility.yul\":23432:23451   */\n      add\n        /* \"#utility.yul\":23426:23452   */\n      mload\n        /* \"#utility.yul\":23484:23532   */\n      tag_523\n        /* \"#utility.yul\":23526:23530   */\n      0x1f\n        /* \"#utility.yul\":23518:23524   */\n      dup10\n        /* \"#utility.yul\":23514:23531   */\n      and\n        /* \"#utility.yul\":23503:23512   */\n      dup3\n        /* \"#utility.yul\":23484:23532   */\n      tag_286\n      jump\t// in\n    tag_523:\n        /* \"#utility.yul\":23476:23482   */\n      dup4\n        /* \"#utility.yul\":23469:23533   */\n      sstore\n        /* \"#utility.yul\":23391:23547   */\n      pop\n        /* \"#utility.yul\":23368:23547   */\n    tag_522:\n        /* \"#utility.yul\":23593:23594   */\n      0x01\n        /* \"#utility.yul\":23589:23590   */\n      0x02\n        /* \"#utility.yul\":23581:23587   */\n      dup9\n        /* \"#utility.yul\":23577:23591   */\n      mul\n        /* \"#utility.yul\":23573:23595   */\n      add\n        /* \"#utility.yul\":23567:23571   */\n      dup9\n        /* \"#utility.yul\":23560:23596   */\n      sstore\n        /* \"#utility.yul\":22995:23606   */\n      pop\n      pop\n      pop\n        /* \"#utility.yul\":22958:23845   */\n    tag_514:\n      pop\n        /* \"#utility.yul\":22548:23851   */\n      pop\n      pop\n      pop\n        /* \"#utility.yul\":22456:23851   */\n      pop\n      pop\n      jump\t// out\n        /* \"#utility.yul\":23857:24501   */\n    tag_166:\n        /* \"#utility.yul\":24054:24058   */\n      0x00\n        /* \"#utility.yul\":24092:24095   */\n      0x80\n        /* \"#utility.yul\":24081:24090   */\n      dup3\n        /* \"#utility.yul\":24077:24096   */\n      add\n        /* \"#utility.yul\":24069:24096   */\n      swap1\n      pop\n        /* \"#utility.yul\":24142:24151   */\n      dup2\n        /* \"#utility.yul\":24136:24140   */\n      dup2\n        /* \"#utility.yul\":24132:24152   */\n      sub\n        /* \"#utility.yul\":24128:24129   */\n      0x00\n        /* \"#utility.yul\":24117:24126   */\n      dup4\n        /* \"#utility.yul\":24113:24130   */\n      add\n        /* \"#utility.yul\":24106:24153   */\n      mstore\n        /* \"#utility.yul\":24170:24248   */\n      tag_525\n        /* \"#utility.yul\":24243:24247   */\n      dup2\n        /* \"#utility.yul\":24234:24240   */\n      dup8\n        /* \"#utility.yul\":24170:24248   */\n      tag_233\n      jump\t// in\n    tag_525:\n        /* \"#utility.yul\":24162:24248   */\n      swap1\n      pop\n        /* \"#utility.yul\":24258:24330   */\n      tag_526\n        /* \"#utility.yul\":24326:24328   */\n      0x20\n        /* \"#utility.yul\":24315:24324   */\n      dup4\n        /* \"#utility.yul\":24311:24329   */\n      add\n        /* \"#utility.yul\":24302:24308   */\n      dup7\n        /* \"#utility.yul\":24258:24330   */\n      tag_240\n      jump\t// in\n    tag_526:\n        /* \"#utility.yul\":24340:24412   */\n      tag_527\n        /* \"#utility.yul\":24408:24410   */\n      0x40\n        /* \"#utility.yul\":24397:24406   */\n      dup4\n        /* \"#utility.yul\":24393:24411   */\n      add\n        /* \"#utility.yul\":24384:24390   */\n      dup6\n        /* \"#utility.yul\":24340:24412   */\n      tag_240\n      jump\t// in\n    tag_527:\n        /* \"#utility.yul\":24422:24494   */\n      tag_528\n        /* \"#utility.yul\":24490:24492   */\n      0x60\n        /* \"#utility.yul\":24479:24488   */\n      dup4\n        /* \"#utility.yul\":24475:24493   */\n      add\n        /* \"#utility.yul\":24466:24472   */\n      dup5\n        /* \"#utility.yul\":24422:24494   */\n      tag_243\n      jump\t// in\n    tag_528:\n        /* \"#utility.yul\":23857:24501   */\n      swap6\n      swap5\n      pop\n      pop\n      pop\n      pop\n      pop\n      jump\t// out\n        /* \"#utility.yul\":24507:24687   */\n    tag_288:\n        /* \"#utility.yul\":24555:24632   */\n      0x4e487b7100000000000000000000000000000000000000000000000000000000\n        /* \"#utility.yul\":24552:24553   */\n      0x00\n        /* \"#utility.yul\":24545:24633   */\n      mstore\n        /* \"#utility.yul\":24652:24656   */\n      0x11\n        /* \"#utility.yul\":24649:24650   */\n      0x04\n        /* \"#utility.yul\":24642:24657   */\n      mstore\n        /* \"#utility.yul\":24676:24680   */\n      0x24\n        /* \"#utility.yul\":24673:24674   */\n      0x00\n        /* \"#utility.yul\":24666:24681   */\n      revert\n        /* \"#utility.yul\":24693:24884   */\n    tag_168:\n        /* \"#utility.yul\":24733:24736   */\n      0x00\n        /* \"#utility.yul\":24752:24772   */\n      tag_531\n        /* \"#utility.yul\":24770:24771   */\n      dup3\n        /* \"#utility.yul\":24752:24772   */\n      tag_237\n      jump\t// in\n    tag_531:\n        /* \"#utility.yul\":24747:24772   */\n      swap2\n      pop\n        /* \"#utility.yul\":24786:24806   */\n      tag_532\n        /* \"#utility.yul\":24804:24805   */\n      dup4\n        /* \"#utility.yul\":24786:24806   */\n      tag_237\n      jump\t// in\n    tag_532:\n        /* \"#utility.yul\":24781:24806   */\n      swap3\n      pop\n        /* \"#utility.yul\":24829:24830   */\n      dup3\n        /* \"#utility.yul\":24826:24827   */\n      dup3\n        /* \"#utility.yul\":24822:24831   */\n      add\n        /* \"#utility.yul\":24815:24831   */\n      swap1\n      pop\n        /* \"#utility.yul\":24850:24853   */\n      dup1\n        /* \"#utility.yul\":24847:24848   */\n      dup3\n        /* \"#utility.yul\":24844:24854   */\n      gt\n        /* \"#utility.yul\":24841:24877   */\n      iszero\n      tag_533\n      jumpi\n        /* \"#utility.yul\":24857:24875   */\n      tag_534\n      tag_288\n      jump\t// in\n    tag_534:\n        /* \"#utility.yul\":24841:24877   */\n    tag_533:\n        /* \"#utility.yul\":24693:24884   */\n      swap3\n      swap2\n      pop\n      pop\n      jump\t// out\n        /* \"#utility.yul\":24890:25300   */\n    tag_179:\n        /* \"#utility.yul\":24930:24937   */\n      0x00\n        /* \"#utility.yul\":24953:24973   */\n      tag_536\n        /* \"#utility.yul\":24971:24972   */\n      dup3\n        /* \"#utility.yul\":24953:24973   */\n      tag_237\n      jump\t// in\n    tag_536:\n        /* \"#utility.yul\":24948:24973   */\n      swap2\n      pop\n        /* \"#utility.yul\":24987:25007   */\n      tag_537\n        /* \"#utility.yul\":25005:25006   */\n      dup4\n        /* \"#utility.yul\":24987:25007   */\n      tag_237\n      jump\t// in\n    tag_537:\n        /* \"#utility.yul\":24982:25007   */\n      swap3\n      pop\n        /* \"#utility.yul\":25042:25043   */\n      dup3\n        /* \"#utility.yul\":25039:25040   */\n      dup3\n        /* \"#utility.yul\":25035:25044   */\n      mul\n        /* \"#utility.yul\":25064:25094   */\n      tag_538\n        /* \"#utility.yul\":25082:25093   */\n      dup2\n        /* \"#utility.yul\":25064:25094   */\n      tag_237\n      jump\t// in\n    tag_538:\n        /* \"#utility.yul\":25053:25094   */\n      swap2\n      pop\n        /* \"#utility.yul\":25243:25244   */\n      dup3\n        /* \"#utility.yul\":25234:25241   */\n      dup3\n        /* \"#utility.yul\":25230:25245   */\n      div\n        /* \"#utility.yul\":25227:25228   */\n      dup5\n        /* \"#utility.yul\":25224:25246   */\n      eq\n        /* \"#utility.yul\":25204:25205   */\n      dup4\n        /* \"#utility.yul\":25197:25206   */\n      iszero\n        /* \"#utility.yul\":25177:25260   */\n      or\n        /* \"#utility.yul\":25154:25293   */\n      tag_539\n      jumpi\n        /* \"#utility.yul\":25273:25291   */\n      tag_540\n      tag_288\n      jump\t// in\n    tag_540:\n        /* \"#utility.yul\":25154:25293   */\n    tag_539:\n        /* \"#utility.yul\":24938:25300   */\n      pop\n        /* \"#utility.yul\":24890:25300   */\n      swap3\n      swap2\n      pop\n      pop\n      jump\t// out\n        /* \"#utility.yul\":25306:25477   */\n    tag_289:\n        /* \"#utility.yul\":25446:25469   */\n      0x4172726179206c656e677468206d69736d617463680000000000000000000000\n        /* \"#utility.yul\":25442:25443   */\n      0x00\n        /* \"#utility.yul\":25434:25440   */\n      dup3\n        /* \"#utility.yul\":25430:25444   */\n      add\n        /* \"#utility.yul\":25423:25470   */\n      mstore\n        /* \"#utility.yul\":25306:25477   */\n      pop\n      jump\t// out\n        /* \"#utility.yul\":25483:25849   */\n    tag_290:\n        /* \"#utility.yul\":25625:25628   */\n      0x00\n        /* \"#utility.yul\":25646:25713   */\n      tag_543\n        /* \"#utility.yul\":25710:25712   */\n      0x15\n        /* \"#utility.yul\":25705:25708   */\n      dup4\n        /* \"#utility.yul\":25646:25713   */\n      tag_230\n      jump\t// in\n    tag_543:\n        /* \"#utility.yul\":25639:25713   */\n      swap2\n      pop\n        /* \"#utility.yul\":25722:25815   */\n      tag_544\n        /* \"#utility.yul\":25811:25814   */\n      dup3\n        /* \"#utility.yul\":25722:25815   */\n      tag_289\n      jump\t// in\n    tag_544:\n        /* \"#utility.yul\":25840:25842   */\n      0x20\n        /* \"#utility.yul\":25835:25838   */\n      dup3\n        /* \"#utility.yul\":25831:25843   */\n      add\n        /* \"#utility.yul\":25824:25843   */\n      swap1\n      pop\n        /* \"#utility.yul\":25483:25849   */\n      swap2\n      swap1\n      pop\n      jump\t// out\n        /* \"#utility.yul\":25855:26274   */\n    tag_185:\n        /* \"#utility.yul\":26021:26025   */\n      0x00\n        /* \"#utility.yul\":26059:26061   */\n      0x20\n        /* \"#utility.yul\":26048:26057   */\n      dup3\n        /* \"#utility.yul\":26044:26062   */\n      add\n        /* \"#utility.yul\":26036:26062   */\n      swap1\n      pop\n        /* \"#utility.yul\":26108:26117   */\n      dup2\n        /* \"#utility.yul\":26102:26106   */\n      dup2\n        /* \"#utility.yul\":26098:26118   */\n      sub\n        /* \"#utility.yul\":26094:26095   */\n      0x00\n        /* \"#utility.yul\":26083:26092   */\n      dup4\n        /* \"#utility.yul\":26079:26096   */\n      add\n        /* \"#utility.yul\":26072:26119   */\n      mstore\n        /* \"#utility.yul\":26136:26267   */\n      tag_546\n        /* \"#utility.yul\":26262:26266   */\n      dup2\n        /* \"#utility.yul\":26136:26267   */\n      tag_290\n      jump\t// in\n    tag_546:\n        /* \"#utility.yul\":26128:26267   */\n      swap1\n      pop\n        /* \"#utility.yul\":25855:26274   */\n      swap2\n      swap1\n      pop\n      jump\t// out\n        /* \"#utility.yul\":26280:26474   */\n    tag_197:\n        /* \"#utility.yul\":26320:26324   */\n      0x00\n        /* \"#utility.yul\":26340:26360   */\n      tag_548\n        /* \"#utility.yul\":26358:26359   */\n      dup3\n        /* \"#utility.yul\":26340:26360   */\n      tag_237\n      jump\t// in\n    tag_548:\n        /* \"#utility.yul\":26335:26360   */\n      swap2\n      pop\n        /* \"#utility.yul\":26374:26394   */\n      tag_549\n        /* \"#utility.yul\":26392:26393   */\n      dup4\n        /* \"#utility.yul\":26374:26394   */\n      tag_237\n      jump\t// in\n    tag_549:\n        /* \"#utility.yul\":26369:26394   */\n      swap3\n      pop\n        /* \"#utility.yul\":26418:26419   */\n      dup3\n        /* \"#utility.yul\":26415:26416   */\n      dup3\n        /* \"#utility.yul\":26411:26420   */\n      sub\n        /* \"#utility.yul\":26403:26420   */\n      swap1\n      pop\n        /* \"#utility.yul\":26442:26443   */\n      dup2\n        /* \"#utility.yul\":26436:26440   */\n      dup2\n        /* \"#utility.yul\":26433:26444   */\n      gt\n        /* \"#utility.yul\":26430:26467   */\n      iszero\n      tag_550\n      jumpi\n        /* \"#utility.yul\":26447:26465   */\n      tag_551\n      tag_288\n      jump\t// in\n    tag_551:\n        /* \"#utility.yul\":26430:26467   */\n    tag_550:\n        /* \"#utility.yul\":26280:26474   */\n      swap3\n      swap2\n      pop\n      pop\n      jump\t// out\n\n    auxdata: 0xa264697066735822122089f3a7318ad36c7e98009cbf11d025ddbd596b2236648adfac3ae78b25f6602d64736f6c634300081e0033\n}\n",
				"bytecode": {
					"linkReferences": {},
					"object": "608060405234801561000f575f5ffd5b506040516124c83803806124c8833981810160405281019061003191906102dd565b335f73ffffffffffffffffffffffffffffffffffffffff168173ffffffffffffffffffffffffffffffffffffffff16036100a2575f6040517f1e4fbdf70000000000000000000000000000000000000000000000000000000081526004016100999190610363565b60405180910390fd5b6100b1816100cf60201b60201c565b506001808190555080600290816100c8919061058c565b505061065b565b5f5f5f9054906101000a900473ffffffffffffffffffffffffffffffffffffffff169050815f5f6101000a81548173ffffffffffffffffffffffffffffffffffffffff021916908373ffffffffffffffffffffffffffffffffffffffff1602179055508173ffffffffffffffffffffffffffffffffffffffff168173ffffffffffffffffffffffffffffffffffffffff167f8be0079c531659141344cd1fd0a4f28419497f9722a3daafe3b4186f6b6457e060405160405180910390a35050565b5f604051905090565b5f5ffd5b5f5ffd5b5f5ffd5b5f5ffd5b5f601f19601f8301169050919050565b7f4e487b71000000000000000000000000000000000000000000000000000000005f52604160045260245ffd5b6101ef826101a9565b810181811067ffffffffffffffff8211171561020e5761020d6101b9565b5b80604052505050565b5f610220610190565b905061022c82826101e6565b919050565b5f67ffffffffffffffff82111561024b5761024a6101b9565b5b610254826101a9565b9050602081019050919050565b8281835e5f83830152505050565b5f61028161027c84610231565b610217565b90508281526020810184848401111561029d5761029c6101a5565b5b6102a8848285610261565b509392505050565b5f82601f8301126102c4576102c36101a1565b5b81516102d484826020860161026f565b91505092915050565b5f602082840312156102f2576102f1610199565b5b5f82015167ffffffffffffffff81111561030f5761030e61019d565b5b61031b848285016102b0565b91505092915050565b5f73ffffffffffffffffffffffffffffffffffffffff82169050919050565b5f61034d82610324565b9050919050565b61035d81610343565b82525050565b5f6020820190506103765f830184610354565b92915050565b5f81519050919050565b7f4e487b71000000000000000000000000000000000000000000000000000000005f52602260045260245ffd5b5f60028204905060018216806103ca57607f821691505b6020821081036103dd576103dc610386565b5b50919050565b5f819050815f5260205f209050919050565b5f6020601f8301049050919050565b5f82821b905092915050565b5f6008830261043f7fffffffffffffffffffffffffffffffffffffffffffffffffffffffffffffffff82610404565b6104498683610404565b95508019841693508086168417925050509392505050565b5f819050919050565b5f819050919050565b5f61048d61048861048384610461565b61046a565b610461565b9050919050565b5f819050919050565b6104a683610473565b6104ba6104b282610494565b848454610410565b825550505050565b5f5f905090565b6104d16104c2565b6104dc81848461049d565b505050565b5b818110156104ff576104f45f826104c9565b6001810190506104e2565b5050565b601f82111561054457610515816103e3565b61051e846103f5565b8101602085101561052d578190505b610541610539856103f5565b8301826104e1565b50505b505050565b5f82821c905092915050565b5f6105645f1984600802610549565b1980831691505092915050565b5f61057c8383610555565b9150826002028217905092915050565b6105958261037c565b67ffffffffffffffff8111156105ae576105ad6101b9565b5b6105b882546103b3565b6105c3828285610503565b5f60209050601f8311600181146105f4575f84156105e2578287015190505b6105ec8582610571565b865550610653565b601f198416610602866103e3565b5f5b8281101561062957848901518255600182019150602085019450602081019050610604565b868310156106465784890151610642601f891682610555565b8355505b6001600288020188555050505b505050505050565b611e60806106685f395ff3fe608060405234801561000f575f5ffd5b50600436106100f3575f3560e01c806380d69c8a11610095578063d20874d811610064578063d20874d8146102a0578063e21c8b59146102d0578063f2fde38b146102ec578063f600d9f414610308576100f3565b806380d69c8a146101ee5780638da5cb5b1461021e578063c1e037281461023c578063d10424c714610270576100f3565b806336a3409c116100d157806336a3409c1461017a57806348fd09f51461019657806371185897146101c6578063715018a6146101e4576100f3565b806303b5a3d3146100f75780630e89341c1461011557806333f6832a14610145575b5f5ffd5b6100ff610324565b60405161010c9190611133565b60405180910390f35b61012f600480360381019061012a9190611197565b6103b0565b60405161013c9190611133565b60405180910390f35b61015f600480360381019061015a9190611197565b610501565b60405161017196959493929190611210565b60405180910390f35b610194600480360381019061018f91906112a7565b610664565b005b6101b060048036038101906101ab9190611425565b61086e565b6040516101bd9190611486565b60405180910390f35b6101ce6108e7565b6040516101db919061149f565b60405180910390f35b6101ec6108ed565b005b61020860048036038101906102039190611568565b610900565b604051610215919061149f565b60405180910390f35b610226610b23565b6040516102339190611629565b60405180910390f35b61025660048036038101906102519190611197565b610b4a565b604051610267959493929190611642565b60405180910390f35b61028a60048036038101906102859190611197565b610c73565b604051610297919061149f565b60405180910390f35b6102ba60048036038101906102b59190611197565b610c90565b6040516102c7919061149f565b60405180910390f35b6102ea60048036038101906102e5919061169a565b610ccc565b005b61030660048036038101906103019190611710565b610dde565b005b610322600480360381019061031d919061169a565b610e62565b005b6002805461033190611768565b80601f016020809104026020016040519081016040528092919081815260200182805461035d90611768565b80156103a85780601f1061037f576101008083540402835291602001916103a8565b820191905f5260205f20905b81548152906001019060200180831161038b57829003601f168201915b505050505081565b606060035f8381526020019081526020015f206003015442111561045e57600280546103db90611768565b80601f016020809104026020016040519081016040528092919081815260200182805461040790611768565b80156104525780601f1061042957610100808354040283529160200191610452565b820191905f5260205f20905b81548152906001019060200180831161043557829003601f168201915b505050505090506104fc565b60035f8381526020019081526020015f20600501805461047d90611768565b80601f01602080910402602001604051908101604052809291908181526020018280546104a990611768565b80156104f45780601f106104cb576101008083540402835291602001916104f4565b820191905f5260205f20905b8154815290600101906020018083116104d757829003601f168201915b505050505090505b919050565b6003602052805f5260405f205f91509050805f01805461052090611768565b80601f016020809104026020016040519081016040528092919081815260200182805461054c90611768565b80156105975780601f1061056e57610100808354040283529160200191610597565b820191905f5260205f20905b81548152906001019060200180831161057a57829003601f168201915b505050505090806001015490806002015490806003015490806004015f9054906101000a900473ffffffffffffffffffffffffffffffffffffffff16908060050180546105e390611768565b80601f016020809104026020016040519081016040528092919081815260200182805461060f90611768565b801561065a5780601f106106315761010080835404028352916020019161065a565b820191905f5260205f20905b81548152906001019060200180831161063d57829003601f168201915b5050505050905086565b61066c610f74565b5f600167ffffffffffffffff811115610688576106876112e9565b5b6040519080825280602002602001820160405280156106b65781602001602082028036833780820191505090505b50905082815f815181106106cd576106cc611798565b5b6020026020010181815250506106e28161086e565b610721576040517f08c379a00000000000000000000000000000000000000000000000000000000081526004016107189061180f565b60405180910390fd5b60035f8481526020019081526020015f20600301544211610777576040517f08c379a000000000000000000000000000000000000000000000000000000000815260040161076e90611877565b60405180910390fd5b60035f8481526020019081526020015f206004015f9054906101000a900473ffffffffffffffffffffffffffffffffffffffff1673ffffffffffffffffffffffffffffffffffffffff168273ffffffffffffffffffffffffffffffffffffffff1614610818576040517f08c379a000000000000000000000000000000000000000000000000000000000815260040161080f906118df565b60405180910390fd5b5f60035f8581526020019081526020015f2060020181905550827fa22ebdccafac40b8d854e46fa173d7d1b43cb56b3e1d9faf46763611c7fcfb56836040516108619190611629565b60405180910390a2505050565b5f5f5f90505b82518110156108dc575f83828151811061089157610890611798565b5b602002602001015114806108c157506001548382815181106108b6576108b5611798565b5b602002602001015110155b156108cf575f9150506108e2565b8080600101915050610874565b50600190505b919050565b60015481565b6108f5610f74565b6108fe5f610ffb565b565b5f610909610f74565b8185111561094c576040517f08c379a000000000000000000000000000000000000000000000000000000000815260040161094390611947565b60405180910390fd5b42851161098e576040517f08c379a0000000000000000000000000000000000000000000000000000000008152600401610985906119af565b60405180910390fd5b5f86036109d0576040517f08c379a00000000000000000000000000000000000000000000000000000000081526004016109c790611a17565b60405180910390fd5b8660035f60015481526020019081526020015f205f0190816109f29190611bd5565b508560035f60015481526020019081526020015f20600101819055508460035f60015481526020019081526020015f20600301819055508360035f60015481526020019081526020015f206004015f6101000a81548173ffffffffffffffffffffffffffffffffffffffff021916908373ffffffffffffffffffffffffffffffffffffffff1602179055505f60035f60015481526020019081526020015f20600201819055508260035f60015481526020019081526020015f206005019081610abb9190611bd5565b506001547fbbb805bf89819da42bb55052edd2bf6db1c2256ec4c19cf1607de95efc92762f88888888604051610af49493929190611ca4565b60405180910390a260015490506001805f828254610b129190611d1b565b925050819055509695505050505050565b5f5f5f9054906101000a900473ffffffffffffffffffffffffffffffffffffffff16905090565b60605f5f5f5f60035f8781526020019081526020015f205f0160035f8881526020019081526020015f206001015460035f8981526020019081526020015f206002015460035f8a81526020019081526020015f206003015460035f8b81526020019081526020015f206004015f9054906101000a900473ffffffffffffffffffffffffffffffffffffffff16848054610be290611768565b80601f0160208091040260200160405190810160405280929190818152602001828054610c0e90611768565b8015610c595780601f10610c3057610100808354040283529160200191610c59565b820191905f5260205f20905b815481529060010190602001808311610c3c57829003601f168201915b505050505094509450945094509450945091939590929450565b5f60035f8381526020019081526020015f20600101549050919050565b5f60035f8381526020019081526020015f206001015460035f8481526020019081526020015f2060020154610cc59190611d4e565b9050919050565b610cd4610f74565b8051825114610d18576040517f08c379a0000000000000000000000000000000000000000000000000000000008152600401610d0f90611dd9565b60405180910390fd5b610d218261086e565b610d60576040517f08c379a0000000000000000000000000000000000000000000000000000000008152600401610d579061180f565b60405180910390fd5b5f5f90505b8251811015610dd957818181518110610d8157610d80611798565b5b602002602001015160035f858481518110610d9f57610d9e611798565b5b602002602001015181526020019081526020015f206002015f828254610dc59190611df7565b925050819055508080600101915050610d65565b505050565b610de6610f74565b5f73ffffffffffffffffffffffffffffffffffffffff168173ffffffffffffffffffffffffffffffffffffffff1603610e56575f6040517f1e4fbdf7000000000000000000000000000000000000000000000000000000008152600401610e4d9190611629565b60405180910390fd5b610e5f81610ffb565b50565b610e6a610f74565b8051825114610eae576040517f08c379a0000000000000000000000000000000000000000000000000000000008152600401610ea590611dd9565b60405180910390fd5b610eb78261086e565b610ef6576040517f08c379a0000000000000000000000000000000000000000000000000000000008152600401610eed9061180f565b60405180910390fd5b5f5f90505b8251811015610f6f57818181518110610f1757610f16611798565b5b602002602001015160035f858481518110610f3557610f34611798565b5b602002602001015181526020019081526020015f206002015f828254610f5b9190611d1b565b925050819055508080600101915050610efb565b505050565b610f7c6110bc565b73ffffffffffffffffffffffffffffffffffffffff16610f9a610b23565b73ffffffffffffffffffffffffffffffffffffffff1614610ff957610fbd6110bc565b6040517f118cdaa7000000000000000000000000000000000000000000000000000000008152600401610ff09190611629565b60405180910390fd5b565b5f5f5f9054906101000a900473ffffffffffffffffffffffffffffffffffffffff169050815f5f6101000a81548173ffffffffffffffffffffffffffffffffffffffff021916908373ffffffffffffffffffffffffffffffffffffffff1602179055508173ffffffffffffffffffffffffffffffffffffffff168173ffffffffffffffffffffffffffffffffffffffff167f8be0079c531659141344cd1fd0a4f28419497f9722a3daafe3b4186f6b6457e060405160405180910390a35050565b5f33905090565b5f81519050919050565b5f82825260208201905092915050565b8281835e5f83830152505050565b5f601f19601f8301169050919050565b5f611105826110c3565b61110f81856110cd565b935061111f8185602086016110dd565b611128816110eb565b840191505092915050565b5f6020820190508181035f83015261114b81846110fb565b905092915050565b5f604051905090565b5f5ffd5b5f5ffd5b5f819050919050565b61117681611164565b8114611180575f5ffd5b50565b5f813590506111918161116d565b92915050565b5f602082840312156111ac576111ab61115c565b5b5f6111b984828501611183565b91505092915050565b6111cb81611164565b82525050565b5f73ffffffffffffffffffffffffffffffffffffffff82169050919050565b5f6111fa826111d1565b9050919050565b61120a816111f0565b82525050565b5f60c0820190508181035f83015261122881896110fb565b905061123760208301886111c2565b61124460408301876111c2565b61125160608301866111c2565b61125e6080830185611201565b81810360a083015261127081846110fb565b9050979650505050505050565b611286816111f0565b8114611290575f5ffd5b50565b5f813590506112a18161127d565b92915050565b5f5f604083850312156112bd576112bc61115c565b5b5f6112ca85828601611183565b92505060206112db85828601611293565b9150509250929050565b5f5ffd5b7f4e487b71000000000000000000000000000000000000000000000000000000005f52604160045260245ffd5b61131f826110eb565b810181811067ffffffffffffffff8211171561133e5761133d6112e9565b5b80604052505050565b5f611350611153565b905061135c8282611316565b919050565b5f67ffffffffffffffff82111561137b5761137a6112e9565b5b602082029050602081019050919050565b5f5ffd5b5f6113a261139d84611361565b611347565b905080838252602082019050602084028301858111156113c5576113c461138c565b5b835b818110156113ee57806113da8882611183565b8452602084019350506020810190506113c7565b5050509392505050565b5f82601f83011261140c5761140b6112e5565b5b813561141c848260208601611390565b91505092915050565b5f6020828403121561143a5761143961115c565b5b5f82013567ffffffffffffffff81111561145757611456611160565b5b611463848285016113f8565b91505092915050565b5f8115159050919050565b6114808161146c565b82525050565b5f6020820190506114995f830184611477565b92915050565b5f6020820190506114b25f8301846111c2565b92915050565b5f5ffd5b5f67ffffffffffffffff8211156114d6576114d56112e9565b5b6114df826110eb565b9050602081019050919050565b828183375f83830152505050565b5f61150c611507846114bc565b611347565b905082815260208101848484011115611528576115276114b8565b5b6115338482856114ec565b509392505050565b5f82601f83011261154f5761154e6112e5565b5b813561155f8482602086016114fa565b91505092915050565b5f5f5f5f5f5f60c087890312156115825761158161115c565b5b5f87013567ffffffffffffffff81111561159f5761159e611160565b5b6115ab89828a0161153b565b96505060206115bc89828a01611183565b95505060406115cd89828a01611183565b94505060606115de89828a01611293565b935050608087013567ffffffffffffffff8111156115ff576115fe611160565b5b61160b89828a0161153b565b92505060a061161c89828a01611183565b9150509295509295509295565b5f60208201905061163c5f830184611201565b92915050565b5f60a0820190508181035f83015261165a81886110fb565b905061166960208301876111c2565b61167660408301866111c2565b61168360608301856111c2565b6116906080830184611201565b9695505050505050565b5f5f604083850312156116b0576116af61115c565b5b5f83013567ffffffffffffffff8111156116cd576116cc611160565b5b6116d9858286016113f8565b925050602083013567ffffffffffffffff8111156116fa576116f9611160565b5b611706858286016113f8565b9150509250929050565b5f602082840312156117255761172461115c565b5b5f61173284828501611293565b91505092915050565b7f4e487b71000000000000000000000000000000000000000000000000000000005f52602260045260245ffd5b5f600282049050600182168061177f57607f821691505b6020821081036117925761179161173b565b5b50919050565b7f4e487b71000000000000000000000000000000000000000000000000000000005f52603260045260245ffd5b7f50424d3a20496e76616c696420746f6b656e00000000000000000000000000005f82015250565b5f6117f96012836110cd565b9150611804826117c5565b602082019050919050565b5f6020820190508181035f830152611826816117ed565b9050919050565b7f50424d3a20546f6b656e206e6f742065787069726564000000000000000000005f82015250565b5f6118616016836110cd565b915061186c8261182d565b602082019050919050565b5f6020820190508181035f83015261188e81611855565b9050919050565b7f50424d3a204e6f742063726561746f72000000000000000000000000000000005f82015250565b5f6118c96010836110cd565b91506118d482611895565b602082019050919050565b5f6020820190508181035f8301526118f6816118bd565b9050919050565b7f496e76616c696420746f6b656e206578706972792d31000000000000000000005f82015250565b5f6119316016836110cd565b915061193c826118fd565b602082019050919050565b5f6020820190508181035f83015261195e81611925565b9050919050565b7f496e76616c696420746f6b656e206578706972792d32000000000000000000005f82015250565b5f6119996016836110cd565b91506119a482611965565b602082019050919050565b5f6020820190508181035f8301526119c68161198d565b9050919050565b7f53706f7420616d6f756e742069732030000000000000000000000000000000005f82015250565b5f611a016010836110cd565b9150611a0c826119cd565b602082019050919050565b5f6020820190508181035f830152611a2e816119f5565b9050919050565b5f819050815f5260205f209050919050565b5f6020601f8301049050919050565b5f82821b905092915050565b5f60088302611a917fffffffffffffffffffffffffffffffffffffffffffffffffffffffffffffffff82611a56565b611a9b8683611a56565b95508019841693508086168417925050509392505050565b5f819050919050565b5f611ad6611ad1611acc84611164565b611ab3565b611164565b9050919050565b5f819050919050565b611aef83611abc565b611b03611afb82611add565b848454611a62565b825550505050565b5f5f905090565b611b1a611b0b565b611b25818484611ae6565b505050565b5b81811015611b4857611b3d5f82611b12565b600181019050611b2b565b5050565b601f821115611b8d57611b5e81611a35565b611b6784611a47565b81016020851015611b76578190505b611b8a611b8285611a47565b830182611b2a565b50505b505050565b5f82821c905092915050565b5f611bad5f1984600802611b92565b1980831691505092915050565b5f611bc58383611b9e565b9150826002028217905092915050565b611bde826110c3565b67ffffffffffffffff811115611bf757611bf66112e9565b5b611c018254611768565b611c0c828285611b4c565b5f60209050601f831160018114611c3d575f8415611c2b578287015190505b611c358582611bba565b865550611c9c565b601f198416611c4b86611a35565b5f5b82811015611c7257848901518255600182019150602085019450602081019050611c4d565b86831015611c8f5784890151611c8b601f891682611b9e565b8355505b6001600288020188555050505b505050505050565b5f6080820190508181035f830152611cbc81876110fb565b9050611ccb60208301866111c2565b611cd860408301856111c2565b611ce56060830184611201565b95945050505050565b7f4e487b71000000000000000000000000000000000000000000000000000000005f52601160045260245ffd5b5f611d2582611164565b9150611d3083611164565b9250828201905080821115611d4857611d47611cee565b5b92915050565b5f611d5882611164565b9150611d6383611164565b9250828202611d7181611164565b91508282048414831517611d8857611d87611cee565b5b5092915050565b7f4172726179206c656e677468206d69736d6174636800000000000000000000005f82015250565b5f611dc36015836110cd565b9150611dce82611d8f565b602082019050919050565b5f6020820190508181035f830152611df081611db7565b9050919050565b5f611e0182611164565b9150611e0c83611164565b9250828203905081811115611e2457611e23611cee565b5b9291505056fea264697066735822122089f3a7318ad36c7e98009cbf11d025ddbd596b2236648adfac3ae78b25f6602d64736f6c634300081e0033",
					"opcodes": "PUSH1 0x80 PUSH1 0x40 MSTORE CALLVALUE DUP1 ISZERO PUSH2 0xF JUMPI PUSH0 PUSH0 REVERT JUMPDEST POP PUSH1 0x40 MLOAD PUSH2 0x24C8 CODESIZE SUB DUP1 PUSH2 0x24C8 DUP4 CODECOPY DUP2 DUP2 ADD PUSH1 0x40 MSTORE DUP2 ADD SWAP1 PUSH2 0x31 SWAP2 SWAP1 PUSH2 0x2DD JUMP JUMPDEST CALLER PUSH0 PUSH20 0xFFFFFFFFFFFFFFFFFFFFFFFFFFFFFFFFFFFFFFFF AND DUP2 PUSH20 0xFFFFFFFFFFFFFFFFFFFFFFFFFFFFFFFFFFFFFFFF AND SUB PUSH2 0xA2 JUMPI PUSH0 PUSH1 0x40 MLOAD PUSH32 0x1E4FBDF700000000000000000000000000000000000000000000000000000000 DUP2 MSTORE PUSH1 0x4 ADD PUSH2 0x99 SWAP2 SWAP1 PUSH2 0x363 JUMP JUMPDEST PUSH1 0x40 MLOAD DUP1 SWAP2 SUB SWAP1 REVERT JUMPDEST PUSH2 0xB1 DUP2 PUSH2 0xCF PUSH1 0x20 SHL PUSH1 0x20 SHR JUMP JUMPDEST POP PUSH1 0x1 DUP1 DUP2 SWAP1 SSTORE POP DUP1 PUSH1 0x2 SWAP1 DUP2 PUSH2 0xC8 SWAP2 SWAP1 PUSH2 0x58C JUMP JUMPDEST POP POP PUSH2 0x65B JUMP JUMPDEST PUSH0 PUSH0 PUSH0 SWAP1 SLOAD SWAP1 PUSH2 0x100 EXP SWAP1 DIV PUSH20 0xFFFFFFFFFFFFFFFFFFFFFFFFFFFFFFFFFFFFFFFF AND SWAP1 POP DUP2 PUSH0 PUSH0 PUSH2 0x100 EXP DUP2 SLOAD DUP2 PUSH20 0xFFFFFFFFFFFFFFFFFFFFFFFFFFFFFFFFFFFFFFFF MUL NOT AND SWAP1 DUP4 PUSH20 0xFFFFFFFFFFFFFFFFFFFFFFFFFFFFFFFFFFFFFFFF AND MUL OR SWAP1 SSTORE POP DUP2 PUSH20 0xFFFFFFFFFFFFFFFFFFFFFFFFFFFFFFFFFFFFFFFF AND DUP2 PUSH20 0xFFFFFFFFFFFFFFFFFFFFFFFFFFFFFFFFFFFFFFFF AND PUSH32 0x8BE0079C531659141344CD1FD0A4F28419497F9722A3DAAFE3B4186F6B6457E0 PUSH1 0x40 MLOAD PUSH1 0x40 MLOAD DUP1 SWAP2 SUB SWAP1 LOG3 POP POP JUMP JUMPDEST PUSH0 PUSH1 0x40 MLOAD SWAP1 POP SWAP1 JUMP JUMPDEST PUSH0 PUSH0 REVERT JUMPDEST PUSH0 PUSH0 REVERT JUMPDEST PUSH0 PUSH0 REVERT JUMPDEST PUSH0 PUSH0 REVERT JUMPDEST PUSH0 PUSH1 0x1F NOT PUSH1 0x1F DUP4 ADD AND SWAP1 POP SWAP2 SWAP1 POP JUMP JUMPDEST PUSH32 0x4E487B7100000000000000000000000000000000000000000000000000000000 PUSH0 MSTORE PUSH1 0x41 PUSH1 0x4 MSTORE PUSH1 0x24 PUSH0 REVERT JUMPDEST PUSH2 0x1EF DUP3 PUSH2 0x1A9 JUMP JUMPDEST DUP2 ADD DUP2 DUP2 LT PUSH8 0xFFFFFFFFFFFFFFFF DUP3 GT OR ISZERO PUSH2 0x20E JUMPI PUSH2 0x20D PUSH2 0x1B9 JUMP JUMPDEST JUMPDEST DUP1 PUSH1 0x40 MSTORE POP POP POP JUMP JUMPDEST PUSH0 PUSH2 0x220 PUSH2 0x190 JUMP JUMPDEST SWAP1 POP PUSH2 0x22C DUP3 DUP3 PUSH2 0x1E6 JUMP JUMPDEST SWAP2 SWAP1 POP JUMP JUMPDEST PUSH0 PUSH8 0xFFFFFFFFFFFFFFFF DUP3 GT ISZERO PUSH2 0x24B JUMPI PUSH2 0x24A PUSH2 0x1B9 JUMP JUMPDEST JUMPDEST PUSH2 0x254 DUP3 PUSH2 0x1A9 JUMP JUMPDEST SWAP1 POP PUSH1 0x20 DUP2 ADD SWAP1 POP SWAP2 SWAP1 POP JUMP JUMPDEST DUP3 DUP2 DUP4 MCOPY PUSH0 DUP4 DUP4 ADD MSTORE POP POP POP JUMP JUMPDEST PUSH0 PUSH2 0x281 PUSH2 0x27C DUP5 PUSH2 0x231 JUMP JUMPDEST PUSH2 0x217 JUMP JUMPDEST SWAP1 POP DUP3 DUP2 MSTORE PUSH1 0x20 DUP2 ADD DUP5 DUP5 DUP5 ADD GT ISZERO PUSH2 0x29D JUMPI PUSH2 0x29C PUSH2 0x1A5 JUMP JUMPDEST JUMPDEST PUSH2 0x2A8 DUP5 DUP3 DUP6 PUSH2 0x261 JUMP JUMPDEST POP SWAP4 SWAP3 POP POP POP JUMP JUMPDEST PUSH0 DUP3 PUSH1 0x1F DUP4 ADD SLT PUSH2 0x2C4 JUMPI PUSH2 0x2C3 PUSH2 0x1A1 JUMP JUMPDEST JUMPDEST DUP2 MLOAD PUSH2 0x2D4 DUP5 DUP3 PUSH1 0x20 DUP7 ADD PUSH2 0x26F JUMP JUMPDEST SWAP2 POP POP SWAP3 SWAP2 POP POP JUMP JUMPDEST PUSH0 PUSH1 0x20 DUP3 DUP5 SUB SLT ISZERO PUSH2 0x2F2 JUMPI PUSH2 0x2F1 PUSH2 0x199 JUMP JUMPDEST JUMPDEST PUSH0 DUP3 ADD MLOAD PUSH8 0xFFFFFFFFFFFFFFFF DUP2 GT ISZERO PUSH2 0x30F JUMPI PUSH2 0x30E PUSH2 0x19D JUMP JUMPDEST JUMPDEST PUSH2 0x31B DUP5 DUP3 DUP6 ADD PUSH2 0x2B0 JUMP JUMPDEST SWAP2 POP POP SWAP3 SWAP2 POP POP JUMP JUMPDEST PUSH0 PUSH20 0xFFFFFFFFFFFFFFFFFFFFFFFFFFFFFFFFFFFFFFFF DUP3 AND SWAP1 POP SWAP2 SWAP1 POP JUMP JUMPDEST PUSH0 PUSH2 0x34D DUP3 PUSH2 0x324 JUMP JUMPDEST SWAP1 POP SWAP2 SWAP1 POP JUMP JUMPDEST PUSH2 0x35D DUP2 PUSH2 0x343 JUMP JUMPDEST DUP3 MSTORE POP POP JUMP JUMPDEST PUSH0 PUSH1 0x20 DUP3 ADD SWAP1 POP PUSH2 0x376 PUSH0 DUP4 ADD DUP5 PUSH2 0x354 JUMP JUMPDEST SWAP3 SWAP2 POP POP JUMP JUMPDEST PUSH0 DUP2 MLOAD SWAP1 POP SWAP2 SWAP1 POP JUMP JUMPDEST PUSH32 0x4E487B7100000000000000000000000000000000000000000000000000000000 PUSH0 MSTORE PUSH1 0x22 PUSH1 0x4 MSTORE PUSH1 0x24 PUSH0 REVERT JUMPDEST PUSH0 PUSH1 0x2 DUP3 DIV SWAP1 POP PUSH1 0x1 DUP3 AND DUP1 PUSH2 0x3CA JUMPI PUSH1 0x7F DUP3 AND SWAP2 POP JUMPDEST PUSH1 0x20 DUP3 LT DUP2 SUB PUSH2 0x3DD JUMPI PUSH2 0x3DC PUSH2 0x386 JUMP JUMPDEST JUMPDEST POP SWAP2 SWAP1 POP JUMP JUMPDEST PUSH0 DUP2 SWAP1 POP DUP2 PUSH0 MSTORE PUSH1 0x20 PUSH0 KECCAK256 SWAP1 POP SWAP2 SWAP1 POP JUMP JUMPDEST PUSH0 PUSH1 0x20 PUSH1 0x1F DUP4 ADD DIV SWAP1 POP SWAP2 SWAP1 POP JUMP JUMPDEST PUSH0 DUP3 DUP3 SHL SWAP1 POP SWAP3 SWAP2 POP POP JUMP JUMPDEST PUSH0 PUSH1 0x8 DUP4 MUL PUSH2 0x43F PUSH32 0xFFFFFFFFFFFFFFFFFFFFFFFFFFFFFFFFFFFFFFFFFFFFFFFFFFFFFFFFFFFFFFFF DUP3 PUSH2 0x404 JUMP JUMPDEST PUSH2 0x449 DUP7 DUP4 PUSH2 0x404 JUMP JUMPDEST SWAP6 POP DUP1 NOT DUP5 AND SWAP4 POP DUP1 DUP7 AND DUP5 OR SWAP3 POP POP POP SWAP4 SWAP3 POP POP POP JUMP JUMPDEST PUSH0 DUP2 SWAP1 POP SWAP2 SWAP1 POP JUMP JUMPDEST PUSH0 DUP2 SWAP1 POP SWAP2 SWAP1 POP JUMP JUMPDEST PUSH0 PUSH2 0x48D PUSH2 0x488 PUSH2 0x483 DUP5 PUSH2 0x461 JUMP JUMPDEST PUSH2 0x46A JUMP JUMPDEST PUSH2 0x461 JUMP JUMPDEST SWAP1 POP SWAP2 SWAP1 POP JUMP JUMPDEST PUSH0 DUP2 SWAP1 POP SWAP2 SWAP1 POP JUMP JUMPDEST PUSH2 0x4A6 DUP4 PUSH2 0x473 JUMP JUMPDEST PUSH2 0x4BA PUSH2 0x4B2 DUP3 PUSH2 0x494 JUMP JUMPDEST DUP5 DUP5 SLOAD PUSH2 0x410 JUMP JUMPDEST DUP3 SSTORE POP POP POP POP JUMP JUMPDEST PUSH0 PUSH0 SWAP1 POP SWAP1 JUMP JUMPDEST PUSH2 0x4D1 PUSH2 0x4C2 JUMP JUMPDEST PUSH2 0x4DC DUP2 DUP5 DUP5 PUSH2 0x49D JUMP JUMPDEST POP POP POP JUMP JUMPDEST JUMPDEST DUP2 DUP2 LT ISZERO PUSH2 0x4FF JUMPI PUSH2 0x4F4 PUSH0 DUP3 PUSH2 0x4C9 JUMP JUMPDEST PUSH1 0x1 DUP2 ADD SWAP1 POP PUSH2 0x4E2 JUMP JUMPDEST POP POP JUMP JUMPDEST PUSH1 0x1F DUP3 GT ISZERO PUSH2 0x544 JUMPI PUSH2 0x515 DUP2 PUSH2 0x3E3 JUMP JUMPDEST PUSH2 0x51E DUP5 PUSH2 0x3F5 JUMP JUMPDEST DUP2 ADD PUSH1 0x20 DUP6 LT ISZERO PUSH2 0x52D JUMPI DUP2 SWAP1 POP JUMPDEST PUSH2 0x541 PUSH2 0x539 DUP6 PUSH2 0x3F5 JUMP JUMPDEST DUP4 ADD DUP3 PUSH2 0x4E1 JUMP JUMPDEST POP POP JUMPDEST POP POP POP JUMP JUMPDEST PUSH0 DUP3 DUP3 SHR SWAP1 POP SWAP3 SWAP2 POP POP JUMP JUMPDEST PUSH0 PUSH2 0x564 PUSH0 NOT DUP5 PUSH1 0x8 MUL PUSH2 0x549 JUMP JUMPDEST NOT DUP1 DUP4 AND SWAP2 POP POP SWAP3 SWAP2 POP POP JUMP JUMPDEST PUSH0 PUSH2 0x57C DUP4 DUP4 PUSH2 0x555 JUMP JUMPDEST SWAP2 POP DUP3 PUSH1 0x2 MUL DUP3 OR SWAP1 POP SWAP3 SWAP2 POP POP JUMP JUMPDEST PUSH2 0x595 DUP3 PUSH2 0x37C JUMP JUMPDEST PUSH8 0xFFFFFFFFFFFFFFFF DUP2 GT ISZERO PUSH2 0x5AE JUMPI PUSH2 0x5AD PUSH2 0x1B9 JUMP JUMPDEST JUMPDEST PUSH2 0x5B8 DUP3 SLOAD PUSH2 0x3B3 JUMP JUMPDEST PUSH2 0x5C3 DUP3 DUP3 DUP6 PUSH2 0x503 JUMP JUMPDEST PUSH0 PUSH1 0x20 SWAP1 POP PUSH1 0x1F DUP4 GT PUSH1 0x1 DUP2 EQ PUSH2 0x5F4 JUMPI PUSH0 DUP5 ISZERO PUSH2 0x5E2 JUMPI DUP3 DUP8 ADD MLOAD SWAP1 POP JUMPDEST PUSH2 0x5EC DUP6 DUP3 PUSH2 0x571 JUMP JUMPDEST DUP7 SSTORE POP PUSH2 0x653 JUMP JUMPDEST PUSH1 0x1F NOT DUP5 AND PUSH2 0x602 DUP7 PUSH2 0x3E3 JUMP JUMPDEST PUSH0 JUMPDEST DUP3 DUP2 LT ISZERO PUSH2 0x629 JUMPI DUP5 DUP10 ADD MLOAD DUP3 SSTORE PUSH1 0x1 DUP3 ADD SWAP2 POP PUSH1 0x20 DUP6 ADD SWAP5 POP PUSH1 0x20 DUP2 ADD SWAP1 POP PUSH2 0x604 JUMP JUMPDEST DUP7 DUP4 LT ISZERO PUSH2 0x646 JUMPI DUP5 DUP10 ADD MLOAD PUSH2 0x642 PUSH1 0x1F DUP10 AND DUP3 PUSH2 0x555 JUMP JUMPDEST DUP4 SSTORE POP JUMPDEST PUSH1 0x1 PUSH1 0x2 DUP9 MUL ADD DUP9 SSTORE POP POP POP JUMPDEST POP POP POP POP POP POP JUMP JUMPDEST PUSH2 0x1E60 DUP1 PUSH2 0x668 PUSH0 CODECOPY PUSH0 RETURN INVALID PUSH1 0x80 PUSH1 0x40 MSTORE CALLVALUE DUP1 ISZERO PUSH2 0xF JUMPI PUSH0 PUSH0 REVERT JUMPDEST POP PUSH1 0x4 CALLDATASIZE LT PUSH2 0xF3 JUMPI PUSH0 CALLDATALOAD PUSH1 0xE0 SHR DUP1 PUSH4 0x80D69C8A GT PUSH2 0x95 JUMPI DUP1 PUSH4 0xD20874D8 GT PUSH2 0x64 JUMPI DUP1 PUSH4 0xD20874D8 EQ PUSH2 0x2A0 JUMPI DUP1 PUSH4 0xE21C8B59 EQ PUSH2 0x2D0 JUMPI DUP1 PUSH4 0xF2FDE38B EQ PUSH2 0x2EC JUMPI DUP1 PUSH4 0xF600D9F4 EQ PUSH2 0x308 JUMPI PUSH2 0xF3 JUMP JUMPDEST DUP1 PUSH4 0x80D69C8A EQ PUSH2 0x1EE JUMPI DUP1 PUSH4 0x8DA5CB5B EQ PUSH2 0x21E JUMPI DUP1 PUSH4 0xC1E03728 EQ PUSH2 0x23C JUMPI DUP1 PUSH4 0xD10424C7 EQ PUSH2 0x270 JUMPI PUSH2 0xF3 JUMP JUMPDEST DUP1 PUSH4 0x36A3409C GT PUSH2 0xD1 JUMPI DUP1 PUSH4 0x36A3409C EQ PUSH2 0x17A JUMPI DUP1 PUSH4 0x48FD09F5 EQ PUSH2 0x196 JUMPI DUP1 PUSH4 0x71185897 EQ PUSH2 0x1C6 JUMPI DUP1 PUSH4 0x715018A6 EQ PUSH2 0x1E4 JUMPI PUSH2 0xF3 JUMP JUMPDEST DUP1 PUSH4 0x3B5A3D3 EQ PUSH2 0xF7 JUMPI DUP1 PUSH4 0xE89341C EQ PUSH2 0x115 JUMPI DUP1 PUSH4 0x33F6832A EQ PUSH2 0x145 JUMPI JUMPDEST PUSH0 PUSH0 REVERT JUMPDEST PUSH2 0xFF PUSH2 0x324 JUMP JUMPDEST PUSH1 0x40 MLOAD PUSH2 0x10C SWAP2 SWAP1 PUSH2 0x1133 JUMP JUMPDEST PUSH1 0x40 MLOAD DUP1 SWAP2 SUB SWAP1 RETURN JUMPDEST PUSH2 0x12F PUSH1 0x4 DUP1 CALLDATASIZE SUB DUP2 ADD SWAP1 PUSH2 0x12A SWAP2 SWAP1 PUSH2 0x1197 JUMP JUMPDEST PUSH2 0x3B0 JUMP JUMPDEST PUSH1 0x40 MLOAD PUSH2 0x13C SWAP2 SWAP1 PUSH2 0x1133 JUMP JUMPDEST PUSH1 0x40 MLOAD DUP1 SWAP2 SUB SWAP1 RETURN JUMPDEST PUSH2 0x15F PUSH1 0x4 DUP1 CALLDATASIZE SUB DUP2 ADD SWAP1 PUSH2 0x15A SWAP2 SWAP1 PUSH2 0x1197 JUMP JUMPDEST PUSH2 0x501 JUMP JUMPDEST PUSH1 0x40 MLOAD PUSH2 0x171 SWAP7 SWAP6 SWAP5 SWAP4 SWAP3 SWAP2 SWAP1 PUSH2 0x1210 JUMP JUMPDEST PUSH1 0x40 MLOAD DUP1 SWAP2 SUB SWAP1 RETURN JUMPDEST PUSH2 0x194 PUSH1 0x4 DUP1 CALLDATASIZE SUB DUP2 ADD SWAP1 PUSH2 0x18F SWAP2 SWAP1 PUSH2 0x12A7 JUMP JUMPDEST PUSH2 0x664 JUMP JUMPDEST STOP JUMPDEST PUSH2 0x1B0 PUSH1 0x4 DUP1 CALLDATASIZE SUB DUP2 ADD SWAP1 PUSH2 0x1AB SWAP2 SWAP1 PUSH2 0x1425 JUMP JUMPDEST PUSH2 0x86E JUMP JUMPDEST PUSH1 0x40 MLOAD PUSH2 0x1BD SWAP2 SWAP1 PUSH2 0x1486 JUMP JUMPDEST PUSH1 0x40 MLOAD DUP1 SWAP2 SUB SWAP1 RETURN JUMPDEST PUSH2 0x1CE PUSH2 0x8E7 JUMP JUMPDEST PUSH1 0x40 MLOAD PUSH2 0x1DB SWAP2 SWAP1 PUSH2 0x149F JUMP JUMPDEST PUSH1 0x40 MLOAD DUP1 SWAP2 SUB SWAP1 RETURN JUMPDEST PUSH2 0x1EC PUSH2 0x8ED JUMP JUMPDEST STOP JUMPDEST PUSH2 0x208 PUSH1 0x4 DUP1 CALLDATASIZE SUB DUP2 ADD SWAP1 PUSH2 0x203 SWAP2 SWAP1 PUSH2 0x1568 JUMP JUMPDEST PUSH2 0x900 JUMP JUMPDEST PUSH1 0x40 MLOAD PUSH2 0x215 SWAP2 SWAP1 PUSH2 0x149F JUMP JUMPDEST PUSH1 0x40 MLOAD DUP1 SWAP2 SUB SWAP1 RETURN JUMPDEST PUSH2 0x226 PUSH2 0xB23 JUMP JUMPDEST PUSH1 0x40 MLOAD PUSH2 0x233 SWAP2 SWAP1 PUSH2 0x1629 JUMP JUMPDEST PUSH1 0x40 MLOAD DUP1 SWAP2 SUB SWAP1 RETURN JUMPDEST PUSH2 0x256 PUSH1 0x4 DUP1 CALLDATASIZE SUB DUP2 ADD SWAP1 PUSH2 0x251 SWAP2 SWAP1 PUSH2 0x1197 JUMP JUMPDEST PUSH2 0xB4A JUMP JUMPDEST PUSH1 0x40 MLOAD PUSH2 0x267 SWAP6 SWAP5 SWAP4 SWAP3 SWAP2 SWAP1 PUSH2 0x1642 JUMP JUMPDEST PUSH1 0x40 MLOAD DUP1 SWAP2 SUB SWAP1 RETURN JUMPDEST PUSH2 0x28A PUSH1 0x4 DUP1 CALLDATASIZE SUB DUP2 ADD SWAP1 PUSH2 0x285 SWAP2 SWAP1 PUSH2 0x1197 JUMP JUMPDEST PUSH2 0xC73 JUMP JUMPDEST PUSH1 0x40 MLOAD PUSH2 0x297 SWAP2 SWAP1 PUSH2 0x149F JUMP JUMPDEST PUSH1 0x40 MLOAD DUP1 SWAP2 SUB SWAP1 RETURN JUMPDEST PUSH2 0x2BA PUSH1 0x4 DUP1 CALLDATASIZE SUB DUP2 ADD SWAP1 PUSH2 0x2B5 SWAP2 SWAP1 PUSH2 0x1197 JUMP JUMPDEST PUSH2 0xC90 JUMP JUMPDEST PUSH1 0x40 MLOAD PUSH2 0x2C7 SWAP2 SWAP1 PUSH2 0x149F JUMP JUMPDEST PUSH1 0x40 MLOAD DUP1 SWAP2 SUB SWAP1 RETURN JUMPDEST PUSH2 0x2EA PUSH1 0x4 DUP1 CALLDATASIZE SUB DUP2 ADD SWAP1 PUSH2 0x2E5 SWAP2 SWAP1 PUSH2 0x169A JUMP JUMPDEST PUSH2 0xCCC JUMP JUMPDEST STOP JUMPDEST PUSH2 0x306 PUSH1 0x4 DUP1 CALLDATASIZE SUB DUP2 ADD SWAP1 PUSH2 0x301 SWAP2 SWAP1 PUSH2 0x1710 JUMP JUMPDEST PUSH2 0xDDE JUMP JUMPDEST STOP JUMPDEST PUSH2 0x322 PUSH1 0x4 DUP1 CALLDATASIZE SUB DUP2 ADD SWAP1 PUSH2 0x31D SWAP2 SWAP1 PUSH2 0x169A JUMP JUMPDEST PUSH2 0xE62 JUMP JUMPDEST STOP JUMPDEST PUSH1 0x2 DUP1 SLOAD PUSH2 0x331 SWAP1 PUSH2 0x1768 JUMP JUMPDEST DUP1 PUSH1 0x1F ADD PUSH1 0x20 DUP1 SWAP2 DIV MUL PUSH1 0x20 ADD PUSH1 0x40 MLOAD SWAP1 DUP2 ADD PUSH1 0x40 MSTORE DUP1 SWAP3 SWAP2 SWAP1 DUP2 DUP2 MSTORE PUSH1 0x20 ADD DUP3 DUP1 SLOAD PUSH2 0x35D SWAP1 PUSH2 0x1768 JUMP JUMPDEST DUP1 ISZERO PUSH2 0x3A8 JUMPI DUP1 PUSH1 0x1F LT PUSH2 0x37F JUMPI PUSH2 0x100 DUP1 DUP4 SLOAD DIV MUL DUP4 MSTORE SWAP2 PUSH1 0x20 ADD SWAP2 PUSH2 0x3A8 JUMP JUMPDEST DUP3 ADD SWAP2 SWAP1 PUSH0 MSTORE PUSH1 0x20 PUSH0 KECCAK256 SWAP1 JUMPDEST DUP2 SLOAD DUP2 MSTORE SWAP1 PUSH1 0x1 ADD SWAP1 PUSH1 0x20 ADD DUP1 DUP4 GT PUSH2 0x38B JUMPI DUP3 SWAP1 SUB PUSH1 0x1F AND DUP3 ADD SWAP2 JUMPDEST POP POP POP POP POP DUP2 JUMP JUMPDEST PUSH1 0x60 PUSH1 0x3 PUSH0 DUP4 DUP2 MSTORE PUSH1 0x20 ADD SWAP1 DUP2 MSTORE PUSH1 0x20 ADD PUSH0 KECCAK256 PUSH1 0x3 ADD SLOAD TIMESTAMP GT ISZERO PUSH2 0x45E JUMPI PUSH1 0x2 DUP1 SLOAD PUSH2 0x3DB SWAP1 PUSH2 0x1768 JUMP JUMPDEST DUP1 PUSH1 0x1F ADD PUSH1 0x20 DUP1 SWAP2 DIV MUL PUSH1 0x20 ADD PUSH1 0x40 MLOAD SWAP1 DUP2 ADD PUSH1 0x40 MSTORE DUP1 SWAP3 SWAP2 SWAP1 DUP2 DUP2 MSTORE PUSH1 0x20 ADD DUP3 DUP1 SLOAD PUSH2 0x407 SWAP1 PUSH2 0x1768 JUMP JUMPDEST DUP1 ISZERO PUSH2 0x452 JUMPI DUP1 PUSH1 0x1F LT PUSH2 0x429 JUMPI PUSH2 0x100 DUP1 DUP4 SLOAD DIV MUL DUP4 MSTORE SWAP2 PUSH1 0x20 ADD SWAP2 PUSH2 0x452 JUMP JUMPDEST DUP3 ADD SWAP2 SWAP1 PUSH0 MSTORE PUSH1 0x20 PUSH0 KECCAK256 SWAP1 JUMPDEST DUP2 SLOAD DUP2 MSTORE SWAP1 PUSH1 0x1 ADD SWAP1 PUSH1 0x20 ADD DUP1 DUP4 GT PUSH2 0x435 JUMPI DUP3 SWAP1 SUB PUSH1 0x1F AND DUP3 ADD SWAP2 JUMPDEST POP POP POP POP POP SWAP1 POP PUSH2 0x4FC JUMP JUMPDEST PUSH1 0x3 PUSH0 DUP4 DUP2 MSTORE PUSH1 0x20 ADD SWAP1 DUP2 MSTORE PUSH1 0x20 ADD PUSH0 KECCAK256 PUSH1 0x5 ADD DUP1 SLOAD PUSH2 0x47D SWAP1 PUSH2 0x1768 JUMP JUMPDEST DUP1 PUSH1 0x1F ADD PUSH1 0x20 DUP1 SWAP2 DIV MUL PUSH1 0x20 ADD PUSH1 0x40 MLOAD SWAP1 DUP2 ADD PUSH1 0x40 MSTORE DUP1 SWAP3 SWAP2 SWAP1 DUP2 DUP2 MSTORE PUSH1 0x20 ADD DUP3 DUP1 SLOAD PUSH2 0x4A9 SWAP1 PUSH2 0x1768 JUMP JUMPDEST DUP1 ISZERO PUSH2 0x4F4 JUMPI DUP1 PUSH1 0x1F LT PUSH2 0x4CB JUMPI PUSH2 0x100 DUP1 DUP4 SLOAD DIV MUL DUP4 MSTORE SWAP2 PUSH1 0x20 ADD SWAP2 PUSH2 0x4F4 JUMP JUMPDEST DUP3 ADD SWAP2 SWAP1 PUSH0 MSTORE PUSH1 0x20 PUSH0 KECCAK256 SWAP1 JUMPDEST DUP2 SLOAD DUP2 MSTORE SWAP1 PUSH1 0x1 ADD SWAP1 PUSH1 0x20 ADD DUP1 DUP4 GT PUSH2 0x4D7 JUMPI DUP3 SWAP1 SUB PUSH1 0x1F AND DUP3 ADD SWAP2 JUMPDEST POP POP POP POP POP SWAP1 POP JUMPDEST SWAP2 SWAP1 POP JUMP JUMPDEST PUSH1 0x3 PUSH1 0x20 MSTORE DUP1 PUSH0 MSTORE PUSH1 0x40 PUSH0 KECCAK256 PUSH0 SWAP2 POP SWAP1 POP DUP1 PUSH0 ADD DUP1 SLOAD PUSH2 0x520 SWAP1 PUSH2 0x1768 JUMP JUMPDEST DUP1 PUSH1 0x1F ADD PUSH1 0x20 DUP1 SWAP2 DIV MUL PUSH1 0x20 ADD PUSH1 0x40 MLOAD SWAP1 DUP2 ADD PUSH1 0x40 MSTORE DUP1 SWAP3 SWAP2 SWAP1 DUP2 DUP2 MSTORE PUSH1 0x20 ADD DUP3 DUP1 SLOAD PUSH2 0x54C SWAP1 PUSH2 0x1768 JUMP JUMPDEST DUP1 ISZERO PUSH2 0x597 JUMPI DUP1 PUSH1 0x1F LT PUSH2 0x56E JUMPI PUSH2 0x100 DUP1 DUP4 SLOAD DIV MUL DUP4 MSTORE SWAP2 PUSH1 0x20 ADD SWAP2 PUSH2 0x597 JUMP JUMPDEST DUP3 ADD SWAP2 SWAP1 PUSH0 MSTORE PUSH1 0x20 PUSH0 KECCAK256 SWAP1 JUMPDEST DUP2 SLOAD DUP2 MSTORE SWAP1 PUSH1 0x1 ADD SWAP1 PUSH1 0x20 ADD DUP1 DUP4 GT PUSH2 0x57A JUMPI DUP3 SWAP1 SUB PUSH1 0x1F AND DUP3 ADD SWAP2 JUMPDEST POP POP POP POP POP SWAP1 DUP1 PUSH1 0x1 ADD SLOAD SWAP1 DUP1 PUSH1 0x2 ADD SLOAD SWAP1 DUP1 PUSH1 0x3 ADD SLOAD SWAP1 DUP1 PUSH1 0x4 ADD PUSH0 SWAP1 SLOAD SWAP1 PUSH2 0x100 EXP SWAP1 DIV PUSH20 0xFFFFFFFFFFFFFFFFFFFFFFFFFFFFFFFFFFFFFFFF AND SWAP1 DUP1 PUSH1 0x5 ADD DUP1 SLOAD PUSH2 0x5E3 SWAP1 PUSH2 0x1768 JUMP JUMPDEST DUP1 PUSH1 0x1F ADD PUSH1 0x20 DUP1 SWAP2 DIV MUL PUSH1 0x20 ADD PUSH1 0x40 MLOAD SWAP1 DUP2 ADD PUSH1 0x40 MSTORE DUP1 SWAP3 SWAP2 SWAP1 DUP2 DUP2 MSTORE PUSH1 0x20 ADD DUP3 DUP1 SLOAD PUSH2 0x60F SWAP1 PUSH2 0x1768 JUMP JUMPDEST DUP1 ISZERO PUSH2 0x65A JUMPI DUP1 PUSH1 0x1F LT PUSH2 0x631 JUMPI PUSH2 0x100 DUP1 DUP4 SLOAD DIV MUL DUP4 MSTORE SWAP2 PUSH1 0x20 ADD SWAP2 PUSH2 0x65A JUMP JUMPDEST DUP3 ADD SWAP2 SWAP1 PUSH0 MSTORE PUSH1 0x20 PUSH0 KECCAK256 SWAP1 JUMPDEST DUP2 SLOAD DUP2 MSTORE SWAP1 PUSH1 0x1 ADD SWAP1 PUSH1 0x20 ADD DUP1 DUP4 GT PUSH2 0x63D JUMPI DUP3 SWAP1 SUB PUSH1 0x1F AND DUP3 ADD SWAP2 JUMPDEST POP POP POP POP POP SWAP1 POP DUP7 JUMP JUMPDEST PUSH2 0x66C PUSH2 0xF74 JUMP JUMPDEST PUSH0 PUSH1 0x1 PUSH8 0xFFFFFFFFFFFFFFFF DUP2 GT ISZERO PUSH2 0x688 JUMPI PUSH2 0x687 PUSH2 0x12E9 JUMP JUMPDEST JUMPDEST PUSH1 0x40 MLOAD SWAP1 DUP1 DUP3 MSTORE DUP1 PUSH1 0x20 MUL PUSH1 0x20 ADD DUP3 ADD PUSH1 0x40 MSTORE DUP1 ISZERO PUSH2 0x6B6 JUMPI DUP2 PUSH1 0x20 ADD PUSH1 0x20 DUP3 MUL DUP1 CALLDATASIZE DUP4 CALLDATACOPY DUP1 DUP3 ADD SWAP2 POP POP SWAP1 POP JUMPDEST POP SWAP1 POP DUP3 DUP2 PUSH0 DUP2 MLOAD DUP2 LT PUSH2 0x6CD JUMPI PUSH2 0x6CC PUSH2 0x1798 JUMP JUMPDEST JUMPDEST PUSH1 0x20 MUL PUSH1 0x20 ADD ADD DUP2 DUP2 MSTORE POP POP PUSH2 0x6E2 DUP2 PUSH2 0x86E JUMP JUMPDEST PUSH2 0x721 JUMPI PUSH1 0x40 MLOAD PUSH32 0x8C379A000000000000000000000000000000000000000000000000000000000 DUP2 MSTORE PUSH1 0x4 ADD PUSH2 0x718 SWAP1 PUSH2 0x180F JUMP JUMPDEST PUSH1 0x40 MLOAD DUP1 SWAP2 SUB SWAP1 REVERT JUMPDEST PUSH1 0x3 PUSH0 DUP5 DUP2 MSTORE PUSH1 0x20 ADD SWAP1 DUP2 MSTORE PUSH1 0x20 ADD PUSH0 KECCAK256 PUSH1 0x3 ADD SLOAD TIMESTAMP GT PUSH2 0x777 JUMPI PUSH1 0x40 MLOAD PUSH32 0x8C379A000000000000000000000000000000000000000000000000000000000 DUP2 MSTORE PUSH1 0x4 ADD PUSH2 0x76E SWAP1 PUSH2 0x1877 JUMP JUMPDEST PUSH1 0x40 MLOAD DUP1 SWAP2 SUB SWAP1 REVERT JUMPDEST PUSH1 0x3 PUSH0 DUP5 DUP2 MSTORE PUSH1 0x20 ADD SWAP1 DUP2 MSTORE PUSH1 0x20 ADD PUSH0 KECCAK256 PUSH1 0x4 ADD PUSH0 SWAP1 SLOAD SWAP1 PUSH2 0x100 EXP SWAP1 DIV PUSH20 0xFFFFFFFFFFFFFFFFFFFFFFFFFFFFFFFFFFFFFFFF AND PUSH20 0xFFFFFFFFFFFFFFFFFFFFFFFFFFFFFFFFFFFFFFFF AND DUP3 PUSH20 0xFFFFFFFFFFFFFFFFFFFFFFFFFFFFFFFFFFFFFFFF AND EQ PUSH2 0x818 JUMPI PUSH1 0x40 MLOAD PUSH32 0x8C379A000000000000000000000000000000000000000000000000000000000 DUP2 MSTORE PUSH1 0x4 ADD PUSH2 0x80F SWAP1 PUSH2 0x18DF JUMP JUMPDEST PUSH1 0x40 MLOAD DUP1 SWAP2 SUB SWAP1 REVERT JUMPDEST PUSH0 PUSH1 0x3 PUSH0 DUP6 DUP2 MSTORE PUSH1 0x20 ADD SWAP1 DUP2 MSTORE PUSH1 0x20 ADD PUSH0 KECCAK256 PUSH1 0x2 ADD DUP2 SWAP1 SSTORE POP DUP3 PUSH32 0xA22EBDCCAFAC40B8D854E46FA173D7D1B43CB56B3E1D9FAF46763611C7FCFB56 DUP4 PUSH1 0x40 MLOAD PUSH2 0x861 SWAP2 SWAP1 PUSH2 0x1629 JUMP JUMPDEST PUSH1 0x40 MLOAD DUP1 SWAP2 SUB SWAP1 LOG2 POP POP POP JUMP JUMPDEST PUSH0 PUSH0 PUSH0 SWAP1 POP JUMPDEST DUP3 MLOAD DUP2 LT ISZERO PUSH2 0x8DC JUMPI PUSH0 DUP4 DUP3 DUP2 MLOAD DUP2 LT PUSH2 0x891 JUMPI PUSH2 0x890 PUSH2 0x1798 JUMP JUMPDEST JUMPDEST PUSH1 0x20 MUL PUSH1 0x20 ADD ADD MLOAD EQ DUP1 PUSH2 0x8C1 JUMPI POP PUSH1 0x1 SLOAD DUP4 DUP3 DUP2 MLOAD DUP2 LT PUSH2 0x8B6 JUMPI PUSH2 0x8B5 PUSH2 0x1798 JUMP JUMPDEST JUMPDEST PUSH1 0x20 MUL PUSH1 0x20 ADD ADD MLOAD LT ISZERO JUMPDEST ISZERO PUSH2 0x8CF JUMPI PUSH0 SWAP2 POP POP PUSH2 0x8E2 JUMP JUMPDEST DUP1 DUP1 PUSH1 0x1 ADD SWAP2 POP POP PUSH2 0x874 JUMP JUMPDEST POP PUSH1 0x1 SWAP1 POP JUMPDEST SWAP2 SWAP1 POP JUMP JUMPDEST PUSH1 0x1 SLOAD DUP2 JUMP JUMPDEST PUSH2 0x8F5 PUSH2 0xF74 JUMP JUMPDEST PUSH2 0x8FE PUSH0 PUSH2 0xFFB JUMP JUMPDEST JUMP JUMPDEST PUSH0 PUSH2 0x909 PUSH2 0xF74 JUMP JUMPDEST DUP2 DUP6 GT ISZERO PUSH2 0x94C JUMPI PUSH1 0x40 MLOAD PUSH32 0x8C379A000000000000000000000000000000000000000000000000000000000 DUP2 MSTORE PUSH1 0x4 ADD PUSH2 0x943 SWAP1 PUSH2 0x1947 JUMP JUMPDEST PUSH1 0x40 MLOAD DUP1 SWAP2 SUB SWAP1 REVERT JUMPDEST TIMESTAMP DUP6 GT PUSH2 0x98E JUMPI PUSH1 0x40 MLOAD PUSH32 0x8C379A000000000000000000000000000000000000000000000000000000000 DUP2 MSTORE PUSH1 0x4 ADD PUSH2 0x985 SWAP1 PUSH2 0x19AF JUMP JUMPDEST PUSH1 0x40 MLOAD DUP1 SWAP2 SUB SWAP1 REVERT JUMPDEST PUSH0 DUP7 SUB PUSH2 0x9D0 JUMPI PUSH1 0x40 MLOAD PUSH32 0x8C379A000000000000000000000000000000000000000000000000000000000 DUP2 MSTORE PUSH1 0x4 ADD PUSH2 0x9C7 SWAP1 PUSH2 0x1A17 JUMP JUMPDEST PUSH1 0x40 MLOAD DUP1 SWAP2 SUB SWAP1 REVERT JUMPDEST DUP7 PUSH1 0x3 PUSH0 PUSH1 0x1 SLOAD DUP2 MSTORE PUSH1 0x20 ADD SWAP1 DUP2 MSTORE PUSH1 0x20 ADD PUSH0 KECCAK256 PUSH0 ADD SWAP1 DUP2 PUSH2 0x9F2 SWAP2 SWAP1 PUSH2 0x1BD5 JUMP JUMPDEST POP DUP6 PUSH1 0x3 PUSH0 PUSH1 0x1 SLOAD DUP2 MSTORE PUSH1 0x20 ADD SWAP1 DUP2 MSTORE PUSH1 0x20 ADD PUSH0 KECCAK256 PUSH1 0x1 ADD DUP2 SWAP1 SSTORE POP DUP5 PUSH1 0x3 PUSH0 PUSH1 0x1 SLOAD DUP2 MSTORE PUSH1 0x20 ADD SWAP1 DUP2 MSTORE PUSH1 0x20 ADD PUSH0 KECCAK256 PUSH1 0x3 ADD DUP2 SWAP1 SSTORE POP DUP4 PUSH1 0x3 PUSH0 PUSH1 0x1 SLOAD DUP2 MSTORE PUSH1 0x20 ADD SWAP1 DUP2 MSTORE PUSH1 0x20 ADD PUSH0 KECCAK256 PUSH1 0x4 ADD PUSH0 PUSH2 0x100 EXP DUP2 SLOAD DUP2 PUSH20 0xFFFFFFFFFFFFFFFFFFFFFFFFFFFFFFFFFFFFFFFF MUL NOT AND SWAP1 DUP4 PUSH20 0xFFFFFFFFFFFFFFFFFFFFFFFFFFFFFFFFFFFFFFFF AND MUL OR SWAP1 SSTORE POP PUSH0 PUSH1 0x3 PUSH0 PUSH1 0x1 SLOAD DUP2 MSTORE PUSH1 0x20 ADD SWAP1 DUP2 MSTORE PUSH1 0x20 ADD PUSH0 KECCAK256 PUSH1 0x2 ADD DUP2 SWAP1 SSTORE POP DUP3 PUSH1 0x3 PUSH0 PUSH1 0x1 SLOAD DUP2 MSTORE PUSH1 0x20 ADD SWAP1 DUP2 MSTORE PUSH1 0x20 ADD PUSH0 KECCAK256 PUSH1 0x5 ADD SWAP1 DUP2 PUSH2 0xABB SWAP2 SWAP1 PUSH2 0x1BD5 JUMP JUMPDEST POP PUSH1 0x1 SLOAD PUSH32 0xBBB805BF89819DA42BB55052EDD2BF6DB1C2256EC4C19CF1607DE95EFC92762F DUP9 DUP9 DUP9 DUP9 PUSH1 0x40 MLOAD PUSH2 0xAF4 SWAP5 SWAP4 SWAP3 SWAP2 SWAP1 PUSH2 0x1CA4 JUMP JUMPDEST PUSH1 0x40 MLOAD DUP1 SWAP2 SUB SWAP1 LOG2 PUSH1 0x1 SLOAD SWAP1 POP PUSH1 0x1 DUP1 PUSH0 DUP3 DUP3 SLOAD PUSH2 0xB12 SWAP2 SWAP1 PUSH2 0x1D1B JUMP JUMPDEST SWAP3 POP POP DUP2 SWAP1 SSTORE POP SWAP7 SWAP6 POP POP POP POP POP POP JUMP JUMPDEST PUSH0 PUSH0 PUSH0 SWAP1 SLOAD SWAP1 PUSH2 0x100 EXP SWAP1 DIV PUSH20 0xFFFFFFFFFFFFFFFFFFFFFFFFFFFFFFFFFFFFFFFF AND SWAP1 POP SWAP1 JUMP JUMPDEST PUSH1 0x60 PUSH0 PUSH0 PUSH0 PUSH0 PUSH1 0x3 PUSH0 DUP8 DUP2 MSTORE PUSH1 0x20 ADD SWAP1 DUP2 MSTORE PUSH1 0x20 ADD PUSH0 KECCAK256 PUSH0 ADD PUSH1 0x3 PUSH0 DUP9 DUP2 MSTORE PUSH1 0x20 ADD SWAP1 DUP2 MSTORE PUSH1 0x20 ADD PUSH0 KECCAK256 PUSH1 0x1 ADD SLOAD PUSH1 0x3 PUSH0 DUP10 DUP2 MSTORE PUSH1 0x20 ADD SWAP1 DUP2 MSTORE PUSH1 0x20 ADD PUSH0 KECCAK256 PUSH1 0x2 ADD SLOAD PUSH1 0x3 PUSH0 DUP11 DUP2 MSTORE PUSH1 0x20 ADD SWAP1 DUP2 MSTORE PUSH1 0x20 ADD PUSH0 KECCAK256 PUSH1 0x3 ADD SLOAD PUSH1 0x3 PUSH0 DUP12 DUP2 MSTORE PUSH1 0x20 ADD SWAP1 DUP2 MSTORE PUSH1 0x20 ADD PUSH0 KECCAK256 PUSH1 0x4 ADD PUSH0 SWAP1 SLOAD SWAP1 PUSH2 0x100 EXP SWAP1 DIV PUSH20 0xFFFFFFFFFFFFFFFFFFFFFFFFFFFFFFFFFFFFFFFF AND DUP5 DUP1 SLOAD PUSH2 0xBE2 SWAP1 PUSH2 0x1768 JUMP JUMPDEST DUP1 PUSH1 0x1F ADD PUSH1 0x20 DUP1 SWAP2 DIV MUL PUSH1 0x20 ADD PUSH1 0x40 MLOAD SWAP1 DUP2 ADD PUSH1 0x40 MSTORE DUP1 SWAP3 SWAP2 SWAP1 DUP2 DUP2 MSTORE PUSH1 0x20 ADD DUP3 DUP1 SLOAD PUSH2 0xC0E SWAP1 PUSH2 0x1768 JUMP JUMPDEST DUP1 ISZERO PUSH2 0xC59 JUMPI DUP1 PUSH1 0x1F LT PUSH2 0xC30 JUMPI PUSH2 0x100 DUP1 DUP4 SLOAD DIV MUL DUP4 MSTORE SWAP2 PUSH1 0x20 ADD SWAP2 PUSH2 0xC59 JUMP JUMPDEST DUP3 ADD SWAP2 SWAP1 PUSH0 MSTORE PUSH1 0x20 PUSH0 KECCAK256 SWAP1 JUMPDEST DUP2 SLOAD DUP2 MSTORE SWAP1 PUSH1 0x1 ADD SWAP1 PUSH1 0x20 ADD DUP1 DUP4 GT PUSH2 0xC3C JUMPI DUP3 SWAP1 SUB PUSH1 0x1F AND DUP3 ADD SWAP2 JUMPDEST POP POP POP POP POP SWAP5 POP SWAP5 POP SWAP5 POP SWAP5 POP SWAP5 POP SWAP5 POP SWAP2 SWAP4 SWAP6 SWAP1 SWAP3 SWAP5 POP JUMP JUMPDEST PUSH0 PUSH1 0x3 PUSH0 DUP4 DUP2 MSTORE PUSH1 0x20 ADD SWAP1 DUP2 MSTORE PUSH1 0x20 ADD PUSH0 KECCAK256 PUSH1 0x1 ADD SLOAD SWAP1 POP SWAP2 SWAP1 POP JUMP JUMPDEST PUSH0 PUSH1 0x3 PUSH0 DUP4 DUP2 MSTORE PUSH1 0x20 ADD SWAP1 DUP2 MSTORE PUSH1 0x20 ADD PUSH0 KECCAK256 PUSH1 0x1 ADD SLOAD PUSH1 0x3 PUSH0 DUP5 DUP2 MSTORE PUSH1 0x20 ADD SWAP1 DUP2 MSTORE PUSH1 0x20 ADD PUSH0 KECCAK256 PUSH1 0x2 ADD SLOAD PUSH2 0xCC5 SWAP2 SWAP1 PUSH2 0x1D4E JUMP JUMPDEST SWAP1 POP SWAP2 SWAP1 POP JUMP JUMPDEST PUSH2 0xCD4 PUSH2 0xF74 JUMP JUMPDEST DUP1 MLOAD DUP3 MLOAD EQ PUSH2 0xD18 JUMPI PUSH1 0x40 MLOAD PUSH32 0x8C379A000000000000000000000000000000000000000000000000000000000 DUP2 MSTORE PUSH1 0x4 ADD PUSH2 0xD0F SWAP1 PUSH2 0x1DD9 JUMP JUMPDEST PUSH1 0x40 MLOAD DUP1 SWAP2 SUB SWAP1 REVERT JUMPDEST PUSH2 0xD21 DUP3 PUSH2 0x86E JUMP JUMPDEST PUSH2 0xD60 JUMPI PUSH1 0x40 MLOAD PUSH32 0x8C379A000000000000000000000000000000000000000000000000000000000 DUP2 MSTORE PUSH1 0x4 ADD PUSH2 0xD57 SWAP1 PUSH2 0x180F JUMP JUMPDEST PUSH1 0x40 MLOAD DUP1 SWAP2 SUB SWAP1 REVERT JUMPDEST PUSH0 PUSH0 SWAP1 POP JUMPDEST DUP3 MLOAD DUP2 LT ISZERO PUSH2 0xDD9 JUMPI DUP2 DUP2 DUP2 MLOAD DUP2 LT PUSH2 0xD81 JUMPI PUSH2 0xD80 PUSH2 0x1798 JUMP JUMPDEST JUMPDEST PUSH1 0x20 MUL PUSH1 0x20 ADD ADD MLOAD PUSH1 0x3 PUSH0 DUP6 DUP5 DUP2 MLOAD DUP2 LT PUSH2 0xD9F JUMPI PUSH2 0xD9E PUSH2 0x1798 JUMP JUMPDEST JUMPDEST PUSH1 0x20 MUL PUSH1 0x20 ADD ADD MLOAD DUP2 MSTORE PUSH1 0x20 ADD SWAP1 DUP2 MSTORE PUSH1 0x20 ADD PUSH0 KECCAK256 PUSH1 0x2 ADD PUSH0 DUP3 DUP3 SLOAD PUSH2 0xDC5 SWAP2 SWAP1 PUSH2 0x1DF7 JUMP JUMPDEST SWAP3 POP POP DUP2 SWAP1 SSTORE POP DUP1 DUP1 PUSH1 0x1 ADD SWAP2 POP POP PUSH2 0xD65 JUMP JUMPDEST POP POP POP JUMP JUMPDEST PUSH2 0xDE6 PUSH2 0xF74 JUMP JUMPDEST PUSH0 PUSH20 0xFFFFFFFFFFFFFFFFFFFFFFFFFFFFFFFFFFFFFFFF AND DUP2 PUSH20 0xFFFFFFFFFFFFFFFFFFFFFFFFFFFFFFFFFFFFFFFF AND SUB PUSH2 0xE56 JUMPI PUSH0 PUSH1 0x40 MLOAD PUSH32 0x1E4FBDF700000000000000000000000000000000000000000000000000000000 DUP2 MSTORE PUSH1 0x4 ADD PUSH2 0xE4D SWAP2 SWAP1 PUSH2 0x1629 JUMP JUMPDEST PUSH1 0x40 MLOAD DUP1 SWAP2 SUB SWAP1 REVERT JUMPDEST PUSH2 0xE5F DUP2 PUSH2 0xFFB JUMP JUMPDEST POP JUMP JUMPDEST PUSH2 0xE6A PUSH2 0xF74 JUMP JUMPDEST DUP1 MLOAD DUP3 MLOAD EQ PUSH2 0xEAE JUMPI PUSH1 0x40 MLOAD PUSH32 0x8C379A000000000000000000000000000000000000000000000000000000000 DUP2 MSTORE PUSH1 0x4 ADD PUSH2 0xEA5 SWAP1 PUSH2 0x1DD9 JUMP JUMPDEST PUSH1 0x40 MLOAD DUP1 SWAP2 SUB SWAP1 REVERT JUMPDEST PUSH2 0xEB7 DUP3 PUSH2 0x86E JUMP JUMPDEST PUSH2 0xEF6 JUMPI PUSH1 0x40 MLOAD PUSH32 0x8C379A000000000000000000000000000000000000000000000000000000000 DUP2 MSTORE PUSH1 0x4 ADD PUSH2 0xEED SWAP1 PUSH2 0x180F JUMP JUMPDEST PUSH1 0x40 MLOAD DUP1 SWAP2 SUB SWAP1 REVERT JUMPDEST PUSH0 PUSH0 SWAP1 POP JUMPDEST DUP3 MLOAD DUP2 LT ISZERO PUSH2 0xF6F JUMPI DUP2 DUP2 DUP2 MLOAD DUP2 LT PUSH2 0xF17 JUMPI PUSH2 0xF16 PUSH2 0x1798 JUMP JUMPDEST JUMPDEST PUSH1 0x20 MUL PUSH1 0x20 ADD ADD MLOAD PUSH1 0x3 PUSH0 DUP6 DUP5 DUP2 MLOAD DUP2 LT PUSH2 0xF35 JUMPI PUSH2 0xF34 PUSH2 0x1798 JUMP JUMPDEST JUMPDEST PUSH1 0x20 MUL PUSH1 0x20 ADD ADD MLOAD DUP2 MSTORE PUSH1 0x20 ADD SWAP1 DUP2 MSTORE PUSH1 0x20 ADD PUSH0 KECCAK256 PUSH1 0x2 ADD PUSH0 DUP3 DUP3 SLOAD PUSH2 0xF5B SWAP2 SWAP1 PUSH2 0x1D1B JUMP JUMPDEST SWAP3 POP POP DUP2 SWAP1 SSTORE POP DUP1 DUP1 PUSH1 0x1 ADD SWAP2 POP POP PUSH2 0xEFB JUMP JUMPDEST POP POP POP JUMP JUMPDEST PUSH2 0xF7C PUSH2 0x10BC JUMP JUMPDEST PUSH20 0xFFFFFFFFFFFFFFFFFFFFFFFFFFFFFFFFFFFFFFFF AND PUSH2 0xF9A PUSH2 0xB23 JUMP JUMPDEST PUSH20 0xFFFFFFFFFFFFFFFFFFFFFFFFFFFFFFFFFFFFFFFF AND EQ PUSH2 0xFF9 JUMPI PUSH2 0xFBD PUSH2 0x10BC JUMP JUMPDEST PUSH1 0x40 MLOAD PUSH32 0x118CDAA700000000000000000000000000000000000000000000000000000000 DUP2 MSTORE PUSH1 0x4 ADD PUSH2 0xFF0 SWAP2 SWAP1 PUSH2 0x1629 JUMP JUMPDEST PUSH1 0x40 MLOAD DUP1 SWAP2 SUB SWAP1 REVERT JUMPDEST JUMP JUMPDEST PUSH0 PUSH0 PUSH0 SWAP1 SLOAD SWAP1 PUSH2 0x100 EXP SWAP1 DIV PUSH20 0xFFFFFFFFFFFFFFFFFFFFFFFFFFFFFFFFFFFFFFFF AND SWAP1 POP DUP2 PUSH0 PUSH0 PUSH2 0x100 EXP DUP2 SLOAD DUP2 PUSH20 0xFFFFFFFFFFFFFFFFFFFFFFFFFFFFFFFFFFFFFFFF MUL NOT AND SWAP1 DUP4 PUSH20 0xFFFFFFFFFFFFFFFFFFFFFFFFFFFFFFFFFFFFFFFF AND MUL OR SWAP1 SSTORE POP DUP2 PUSH20 0xFFFFFFFFFFFFFFFFFFFFFFFFFFFFFFFFFFFFFFFF AND DUP2 PUSH20 0xFFFFFFFFFFFFFFFFFFFFFFFFFFFFFFFFFFFFFFFF AND PUSH32 0x8BE0079C531659141344CD1FD0A4F28419497F9722A3DAAFE3B4186F6B6457E0 PUSH1 0x40 MLOAD PUSH1 0x40 MLOAD DUP1 SWAP2 SUB SWAP1 LOG3 POP POP JUMP JUMPDEST PUSH0 CALLER SWAP1 POP SWAP1 JUMP JUMPDEST PUSH0 DUP2 MLOAD SWAP1 POP SWAP2 SWAP1 POP JUMP JUMPDEST PUSH0 DUP3 DUP3 MSTORE PUSH1 0x20 DUP3 ADD SWAP1 POP SWAP3 SWAP2 POP POP JUMP JUMPDEST DUP3 DUP2 DUP4 MCOPY PUSH0 DUP4 DUP4 ADD MSTORE POP POP POP JUMP JUMPDEST PUSH0 PUSH1 0x1F NOT PUSH1 0x1F DUP4 ADD AND SWAP1 POP SWAP2 SWAP1 POP JUMP JUMPDEST PUSH0 PUSH2 0x1105 DUP3 PUSH2 0x10C3 JUMP JUMPDEST PUSH2 0x110F DUP2 DUP6 PUSH2 0x10CD JUMP JUMPDEST SWAP4 POP PUSH2 0x111F DUP2 DUP6 PUSH1 0x20 DUP7 ADD PUSH2 0x10DD JUMP JUMPDEST PUSH2 0x1128 DUP2 PUSH2 0x10EB JUMP JUMPDEST DUP5 ADD SWAP2 POP POP SWAP3 SWAP2 POP POP JUMP JUMPDEST PUSH0 PUSH1 0x20 DUP3 ADD SWAP1 POP DUP2 DUP2 SUB PUSH0 DUP4 ADD MSTORE PUSH2 0x114B DUP2 DUP5 PUSH2 0x10FB JUMP JUMPDEST SWAP1 POP SWAP3 SWAP2 POP POP JUMP JUMPDEST PUSH0 PUSH1 0x40 MLOAD SWAP1 POP SWAP1 JUMP JUMPDEST PUSH0 PUSH0 REVERT JUMPDEST PUSH0 PUSH0 REVERT JUMPDEST PUSH0 DUP2 SWAP1 POP SWAP2 SWAP1 POP JUMP JUMPDEST PUSH2 0x1176 DUP2 PUSH2 0x1164 JUMP JUMPDEST DUP2 EQ PUSH2 0x1180 JUMPI PUSH0 PUSH0 REVERT JUMPDEST POP JUMP JUMPDEST PUSH0 DUP2 CALLDATALOAD SWAP1 POP PUSH2 0x1191 DUP2 PUSH2 0x116D JUMP JUMPDEST SWAP3 SWAP2 POP POP JUMP JUMPDEST PUSH0 PUSH1 0x20 DUP3 DUP5 SUB SLT ISZERO PUSH2 0x11AC JUMPI PUSH2 0x11AB PUSH2 0x115C JUMP JUMPDEST JUMPDEST PUSH0 PUSH2 0x11B9 DUP5 DUP3 DUP6 ADD PUSH2 0x1183 JUMP JUMPDEST SWAP2 POP POP SWAP3 SWAP2 POP POP JUMP JUMPDEST PUSH2 0x11CB DUP2 PUSH2 0x1164 JUMP JUMPDEST DUP3 MSTORE POP POP JUMP JUMPDEST PUSH0 PUSH20 0xFFFFFFFFFFFFFFFFFFFFFFFFFFFFFFFFFFFFFFFF DUP3 AND SWAP1 POP SWAP2 SWAP1 POP JUMP JUMPDEST PUSH0 PUSH2 0x11FA DUP3 PUSH2 0x11D1 JUMP JUMPDEST SWAP1 POP SWAP2 SWAP1 POP JUMP JUMPDEST PUSH2 0x120A DUP2 PUSH2 0x11F0 JUMP JUMPDEST DUP3 MSTORE POP POP JUMP JUMPDEST PUSH0 PUSH1 0xC0 DUP3 ADD SWAP1 POP DUP2 DUP2 SUB PUSH0 DUP4 ADD MSTORE PUSH2 0x1228 DUP2 DUP10 PUSH2 0x10FB JUMP JUMPDEST SWAP1 POP PUSH2 0x1237 PUSH1 0x20 DUP4 ADD DUP9 PUSH2 0x11C2 JUMP JUMPDEST PUSH2 0x1244 PUSH1 0x40 DUP4 ADD DUP8 PUSH2 0x11C2 JUMP JUMPDEST PUSH2 0x1251 PUSH1 0x60 DUP4 ADD DUP7 PUSH2 0x11C2 JUMP JUMPDEST PUSH2 0x125E PUSH1 0x80 DUP4 ADD DUP6 PUSH2 0x1201 JUMP JUMPDEST DUP2 DUP2 SUB PUSH1 0xA0 DUP4 ADD MSTORE PUSH2 0x1270 DUP2 DUP5 PUSH2 0x10FB JUMP JUMPDEST SWAP1 POP SWAP8 SWAP7 POP POP POP POP POP POP POP JUMP JUMPDEST PUSH2 0x1286 DUP2 PUSH2 0x11F0 JUMP JUMPDEST DUP2 EQ PUSH2 0x1290 JUMPI PUSH0 PUSH0 REVERT JUMPDEST POP JUMP JUMPDEST PUSH0 DUP2 CALLDATALOAD SWAP1 POP PUSH2 0x12A1 DUP2 PUSH2 0x127D JUMP JUMPDEST SWAP3 SWAP2 POP POP JUMP JUMPDEST PUSH0 PUSH0 PUSH1 0x40 DUP4 DUP6 SUB SLT ISZERO PUSH2 0x12BD JUMPI PUSH2 0x12BC PUSH2 0x115C JUMP JUMPDEST JUMPDEST PUSH0 PUSH2 0x12CA DUP6 DUP3 DUP7 ADD PUSH2 0x1183 JUMP JUMPDEST SWAP3 POP POP PUSH1 0x20 PUSH2 0x12DB DUP6 DUP3 DUP7 ADD PUSH2 0x1293 JUMP JUMPDEST SWAP2 POP POP SWAP3 POP SWAP3 SWAP1 POP JUMP JUMPDEST PUSH0 PUSH0 REVERT JUMPDEST PUSH32 0x4E487B7100000000000000000000000000000000000000000000000000000000 PUSH0 MSTORE PUSH1 0x41 PUSH1 0x4 MSTORE PUSH1 0x24 PUSH0 REVERT JUMPDEST PUSH2 0x131F DUP3 PUSH2 0x10EB JUMP JUMPDEST DUP2 ADD DUP2 DUP2 LT PUSH8 0xFFFFFFFFFFFFFFFF DUP3 GT OR ISZERO PUSH2 0x133E JUMPI PUSH2 0x133D PUSH2 0x12E9 JUMP JUMPDEST JUMPDEST DUP1 PUSH1 0x40 MSTORE POP POP POP JUMP JUMPDEST PUSH0 PUSH2 0x1350 PUSH2 0x1153 JUMP JUMPDEST SWAP1 POP PUSH2 0x135C DUP3 DUP3 PUSH2 0x1316 JUMP JUMPDEST SWAP2 SWAP1 POP JUMP JUMPDEST PUSH0 PUSH8 0xFFFFFFFFFFFFFFFF DUP3 GT ISZERO PUSH2 0x137B JUMPI PUSH2 0x137A PUSH2 0x12E9 JUMP JUMPDEST JUMPDEST PUSH1 0x20 DUP3 MUL SWAP1 POP PUSH1 0x20 DUP2 ADD SWAP1 POP SWAP2 SWAP1 POP JUMP JUMPDEST PUSH0 PUSH0 REVERT JUMPDEST PUSH0 PUSH2 0x13A2 PUSH2 0x139D DUP5 PUSH2 0x1361 JUMP JUMPDEST PUSH2 0x1347 JUMP JUMPDEST SWAP1 POP DUP1 DUP4 DUP3 MSTORE PUSH1 0x20 DUP3 ADD SWAP1 POP PUSH1 0x20 DUP5 MUL DUP4 ADD DUP6 DUP2 GT ISZERO PUSH2 0x13C5 JUMPI PUSH2 0x13C4 PUSH2 0x138C JUMP JUMPDEST JUMPDEST DUP4 JUMPDEST DUP2 DUP2 LT ISZERO PUSH2 0x13EE JUMPI DUP1 PUSH2 0x13DA DUP9 DUP3 PUSH2 0x1183 JUMP JUMPDEST DUP5 MSTORE PUSH1 0x20 DUP5 ADD SWAP4 POP POP PUSH1 0x20 DUP2 ADD SWAP1 POP PUSH2 0x13C7 JUMP JUMPDEST POP POP POP SWAP4 SWAP3 POP POP POP JUMP JUMPDEST PUSH0 DUP3 PUSH1 0x1F DUP4 ADD SLT PUSH2 0x140C JUMPI PUSH2 0x140B PUSH2 0x12E5 JUMP JUMPDEST JUMPDEST DUP2 CALLDATALOAD PUSH2 0x141C DUP5 DUP3 PUSH1 0x20 DUP7 ADD PUSH2 0x1390 JUMP JUMPDEST SWAP2 POP POP SWAP3 SWAP2 POP POP JUMP JUMPDEST PUSH0 PUSH1 0x20 DUP3 DUP5 SUB SLT ISZERO PUSH2 0x143A JUMPI PUSH2 0x1439 PUSH2 0x115C JUMP JUMPDEST JUMPDEST PUSH0 DUP3 ADD CALLDATALOAD PUSH8 0xFFFFFFFFFFFFFFFF DUP2 GT ISZERO PUSH2 0x1457 JUMPI PUSH2 0x1456 PUSH2 0x1160 JUMP JUMPDEST JUMPDEST PUSH2 0x1463 DUP5 DUP3 DUP6 ADD PUSH2 0x13F8 JUMP JUMPDEST SWAP2 POP POP SWAP3 SWAP2 POP POP JUMP JUMPDEST PUSH0 DUP2 ISZERO ISZERO SWAP1 POP SWAP2 SWAP1 POP JUMP JUMPDEST PUSH2 0x1480 DUP2 PUSH2 0x146C JUMP JUMPDEST DUP3 MSTORE POP POP JUMP JUMPDEST PUSH0 PUSH1 0x20 DUP3 ADD SWAP1 POP PUSH2 0x1499 PUSH0 DUP4 ADD DUP5 PUSH2 0x1477 JUMP JUMPDEST SWAP3 SWAP2 POP POP JUMP JUMPDEST PUSH0 PUSH1 0x20 DUP3 ADD SWAP1 POP PUSH2 0x14B2 PUSH0 DUP4 ADD DUP5 PUSH2 0x11C2 JUMP JUMPDEST SWAP3 SWAP2 POP POP JUMP JUMPDEST PUSH0 PUSH0 REVERT JUMPDEST PUSH0 PUSH8 0xFFFFFFFFFFFFFFFF DUP3 GT ISZERO PUSH2 0x14D6 JUMPI PUSH2 0x14D5 PUSH2 0x12E9 JUMP JUMPDEST JUMPDEST PUSH2 0x14DF DUP3 PUSH2 0x10EB JUMP JUMPDEST SWAP1 POP PUSH1 0x20 DUP2 ADD SWAP1 POP SWAP2 SWAP1 POP JUMP JUMPDEST DUP3 DUP2 DUP4 CALLDATACOPY PUSH0 DUP4 DUP4 ADD MSTORE POP POP POP JUMP JUMPDEST PUSH0 PUSH2 0x150C PUSH2 0x1507 DUP5 PUSH2 0x14BC JUMP JUMPDEST PUSH2 0x1347 JUMP JUMPDEST SWAP1 POP DUP3 DUP2 MSTORE PUSH1 0x20 DUP2 ADD DUP5 DUP5 DUP5 ADD GT ISZERO PUSH2 0x1528 JUMPI PUSH2 0x1527 PUSH2 0x14B8 JUMP JUMPDEST JUMPDEST PUSH2 0x1533 DUP5 DUP3 DUP6 PUSH2 0x14EC JUMP JUMPDEST POP SWAP4 SWAP3 POP POP POP JUMP JUMPDEST PUSH0 DUP3 PUSH1 0x1F DUP4 ADD SLT PUSH2 0x154F JUMPI PUSH2 0x154E PUSH2 0x12E5 JUMP JUMPDEST JUMPDEST DUP2 CALLDATALOAD PUSH2 0x155F DUP5 DUP3 PUSH1 0x20 DUP7 ADD PUSH2 0x14FA JUMP JUMPDEST SWAP2 POP POP SWAP3 SWAP2 POP POP JUMP JUMPDEST PUSH0 PUSH0 PUSH0 PUSH0 PUSH0 PUSH0 PUSH1 0xC0 DUP8 DUP10 SUB SLT ISZERO PUSH2 0x1582 JUMPI PUSH2 0x1581 PUSH2 0x115C JUMP JUMPDEST JUMPDEST PUSH0 DUP8 ADD CALLDATALOAD PUSH8 0xFFFFFFFFFFFFFFFF DUP2 GT ISZERO PUSH2 0x159F JUMPI PUSH2 0x159E PUSH2 0x1160 JUMP JUMPDEST JUMPDEST PUSH2 0x15AB DUP10 DUP3 DUP11 ADD PUSH2 0x153B JUMP JUMPDEST SWAP7 POP POP PUSH1 0x20 PUSH2 0x15BC DUP10 DUP3 DUP11 ADD PUSH2 0x1183 JUMP JUMPDEST SWAP6 POP POP PUSH1 0x40 PUSH2 0x15CD DUP10 DUP3 DUP11 ADD PUSH2 0x1183 JUMP JUMPDEST SWAP5 POP POP PUSH1 0x60 PUSH2 0x15DE DUP10 DUP3 DUP11 ADD PUSH2 0x1293 JUMP JUMPDEST SWAP4 POP POP PUSH1 0x80 DUP8 ADD CALLDATALOAD PUSH8 0xFFFFFFFFFFFFFFFF DUP2 GT ISZERO PUSH2 0x15FF JUMPI PUSH2 0x15FE PUSH2 0x1160 JUMP JUMPDEST JUMPDEST PUSH2 0x160B DUP10 DUP3 DUP11 ADD PUSH2 0x153B JUMP JUMPDEST SWAP3 POP POP PUSH1 0xA0 PUSH2 0x161C DUP10 DUP3 DUP11 ADD PUSH2 0x1183 JUMP JUMPDEST SWAP2 POP POP SWAP3 SWAP6 POP SWAP3 SWAP6 POP SWAP3 SWAP6 JUMP JUMPDEST PUSH0 PUSH1 0x20 DUP3 ADD SWAP1 POP PUSH2 0x163C PUSH0 DUP4 ADD DUP5 PUSH2 0x1201 JUMP JUMPDEST SWAP3 SWAP2 POP POP JUMP JUMPDEST PUSH0 PUSH1 0xA0 DUP3 ADD SWAP1 POP DUP2 DUP2 SUB PUSH0 DUP4 ADD MSTORE PUSH2 0x165A DUP2 DUP9 PUSH2 0x10FB JUMP JUMPDEST SWAP1 POP PUSH2 0x1669 PUSH1 0x20 DUP4 ADD DUP8 PUSH2 0x11C2 JUMP JUMPDEST PUSH2 0x1676 PUSH1 0x40 DUP4 ADD DUP7 PUSH2 0x11C2 JUMP JUMPDEST PUSH2 0x1683 PUSH1 0x60 DUP4 ADD DUP6 PUSH2 0x11C2 JUMP JUMPDEST PUSH2 0x1690 PUSH1 0x80 DUP4 ADD DUP5 PUSH2 0x1201 JUMP JUMPDEST SWAP7 SWAP6 POP POP POP POP POP POP JUMP JUMPDEST PUSH0 PUSH0 PUSH1 0x40 DUP4 DUP6 SUB SLT ISZERO PUSH2 0x16B0 JUMPI PUSH2 0x16AF PUSH2 0x115C JUMP JUMPDEST JUMPDEST PUSH0 DUP4 ADD CALLDATALOAD PUSH8 0xFFFFFFFFFFFFFFFF DUP2 GT ISZERO PUSH2 0x16CD JUMPI PUSH2 0x16CC PUSH2 0x1160 JUMP JUMPDEST JUMPDEST PUSH2 0x16D9 DUP6 DUP3 DUP7 ADD PUSH2 0x13F8 JUMP JUMPDEST SWAP3 POP POP PUSH1 0x20 DUP4 ADD CALLDATALOAD PUSH8 0xFFFFFFFFFFFFFFFF DUP2 GT ISZERO PUSH2 0x16FA JUMPI PUSH2 0x16F9 PUSH2 0x1160 JUMP JUMPDEST JUMPDEST PUSH2 0x1706 DUP6 DUP3 DUP7 ADD PUSH2 0x13F8 JUMP JUMPDEST SWAP2 POP POP SWAP3 POP SWAP3 SWAP1 POP JUMP JUMPDEST PUSH0 PUSH1 0x20 DUP3 DUP5 SUB SLT ISZERO PUSH2 0x1725 JUMPI PUSH2 0x1724 PUSH2 0x115C JUMP JUMPDEST JUMPDEST PUSH0 PUSH2 0x1732 DUP5 DUP3 DUP6 ADD PUSH2 0x1293 JUMP JUMPDEST SWAP2 POP POP SWAP3 SWAP2 POP POP JUMP JUMPDEST PUSH32 0x4E487B7100000000000000000000000000000000000000000000000000000000 PUSH0 MSTORE PUSH1 0x22 PUSH1 0x4 MSTORE PUSH1 0x24 PUSH0 REVERT JUMPDEST PUSH0 PUSH1 0x2 DUP3 DIV SWAP1 POP PUSH1 0x1 DUP3 AND DUP1 PUSH2 0x177F JUMPI PUSH1 0x7F DUP3 AND SWAP2 POP JUMPDEST PUSH1 0x20 DUP3 LT DUP2 SUB PUSH2 0x1792 JUMPI PUSH2 0x1791 PUSH2 0x173B JUMP JUMPDEST JUMPDEST POP SWAP2 SWAP1 POP JUMP JUMPDEST PUSH32 0x4E487B7100000000000000000000000000000000000000000000000000000000 PUSH0 MSTORE PUSH1 0x32 PUSH1 0x4 MSTORE PUSH1 0x24 PUSH0 REVERT JUMPDEST PUSH32 0x50424D3A20496E76616C696420746F6B656E0000000000000000000000000000 PUSH0 DUP3 ADD MSTORE POP JUMP JUMPDEST PUSH0 PUSH2 0x17F9 PUSH1 0x12 DUP4 PUSH2 0x10CD JUMP JUMPDEST SWAP2 POP PUSH2 0x1804 DUP3 PUSH2 0x17C5 JUMP JUMPDEST PUSH1 0x20 DUP3 ADD SWAP1 POP SWAP2 SWAP1 POP JUMP JUMPDEST PUSH0 PUSH1 0x20 DUP3 ADD SWAP1 POP DUP2 DUP2 SUB PUSH0 DUP4 ADD MSTORE PUSH2 0x1826 DUP2 PUSH2 0x17ED JUMP JUMPDEST SWAP1 POP SWAP2 SWAP1 POP JUMP JUMPDEST PUSH32 0x50424D3A20546F6B656E206E6F74206578706972656400000000000000000000 PUSH0 DUP3 ADD MSTORE POP JUMP JUMPDEST PUSH0 PUSH2 0x1861 PUSH1 0x16 DUP4 PUSH2 0x10CD JUMP JUMPDEST SWAP2 POP PUSH2 0x186C DUP3 PUSH2 0x182D JUMP JUMPDEST PUSH1 0x20 DUP3 ADD SWAP1 POP SWAP2 SWAP1 POP JUMP JUMPDEST PUSH0 PUSH1 0x20 DUP3 ADD SWAP1 POP DUP2 DUP2 SUB PUSH0 DUP4 ADD MSTORE PUSH2 0x188E DUP2 PUSH2 0x1855 JUMP JUMPDEST SWAP1 POP SWAP2 SWAP1 POP JUMP JUMPDEST PUSH32 0x50424D3A204E6F742063726561746F7200000000000000000000000000000000 PUSH0 DUP3 ADD MSTORE POP JUMP JUMPDEST PUSH0 PUSH2 0x18C9 PUSH1 0x10 DUP4 PUSH2 0x10CD JUMP JUMPDEST SWAP2 POP PUSH2 0x18D4 DUP3 PUSH2 0x1895 JUMP JUMPDEST PUSH1 0x20 DUP3 ADD SWAP1 POP SWAP2 SWAP1 POP JUMP JUMPDEST PUSH0 PUSH1 0x20 DUP3 ADD SWAP1 POP DUP2 DUP2 SUB PUSH0 DUP4 ADD MSTORE PUSH2 0x18F6 DUP2 PUSH2 0x18BD JUMP JUMPDEST SWAP1 POP SWAP2 SWAP1 POP JUMP JUMPDEST PUSH32 0x496E76616C696420746F6B656E206578706972792D3100000000000000000000 PUSH0 DUP3 ADD MSTORE POP JUMP JUMPDEST PUSH0 PUSH2 0x1931 PUSH1 0x16 DUP4 PUSH2 0x10CD JUMP JUMPDEST SWAP2 POP PUSH2 0x193C DUP3 PUSH2 0x18FD JUMP JUMPDEST PUSH1 0x20 DUP3 ADD SWAP1 POP SWAP2 SWAP1 POP JUMP JUMPDEST PUSH0 PUSH1 0x20 DUP3 ADD SWAP1 POP DUP2 DUP2 SUB PUSH0 DUP4 ADD MSTORE PUSH2 0x195E DUP2 PUSH2 0x1925 JUMP JUMPDEST SWAP1 POP SWAP2 SWAP1 POP JUMP JUMPDEST PUSH32 0x496E76616C696420746F6B656E206578706972792D3200000000000000000000 PUSH0 DUP3 ADD MSTORE POP JUMP JUMPDEST PUSH0 PUSH2 0x1999 PUSH1 0x16 DUP4 PUSH2 0x10CD JUMP JUMPDEST SWAP2 POP PUSH2 0x19A4 DUP3 PUSH2 0x1965 JUMP JUMPDEST PUSH1 0x20 DUP3 ADD SWAP1 POP SWAP2 SWAP1 POP JUMP JUMPDEST PUSH0 PUSH1 0x20 DUP3 ADD SWAP1 POP DUP2 DUP2 SUB PUSH0 DUP4 ADD MSTORE PUSH2 0x19C6 DUP2 PUSH2 0x198D JUMP JUMPDEST SWAP1 POP SWAP2 SWAP1 POP JUMP JUMPDEST PUSH32 0x53706F7420616D6F756E74206973203000000000000000000000000000000000 PUSH0 DUP3 ADD MSTORE POP JUMP JUMPDEST PUSH0 PUSH2 0x1A01 PUSH1 0x10 DUP4 PUSH2 0x10CD JUMP JUMPDEST SWAP2 POP PUSH2 0x1A0C DUP3 PUSH2 0x19CD JUMP JUMPDEST PUSH1 0x20 DUP3 ADD SWAP1 POP SWAP2 SWAP1 POP JUMP JUMPDEST PUSH0 PUSH1 0x20 DUP3 ADD SWAP1 POP DUP2 DUP2 SUB PUSH0 DUP4 ADD MSTORE PUSH2 0x1A2E DUP2 PUSH2 0x19F5 JUMP JUMPDEST SWAP1 POP SWAP2 SWAP1 POP JUMP JUMPDEST PUSH0 DUP2 SWAP1 POP DUP2 PUSH0 MSTORE PUSH1 0x20 PUSH0 KECCAK256 SWAP1 POP SWAP2 SWAP1 POP JUMP JUMPDEST PUSH0 PUSH1 0x20 PUSH1 0x1F DUP4 ADD DIV SWAP1 POP SWAP2 SWAP1 POP JUMP JUMPDEST PUSH0 DUP3 DUP3 SHL SWAP1 POP SWAP3 SWAP2 POP POP JUMP JUMPDEST PUSH0 PUSH1 0x8 DUP4 MUL PUSH2 0x1A91 PUSH32 0xFFFFFFFFFFFFFFFFFFFFFFFFFFFFFFFFFFFFFFFFFFFFFFFFFFFFFFFFFFFFFFFF DUP3 PUSH2 0x1A56 JUMP JUMPDEST PUSH2 0x1A9B DUP7 DUP4 PUSH2 0x1A56 JUMP JUMPDEST SWAP6 POP DUP1 NOT DUP5 AND SWAP4 POP DUP1 DUP7 AND DUP5 OR SWAP3 POP POP POP SWAP4 SWAP3 POP POP POP JUMP JUMPDEST PUSH0 DUP2 SWAP1 POP SWAP2 SWAP1 POP JUMP JUMPDEST PUSH0 PUSH2 0x1AD6 PUSH2 0x1AD1 PUSH2 0x1ACC DUP5 PUSH2 0x1164 JUMP JUMPDEST PUSH2 0x1AB3 JUMP JUMPDEST PUSH2 0x1164 JUMP JUMPDEST SWAP1 POP SWAP2 SWAP1 POP JUMP JUMPDEST PUSH0 DUP2 SWAP1 POP SWAP2 SWAP1 POP JUMP JUMPDEST PUSH2 0x1AEF DUP4 PUSH2 0x1ABC JUMP JUMPDEST PUSH2 0x1B03 PUSH2 0x1AFB DUP3 PUSH2 0x1ADD JUMP JUMPDEST DUP5 DUP5 SLOAD PUSH2 0x1A62 JUMP JUMPDEST DUP3 SSTORE POP POP POP POP JUMP JUMPDEST PUSH0 PUSH0 SWAP1 POP SWAP1 JUMP JUMPDEST PUSH2 0x1B1A PUSH2 0x1B0B JUMP JUMPDEST PUSH2 0x1B25 DUP2 DUP5 DUP5 PUSH2 0x1AE6 JUMP JUMPDEST POP POP POP JUMP JUMPDEST JUMPDEST DUP2 DUP2 LT ISZERO PUSH2 0x1B48 JUMPI PUSH2 0x1B3D PUSH0 DUP3 PUSH2 0x1B12 JUMP JUMPDEST PUSH1 0x1 DUP2 ADD SWAP1 POP PUSH2 0x1B2B JUMP JUMPDEST POP POP JUMP JUMPDEST PUSH1 0x1F DUP3 GT ISZERO PUSH2 0x1B8D JUMPI PUSH2 0x1B5E DUP2 PUSH2 0x1A35 JUMP JUMPDEST PUSH2 0x1B67 DUP5 PUSH2 0x1A47 JUMP JUMPDEST DUP2 ADD PUSH1 0x20 DUP6 LT ISZERO PUSH2 0x1B76 JUMPI DUP2 SWAP1 POP JUMPDEST PUSH2 0x1B8A PUSH2 0x1B82 DUP6 PUSH2 0x1A47 JUMP JUMPDEST DUP4 ADD DUP3 PUSH2 0x1B2A JUMP JUMPDEST POP POP JUMPDEST POP POP POP JUMP JUMPDEST PUSH0 DUP3 DUP3 SHR SWAP1 POP SWAP3 SWAP2 POP POP JUMP JUMPDEST PUSH0 PUSH2 0x1BAD PUSH0 NOT DUP5 PUSH1 0x8 MUL PUSH2 0x1B92 JUMP JUMPDEST NOT DUP1 DUP4 AND SWAP2 POP POP SWAP3 SWAP2 POP POP JUMP JUMPDEST PUSH0 PUSH2 0x1BC5 DUP4 DUP4 PUSH2 0x1B9E JUMP JUMPDEST SWAP2 POP DUP3 PUSH1 0x2 MUL DUP3 OR SWAP1 POP SWAP3 SWAP2 POP POP JUMP JUMPDEST PUSH2 0x1BDE DUP3 PUSH2 0x10C3 JUMP JUMPDEST PUSH8 0xFFFFFFFFFFFFFFFF DUP2 GT ISZERO PUSH2 0x1BF7 JUMPI PUSH2 0x1BF6 PUSH2 0x12E9 JUMP JUMPDEST JUMPDEST PUSH2 0x1C01 DUP3 SLOAD PUSH2 0x1768 JUMP JUMPDEST PUSH2 0x1C0C DUP3 DUP3 DUP6 PUSH2 0x1B4C JUMP JUMPDEST PUSH0 PUSH1 0x20 SWAP1 POP PUSH1 0x1F DUP4 GT PUSH1 0x1 DUP2 EQ PUSH2 0x1C3D JUMPI PUSH0 DUP5 ISZERO PUSH2 0x1C2B JUMPI DUP3 DUP8 ADD MLOAD SWAP1 POP JUMPDEST PUSH2 0x1C35 DUP6 DUP3 PUSH2 0x1BBA JUMP JUMPDEST DUP7 SSTORE POP PUSH2 0x1C9C JUMP JUMPDEST PUSH1 0x1F NOT DUP5 AND PUSH2 0x1C4B DUP7 PUSH2 0x1A35 JUMP JUMPDEST PUSH0 JUMPDEST DUP3 DUP2 LT ISZERO PUSH2 0x1C72 JUMPI DUP5 DUP10 ADD MLOAD DUP3 SSTORE PUSH1 0x1 DUP3 ADD SWAP2 POP PUSH1 0x20 DUP6 ADD SWAP5 POP PUSH1 0x20 DUP2 ADD SWAP1 POP PUSH2 0x1C4D JUMP JUMPDEST DUP7 DUP4 LT ISZERO PUSH2 0x1C8F JUMPI DUP5 DUP10 ADD MLOAD PUSH2 0x1C8B PUSH1 0x1F DUP10 AND DUP3 PUSH2 0x1B9E JUMP JUMPDEST DUP4 SSTORE POP JUMPDEST PUSH1 0x1 PUSH1 0x2 DUP9 MUL ADD DUP9 SSTORE POP POP POP JUMPDEST POP POP POP POP POP POP JUMP JUMPDEST PUSH0 PUSH1 0x80 DUP3 ADD SWAP1 POP DUP2 DUP2 SUB PUSH0 DUP4 ADD MSTORE PUSH2 0x1CBC DUP2 DUP8 PUSH2 0x10FB JUMP JUMPDEST SWAP1 POP PUSH2 0x1CCB PUSH1 0x20 DUP4 ADD DUP7 PUSH2 0x11C2 JUMP JUMPDEST PUSH2 0x1CD8 PUSH1 0x40 DUP4 ADD DUP6 PUSH2 0x11C2 JUMP JUMPDEST PUSH2 0x1CE5 PUSH1 0x60 DUP4 ADD DUP5 PUSH2 0x1201 JUMP JUMPDEST SWAP6 SWAP5 POP POP POP POP POP JUMP JUMPDEST PUSH32 0x4E487B7100000000000000000000000000000000000000000000000000000000 PUSH0 MSTORE PUSH1 0x11 PUSH1 0x4 MSTORE PUSH1 0x24 PUSH0 REVERT JUMPDEST PUSH0 PUSH2 0x1D25 DUP3 PUSH2 0x1164 JUMP JUMPDEST SWAP2 POP PUSH2 0x1D30 DUP4 PUSH2 0x1164 JUMP JUMPDEST SWAP3 POP DUP3 DUP3 ADD SWAP1 POP DUP1 DUP3 GT ISZERO PUSH2 0x1D48 JUMPI PUSH2 0x1D47 PUSH2 0x1CEE JUMP JUMPDEST JUMPDEST SWAP3 SWAP2 POP POP JUMP JUMPDEST PUSH0 PUSH2 0x1D58 DUP3 PUSH2 0x1164 JUMP JUMPDEST SWAP2 POP PUSH2 0x1D63 DUP4 PUSH2 0x1164 JUMP JUMPDEST SWAP3 POP DUP3 DUP3 MUL PUSH2 0x1D71 DUP2 PUSH2 0x1164 JUMP JUMPDEST SWAP2 POP DUP3 DUP3 DIV DUP5 EQ DUP4 ISZERO OR PUSH2 0x1D88 JUMPI PUSH2 0x1D87 PUSH2 0x1CEE JUMP JUMPDEST JUMPDEST POP SWAP3 SWAP2 POP POP JUMP JUMPDEST PUSH32 0x4172726179206C656E677468206D69736D617463680000000000000000000000 PUSH0 DUP3 ADD MSTORE POP JUMP JUMPDEST PUSH0 PUSH2 0x1DC3 PUSH1 0x15 DUP4 PUSH2 0x10CD JUMP JUMPDEST SWAP2 POP PUSH2 0x1DCE DUP3 PUSH2 0x1D8F JUMP JUMPDEST PUSH1 0x20 DUP3 ADD SWAP1 POP SWAP2 SWAP1 POP JUMP JUMPDEST PUSH0 PUSH1 0x20 DUP3 ADD SWAP1 POP DUP2 DUP2 SUB PUSH0 DUP4 ADD MSTORE PUSH2 0x1DF0 DUP2 PUSH2 0x1DB7 JUMP JUMPDEST SWAP1 POP SWAP2 SWAP1 POP JUMP JUMPDEST PUSH0 PUSH2 0x1E01 DUP3 PUSH2 0x1164 JUMP JUMPDEST SWAP2 POP PUSH2 0x1E0C DUP4 PUSH2 0x1164 JUMP JUMPDEST SWAP3 POP DUP3 DUP3 SUB SWAP1 POP DUP2 DUP2 GT ISZERO PUSH2 0x1E24 JUMPI PUSH2 0x1E23 PUSH2 0x1CEE JUMP JUMPDEST JUMPDEST SWAP3 SWAP2 POP POP JUMP INVALID LOG2 PUSH5 0x6970667358 0x22 SLT KECCAK256 DUP10 RETURN 0xA7 BALANCE DUP11 0xD3 PUSH13 0x7E98009CBF11D025DDBD596B22 CALLDATASIZE PUSH5 0x8ADFAC3AE7 DUP12 0x25 0xF6 PUSH1 0x2D PUSH5 0x736F6C6343 STOP ADDMOD 0x1E STOP CALLER "
				},
				"gasEstimates": {
					"creation": {
						"codeDepositCost": "1555200",
						"executionCost": "infinite",
						"totalCost": "infinite"
					},
					"external": {
						"URIPostExpiry()": "infinite",
						"areTokensValid(uint256[])": "infinite",
						"createTokenType(string,uint256,uint256,address,string,uint256)": "infinite",
						"decreaseBalanceSupply(uint256[],uint256[])": "infinite",
						"getPBMRevokeValue(uint256)": "infinite",
						"getTokenDetails(uint256)": "infinite",
						"getTokenValue(uint256)": "infinite",
						"increaseBalanceSupply(uint256[],uint256[])": "infinite",
						"owner()": "2559",
						"renounceOwnership()": "infinite",
						"revokePBM(uint256,address)": "infinite",
						"tokenTypeCount()": "2492",
						"tokenTypes(uint256)": "infinite",
						"transferOwnership(address)": "infinite",
						"uri(uint256)": "infinite"
					}
				},
				"methodIdentifiers": {
					"URIPostExpiry()": "03b5a3d3",
					"areTokensValid(uint256[])": "48fd09f5",
					"createTokenType(string,uint256,uint256,address,string,uint256)": "80d69c8a",
					"decreaseBalanceSupply(uint256[],uint256[])": "e21c8b59",
					"getPBMRevokeValue(uint256)": "d20874d8",
					"getTokenDetails(uint256)": "c1e03728",
					"getTokenValue(uint256)": "d10424c7",
					"increaseBalanceSupply(uint256[],uint256[])": "f600d9f4",
					"owner()": "8da5cb5b",
					"renounceOwnership()": "715018a6",
					"revokePBM(uint256,address)": "36a3409c",
					"tokenTypeCount()": "71185897",
					"tokenTypes(uint256)": "33f6832a",
					"transferOwnership(address)": "f2fde38b",
					"uri(uint256)": "0e89341c"
				}
			},
			"storageLayout": {
				"storage": [
					{
						"astId": 8,
						"contract": "contracts/PBMTokenManager.sol:PBMTokenManager",
						"label": "_owner",
						"offset": 0,
						"slot": "0",
						"type": "t_address"
					},
					{
						"astId": 299,
						"contract": "contracts/PBMTokenManager.sol:PBMTokenManager",
						"label": "tokenTypeCount",
						"offset": 0,
						"slot": "1",
						"type": "t_uint256"
					},
					{
						"astId": 301,
						"contract": "contracts/PBMTokenManager.sol:PBMTokenManager",
						"label": "URIPostExpiry",
						"offset": 0,
						"slot": "2",
						"type": "t_string_storage"
					},
					{
						"astId": 306,
						"contract": "contracts/PBMTokenManager.sol:PBMTokenManager",
						"label": "tokenTypes",
						"offset": 0,
						"slot": "3",
						"type": "t_mapping(t_uint256,t_struct(TokenConfig)192_storage)"
					}
				],
				"types": {
					"t_address": {
						"encoding": "inplace",
						"label": "address",
						"numberOfBytes": "20"
					},
					"t_mapping(t_uint256,t_struct(TokenConfig)192_storage)": {
						"encoding": "mapping",
						"key": "t_uint256",
						"label": "mapping(uint256 => struct IPBMTokenManager.TokenConfig)",
						"numberOfBytes": "32",
						"value": "t_struct(TokenConfig)192_storage"
					},
					"t_string_storage": {
						"encoding": "bytes",
						"label": "string",
						"numberOfBytes": "32"
					},
					"t_struct(TokenConfig)192_storage": {
						"encoding": "inplace",
						"label": "struct IPBMTokenManager.TokenConfig",
						"members": [
							{
								"astId": 181,
								"contract": "contracts/PBMTokenManager.sol:PBMTokenManager",
								"label": "name",
								"offset": 0,
								"slot": "0",
								"type": "t_string_storage"
							},
							{
								"astId": 183,
								"contract": "contracts/PBMTokenManager.sol:PBMTokenManager",
								"label": "amount",
								"offset": 0,
								"slot": "1",
								"type": "t_uint256"
							},
							{
								"astId": 185,
								"contract": "contracts/PBMTokenManager.sol:PBMTokenManager",
								"label": "balanceSupply",
								"offset": 0,
								"slot": "2",
								"type": "t_uint256"
							},
							{
								"astId": 187,
								"contract": "contracts/PBMTokenManager.sol:PBMTokenManager",
								"label": "expiry",
								"offset": 0,
								"slot": "3",
								"type": "t_uint256"
							},
							{
								"astId": 189,
								"contract": "contracts/PBMTokenManager.sol:PBMTokenManager",
								"label": "creator",
								"offset": 0,
								"slot": "4",
								"type": "t_address"
							},
							{
								"astId": 191,
								"contract": "contracts/PBMTokenManager.sol:PBMTokenManager",
								"label": "uri",
								"offset": 0,
								"slot": "5",
								"type": "t_string_storage"
							}
						],
						"numberOfBytes": "192"
					},
					"t_uint256": {
						"encoding": "inplace",
						"label": "uint256",
						"numberOfBytes": "32"
					}
				}
			},
			"userdoc": {
				"kind": "user",
				"methods": {},
				"version": 1
			}
		}
	}
}